{
	"contracts/zombiehelper.sol": {
		"ZombieHelper": {
			"abi": [
				{
					"anonymous": false,
					"inputs": [
						{
							"indexed": false,
							"internalType": "uint256",
							"name": "zombieId",
							"type": "uint256"
						},
						{
							"indexed": false,
							"internalType": "string",
							"name": "name",
							"type": "string"
						},
						{
							"indexed": false,
							"internalType": "uint256",
							"name": "dna",
							"type": "uint256"
						}
					],
					"name": "NewZombie",
					"type": "event"
				},
				{
					"anonymous": false,
					"inputs": [
						{
							"indexed": true,
							"internalType": "address",
							"name": "previousOwner",
							"type": "address"
						},
						{
							"indexed": true,
							"internalType": "address",
							"name": "newOwner",
							"type": "address"
						}
					],
					"name": "OwnershipTransferred",
					"type": "event"
				},
				{
					"constant": false,
					"inputs": [
						{
							"internalType": "uint256",
							"name": "_zombieId",
							"type": "uint256"
						},
						{
							"internalType": "uint256",
							"name": "_newDna",
							"type": "uint256"
						}
					],
					"name": "changeDna",
					"outputs": [],
					"payable": false,
					"stateMutability": "nonpayable",
					"type": "function"
				},
				{
					"constant": false,
					"inputs": [
						{
							"internalType": "uint256",
							"name": "_zombieId",
							"type": "uint256"
						},
						{
							"internalType": "string",
							"name": "_newName",
							"type": "string"
						}
					],
					"name": "changeName",
					"outputs": [],
					"payable": false,
					"stateMutability": "nonpayable",
					"type": "function"
				},
				{
					"constant": false,
					"inputs": [
						{
							"internalType": "string",
							"name": "_name",
							"type": "string"
						}
					],
					"name": "createRandomZombie",
					"outputs": [],
					"payable": false,
					"stateMutability": "nonpayable",
					"type": "function"
				},
				{
					"constant": false,
					"inputs": [
						{
							"internalType": "uint256",
							"name": "_zombieId",
							"type": "uint256"
						},
						{
							"internalType": "uint256",
							"name": "_kittyId",
							"type": "uint256"
						}
					],
					"name": "feedOnKitty",
					"outputs": [],
					"payable": false,
					"stateMutability": "nonpayable",
					"type": "function"
				},
				{
					"constant": true,
					"inputs": [
						{
							"internalType": "address",
							"name": "_owner",
							"type": "address"
						}
					],
					"name": "getZombiesByOwner",
					"outputs": [
						{
							"internalType": "uint256[]",
							"name": "",
							"type": "uint256[]"
						}
					],
					"payable": false,
					"stateMutability": "view",
					"type": "function"
				},
				{
					"constant": true,
					"inputs": [],
					"name": "isOwner",
					"outputs": [
						{
							"internalType": "bool",
							"name": "",
							"type": "bool"
						}
					],
					"payable": false,
					"stateMutability": "view",
					"type": "function"
				},
				{
					"constant": true,
					"inputs": [],
					"name": "owner",
					"outputs": [
						{
							"internalType": "address",
							"name": "",
							"type": "address"
						}
					],
					"payable": false,
					"stateMutability": "view",
					"type": "function"
				},
				{
					"constant": false,
					"inputs": [],
					"name": "renounceOwnership",
					"outputs": [],
					"payable": false,
					"stateMutability": "nonpayable",
					"type": "function"
				},
				{
					"constant": false,
					"inputs": [
						{
							"internalType": "address",
							"name": "_address",
							"type": "address"
						}
					],
					"name": "setKittyContractAddress",
					"outputs": [],
					"payable": false,
					"stateMutability": "nonpayable",
					"type": "function"
				},
				{
					"constant": false,
					"inputs": [
						{
							"internalType": "address",
							"name": "newOwner",
							"type": "address"
						}
					],
					"name": "transferOwnership",
					"outputs": [],
					"payable": false,
					"stateMutability": "nonpayable",
					"type": "function"
				},
				{
					"constant": true,
					"inputs": [
						{
							"internalType": "uint256",
							"name": "",
							"type": "uint256"
						}
					],
					"name": "zombieToOwner",
					"outputs": [
						{
							"internalType": "address",
							"name": "",
							"type": "address"
						}
					],
					"payable": false,
					"stateMutability": "view",
					"type": "function"
				},
				{
					"constant": true,
					"inputs": [
						{
							"internalType": "uint256",
							"name": "",
							"type": "uint256"
						}
					],
					"name": "zombies",
					"outputs": [
						{
							"internalType": "string",
							"name": "name",
							"type": "string"
						},
						{
							"internalType": "uint256",
							"name": "dna",
							"type": "uint256"
						},
						{
							"internalType": "uint32",
							"name": "level",
							"type": "uint32"
						},
						{
							"internalType": "uint32",
							"name": "readyTime",
							"type": "uint32"
						},
						{
							"internalType": "uint16",
							"name": "winCount",
							"type": "uint16"
						},
						{
							"internalType": "uint16",
							"name": "lossCount",
							"type": "uint16"
						}
					],
					"payable": false,
					"stateMutability": "view",
					"type": "function"
				}
			],
			"devdoc": {
				"methods": {
					"isOwner()": {
						"return": "true if `msg.sender` is the owner of the contract."
					},
					"owner()": {
						"return": "the address of the owner."
					},
					"renounceOwnership()": {
						"details": "Allows the current owner to relinquish control of the contract."
					},
					"transferOwnership(address)": {
						"details": "Allows the current owner to transfer control of the contract to a newOwner.",
						"params": {
							"newOwner": "The address to transfer ownership to."
						}
					}
				}
			},
			"evm": {
				"assembly": "    /* \"contracts/zombiehelper.sol\":68:853  contract ZombieHelper is ZombieFeeding {\r... */\n  mstore(0x40, 0x80)\n    /* \"contracts/zombiefactory.sol\":184:186  16 */\n  0x10\n    /* \"contracts/zombiefactory.sol\":167:186  uint dnaDigits = 16 */\n  0x01\n  sstore\n    /* \"contracts/zombiefactory.sol\":217:226  dnaDigits */\n  sload(0x01)\n    /* \"contracts/zombiefactory.sol\":211:213  10 */\n  0x0a\n    /* \"contracts/zombiefactory.sol\":211:226  10 ** dnaDigits */\n  exp\n    /* \"contracts/zombiefactory.sol\":193:226  uint dnaModulus = 10 ** dnaDigits */\n  0x02\n  sstore\n    /* \"contracts/zombiefactory.sol\":253:259  1 days */\n  0x015180\n    /* \"contracts/zombiefactory.sol\":233:259  uint cooldownTime = 1 days */\n  0x03\n  sstore\n    /* \"contracts/ownable.sol\":572:582  msg.sender */\n  caller\n    /* \"contracts/ownable.sol\":563:569  _owner */\n  0x00\n  dup1\n    /* \"contracts/ownable.sol\":563:582  _owner = msg.sender */\n  0x0100\n  exp\n  dup2\n  sload\n  dup2\n  0xffffffffffffffffffffffffffffffffffffffff\n  mul\n  not\n  and\n  swap1\n  dup4\n  0xffffffffffffffffffffffffffffffffffffffff\n  and\n  mul\n  or\n  swap1\n  sstore\n  pop\n    /* \"contracts/ownable.sol\":629:635  _owner */\n  0x00\n  dup1\n  swap1\n  sload\n  swap1\n  0x0100\n  exp\n  swap1\n  div\n  0xffffffffffffffffffffffffffffffffffffffff\n  and\n    /* \"contracts/ownable.sol\":596:636  OwnershipTransferred(address(0), _owner) */\n  0xffffffffffffffffffffffffffffffffffffffff\n  and\n    /* \"contracts/ownable.sol\":625:626  0 */\n  0x00\n    /* \"contracts/ownable.sol\":596:636  OwnershipTransferred(address(0), _owner) */\n  0xffffffffffffffffffffffffffffffffffffffff\n  and\n  0x8be0079c531659141344cd1fd0a4f28419497f9722a3daafe3b4186f6b6457e0\n  mload(0x40)\n  mload(0x40)\n  dup1\n  swap2\n  sub\n  swap1\n  log3\n    /* \"contracts/zombiehelper.sol\":68:853  contract ZombieHelper is ZombieFeeding {\r... */\n  dataSize(sub_0)\n  dup1\n  dataOffset(sub_0)\n  0x00\n  codecopy\n  0x00\n  return\nstop\n\nsub_0: assembly {\n        /* \"contracts/zombiehelper.sol\":68:853  contract ZombieHelper is ZombieFeeding {\r... */\n      mstore(0x40, 0x80)\n      callvalue\n        /* \"--CODEGEN--\":8:17   */\n      dup1\n        /* \"--CODEGEN--\":5:7   */\n      iszero\n      tag_1\n      jumpi\n        /* \"--CODEGEN--\":30:31   */\n      0x00\n        /* \"--CODEGEN--\":27:28   */\n      dup1\n        /* \"--CODEGEN--\":20:32   */\n      revert\n        /* \"--CODEGEN--\":5:7   */\n    tag_1:\n        /* \"contracts/zombiehelper.sol\":68:853  contract ZombieHelper is ZombieFeeding {\r... */\n      pop\n      jumpi(tag_2, lt(calldatasize, 0x04))\n      shr(0xe0, calldataload(0x00))\n      dup1\n      0x715018a6\n      gt\n      tag_15\n      jumpi\n      dup1\n      0x715018a6\n      eq\n      tag_9\n      jumpi\n      dup1\n      0x7bff0a01\n      eq\n      tag_10\n      jumpi\n      dup1\n      0x8da5cb5b\n      eq\n      tag_11\n      jumpi\n      dup1\n      0x8f32d59b\n      eq\n      tag_12\n      jumpi\n      dup1\n      0xc39cbef1\n      eq\n      tag_13\n      jumpi\n      dup1\n      0xf2fde38b\n      eq\n      tag_14\n      jumpi\n      jump(tag_2)\n    tag_15:\n      dup1\n      0x17a7f4cc\n      eq\n      tag_3\n      jumpi\n      dup1\n      0x2052465e\n      eq\n      tag_4\n      jumpi\n      dup1\n      0x4412e104\n      eq\n      tag_5\n      jumpi\n      dup1\n      0x528b7b8f\n      eq\n      tag_6\n      jumpi\n      dup1\n      0x5f4623f1\n      eq\n      tag_7\n      jumpi\n      dup1\n      0x5faf2880\n      eq\n      tag_8\n      jumpi\n    tag_2:\n      0x00\n      dup1\n      revert\n        /* \"contracts/zombiefeeding.sol\":1481:1679  function feedOnKitty(uint _zombieId, uint _kittyId) public {\r... */\n    tag_3:\n      tag_16\n      0x04\n      dup1\n      calldatasize\n      sub\n        /* \"--CODEGEN--\":13:15   */\n      0x40\n        /* \"--CODEGEN--\":8:11   */\n      dup2\n        /* \"--CODEGEN--\":5:16   */\n      lt\n        /* \"--CODEGEN--\":2:4   */\n      iszero\n      tag_17\n      jumpi\n        /* \"--CODEGEN--\":29:30   */\n      0x00\n        /* \"--CODEGEN--\":26:27   */\n      dup1\n        /* \"--CODEGEN--\":19:31   */\n      revert\n        /* \"--CODEGEN--\":2:4   */\n    tag_17:\n        /* \"contracts/zombiefeeding.sol\":1481:1679  function feedOnKitty(uint _zombieId, uint _kittyId) public {\r... */\n      dup2\n      add\n      swap1\n      dup1\n      dup1\n      calldataload\n      swap1\n      0x20\n      add\n      swap1\n      swap3\n      swap2\n      swap1\n      dup1\n      calldataload\n      swap1\n      0x20\n      add\n      swap1\n      swap3\n      swap2\n      swap1\n      pop\n      pop\n      pop\n      tag_18\n      jump\t// in\n    tag_16:\n      stop\n        /* \"contracts/zombiefactory.sol\":430:453  Zombie[] public zombies */\n    tag_4:\n      tag_19\n      0x04\n      dup1\n      calldatasize\n      sub\n        /* \"--CODEGEN--\":13:15   */\n      0x20\n        /* \"--CODEGEN--\":8:11   */\n      dup2\n        /* \"--CODEGEN--\":5:16   */\n      lt\n        /* \"--CODEGEN--\":2:4   */\n      iszero\n      tag_20\n      jumpi\n        /* \"--CODEGEN--\":29:30   */\n      0x00\n        /* \"--CODEGEN--\":26:27   */\n      dup1\n        /* \"--CODEGEN--\":19:31   */\n      revert\n        /* \"--CODEGEN--\":2:4   */\n    tag_20:\n        /* \"contracts/zombiefactory.sol\":430:453  Zombie[] public zombies */\n      dup2\n      add\n      swap1\n      dup1\n      dup1\n      calldataload\n      swap1\n      0x20\n      add\n      swap1\n      swap3\n      swap2\n      swap1\n      pop\n      pop\n      pop\n      tag_21\n      jump\t// in\n    tag_19:\n      mload(0x40)\n      dup1\n      dup1\n      0x20\n      add\n      dup8\n      dup2\n      mstore\n      0x20\n      add\n      dup7\n      0xffffffff\n      and\n      0xffffffff\n      and\n      dup2\n      mstore\n      0x20\n      add\n      dup6\n      0xffffffff\n      and\n      0xffffffff\n      and\n      dup2\n      mstore\n      0x20\n      add\n      dup5\n      0xffff\n      and\n      0xffff\n      and\n      dup2\n      mstore\n      0x20\n      add\n      dup4\n      0xffff\n      and\n      0xffff\n      and\n      dup2\n      mstore\n      0x20\n      add\n      dup3\n      dup2\n      sub\n      dup3\n      mstore\n      dup9\n      dup2\n      dup2\n      mload\n      dup2\n      mstore\n      0x20\n      add\n      swap2\n      pop\n      dup1\n      mload\n      swap1\n      0x20\n      add\n      swap1\n      dup1\n      dup4\n      dup4\n        /* \"--CODEGEN--\":23:24   */\n      0x00\n        /* \"--CODEGEN--\":8:108   */\n    tag_22:\n        /* \"--CODEGEN--\":33:36   */\n      dup4\n        /* \"--CODEGEN--\":30:31   */\n      dup2\n        /* \"--CODEGEN--\":27:37   */\n      lt\n        /* \"--CODEGEN--\":8:108   */\n      iszero\n      tag_24\n      jumpi\n        /* \"--CODEGEN--\":99:100   */\n      dup1\n        /* \"--CODEGEN--\":94:97   */\n      dup3\n        /* \"--CODEGEN--\":90:101   */\n      add\n        /* \"--CODEGEN--\":84:102   */\n      mload\n        /* \"--CODEGEN--\":80:81   */\n      dup2\n        /* \"--CODEGEN--\":75:78   */\n      dup5\n        /* \"--CODEGEN--\":71:82   */\n      add\n        /* \"--CODEGEN--\":64:103   */\n      mstore\n        /* \"--CODEGEN--\":52:54   */\n      0x20\n        /* \"--CODEGEN--\":49:50   */\n      dup2\n        /* \"--CODEGEN--\":45:55   */\n      add\n        /* \"--CODEGEN--\":40:55   */\n      swap1\n      pop\n        /* \"--CODEGEN--\":8:108   */\n      jump(tag_22)\n    tag_24:\n        /* \"--CODEGEN--\":12:26   */\n      pop\n        /* \"contracts/zombiefactory.sol\":430:453  Zombie[] public zombies */\n      pop\n      pop\n      pop\n      swap1\n      pop\n      swap1\n      dup2\n      add\n      swap1\n      0x1f\n      and\n      dup1\n      iszero\n      tag_25\n      jumpi\n      dup1\n      dup3\n      sub\n      dup1\n      mload\n      0x01\n      dup4\n      0x20\n      sub\n      0x0100\n      exp\n      sub\n      not\n      and\n      dup2\n      mstore\n      0x20\n      add\n      swap2\n      pop\n    tag_25:\n      pop\n      swap8\n      pop\n      pop\n      pop\n      pop\n      pop\n      pop\n      pop\n      pop\n      mload(0x40)\n      dup1\n      swap2\n      sub\n      swap1\n      return\n        /* \"contracts/zombiehelper.sol\":657:848  function getZombiesByOwner(address _owner) external view returns(uint[] memory) {\r... */\n    tag_5:\n      tag_26\n      0x04\n      dup1\n      calldatasize\n      sub\n        /* \"--CODEGEN--\":13:15   */\n      0x20\n        /* \"--CODEGEN--\":8:11   */\n      dup2\n        /* \"--CODEGEN--\":5:16   */\n      lt\n        /* \"--CODEGEN--\":2:4   */\n      iszero\n      tag_27\n      jumpi\n        /* \"--CODEGEN--\":29:30   */\n      0x00\n        /* \"--CODEGEN--\":26:27   */\n      dup1\n        /* \"--CODEGEN--\":19:31   */\n      revert\n        /* \"--CODEGEN--\":2:4   */\n    tag_27:\n        /* \"contracts/zombiehelper.sol\":657:848  function getZombiesByOwner(address _owner) external view returns(uint[] memory) {\r... */\n      dup2\n      add\n      swap1\n      dup1\n      dup1\n      calldataload\n      0xffffffffffffffffffffffffffffffffffffffff\n      and\n      swap1\n      0x20\n      add\n      swap1\n      swap3\n      swap2\n      swap1\n      pop\n      pop\n      pop\n      tag_28\n      jump\t// in\n    tag_26:\n      mload(0x40)\n      dup1\n      dup1\n      0x20\n      add\n      dup3\n      dup2\n      sub\n      dup3\n      mstore\n      dup4\n      dup2\n      dup2\n      mload\n      dup2\n      mstore\n      0x20\n      add\n      swap2\n      pop\n      dup1\n      mload\n      swap1\n      0x20\n      add\n      swap1\n      0x20\n      mul\n      dup1\n      dup4\n      dup4\n        /* \"--CODEGEN--\":23:24   */\n      0x00\n        /* \"--CODEGEN--\":8:108   */\n    tag_29:\n        /* \"--CODEGEN--\":33:36   */\n      dup4\n        /* \"--CODEGEN--\":30:31   */\n      dup2\n        /* \"--CODEGEN--\":27:37   */\n      lt\n        /* \"--CODEGEN--\":8:108   */\n      iszero\n      tag_31\n      jumpi\n        /* \"--CODEGEN--\":99:100   */\n      dup1\n        /* \"--CODEGEN--\":94:97   */\n      dup3\n        /* \"--CODEGEN--\":90:101   */\n      add\n        /* \"--CODEGEN--\":84:102   */\n      mload\n        /* \"--CODEGEN--\":80:81   */\n      dup2\n        /* \"--CODEGEN--\":75:78   */\n      dup5\n        /* \"--CODEGEN--\":71:82   */\n      add\n        /* \"--CODEGEN--\":64:103   */\n      mstore\n        /* \"--CODEGEN--\":52:54   */\n      0x20\n        /* \"--CODEGEN--\":49:50   */\n      dup2\n        /* \"--CODEGEN--\":45:55   */\n      add\n        /* \"--CODEGEN--\":40:55   */\n      swap1\n      pop\n        /* \"--CODEGEN--\":8:108   */\n      jump(tag_29)\n    tag_31:\n        /* \"--CODEGEN--\":12:26   */\n      pop\n        /* \"contracts/zombiehelper.sol\":657:848  function getZombiesByOwner(address _owner) external view returns(uint[] memory) {\r... */\n      pop\n      pop\n      pop\n      swap1\n      pop\n      add\n      swap3\n      pop\n      pop\n      pop\n      mload(0x40)\n      dup1\n      swap2\n      sub\n      swap1\n      return\n        /* \"contracts/zombiefactory.sol\":462:508  mapping (uint => address) public zombieToOwner */\n    tag_6:\n      tag_32\n      0x04\n      dup1\n      calldatasize\n      sub\n        /* \"--CODEGEN--\":13:15   */\n      0x20\n        /* \"--CODEGEN--\":8:11   */\n      dup2\n        /* \"--CODEGEN--\":5:16   */\n      lt\n        /* \"--CODEGEN--\":2:4   */\n      iszero\n      tag_33\n      jumpi\n        /* \"--CODEGEN--\":29:30   */\n      0x00\n        /* \"--CODEGEN--\":26:27   */\n      dup1\n        /* \"--CODEGEN--\":19:31   */\n      revert\n        /* \"--CODEGEN--\":2:4   */\n    tag_33:\n        /* \"contracts/zombiefactory.sol\":462:508  mapping (uint => address) public zombieToOwner */\n      dup2\n      add\n      swap1\n      dup1\n      dup1\n      calldataload\n      swap1\n      0x20\n      add\n      swap1\n      swap3\n      swap2\n      swap1\n      pop\n      pop\n      pop\n      tag_34\n      jump\t// in\n    tag_32:\n      mload(0x40)\n      dup1\n      dup3\n      0xffffffffffffffffffffffffffffffffffffffff\n      and\n      0xffffffffffffffffffffffffffffffffffffffff\n      and\n      dup2\n      mstore\n      0x20\n      add\n      swap2\n      pop\n      pop\n      mload(0x40)\n      dup1\n      swap2\n      sub\n      swap1\n      return\n        /* \"contracts/zombiefeeding.sol\":589:712  function setKittyContractAddress(address _address) external onlyOwner {\r... */\n    tag_7:\n      tag_35\n      0x04\n      dup1\n      calldatasize\n      sub\n        /* \"--CODEGEN--\":13:15   */\n      0x20\n        /* \"--CODEGEN--\":8:11   */\n      dup2\n        /* \"--CODEGEN--\":5:16   */\n      lt\n        /* \"--CODEGEN--\":2:4   */\n      iszero\n      tag_36\n      jumpi\n        /* \"--CODEGEN--\":29:30   */\n      0x00\n        /* \"--CODEGEN--\":26:27   */\n      dup1\n        /* \"--CODEGEN--\":19:31   */\n      revert\n        /* \"--CODEGEN--\":2:4   */\n    tag_36:\n        /* \"contracts/zombiefeeding.sol\":589:712  function setKittyContractAddress(address _address) external onlyOwner {\r... */\n      dup2\n      add\n      swap1\n      dup1\n      dup1\n      calldataload\n      0xffffffffffffffffffffffffffffffffffffffff\n      and\n      swap1\n      0x20\n      add\n      swap1\n      swap3\n      swap2\n      swap1\n      pop\n      pop\n      pop\n      tag_37\n      jump\t// in\n    tag_35:\n      stop\n        /* \"contracts/zombiehelper.sol\":436:619  function changeDna(uint _zombieId, uint _newDna) external aboveLevel(20, _zombieId) {\r... */\n    tag_8:\n      tag_38\n      0x04\n      dup1\n      calldatasize\n      sub\n        /* \"--CODEGEN--\":13:15   */\n      0x40\n        /* \"--CODEGEN--\":8:11   */\n      dup2\n        /* \"--CODEGEN--\":5:16   */\n      lt\n        /* \"--CODEGEN--\":2:4   */\n      iszero\n      tag_39\n      jumpi\n        /* \"--CODEGEN--\":29:30   */\n      0x00\n        /* \"--CODEGEN--\":26:27   */\n      dup1\n        /* \"--CODEGEN--\":19:31   */\n      revert\n        /* \"--CODEGEN--\":2:4   */\n    tag_39:\n        /* \"contracts/zombiehelper.sol\":436:619  function changeDna(uint _zombieId, uint _newDna) external aboveLevel(20, _zombieId) {\r... */\n      dup2\n      add\n      swap1\n      dup1\n      dup1\n      calldataload\n      swap1\n      0x20\n      add\n      swap1\n      swap3\n      swap2\n      swap1\n      dup1\n      calldataload\n      swap1\n      0x20\n      add\n      swap1\n      swap3\n      swap2\n      swap1\n      pop\n      pop\n      pop\n      tag_40\n      jump\t// in\n    tag_38:\n      stop\n        /* \"contracts/ownable.sol\":1404:1540  function renounceOwnership() public onlyOwner {\r... */\n    tag_9:\n      tag_41\n      tag_42\n      jump\t// in\n    tag_41:\n      stop\n        /* \"contracts/zombiefactory.sol\":1054:1306  function createRandomZombie(string memory _name) public {\r... */\n    tag_10:\n      tag_43\n      0x04\n      dup1\n      calldatasize\n      sub\n        /* \"--CODEGEN--\":13:15   */\n      0x20\n        /* \"--CODEGEN--\":8:11   */\n      dup2\n        /* \"--CODEGEN--\":5:16   */\n      lt\n        /* \"--CODEGEN--\":2:4   */\n      iszero\n      tag_44\n      jumpi\n        /* \"--CODEGEN--\":29:30   */\n      0x00\n        /* \"--CODEGEN--\":26:27   */\n      dup1\n        /* \"--CODEGEN--\":19:31   */\n      revert\n        /* \"--CODEGEN--\":2:4   */\n    tag_44:\n        /* \"contracts/zombiefactory.sol\":1054:1306  function createRandomZombie(string memory _name) public {\r... */\n      dup2\n      add\n      swap1\n      dup1\n      dup1\n      calldataload\n      swap1\n      0x20\n      add\n      swap1\n        /* \"--CODEGEN--\":21:32   */\n      0x0100000000\n        /* \"--CODEGEN--\":8:19   */\n      dup2\n        /* \"--CODEGEN--\":5:33   */\n      gt\n        /* \"--CODEGEN--\":2:4   */\n      iszero\n      tag_45\n      jumpi\n        /* \"--CODEGEN--\":46:47   */\n      0x00\n        /* \"--CODEGEN--\":43:44   */\n      dup1\n        /* \"--CODEGEN--\":36:48   */\n      revert\n        /* \"--CODEGEN--\":2:4   */\n    tag_45:\n        /* \"contracts/zombiefactory.sol\":1054:1306  function createRandomZombie(string memory _name) public {\r... */\n      dup3\n      add\n        /* \"--CODEGEN--\":35:44   */\n      dup4\n        /* \"--CODEGEN--\":28:32   */\n      0x20\n        /* \"--CODEGEN--\":12:26   */\n      dup3\n        /* \"--CODEGEN--\":8:33   */\n      add\n        /* \"--CODEGEN--\":5:45   */\n      gt\n        /* \"--CODEGEN--\":2:4   */\n      iszero\n      tag_46\n      jumpi\n        /* \"--CODEGEN--\":58:59   */\n      0x00\n        /* \"--CODEGEN--\":55:56   */\n      dup1\n        /* \"--CODEGEN--\":48:60   */\n      revert\n        /* \"--CODEGEN--\":2:4   */\n    tag_46:\n        /* \"contracts/zombiefactory.sol\":1054:1306  function createRandomZombie(string memory _name) public {\r... */\n      dup1\n      calldataload\n      swap1\n      0x20\n      add\n      swap2\n        /* \"--CODEGEN--\":100:109   */\n      dup5\n        /* \"--CODEGEN--\":95:96   */\n      0x01\n        /* \"--CODEGEN--\":81:93   */\n      dup4\n        /* \"--CODEGEN--\":77:97   */\n      mul\n        /* \"--CODEGEN--\":67:75   */\n      dup5\n        /* \"--CODEGEN--\":63:98   */\n      add\n        /* \"--CODEGEN--\":60:110   */\n      gt\n        /* \"--CODEGEN--\":39:50   */\n      0x0100000000\n        /* \"--CODEGEN--\":25:37   */\n      dup4\n        /* \"--CODEGEN--\":22:51   */\n      gt\n        /* \"--CODEGEN--\":11:118   */\n      or\n        /* \"--CODEGEN--\":8:10   */\n      iszero\n      tag_47\n      jumpi\n        /* \"--CODEGEN--\":131:132   */\n      0x00\n        /* \"--CODEGEN--\":128:129   */\n      dup1\n        /* \"--CODEGEN--\":121:133   */\n      revert\n        /* \"--CODEGEN--\":8:10   */\n    tag_47:\n        /* \"contracts/zombiefactory.sol\":1054:1306  function createRandomZombie(string memory _name) public {\r... */\n      swap2\n      swap1\n      dup1\n      dup1\n      0x1f\n      add\n      0x20\n      dup1\n      swap2\n      div\n      mul\n      0x20\n      add\n      mload(0x40)\n      swap1\n      dup2\n      add\n      0x40\n      mstore\n      dup1\n      swap4\n      swap3\n      swap2\n      swap1\n      dup2\n      dup2\n      mstore\n      0x20\n      add\n      dup4\n      dup4\n        /* \"--CODEGEN--\":30:33   */\n      dup1\n        /* \"--CODEGEN--\":22:28   */\n      dup3\n        /* \"--CODEGEN--\":14:20   */\n      dup5\n        /* \"--CODEGEN--\":1:34   */\n      calldatacopy\n        /* \"--CODEGEN--\":99:100   */\n      0x00\n        /* \"--CODEGEN--\":93:96   */\n      dup2\n        /* \"--CODEGEN--\":85:91   */\n      dup5\n        /* \"--CODEGEN--\":81:97   */\n      add\n        /* \"--CODEGEN--\":74:101   */\n      mstore\n        /* \"--CODEGEN--\":137:141   */\n      0x1f\n        /* \"--CODEGEN--\":133:142   */\n      not\n        /* \"--CODEGEN--\":126:130   */\n      0x1f\n        /* \"--CODEGEN--\":121:124   */\n      dup3\n        /* \"--CODEGEN--\":117:131   */\n      add\n        /* \"--CODEGEN--\":113:143   */\n      and\n        /* \"--CODEGEN--\":106:143   */\n      swap1\n      pop\n        /* \"--CODEGEN--\":169:172   */\n      dup1\n        /* \"--CODEGEN--\":161:167   */\n      dup4\n        /* \"--CODEGEN--\":157:173   */\n      add\n        /* \"--CODEGEN--\":147:173   */\n      swap3\n      pop\n        /* \"contracts/zombiefactory.sol\":1054:1306  function createRandomZombie(string memory _name) public {\r... */\n      pop\n      pop\n      pop\n      pop\n      pop\n      pop\n      swap2\n      swap3\n      swap2\n      swap3\n      swap1\n      pop\n      pop\n      pop\n      tag_48\n      jump\t// in\n    tag_43:\n      stop\n        /* \"contracts/ownable.sol\":710:786  function owner() public view returns(address) {\r... */\n    tag_11:\n      tag_49\n      tag_50\n      jump\t// in\n    tag_49:\n      mload(0x40)\n      dup1\n      dup3\n      0xffffffffffffffffffffffffffffffffffffffff\n      and\n      0xffffffffffffffffffffffffffffffffffffffff\n      and\n      dup2\n      mstore\n      0x20\n      add\n      swap2\n      pop\n      pop\n      mload(0x40)\n      dup1\n      swap2\n      sub\n      swap1\n      return\n        /* \"contracts/ownable.sol\":1034:1123  function isOwner() public view returns(bool) {\r... */\n    tag_12:\n      tag_51\n      tag_52\n      jump\t// in\n    tag_51:\n      mload(0x40)\n      dup1\n      dup3\n      iszero\n      iszero\n      iszero\n      iszero\n      dup2\n      mstore\n      0x20\n      add\n      swap2\n      pop\n      pop\n      mload(0x40)\n      dup1\n      swap2\n      sub\n      swap1\n      return\n        /* \"contracts/zombiehelper.sol\":233:430  function changeName(uint _zombieId, string calldata _newName) external aboveLevel(2, _zombieId) {\r... */\n    tag_13:\n      tag_53\n      0x04\n      dup1\n      calldatasize\n      sub\n        /* \"--CODEGEN--\":13:15   */\n      0x40\n        /* \"--CODEGEN--\":8:11   */\n      dup2\n        /* \"--CODEGEN--\":5:16   */\n      lt\n        /* \"--CODEGEN--\":2:4   */\n      iszero\n      tag_54\n      jumpi\n        /* \"--CODEGEN--\":29:30   */\n      0x00\n        /* \"--CODEGEN--\":26:27   */\n      dup1\n        /* \"--CODEGEN--\":19:31   */\n      revert\n        /* \"--CODEGEN--\":2:4   */\n    tag_54:\n        /* \"contracts/zombiehelper.sol\":233:430  function changeName(uint _zombieId, string calldata _newName) external aboveLevel(2, _zombieId) {\r... */\n      dup2\n      add\n      swap1\n      dup1\n      dup1\n      calldataload\n      swap1\n      0x20\n      add\n      swap1\n      swap3\n      swap2\n      swap1\n      dup1\n      calldataload\n      swap1\n      0x20\n      add\n      swap1\n        /* \"--CODEGEN--\":21:32   */\n      0x0100000000\n        /* \"--CODEGEN--\":8:19   */\n      dup2\n        /* \"--CODEGEN--\":5:33   */\n      gt\n        /* \"--CODEGEN--\":2:4   */\n      iszero\n      tag_55\n      jumpi\n        /* \"--CODEGEN--\":46:47   */\n      0x00\n        /* \"--CODEGEN--\":43:44   */\n      dup1\n        /* \"--CODEGEN--\":36:48   */\n      revert\n        /* \"--CODEGEN--\":2:4   */\n    tag_55:\n        /* \"contracts/zombiehelper.sol\":233:430  function changeName(uint _zombieId, string calldata _newName) external aboveLevel(2, _zombieId) {\r... */\n      dup3\n      add\n        /* \"--CODEGEN--\":35:44   */\n      dup4\n        /* \"--CODEGEN--\":28:32   */\n      0x20\n        /* \"--CODEGEN--\":12:26   */\n      dup3\n        /* \"--CODEGEN--\":8:33   */\n      add\n        /* \"--CODEGEN--\":5:45   */\n      gt\n        /* \"--CODEGEN--\":2:4   */\n      iszero\n      tag_56\n      jumpi\n        /* \"--CODEGEN--\":58:59   */\n      0x00\n        /* \"--CODEGEN--\":55:56   */\n      dup1\n        /* \"--CODEGEN--\":48:60   */\n      revert\n        /* \"--CODEGEN--\":2:4   */\n    tag_56:\n        /* \"contracts/zombiehelper.sol\":233:430  function changeName(uint _zombieId, string calldata _newName) external aboveLevel(2, _zombieId) {\r... */\n      dup1\n      calldataload\n      swap1\n      0x20\n      add\n      swap2\n        /* \"--CODEGEN--\":100:109   */\n      dup5\n        /* \"--CODEGEN--\":95:96   */\n      0x01\n        /* \"--CODEGEN--\":81:93   */\n      dup4\n        /* \"--CODEGEN--\":77:97   */\n      mul\n        /* \"--CODEGEN--\":67:75   */\n      dup5\n        /* \"--CODEGEN--\":63:98   */\n      add\n        /* \"--CODEGEN--\":60:110   */\n      gt\n        /* \"--CODEGEN--\":39:50   */\n      0x0100000000\n        /* \"--CODEGEN--\":25:37   */\n      dup4\n        /* \"--CODEGEN--\":22:51   */\n      gt\n        /* \"--CODEGEN--\":11:118   */\n      or\n        /* \"--CODEGEN--\":8:10   */\n      iszero\n      tag_57\n      jumpi\n        /* \"--CODEGEN--\":131:132   */\n      0x00\n        /* \"--CODEGEN--\":128:129   */\n      dup1\n        /* \"--CODEGEN--\":121:133   */\n      revert\n        /* \"--CODEGEN--\":8:10   */\n    tag_57:\n        /* \"contracts/zombiehelper.sol\":233:430  function changeName(uint _zombieId, string calldata _newName) external aboveLevel(2, _zombieId) {\r... */\n      swap1\n      swap2\n      swap3\n      swap4\n      swap2\n      swap3\n      swap4\n      swap1\n      pop\n      pop\n      pop\n      tag_58\n      jump\t// in\n    tag_53:\n      stop\n        /* \"contracts/ownable.sol\":1714:1821  function transferOwnership(address newOwner) public onlyOwner {\r... */\n    tag_14:\n      tag_59\n      0x04\n      dup1\n      calldatasize\n      sub\n        /* \"--CODEGEN--\":13:15   */\n      0x20\n        /* \"--CODEGEN--\":8:11   */\n      dup2\n        /* \"--CODEGEN--\":5:16   */\n      lt\n        /* \"--CODEGEN--\":2:4   */\n      iszero\n      tag_60\n      jumpi\n        /* \"--CODEGEN--\":29:30   */\n      0x00\n        /* \"--CODEGEN--\":26:27   */\n      dup1\n        /* \"--CODEGEN--\":19:31   */\n      revert\n        /* \"--CODEGEN--\":2:4   */\n    tag_60:\n        /* \"contracts/ownable.sol\":1714:1821  function transferOwnership(address newOwner) public onlyOwner {\r... */\n      dup2\n      add\n      swap1\n      dup1\n      dup1\n      calldataload\n      0xffffffffffffffffffffffffffffffffffffffff\n      and\n      swap1\n      0x20\n      add\n      swap1\n      swap3\n      swap2\n      swap1\n      pop\n      pop\n      pop\n      tag_61\n      jump\t// in\n    tag_59:\n      stop\n        /* \"contracts/zombiefeeding.sol\":1481:1679  function feedOnKitty(uint _zombieId, uint _kittyId) public {\r... */\n    tag_18:\n        /* \"contracts/zombiefeeding.sol\":1547:1560  uint kittyDna */\n      0x00\n        /* \"contracts/zombiefeeding.sol\":1589:1602  kittyContract */\n      0x07\n      0x00\n      swap1\n      sload\n      swap1\n      0x0100\n      exp\n      swap1\n      div\n      0xffffffffffffffffffffffffffffffffffffffff\n      and\n        /* \"contracts/zombiefeeding.sol\":1589:1611  kittyContract.getKitty */\n      0xffffffffffffffffffffffffffffffffffffffff\n      and\n      0xe98b7f4d\n        /* \"contracts/zombiefeeding.sol\":1612:1620  _kittyId */\n      dup4\n        /* \"contracts/zombiefeeding.sol\":1589:1621  kittyContract.getKitty(_kittyId) */\n      mload(0x40)\n      dup3\n      0xffffffff\n      and\n      0xe0\n      shl\n      dup2\n      mstore\n      0x04\n      add\n      dup1\n      dup3\n      dup2\n      mstore\n      0x20\n      add\n      swap2\n      pop\n      pop\n      0x0140\n      mload(0x40)\n      dup1\n      dup4\n      sub\n      dup2\n      dup7\n      dup1\n      extcodesize\n      iszero\n        /* \"--CODEGEN--\":8:17   */\n      dup1\n        /* \"--CODEGEN--\":5:7   */\n      iszero\n      tag_63\n      jumpi\n        /* \"--CODEGEN--\":30:31   */\n      0x00\n        /* \"--CODEGEN--\":27:28   */\n      dup1\n        /* \"--CODEGEN--\":20:32   */\n      revert\n        /* \"--CODEGEN--\":5:7   */\n    tag_63:\n        /* \"contracts/zombiefeeding.sol\":1589:1621  kittyContract.getKitty(_kittyId) */\n      pop\n      gas\n      staticcall\n      iszero\n        /* \"--CODEGEN--\":8:17   */\n      dup1\n        /* \"--CODEGEN--\":5:7   */\n      iszero\n      tag_64\n      jumpi\n        /* \"--CODEGEN--\":45:61   */\n      returndatasize\n        /* \"--CODEGEN--\":42:43   */\n      0x00\n        /* \"--CODEGEN--\":39:40   */\n      dup1\n        /* \"--CODEGEN--\":24:62   */\n      returndatacopy\n        /* \"--CODEGEN--\":77:93   */\n      returndatasize\n        /* \"--CODEGEN--\":74:75   */\n      0x00\n        /* \"--CODEGEN--\":67:94   */\n      revert\n        /* \"--CODEGEN--\":5:7   */\n    tag_64:\n        /* \"contracts/zombiefeeding.sol\":1589:1621  kittyContract.getKitty(_kittyId) */\n      pop\n      pop\n      pop\n      pop\n      mload(0x40)\n      returndatasize\n        /* \"--CODEGEN--\":13:16   */\n      0x0140\n        /* \"--CODEGEN--\":8:11   */\n      dup2\n        /* \"--CODEGEN--\":5:17   */\n      lt\n        /* \"--CODEGEN--\":2:4   */\n      iszero\n      tag_65\n      jumpi\n        /* \"--CODEGEN--\":30:31   */\n      0x00\n        /* \"--CODEGEN--\":27:28   */\n      dup1\n        /* \"--CODEGEN--\":20:32   */\n      revert\n        /* \"--CODEGEN--\":2:4   */\n    tag_65:\n        /* \"contracts/zombiefeeding.sol\":1589:1621  kittyContract.getKitty(_kittyId) */\n      dup2\n      add\n      swap1\n      dup1\n      dup1\n      mload\n      swap1\n      0x20\n      add\n      swap1\n      swap3\n      swap2\n      swap1\n      dup1\n      mload\n      swap1\n      0x20\n      add\n      swap1\n      swap3\n      swap2\n      swap1\n      dup1\n      mload\n      swap1\n      0x20\n      add\n      swap1\n      swap3\n      swap2\n      swap1\n      dup1\n      mload\n      swap1\n      0x20\n      add\n      swap1\n      swap3\n      swap2\n      swap1\n      dup1\n      mload\n      swap1\n      0x20\n      add\n      swap1\n      swap3\n      swap2\n      swap1\n      dup1\n      mload\n      swap1\n      0x20\n      add\n      swap1\n      swap3\n      swap2\n      swap1\n      dup1\n      mload\n      swap1\n      0x20\n      add\n      swap1\n      swap3\n      swap2\n      swap1\n      dup1\n      mload\n      swap1\n      0x20\n      add\n      swap1\n      swap3\n      swap2\n      swap1\n      dup1\n      mload\n      swap1\n      0x20\n      add\n      swap1\n      swap3\n      swap2\n      swap1\n      dup1\n      mload\n      swap1\n      0x20\n      add\n      swap1\n      swap3\n      swap2\n      swap1\n      pop\n      pop\n      pop\n        /* \"contracts/zombiefeeding.sol\":1567:1621  (,,,,,,,,,kittyDna) = kittyContract.getKitty(_kittyId) */\n      swap1\n      swap2\n      swap3\n      swap4\n      swap5\n      swap6\n      swap7\n      swap8\n      swap9\n      pop\n      swap1\n      swap2\n      swap3\n      swap4\n      swap5\n      swap6\n      swap7\n      swap8\n      pop\n      swap1\n      swap2\n      swap3\n      swap4\n      swap5\n      swap6\n      swap7\n      pop\n      swap1\n      swap2\n      swap3\n      swap4\n      swap5\n      swap6\n      pop\n      swap1\n      swap2\n      swap3\n      swap4\n      swap5\n      pop\n      swap1\n      swap2\n      swap3\n      swap4\n      pop\n      swap1\n      swap2\n      swap3\n      pop\n      swap1\n      swap2\n      pop\n      swap1\n      pop\n      dup1\n      swap2\n      pop\n      pop\n        /* \"contracts/zombiefeeding.sol\":1628:1673  feedAndMultiply(_zombieId, kittyDna, \"kitty\") */\n      tag_66\n        /* \"contracts/zombiefeeding.sol\":1644:1653  _zombieId */\n      dup4\n        /* \"contracts/zombiefeeding.sol\":1655:1663  kittyDna */\n      dup3\n        /* \"contracts/zombiefeeding.sol\":1628:1673  feedAndMultiply(_zombieId, kittyDna, \"kitty\") */\n      mload(0x40)\n      dup1\n      0x40\n      add\n      0x40\n      mstore\n      dup1\n      0x05\n      dup2\n      mstore\n      0x20\n      add\n      0x6b69747479000000000000000000000000000000000000000000000000000000\n      dup2\n      mstore\n      pop\n        /* \"contracts/zombiefeeding.sol\":1628:1643  feedAndMultiply */\n      tag_67\n        /* \"contracts/zombiefeeding.sol\":1628:1673  feedAndMultiply(_zombieId, kittyDna, \"kitty\") */\n      jump\t// in\n    tag_66:\n        /* \"contracts/zombiefeeding.sol\":1481:1679  function feedOnKitty(uint _zombieId, uint _kittyId) public {\r... */\n      pop\n      pop\n      pop\n      jump\t// out\n        /* \"contracts/zombiefactory.sol\":430:453  Zombie[] public zombies */\n    tag_21:\n      0x04\n      dup2\n      dup2\n      sload\n      dup2\n      lt\n      tag_68\n      jumpi\n      invalid\n    tag_68:\n      swap1\n      0x00\n      mstore\n      keccak256(0x00, 0x20)\n      swap1\n      0x03\n      mul\n      add\n      0x00\n      swap2\n      pop\n      swap1\n      pop\n      dup1\n      0x00\n      add\n      dup1\n      sload\n      0x01\n      dup2\n      0x01\n      and\n      iszero\n      0x0100\n      mul\n      sub\n      and\n      0x02\n      swap1\n      div\n      dup1\n      0x1f\n      add\n      0x20\n      dup1\n      swap2\n      div\n      mul\n      0x20\n      add\n      mload(0x40)\n      swap1\n      dup2\n      add\n      0x40\n      mstore\n      dup1\n      swap3\n      swap2\n      swap1\n      dup2\n      dup2\n      mstore\n      0x20\n      add\n      dup3\n      dup1\n      sload\n      0x01\n      dup2\n      0x01\n      and\n      iszero\n      0x0100\n      mul\n      sub\n      and\n      0x02\n      swap1\n      div\n      dup1\n      iszero\n      tag_70\n      jumpi\n      dup1\n      0x1f\n      lt\n      tag_71\n      jumpi\n      0x0100\n      dup1\n      dup4\n      sload\n      div\n      mul\n      dup4\n      mstore\n      swap2\n      0x20\n      add\n      swap2\n      jump(tag_70)\n    tag_71:\n      dup3\n      add\n      swap2\n      swap1\n      0x00\n      mstore\n      keccak256(0x00, 0x20)\n      swap1\n    tag_72:\n      dup2\n      sload\n      dup2\n      mstore\n      swap1\n      0x01\n      add\n      swap1\n      0x20\n      add\n      dup1\n      dup4\n      gt\n      tag_72\n      jumpi\n      dup3\n      swap1\n      sub\n      0x1f\n      and\n      dup3\n      add\n      swap2\n    tag_70:\n      pop\n      pop\n      pop\n      pop\n      pop\n      swap1\n      dup1\n      0x01\n      add\n      sload\n      swap1\n      dup1\n      0x02\n      add\n      0x00\n      swap1\n      sload\n      swap1\n      0x0100\n      exp\n      swap1\n      div\n      0xffffffff\n      and\n      swap1\n      dup1\n      0x02\n      add\n      0x04\n      swap1\n      sload\n      swap1\n      0x0100\n      exp\n      swap1\n      div\n      0xffffffff\n      and\n      swap1\n      dup1\n      0x02\n      add\n      0x08\n      swap1\n      sload\n      swap1\n      0x0100\n      exp\n      swap1\n      div\n      0xffff\n      and\n      swap1\n      dup1\n      0x02\n      add\n      0x0a\n      swap1\n      sload\n      swap1\n      0x0100\n      exp\n      swap1\n      div\n      0xffff\n      and\n      swap1\n      pop\n      dup7\n      jump\t// out\n        /* \"contracts/zombiehelper.sol\":657:848  function getZombiesByOwner(address _owner) external view returns(uint[] memory) {\r... */\n    tag_28:\n        /* \"contracts/zombiehelper.sol\":722:735  uint[] memory */\n      0x60\n        /* \"contracts/zombiehelper.sol\":763:783  uint[] memory result */\n      dup1\n        /* \"contracts/zombiehelper.sol\":797:813  ownerZombieCount */\n      0x06\n        /* \"contracts/zombiehelper.sol\":797:821  ownerZombieCount[_owner] */\n      0x00\n        /* \"contracts/zombiehelper.sol\":814:820  _owner */\n      dup5\n        /* \"contracts/zombiehelper.sol\":797:821  ownerZombieCount[_owner] */\n      0xffffffffffffffffffffffffffffffffffffffff\n      and\n      0xffffffffffffffffffffffffffffffffffffffff\n      and\n      dup2\n      mstore\n      0x20\n      add\n      swap1\n      dup2\n      mstore\n      0x20\n      add\n      0x00\n      keccak256\n      sload\n        /* \"contracts/zombiehelper.sol\":786:822  new uint[](ownerZombieCount[_owner]) */\n      mload(0x40)\n      swap1\n      dup1\n      dup3\n      mstore\n      dup1\n      0x20\n      mul\n      0x20\n      add\n      dup3\n      add\n      0x40\n      mstore\n      dup1\n      iszero\n      tag_74\n      jumpi\n      dup2\n      0x20\n      add\n        /* \"--CODEGEN--\":29:31   */\n      0x20\n        /* \"--CODEGEN--\":21:27   */\n      dup3\n        /* \"--CODEGEN--\":17:32   */\n      mul\n        /* \"--CODEGEN--\":117:121   */\n      dup1\n        /* \"--CODEGEN--\":105:115   */\n      codesize\n        /* \"--CODEGEN--\":97:103   */\n      dup4\n        /* \"--CODEGEN--\":88:122   */\n      codecopy\n        /* \"--CODEGEN--\":148:152   */\n      dup1\n        /* \"--CODEGEN--\":140:146   */\n      dup3\n        /* \"--CODEGEN--\":136:153   */\n      add\n        /* \"--CODEGEN--\":126:153   */\n      swap2\n      pop\n        /* \"--CODEGEN--\":0:157   */\n      pop\n        /* \"contracts/zombiehelper.sol\":786:822  new uint[](ownerZombieCount[_owner]) */\n      swap1\n      pop\n    tag_74:\n      pop\n        /* \"contracts/zombiehelper.sol\":763:822  uint[] memory result = new uint[](ownerZombieCount[_owner]) */\n      swap1\n      pop\n        /* \"contracts/zombiehelper.sol\":836:842  result */\n      dup1\n        /* \"contracts/zombiehelper.sol\":829:842  return result */\n      swap2\n      pop\n      pop\n        /* \"contracts/zombiehelper.sol\":657:848  function getZombiesByOwner(address _owner) external view returns(uint[] memory) {\r... */\n      swap2\n      swap1\n      pop\n      jump\t// out\n        /* \"contracts/zombiefactory.sol\":462:508  mapping (uint => address) public zombieToOwner */\n    tag_34:\n      mstore(0x20, 0x05)\n      dup1\n      0x00\n      mstore\n      keccak256(0x00, 0x40)\n      0x00\n      swap2\n      pop\n      sload\n      swap1\n      0x0100\n      exp\n      swap1\n      div\n      0xffffffffffffffffffffffffffffffffffffffff\n      and\n      dup2\n      jump\t// out\n        /* \"contracts/zombiefeeding.sol\":589:712  function setKittyContractAddress(address _address) external onlyOwner {\r... */\n    tag_37:\n        /* \"contracts/ownable.sol\":915:924  isOwner() */\n      tag_76\n        /* \"contracts/ownable.sol\":915:922  isOwner */\n      tag_52\n        /* \"contracts/ownable.sol\":915:924  isOwner() */\n      jump\t// in\n    tag_76:\n        /* \"contracts/ownable.sol\":907:925  require(isOwner()) */\n      tag_77\n      jumpi\n      0x00\n      dup1\n      revert\n    tag_77:\n        /* \"contracts/zombiefeeding.sol\":697:705  _address */\n      dup1\n        /* \"contracts/zombiefeeding.sol\":666:679  kittyContract */\n      0x07\n      0x00\n        /* \"contracts/zombiefeeding.sol\":666:706  kittyContract = KittyInterface(_address) */\n      0x0100\n      exp\n      dup2\n      sload\n      dup2\n      0xffffffffffffffffffffffffffffffffffffffff\n      mul\n      not\n      and\n      swap1\n      dup4\n      0xffffffffffffffffffffffffffffffffffffffff\n      and\n      mul\n      or\n      swap1\n      sstore\n      pop\n        /* \"contracts/zombiefeeding.sol\":589:712  function setKittyContractAddress(address _address) external onlyOwner {\r... */\n      pop\n      jump\t// out\n        /* \"contracts/zombiehelper.sol\":436:619  function changeDna(uint _zombieId, uint _newDna) external aboveLevel(20, _zombieId) {\r... */\n    tag_40:\n        /* \"contracts/zombiehelper.sol\":505:507  20 */\n      0x14\n        /* \"contracts/zombiehelper.sol\":509:518  _zombieId */\n      dup3\n        /* \"contracts/zombiehelper.sol\":206:212  _level */\n      dup2\n        /* \"contracts/zombiehelper.sol\":178:185  zombies */\n      0x04\n        /* \"contracts/zombiehelper.sol\":186:195  _zombieId */\n      dup3\n        /* \"contracts/zombiehelper.sol\":178:196  zombies[_zombieId] */\n      dup2\n      sload\n      dup2\n      lt\n      tag_80\n      jumpi\n      invalid\n    tag_80:\n      swap1\n      0x00\n      mstore\n      keccak256(0x00, 0x20)\n      swap1\n      0x03\n      mul\n      add\n        /* \"contracts/zombiehelper.sol\":178:202  zombies[_zombieId].level */\n      0x02\n      add\n      0x00\n      swap1\n      sload\n      swap1\n      0x0100\n      exp\n      swap1\n      div\n      0xffffffff\n      and\n        /* \"contracts/zombiehelper.sol\":178:212  zombies[_zombieId].level >= _level */\n      0xffffffff\n      and\n      lt\n      iszero\n        /* \"contracts/zombiehelper.sol\":170:213  require(zombies[_zombieId].level >= _level) */\n      tag_82\n      jumpi\n      0x00\n      dup1\n      revert\n    tag_82:\n        /* \"contracts/zombiehelper.sol\":549:562  zombieToOwner */\n      0x05\n        /* \"contracts/zombiehelper.sol\":549:573  zombieToOwner[_zombieId] */\n      0x00\n        /* \"contracts/zombiehelper.sol\":563:572  _zombieId */\n      dup6\n        /* \"contracts/zombiehelper.sol\":549:573  zombieToOwner[_zombieId] */\n      dup2\n      mstore\n      0x20\n      add\n      swap1\n      dup2\n      mstore\n      0x20\n      add\n      0x00\n      keccak256\n      0x00\n      swap1\n      sload\n      swap1\n      0x0100\n      exp\n      swap1\n      div\n      0xffffffffffffffffffffffffffffffffffffffff\n      and\n        /* \"contracts/zombiehelper.sol\":535:573  msg.sender == zombieToOwner[_zombieId] */\n      0xffffffffffffffffffffffffffffffffffffffff\n      and\n        /* \"contracts/zombiehelper.sol\":535:545  msg.sender */\n      caller\n        /* \"contracts/zombiehelper.sol\":535:573  msg.sender == zombieToOwner[_zombieId] */\n      0xffffffffffffffffffffffffffffffffffffffff\n      and\n      eq\n        /* \"contracts/zombiehelper.sol\":527:574  require(msg.sender == zombieToOwner[_zombieId]) */\n      tag_84\n      jumpi\n      0x00\n      dup1\n      revert\n    tag_84:\n        /* \"contracts/zombiehelper.sol\":606:613  _newDna */\n      dup3\n        /* \"contracts/zombiehelper.sol\":581:588  zombies */\n      0x04\n        /* \"contracts/zombiehelper.sol\":589:598  _zombieId */\n      dup6\n        /* \"contracts/zombiehelper.sol\":581:599  zombies[_zombieId] */\n      dup2\n      sload\n      dup2\n      lt\n      tag_85\n      jumpi\n      invalid\n    tag_85:\n      swap1\n      0x00\n      mstore\n      keccak256(0x00, 0x20)\n      swap1\n      0x03\n      mul\n      add\n        /* \"contracts/zombiehelper.sol\":581:603  zombies[_zombieId].dna */\n      0x01\n      add\n        /* \"contracts/zombiehelper.sol\":581:613  zombies[_zombieId].dna = _newDna */\n      dup2\n      swap1\n      sstore\n      pop\n        /* \"contracts/zombiehelper.sol\":436:619  function changeDna(uint _zombieId, uint _newDna) external aboveLevel(20, _zombieId) {\r... */\n      pop\n      pop\n      pop\n      pop\n      jump\t// out\n        /* \"contracts/ownable.sol\":1404:1540  function renounceOwnership() public onlyOwner {\r... */\n    tag_42:\n        /* \"contracts/ownable.sol\":915:924  isOwner() */\n      tag_88\n        /* \"contracts/ownable.sol\":915:922  isOwner */\n      tag_52\n        /* \"contracts/ownable.sol\":915:924  isOwner() */\n      jump\t// in\n    tag_88:\n        /* \"contracts/ownable.sol\":907:925  require(isOwner()) */\n      tag_89\n      jumpi\n      0x00\n      dup1\n      revert\n    tag_89:\n        /* \"contracts/ownable.sol\":1501:1502  0 */\n      0x00\n        /* \"contracts/ownable.sol\":1464:1504  OwnershipTransferred(_owner, address(0)) */\n      0xffffffffffffffffffffffffffffffffffffffff\n      and\n        /* \"contracts/ownable.sol\":1485:1491  _owner */\n      0x00\n      dup1\n      swap1\n      sload\n      swap1\n      0x0100\n      exp\n      swap1\n      div\n      0xffffffffffffffffffffffffffffffffffffffff\n      and\n        /* \"contracts/ownable.sol\":1464:1504  OwnershipTransferred(_owner, address(0)) */\n      0xffffffffffffffffffffffffffffffffffffffff\n      and\n      0x8be0079c531659141344cd1fd0a4f28419497f9722a3daafe3b4186f6b6457e0\n      mload(0x40)\n      mload(0x40)\n      dup1\n      swap2\n      sub\n      swap1\n      log3\n        /* \"contracts/ownable.sol\":1530:1531  0 */\n      0x00\n        /* \"contracts/ownable.sol\":1513:1519  _owner */\n      dup1\n      0x00\n        /* \"contracts/ownable.sol\":1513:1532  _owner = address(0) */\n      0x0100\n      exp\n      dup2\n      sload\n      dup2\n      0xffffffffffffffffffffffffffffffffffffffff\n      mul\n      not\n      and\n      swap1\n      dup4\n      0xffffffffffffffffffffffffffffffffffffffff\n      and\n      mul\n      or\n      swap1\n      sstore\n      pop\n        /* \"contracts/ownable.sol\":1404:1540  function renounceOwnership() public onlyOwner {\r... */\n      jump\t// out\n        /* \"contracts/zombiefactory.sol\":1054:1306  function createRandomZombie(string memory _name) public {\r... */\n    tag_48:\n        /* \"contracts/zombiefactory.sol\":1161:1162  0 */\n      0x00\n        /* \"contracts/zombiefactory.sol\":1129:1145  ownerZombieCount */\n      0x06\n        /* \"contracts/zombiefactory.sol\":1129:1157  ownerZombieCount[msg.sender] */\n      0x00\n        /* \"contracts/zombiefactory.sol\":1146:1156  msg.sender */\n      caller\n        /* \"contracts/zombiefactory.sol\":1129:1157  ownerZombieCount[msg.sender] */\n      0xffffffffffffffffffffffffffffffffffffffff\n      and\n      0xffffffffffffffffffffffffffffffffffffffff\n      and\n      dup2\n      mstore\n      0x20\n      add\n      swap1\n      dup2\n      mstore\n      0x20\n      add\n      0x00\n      keccak256\n      sload\n        /* \"contracts/zombiefactory.sol\":1129:1162  ownerZombieCount[msg.sender] == 0 */\n      eq\n        /* \"contracts/zombiefactory.sol\":1121:1163  require(ownerZombieCount[msg.sender] == 0) */\n      tag_92\n      jumpi\n      0x00\n      dup1\n      revert\n    tag_92:\n        /* \"contracts/zombiefactory.sol\":1174:1186  uint randDna */\n      0x00\n        /* \"contracts/zombiefactory.sol\":1189:1214  _generateRandomDna(_name) */\n      tag_93\n        /* \"contracts/zombiefactory.sol\":1208:1213  _name */\n      dup3\n        /* \"contracts/zombiefactory.sol\":1189:1207  _generateRandomDna */\n      tag_94\n        /* \"contracts/zombiefactory.sol\":1189:1214  _generateRandomDna(_name) */\n      jump\t// in\n    tag_93:\n        /* \"contracts/zombiefactory.sol\":1174:1214  uint randDna = _generateRandomDna(_name) */\n      swap1\n      pop\n        /* \"contracts/zombiefactory.sol\":1255:1258  100 */\n      0x64\n        /* \"contracts/zombiefactory.sol\":1245:1252  randDna */\n      dup2\n        /* \"contracts/zombiefactory.sol\":1245:1258  randDna % 100 */\n      dup2\n      tag_95\n      jumpi\n      invalid\n    tag_95:\n      mod\n        /* \"contracts/zombiefactory.sol\":1235:1242  randDna */\n      dup2\n        /* \"contracts/zombiefactory.sol\":1235:1258  randDna - randDna % 100 */\n      sub\n        /* \"contracts/zombiefactory.sol\":1225:1258  randDna = randDna - randDna % 100 */\n      swap1\n      pop\n        /* \"contracts/zombiefactory.sol\":1269:1298  _createZombie(_name, randDna) */\n      tag_96\n        /* \"contracts/zombiefactory.sol\":1283:1288  _name */\n      dup3\n        /* \"contracts/zombiefactory.sol\":1290:1297  randDna */\n      dup3\n        /* \"contracts/zombiefactory.sol\":1269:1282  _createZombie */\n      tag_97\n        /* \"contracts/zombiefactory.sol\":1269:1298  _createZombie(_name, randDna) */\n      jump\t// in\n    tag_96:\n        /* \"contracts/zombiefactory.sol\":1054:1306  function createRandomZombie(string memory _name) public {\r... */\n      pop\n      pop\n      jump\t// out\n        /* \"contracts/ownable.sol\":710:786  function owner() public view returns(address) {\r... */\n    tag_50:\n        /* \"contracts/ownable.sol\":747:754  address */\n      0x00\n        /* \"contracts/ownable.sol\":772:778  _owner */\n      dup1\n      0x00\n      swap1\n      sload\n      swap1\n      0x0100\n      exp\n      swap1\n      div\n      0xffffffffffffffffffffffffffffffffffffffff\n      and\n        /* \"contracts/ownable.sol\":765:778  return _owner */\n      swap1\n      pop\n        /* \"contracts/ownable.sol\":710:786  function owner() public view returns(address) {\r... */\n      swap1\n      jump\t// out\n        /* \"contracts/ownable.sol\":1034:1123  function isOwner() public view returns(bool) {\r... */\n    tag_52:\n        /* \"contracts/ownable.sol\":1073:1077  bool */\n      0x00\n        /* \"contracts/ownable.sol\":1109:1115  _owner */\n      dup1\n      0x00\n      swap1\n      sload\n      swap1\n      0x0100\n      exp\n      swap1\n      div\n      0xffffffffffffffffffffffffffffffffffffffff\n      and\n        /* \"contracts/ownable.sol\":1095:1115  msg.sender == _owner */\n      0xffffffffffffffffffffffffffffffffffffffff\n      and\n        /* \"contracts/ownable.sol\":1095:1105  msg.sender */\n      caller\n        /* \"contracts/ownable.sol\":1095:1115  msg.sender == _owner */\n      0xffffffffffffffffffffffffffffffffffffffff\n      and\n      eq\n        /* \"contracts/ownable.sol\":1088:1115  return msg.sender == _owner */\n      swap1\n      pop\n        /* \"contracts/ownable.sol\":1034:1123  function isOwner() public view returns(bool) {\r... */\n      swap1\n      jump\t// out\n        /* \"contracts/zombiehelper.sol\":233:430  function changeName(uint _zombieId, string calldata _newName) external aboveLevel(2, _zombieId) {\r... */\n    tag_58:\n        /* \"contracts/zombiehelper.sol\":315:316  2 */\n      0x02\n        /* \"contracts/zombiehelper.sol\":318:327  _zombieId */\n      dup4\n        /* \"contracts/zombiehelper.sol\":206:212  _level */\n      dup2\n        /* \"contracts/zombiehelper.sol\":178:185  zombies */\n      0x04\n        /* \"contracts/zombiehelper.sol\":186:195  _zombieId */\n      dup3\n        /* \"contracts/zombiehelper.sol\":178:196  zombies[_zombieId] */\n      dup2\n      sload\n      dup2\n      lt\n      tag_101\n      jumpi\n      invalid\n    tag_101:\n      swap1\n      0x00\n      mstore\n      keccak256(0x00, 0x20)\n      swap1\n      0x03\n      mul\n      add\n        /* \"contracts/zombiehelper.sol\":178:202  zombies[_zombieId].level */\n      0x02\n      add\n      0x00\n      swap1\n      sload\n      swap1\n      0x0100\n      exp\n      swap1\n      div\n      0xffffffff\n      and\n        /* \"contracts/zombiehelper.sol\":178:212  zombies[_zombieId].level >= _level */\n      0xffffffff\n      and\n      lt\n      iszero\n        /* \"contracts/zombiehelper.sol\":170:213  require(zombies[_zombieId].level >= _level) */\n      tag_103\n      jumpi\n      0x00\n      dup1\n      revert\n    tag_103:\n        /* \"contracts/zombiehelper.sol\":358:371  zombieToOwner */\n      0x05\n        /* \"contracts/zombiehelper.sol\":358:382  zombieToOwner[_zombieId] */\n      0x00\n        /* \"contracts/zombiehelper.sol\":372:381  _zombieId */\n      dup7\n        /* \"contracts/zombiehelper.sol\":358:382  zombieToOwner[_zombieId] */\n      dup2\n      mstore\n      0x20\n      add\n      swap1\n      dup2\n      mstore\n      0x20\n      add\n      0x00\n      keccak256\n      0x00\n      swap1\n      sload\n      swap1\n      0x0100\n      exp\n      swap1\n      div\n      0xffffffffffffffffffffffffffffffffffffffff\n      and\n        /* \"contracts/zombiehelper.sol\":344:382  msg.sender == zombieToOwner[_zombieId] */\n      0xffffffffffffffffffffffffffffffffffffffff\n      and\n        /* \"contracts/zombiehelper.sol\":344:354  msg.sender */\n      caller\n        /* \"contracts/zombiehelper.sol\":344:382  msg.sender == zombieToOwner[_zombieId] */\n      0xffffffffffffffffffffffffffffffffffffffff\n      and\n      eq\n        /* \"contracts/zombiehelper.sol\":336:383  require(msg.sender == zombieToOwner[_zombieId]) */\n      tag_105\n      jumpi\n      0x00\n      dup1\n      revert\n    tag_105:\n        /* \"contracts/zombiehelper.sol\":416:424  _newName */\n      dup4\n      dup4\n        /* \"contracts/zombiehelper.sol\":390:397  zombies */\n      0x04\n        /* \"contracts/zombiehelper.sol\":398:407  _zombieId */\n      dup8\n        /* \"contracts/zombiehelper.sol\":390:408  zombies[_zombieId] */\n      dup2\n      sload\n      dup2\n      lt\n      tag_106\n      jumpi\n      invalid\n    tag_106:\n      swap1\n      0x00\n      mstore\n      keccak256(0x00, 0x20)\n      swap1\n      0x03\n      mul\n      add\n        /* \"contracts/zombiehelper.sol\":390:413  zombies[_zombieId].name */\n      0x00\n      add\n        /* \"contracts/zombiehelper.sol\":390:424  zombies[_zombieId].name = _newName */\n      swap2\n      swap1\n      tag_108\n      swap3\n      swap2\n      swap1\n      tag_109\n      jump\t// in\n    tag_108:\n      pop\n        /* \"contracts/zombiehelper.sol\":233:430  function changeName(uint _zombieId, string calldata _newName) external aboveLevel(2, _zombieId) {\r... */\n      pop\n      pop\n      pop\n      pop\n      pop\n      jump\t// out\n        /* \"contracts/ownable.sol\":1714:1821  function transferOwnership(address newOwner) public onlyOwner {\r... */\n    tag_61:\n        /* \"contracts/ownable.sol\":915:924  isOwner() */\n      tag_111\n        /* \"contracts/ownable.sol\":915:922  isOwner */\n      tag_52\n        /* \"contracts/ownable.sol\":915:924  isOwner() */\n      jump\t// in\n    tag_111:\n        /* \"contracts/ownable.sol\":907:925  require(isOwner()) */\n      tag_112\n      jumpi\n      0x00\n      dup1\n      revert\n    tag_112:\n        /* \"contracts/ownable.sol\":1785:1813  _transferOwnership(newOwner) */\n      tag_114\n        /* \"contracts/ownable.sol\":1804:1812  newOwner */\n      dup2\n        /* \"contracts/ownable.sol\":1785:1803  _transferOwnership */\n      tag_115\n        /* \"contracts/ownable.sol\":1785:1813  _transferOwnership(newOwner) */\n      jump\t// in\n    tag_114:\n        /* \"contracts/ownable.sol\":1714:1821  function transferOwnership(address newOwner) public onlyOwner {\r... */\n      pop\n      jump\t// out\n        /* \"contracts/zombiefeeding.sol\":967:1475  function feedAndMultiply(uint _zombieId, uint _targetDna, string memory _species) internal ownerOf(_zombieId) {\r... */\n    tag_67:\n        /* \"contracts/zombiefeeding.sol\":1066:1075  _zombieId */\n      dup3\n        /* \"contracts/zombiefeeding.sol\":544:557  zombieToOwner */\n      0x05\n        /* \"contracts/zombiefeeding.sol\":544:568  zombieToOwner[_zombieId] */\n      0x00\n        /* \"contracts/zombiefeeding.sol\":558:567  _zombieId */\n      dup3\n        /* \"contracts/zombiefeeding.sol\":544:568  zombieToOwner[_zombieId] */\n      dup2\n      mstore\n      0x20\n      add\n      swap1\n      dup2\n      mstore\n      0x20\n      add\n      0x00\n      keccak256\n      0x00\n      swap1\n      sload\n      swap1\n      0x0100\n      exp\n      swap1\n      div\n      0xffffffffffffffffffffffffffffffffffffffff\n      and\n        /* \"contracts/zombiefeeding.sol\":530:568  msg.sender == zombieToOwner[_zombieId] */\n      0xffffffffffffffffffffffffffffffffffffffff\n      and\n        /* \"contracts/zombiefeeding.sol\":530:540  msg.sender */\n      caller\n        /* \"contracts/zombiefeeding.sol\":530:568  msg.sender == zombieToOwner[_zombieId] */\n      0xffffffffffffffffffffffffffffffffffffffff\n      and\n      eq\n        /* \"contracts/zombiefeeding.sol\":522:569  require(msg.sender == zombieToOwner[_zombieId]) */\n      tag_117\n      jumpi\n      0x00\n      dup1\n      revert\n    tag_117:\n        /* \"contracts/zombiefeeding.sol\":1084:1107  Zombie storage myZombie */\n      0x00\n        /* \"contracts/zombiefeeding.sol\":1110:1117  zombies */\n      0x04\n        /* \"contracts/zombiefeeding.sol\":1118:1127  _zombieId */\n      dup6\n        /* \"contracts/zombiefeeding.sol\":1110:1128  zombies[_zombieId] */\n      dup2\n      sload\n      dup2\n      lt\n      tag_119\n      jumpi\n      invalid\n    tag_119:\n      swap1\n      0x00\n      mstore\n      keccak256(0x00, 0x20)\n      swap1\n      0x03\n      mul\n      add\n        /* \"contracts/zombiefeeding.sol\":1084:1128  Zombie storage myZombie = zombies[_zombieId] */\n      swap1\n      pop\n        /* \"contracts/zombiefeeding.sol\":1143:1161  _isReady(myZombie) */\n      tag_121\n        /* \"contracts/zombiefeeding.sol\":1152:1160  myZombie */\n      dup2\n        /* \"contracts/zombiefeeding.sol\":1143:1151  _isReady */\n      tag_122\n        /* \"contracts/zombiefeeding.sol\":1143:1161  _isReady(myZombie) */\n      jump\t// in\n    tag_121:\n        /* \"contracts/zombiefeeding.sol\":1135:1162  require(_isReady(myZombie)) */\n      tag_123\n      jumpi\n      0x00\n      dup1\n      revert\n    tag_123:\n        /* \"contracts/zombiefeeding.sol\":1195:1205  dnaModulus */\n      sload(0x02)\n        /* \"contracts/zombiefeeding.sol\":1182:1192  _targetDna */\n      dup5\n        /* \"contracts/zombiefeeding.sol\":1182:1205  _targetDna % dnaModulus */\n      dup2\n      tag_124\n      jumpi\n      invalid\n    tag_124:\n      mod\n        /* \"contracts/zombiefeeding.sol\":1169:1205  _targetDna = _targetDna % dnaModulus */\n      swap4\n      pop\n        /* \"contracts/zombiefeeding.sol\":1212:1223  uint newDna */\n      0x00\n        /* \"contracts/zombiefeeding.sol\":1256:1257  2 */\n      0x02\n        /* \"contracts/zombiefeeding.sol\":1242:1252  _targetDna */\n      dup6\n        /* \"contracts/zombiefeeding.sol\":1227:1235  myZombie */\n      dup4\n        /* \"contracts/zombiefeeding.sol\":1227:1239  myZombie.dna */\n      0x01\n      add\n      sload\n        /* \"contracts/zombiefeeding.sol\":1227:1252  myZombie.dna + _targetDna */\n      add\n        /* \"contracts/zombiefeeding.sol\":1226:1257  (myZombie.dna + _targetDna) / 2 */\n      dup2\n      tag_125\n      jumpi\n      invalid\n    tag_125:\n      div\n        /* \"contracts/zombiefeeding.sol\":1212:1257  uint newDna = (myZombie.dna + _targetDna) / 2 */\n      swap1\n      pop\n        /* \"contracts/zombiefeeding.sol\":1319:1344  abi.encodePacked(\"kitty\") */\n      add(0x20, mload(0x40))\n      dup1\n      dup1\n      0x6b69747479000000000000000000000000000000000000000000000000000000\n      dup2\n      mstore\n      pop\n      0x05\n      add\n      swap1\n      pop\n      mload(0x40)\n        /* \"--CODEGEN--\":49:53   */\n      0x20\n        /* \"--CODEGEN--\":39:46   */\n      dup2\n        /* \"--CODEGEN--\":30:37   */\n      dup4\n        /* \"--CODEGEN--\":26:47   */\n      sub\n        /* \"--CODEGEN--\":22:54   */\n      sub\n        /* \"--CODEGEN--\":13:20   */\n      dup2\n        /* \"--CODEGEN--\":6:55   */\n      mstore\n        /* \"contracts/zombiefeeding.sol\":1319:1344  abi.encodePacked(\"kitty\") */\n      swap1\n      0x40\n      mstore\n        /* \"contracts/zombiefeeding.sol\":1309:1345  keccak256(abi.encodePacked(\"kitty\")) */\n      dup1\n      mload\n      swap1\n      0x20\n      add\n      keccak256\n        /* \"contracts/zombiefeeding.sol\":1295:1303  _species */\n      dup5\n        /* \"contracts/zombiefeeding.sol\":1278:1304  abi.encodePacked(_species) */\n      add(0x20, mload(0x40))\n      dup1\n      dup3\n      dup1\n      mload\n      swap1\n      0x20\n      add\n      swap1\n      dup1\n      dup4\n      dup4\n        /* \"--CODEGEN--\":36:189   */\n    tag_126:\n        /* \"--CODEGEN--\":66:68   */\n      0x20\n        /* \"--CODEGEN--\":61:64   */\n      dup4\n        /* \"--CODEGEN--\":58:69   */\n      lt\n        /* \"--CODEGEN--\":36:189   */\n      tag_128\n      jumpi\n        /* \"--CODEGEN--\":182:185   */\n      dup1\n        /* \"--CODEGEN--\":176:186   */\n      mload\n        /* \"--CODEGEN--\":171:174   */\n      dup3\n        /* \"--CODEGEN--\":164:187   */\n      mstore\n        /* \"--CODEGEN--\":98:100   */\n      0x20\n        /* \"--CODEGEN--\":93:96   */\n      dup3\n        /* \"--CODEGEN--\":89:101   */\n      add\n        /* \"--CODEGEN--\":82:101   */\n      swap2\n      pop\n        /* \"--CODEGEN--\":123:125   */\n      0x20\n        /* \"--CODEGEN--\":118:121   */\n      dup2\n        /* \"--CODEGEN--\":114:126   */\n      add\n        /* \"--CODEGEN--\":107:126   */\n      swap1\n      pop\n        /* \"--CODEGEN--\":148:150   */\n      0x20\n        /* \"--CODEGEN--\":143:146   */\n      dup4\n        /* \"--CODEGEN--\":139:151   */\n      sub\n        /* \"--CODEGEN--\":132:151   */\n      swap3\n      pop\n        /* \"--CODEGEN--\":36:189   */\n      jump(tag_126)\n    tag_128:\n        /* \"--CODEGEN--\":274:275   */\n      0x01\n        /* \"--CODEGEN--\":267:270   */\n      dup4\n        /* \"--CODEGEN--\":263:265   */\n      0x20\n        /* \"--CODEGEN--\":259:271   */\n      sub\n        /* \"--CODEGEN--\":254:257   */\n      0x0100\n        /* \"--CODEGEN--\":250:272   */\n      exp\n        /* \"--CODEGEN--\":246:276   */\n      sub\n        /* \"--CODEGEN--\":315:319   */\n      dup1\n        /* \"--CODEGEN--\":311:320   */\n      not\n        /* \"--CODEGEN--\":305:308   */\n      dup3\n        /* \"--CODEGEN--\":299:309   */\n      mload\n        /* \"--CODEGEN--\":295:321   */\n      and\n        /* \"--CODEGEN--\":356:360   */\n      dup2\n        /* \"--CODEGEN--\":350:353   */\n      dup5\n        /* \"--CODEGEN--\":344:354   */\n      mload\n        /* \"--CODEGEN--\":340:361   */\n      and\n        /* \"--CODEGEN--\":389:396   */\n      dup1\n        /* \"--CODEGEN--\":380:387   */\n      dup3\n        /* \"--CODEGEN--\":377:397   */\n      or\n        /* \"--CODEGEN--\":372:375   */\n      dup6\n        /* \"--CODEGEN--\":365:398   */\n      mstore\n        /* \"--CODEGEN--\":3:402   */\n      pop\n      pop\n      pop\n        /* \"contracts/zombiefeeding.sol\":1278:1304  abi.encodePacked(_species) */\n      pop\n      pop\n      pop\n      swap1\n      pop\n      add\n      swap2\n      pop\n      pop\n      mload(0x40)\n        /* \"--CODEGEN--\":49:53   */\n      0x20\n        /* \"--CODEGEN--\":39:46   */\n      dup2\n        /* \"--CODEGEN--\":30:37   */\n      dup4\n        /* \"--CODEGEN--\":26:47   */\n      sub\n        /* \"--CODEGEN--\":22:54   */\n      sub\n        /* \"--CODEGEN--\":13:20   */\n      dup2\n        /* \"--CODEGEN--\":6:55   */\n      mstore\n        /* \"contracts/zombiefeeding.sol\":1278:1304  abi.encodePacked(_species) */\n      swap1\n      0x40\n      mstore\n        /* \"contracts/zombiefeeding.sol\":1268:1305  keccak256(abi.encodePacked(_species)) */\n      dup1\n      mload\n      swap1\n      0x20\n      add\n      keccak256\n        /* \"contracts/zombiefeeding.sol\":1268:1345  keccak256(abi.encodePacked(_species)) == keccak256(abi.encodePacked(\"kitty\")) */\n      eq\n        /* \"contracts/zombiefeeding.sol\":1264:1399  if (keccak256(abi.encodePacked(_species)) == keccak256(abi.encodePacked(\"kitty\"))) {\r... */\n      iszero\n      tag_129\n      jumpi\n        /* \"contracts/zombiefeeding.sol\":1389:1391  99 */\n      0x63\n        /* \"contracts/zombiefeeding.sol\":1383:1386  100 */\n      0x64\n        /* \"contracts/zombiefeeding.sol\":1374:1380  newDna */\n      dup3\n        /* \"contracts/zombiefeeding.sol\":1374:1386  newDna % 100 */\n      dup2\n      tag_130\n      jumpi\n      invalid\n    tag_130:\n      mod\n        /* \"contracts/zombiefeeding.sol\":1365:1371  newDna */\n      dup3\n        /* \"contracts/zombiefeeding.sol\":1365:1386  newDna - newDna % 100 */\n      sub\n        /* \"contracts/zombiefeeding.sol\":1365:1391  newDna - newDna % 100 + 99 */\n      add\n        /* \"contracts/zombiefeeding.sol\":1356:1391  newDna = newDna - newDna % 100 + 99 */\n      swap1\n      pop\n        /* \"contracts/zombiefeeding.sol\":1264:1399  if (keccak256(abi.encodePacked(_species)) == keccak256(abi.encodePacked(\"kitty\"))) {\r... */\n    tag_129:\n        /* \"contracts/zombiefeeding.sol\":1405:1436  _createZombie(\"NoName\", newDna) */\n      tag_131\n      mload(0x40)\n      dup1\n      0x40\n      add\n      0x40\n      mstore\n      dup1\n      0x06\n      dup2\n      mstore\n      0x20\n      add\n      0x4e6f4e616d650000000000000000000000000000000000000000000000000000\n      dup2\n      mstore\n      pop\n        /* \"contracts/zombiefeeding.sol\":1429:1435  newDna */\n      dup3\n        /* \"contracts/zombiefeeding.sol\":1405:1418  _createZombie */\n      tag_97\n        /* \"contracts/zombiefeeding.sol\":1405:1436  _createZombie(\"NoName\", newDna) */\n      jump\t// in\n    tag_131:\n        /* \"contracts/zombiefeeding.sol\":1443:1469  _triggerCooldown(myZombie) */\n      tag_132\n        /* \"contracts/zombiefeeding.sol\":1460:1468  myZombie */\n      dup3\n        /* \"contracts/zombiefeeding.sol\":1443:1459  _triggerCooldown */\n      tag_133\n        /* \"contracts/zombiefeeding.sol\":1443:1469  _triggerCooldown(myZombie) */\n      jump\t// in\n    tag_132:\n        /* \"contracts/zombiefeeding.sol\":576:577  _ */\n      pop\n      pop\n        /* \"contracts/zombiefeeding.sol\":967:1475  function feedAndMultiply(uint _zombieId, uint _targetDna, string memory _species) internal ownerOf(_zombieId) {\r... */\n      pop\n      pop\n      pop\n      pop\n      jump\t// out\n        /* \"contracts/zombiefactory.sol\":865:1046  function _generateRandomDna(string memory _str) private view returns (uint) {\r... */\n    tag_94:\n        /* \"contracts/zombiefactory.sol\":935:939  uint */\n      0x00\n        /* \"contracts/zombiefactory.sol\":952:961  uint rand */\n      dup1\n        /* \"contracts/zombiefactory.sol\":996:1000  _str */\n      dup3\n        /* \"contracts/zombiefactory.sol\":979:1001  abi.encodePacked(_str) */\n      add(0x20, mload(0x40))\n      dup1\n      dup3\n      dup1\n      mload\n      swap1\n      0x20\n      add\n      swap1\n      dup1\n      dup4\n      dup4\n        /* \"--CODEGEN--\":36:189   */\n    tag_135:\n        /* \"--CODEGEN--\":66:68   */\n      0x20\n        /* \"--CODEGEN--\":61:64   */\n      dup4\n        /* \"--CODEGEN--\":58:69   */\n      lt\n        /* \"--CODEGEN--\":36:189   */\n      tag_137\n      jumpi\n        /* \"--CODEGEN--\":182:185   */\n      dup1\n        /* \"--CODEGEN--\":176:186   */\n      mload\n        /* \"--CODEGEN--\":171:174   */\n      dup3\n        /* \"--CODEGEN--\":164:187   */\n      mstore\n        /* \"--CODEGEN--\":98:100   */\n      0x20\n        /* \"--CODEGEN--\":93:96   */\n      dup3\n        /* \"--CODEGEN--\":89:101   */\n      add\n        /* \"--CODEGEN--\":82:101   */\n      swap2\n      pop\n        /* \"--CODEGEN--\":123:125   */\n      0x20\n        /* \"--CODEGEN--\":118:121   */\n      dup2\n        /* \"--CODEGEN--\":114:126   */\n      add\n        /* \"--CODEGEN--\":107:126   */\n      swap1\n      pop\n        /* \"--CODEGEN--\":148:150   */\n      0x20\n        /* \"--CODEGEN--\":143:146   */\n      dup4\n        /* \"--CODEGEN--\":139:151   */\n      sub\n        /* \"--CODEGEN--\":132:151   */\n      swap3\n      pop\n        /* \"--CODEGEN--\":36:189   */\n      jump(tag_135)\n    tag_137:\n        /* \"--CODEGEN--\":274:275   */\n      0x01\n        /* \"--CODEGEN--\":267:270   */\n      dup4\n        /* \"--CODEGEN--\":263:265   */\n      0x20\n        /* \"--CODEGEN--\":259:271   */\n      sub\n        /* \"--CODEGEN--\":254:257   */\n      0x0100\n        /* \"--CODEGEN--\":250:272   */\n      exp\n        /* \"--CODEGEN--\":246:276   */\n      sub\n        /* \"--CODEGEN--\":315:319   */\n      dup1\n        /* \"--CODEGEN--\":311:320   */\n      not\n        /* \"--CODEGEN--\":305:308   */\n      dup3\n        /* \"--CODEGEN--\":299:309   */\n      mload\n        /* \"--CODEGEN--\":295:321   */\n      and\n        /* \"--CODEGEN--\":356:360   */\n      dup2\n        /* \"--CODEGEN--\":350:353   */\n      dup5\n        /* \"--CODEGEN--\":344:354   */\n      mload\n        /* \"--CODEGEN--\":340:361   */\n      and\n        /* \"--CODEGEN--\":389:396   */\n      dup1\n        /* \"--CODEGEN--\":380:387   */\n      dup3\n        /* \"--CODEGEN--\":377:397   */\n      or\n        /* \"--CODEGEN--\":372:375   */\n      dup6\n        /* \"--CODEGEN--\":365:398   */\n      mstore\n        /* \"--CODEGEN--\":3:402   */\n      pop\n      pop\n      pop\n        /* \"contracts/zombiefactory.sol\":979:1001  abi.encodePacked(_str) */\n      pop\n      pop\n      pop\n      swap1\n      pop\n      add\n      swap2\n      pop\n      pop\n      mload(0x40)\n        /* \"--CODEGEN--\":49:53   */\n      0x20\n        /* \"--CODEGEN--\":39:46   */\n      dup2\n        /* \"--CODEGEN--\":30:37   */\n      dup4\n        /* \"--CODEGEN--\":26:47   */\n      sub\n        /* \"--CODEGEN--\":22:54   */\n      sub\n        /* \"--CODEGEN--\":13:20   */\n      dup2\n        /* \"--CODEGEN--\":6:55   */\n      mstore\n        /* \"contracts/zombiefactory.sol\":979:1001  abi.encodePacked(_str) */\n      swap1\n      0x40\n      mstore\n        /* \"contracts/zombiefactory.sol\":969:1002  keccak256(abi.encodePacked(_str)) */\n      dup1\n      mload\n      swap1\n      0x20\n      add\n      keccak256\n        /* \"contracts/zombiefactory.sol\":964:1003  uint(keccak256(abi.encodePacked(_str))) */\n      0x00\n      shr\n        /* \"contracts/zombiefactory.sol\":952:1003  uint rand = uint(keccak256(abi.encodePacked(_str))) */\n      swap1\n      pop\n        /* \"contracts/zombiefactory.sol\":1028:1038  dnaModulus */\n      sload(0x02)\n        /* \"contracts/zombiefactory.sol\":1021:1025  rand */\n      dup2\n        /* \"contracts/zombiefactory.sol\":1021:1038  rand % dnaModulus */\n      dup2\n      tag_138\n      jumpi\n      invalid\n    tag_138:\n      mod\n        /* \"contracts/zombiefactory.sol\":1014:1038  return rand % dnaModulus */\n      swap2\n      pop\n      pop\n        /* \"contracts/zombiefactory.sol\":865:1046  function _generateRandomDna(string memory _str) private view returns (uint) {\r... */\n      swap2\n      swap1\n      pop\n      jump\t// out\n        /* \"contracts/zombiefactory.sol\":566:857  function _createZombie(string memory _name, uint _dna) internal {\r... */\n    tag_97:\n        /* \"contracts/zombiefactory.sol\":641:648  uint id */\n      0x00\n        /* \"contracts/zombiefactory.sol\":724:725  1 */\n      0x01\n        /* \"contracts/zombiefactory.sol\":651:658  zombies */\n      0x04\n        /* \"contracts/zombiefactory.sol\":664:720  Zombie(_name, _dna, 1, uint32(now + cooldownTime), 0, 0) */\n      mload(0x40)\n      dup1\n      0xc0\n      add\n      0x40\n      mstore\n      dup1\n        /* \"contracts/zombiefactory.sol\":671:676  _name */\n      dup7\n        /* \"contracts/zombiefactory.sol\":664:720  Zombie(_name, _dna, 1, uint32(now + cooldownTime), 0, 0) */\n      dup2\n      mstore\n      0x20\n      add\n        /* \"contracts/zombiefactory.sol\":678:682  _dna */\n      dup6\n        /* \"contracts/zombiefactory.sol\":664:720  Zombie(_name, _dna, 1, uint32(now + cooldownTime), 0, 0) */\n      dup2\n      mstore\n      0x20\n      add\n        /* \"contracts/zombiefactory.sol\":684:685  1 */\n      0x01\n        /* \"contracts/zombiefactory.sol\":664:720  Zombie(_name, _dna, 1, uint32(now + cooldownTime), 0, 0) */\n      0xffffffff\n      and\n      dup2\n      mstore\n      0x20\n      add\n        /* \"contracts/zombiefactory.sol\":700:712  cooldownTime */\n      sload(0x03)\n        /* \"contracts/zombiefactory.sol\":694:697  now */\n      timestamp\n        /* \"contracts/zombiefactory.sol\":694:712  now + cooldownTime */\n      add\n        /* \"contracts/zombiefactory.sol\":664:720  Zombie(_name, _dna, 1, uint32(now + cooldownTime), 0, 0) */\n      0xffffffff\n      and\n      dup2\n      mstore\n      0x20\n      add\n        /* \"contracts/zombiefactory.sol\":715:716  0 */\n      0x00\n        /* \"contracts/zombiefactory.sol\":664:720  Zombie(_name, _dna, 1, uint32(now + cooldownTime), 0, 0) */\n      0xffff\n      and\n      dup2\n      mstore\n      0x20\n      add\n        /* \"contracts/zombiefactory.sol\":718:719  0 */\n      0x00\n        /* \"contracts/zombiefactory.sol\":664:720  Zombie(_name, _dna, 1, uint32(now + cooldownTime), 0, 0) */\n      0xffff\n      and\n      dup2\n      mstore\n      pop\n        /* \"contracts/zombiefactory.sol\":651:721  zombies.push(Zombie(_name, _dna, 1, uint32(now + cooldownTime), 0, 0)) */\n      swap1\n      dup1\n        /* \"--CODEGEN--\":39:40   */\n      0x01\n        /* \"--CODEGEN--\":33:36   */\n      dup2\n        /* \"--CODEGEN--\":27:37   */\n      sload\n        /* \"--CODEGEN--\":23:41   */\n      add\n        /* \"--CODEGEN--\":57:67   */\n      dup1\n        /* \"--CODEGEN--\":52:55   */\n      dup3\n        /* \"--CODEGEN--\":45:68   */\n      sstore\n        /* \"--CODEGEN--\":79:89   */\n      dup1\n        /* \"--CODEGEN--\":72:89   */\n      swap2\n      pop\n        /* \"--CODEGEN--\":0:93   */\n      pop\n        /* \"contracts/zombiefactory.sol\":651:721  zombies.push(Zombie(_name, _dna, 1, uint32(now + cooldownTime), 0, 0)) */\n      swap1\n      0x01\n      dup3\n      sub\n      swap1\n      0x00\n      mstore\n      keccak256(0x00, 0x20)\n      swap1\n      0x03\n      mul\n      add\n      0x00\n      swap1\n      swap2\n      swap3\n      swap1\n      swap2\n      swap1\n      swap2\n      pop\n      0x00\n      dup3\n      add\n      mload\n      dup2\n      0x00\n      add\n      swap1\n      dup1\n      mload\n      swap1\n      0x20\n      add\n      swap1\n      tag_141\n      swap3\n      swap2\n      swap1\n      tag_142\n      jump\t// in\n    tag_141:\n      pop\n      0x20\n      dup3\n      add\n      mload\n      dup2\n      0x01\n      add\n      sstore\n      0x40\n      dup3\n      add\n      mload\n      dup2\n      0x02\n      add\n      exp(0x0100, 0x00)\n      dup2\n      sload\n      dup2\n      0xffffffff\n      mul\n      not\n      and\n      swap1\n      dup4\n      0xffffffff\n      and\n      mul\n      or\n      swap1\n      sstore\n      pop\n      0x60\n      dup3\n      add\n      mload\n      dup2\n      0x02\n      add\n      exp(0x0100, 0x04)\n      dup2\n      sload\n      dup2\n      0xffffffff\n      mul\n      not\n      and\n      swap1\n      dup4\n      0xffffffff\n      and\n      mul\n      or\n      swap1\n      sstore\n      pop\n      0x80\n      dup3\n      add\n      mload\n      dup2\n      0x02\n      add\n      exp(0x0100, 0x08)\n      dup2\n      sload\n      dup2\n      0xffff\n      mul\n      not\n      and\n      swap1\n      dup4\n      0xffff\n      and\n      mul\n      or\n      swap1\n      sstore\n      pop\n      0xa0\n      dup3\n      add\n      mload\n      dup2\n      0x02\n      add\n      exp(0x0100, 0x0a)\n      dup2\n      sload\n      dup2\n      0xffff\n      mul\n      not\n      and\n      swap1\n      dup4\n      0xffff\n      and\n      mul\n      or\n      swap1\n      sstore\n      pop\n      pop\n      pop\n        /* \"contracts/zombiefactory.sol\":651:725  zombies.push(Zombie(_name, _dna, 1, uint32(now + cooldownTime), 0, 0)) - 1 */\n      sub\n        /* \"contracts/zombiefactory.sol\":641:725  uint id = zombies.push(Zombie(_name, _dna, 1, uint32(now + cooldownTime), 0, 0)) - 1 */\n      swap1\n      pop\n        /* \"contracts/zombiefactory.sol\":756:766  msg.sender */\n      caller\n        /* \"contracts/zombiefactory.sol\":736:749  zombieToOwner */\n      0x05\n        /* \"contracts/zombiefactory.sol\":736:753  zombieToOwner[id] */\n      0x00\n        /* \"contracts/zombiefactory.sol\":750:752  id */\n      dup4\n        /* \"contracts/zombiefactory.sol\":736:753  zombieToOwner[id] */\n      dup2\n      mstore\n      0x20\n      add\n      swap1\n      dup2\n      mstore\n      0x20\n      add\n      0x00\n      keccak256\n      0x00\n        /* \"contracts/zombiefactory.sol\":736:766  zombieToOwner[id] = msg.sender */\n      0x0100\n      exp\n      dup2\n      sload\n      dup2\n      0xffffffffffffffffffffffffffffffffffffffff\n      mul\n      not\n      and\n      swap1\n      dup4\n      0xffffffffffffffffffffffffffffffffffffffff\n      and\n      mul\n      or\n      swap1\n      sstore\n      pop\n        /* \"contracts/zombiefactory.sol\":777:793  ownerZombieCount */\n      0x06\n        /* \"contracts/zombiefactory.sol\":777:805  ownerZombieCount[msg.sender] */\n      0x00\n        /* \"contracts/zombiefactory.sol\":794:804  msg.sender */\n      caller\n        /* \"contracts/zombiefactory.sol\":777:805  ownerZombieCount[msg.sender] */\n      0xffffffffffffffffffffffffffffffffffffffff\n      and\n      0xffffffffffffffffffffffffffffffffffffffff\n      and\n      dup2\n      mstore\n      0x20\n      add\n      swap1\n      dup2\n      mstore\n      0x20\n      add\n      0x00\n      keccak256\n      0x00\n        /* \"contracts/zombiefactory.sol\":777:807  ownerZombieCount[msg.sender]++ */\n      dup2\n      sload\n      dup1\n      swap3\n      swap2\n      swap1\n      0x01\n      add\n      swap2\n      swap1\n      pop\n      sstore\n      pop\n        /* \"contracts/zombiefactory.sol\":823:849  NewZombie(id, _name, _dna) */\n      0x88f026aacbbecc90c18411df4b1185fd8d9be2470f1962f192bf84a27d0704b7\n        /* \"contracts/zombiefactory.sol\":833:835  id */\n      dup2\n        /* \"contracts/zombiefactory.sol\":837:842  _name */\n      dup5\n        /* \"contracts/zombiefactory.sol\":844:848  _dna */\n      dup5\n        /* \"contracts/zombiefactory.sol\":823:849  NewZombie(id, _name, _dna) */\n      mload(0x40)\n      dup1\n      dup5\n      dup2\n      mstore\n      0x20\n      add\n      dup1\n      0x20\n      add\n      dup4\n      dup2\n      mstore\n      0x20\n      add\n      dup3\n      dup2\n      sub\n      dup3\n      mstore\n      dup5\n      dup2\n      dup2\n      mload\n      dup2\n      mstore\n      0x20\n      add\n      swap2\n      pop\n      dup1\n      mload\n      swap1\n      0x20\n      add\n      swap1\n      dup1\n      dup4\n      dup4\n        /* \"--CODEGEN--\":23:24   */\n      0x00\n        /* \"--CODEGEN--\":8:108   */\n    tag_143:\n        /* \"--CODEGEN--\":33:36   */\n      dup4\n        /* \"--CODEGEN--\":30:31   */\n      dup2\n        /* \"--CODEGEN--\":27:37   */\n      lt\n        /* \"--CODEGEN--\":8:108   */\n      iszero\n      tag_145\n      jumpi\n        /* \"--CODEGEN--\":99:100   */\n      dup1\n        /* \"--CODEGEN--\":94:97   */\n      dup3\n        /* \"--CODEGEN--\":90:101   */\n      add\n        /* \"--CODEGEN--\":84:102   */\n      mload\n        /* \"--CODEGEN--\":80:81   */\n      dup2\n        /* \"--CODEGEN--\":75:78   */\n      dup5\n        /* \"--CODEGEN--\":71:82   */\n      add\n        /* \"--CODEGEN--\":64:103   */\n      mstore\n        /* \"--CODEGEN--\":52:54   */\n      0x20\n        /* \"--CODEGEN--\":49:50   */\n      dup2\n        /* \"--CODEGEN--\":45:55   */\n      add\n        /* \"--CODEGEN--\":40:55   */\n      swap1\n      pop\n        /* \"--CODEGEN--\":8:108   */\n      jump(tag_143)\n    tag_145:\n        /* \"--CODEGEN--\":12:26   */\n      pop\n        /* \"contracts/zombiefactory.sol\":823:849  NewZombie(id, _name, _dna) */\n      pop\n      pop\n      pop\n      swap1\n      pop\n      swap1\n      dup2\n      add\n      swap1\n      0x1f\n      and\n      dup1\n      iszero\n      tag_146\n      jumpi\n      dup1\n      dup3\n      sub\n      dup1\n      mload\n      0x01\n      dup4\n      0x20\n      sub\n      0x0100\n      exp\n      sub\n      not\n      and\n      dup2\n      mstore\n      0x20\n      add\n      swap2\n      pop\n    tag_146:\n      pop\n      swap5\n      pop\n      pop\n      pop\n      pop\n      pop\n      mload(0x40)\n      dup1\n      swap2\n      sub\n      swap1\n      log1\n        /* \"contracts/zombiefactory.sol\":566:857  function _createZombie(string memory _name, uint _dna) internal {\r... */\n      pop\n      pop\n      pop\n      jump\t// out\n        /* \"contracts/ownable.sol\":1968:2149  function _transferOwnership(address newOwner) internal {\r... */\n    tag_115:\n        /* \"contracts/ownable.sol\":2060:2061  0 */\n      0x00\n        /* \"contracts/ownable.sol\":2040:2062  newOwner != address(0) */\n      0xffffffffffffffffffffffffffffffffffffffff\n      and\n        /* \"contracts/ownable.sol\":2040:2048  newOwner */\n      dup2\n        /* \"contracts/ownable.sol\":2040:2062  newOwner != address(0) */\n      0xffffffffffffffffffffffffffffffffffffffff\n      and\n      eq\n      iszero\n        /* \"contracts/ownable.sol\":2032:2063  require(newOwner != address(0)) */\n      tag_148\n      jumpi\n      0x00\n      dup1\n      revert\n    tag_148:\n        /* \"contracts/ownable.sol\":2106:2114  newOwner */\n      dup1\n        /* \"contracts/ownable.sol\":2077:2115  OwnershipTransferred(_owner, newOwner) */\n      0xffffffffffffffffffffffffffffffffffffffff\n      and\n        /* \"contracts/ownable.sol\":2098:2104  _owner */\n      0x00\n      dup1\n      swap1\n      sload\n      swap1\n      0x0100\n      exp\n      swap1\n      div\n      0xffffffffffffffffffffffffffffffffffffffff\n      and\n        /* \"contracts/ownable.sol\":2077:2115  OwnershipTransferred(_owner, newOwner) */\n      0xffffffffffffffffffffffffffffffffffffffff\n      and\n      0x8be0079c531659141344cd1fd0a4f28419497f9722a3daafe3b4186f6b6457e0\n      mload(0x40)\n      mload(0x40)\n      dup1\n      swap2\n      sub\n      swap1\n      log3\n        /* \"contracts/ownable.sol\":2133:2141  newOwner */\n      dup1\n        /* \"contracts/ownable.sol\":2124:2130  _owner */\n      0x00\n      dup1\n        /* \"contracts/ownable.sol\":2124:2141  _owner = newOwner */\n      0x0100\n      exp\n      dup2\n      sload\n      dup2\n      0xffffffffffffffffffffffffffffffffffffffff\n      mul\n      not\n      and\n      swap1\n      dup4\n      0xffffffffffffffffffffffffffffffffffffffff\n      and\n      mul\n      or\n      swap1\n      sstore\n      pop\n        /* \"contracts/ownable.sol\":1968:2149  function _transferOwnership(address newOwner) internal {\r... */\n      pop\n      jump\t// out\n        /* \"contracts/zombiefeeding.sol\":842:961  function _isReady(Zombie storage _zombie) internal view returns (bool) {\r... */\n    tag_122:\n        /* \"contracts/zombiefeeding.sol\":907:911  bool */\n      0x00\n        /* \"contracts/zombiefeeding.sol\":951:954  now */\n      timestamp\n        /* \"contracts/zombiefeeding.sol\":930:937  _zombie */\n      dup3\n        /* \"contracts/zombiefeeding.sol\":930:947  _zombie.readyTime */\n      0x02\n      add\n      0x04\n      swap1\n      sload\n      swap1\n      0x0100\n      exp\n      swap1\n      div\n      0xffffffff\n      and\n        /* \"contracts/zombiefeeding.sol\":930:954  _zombie.readyTime <= now */\n      0xffffffff\n      and\n      gt\n      iszero\n        /* \"contracts/zombiefeeding.sol\":922:955  return (_zombie.readyTime <= now) */\n      swap1\n      pop\n        /* \"contracts/zombiefeeding.sol\":842:961  function _isReady(Zombie storage _zombie) internal view returns (bool) {\r... */\n      swap2\n      swap1\n      pop\n      jump\t// out\n        /* \"contracts/zombiefeeding.sol\":718:836  function _triggerCooldown(Zombie storage _zombie) internal {\r... */\n    tag_133:\n        /* \"contracts/zombiefeeding.sol\":817:829  cooldownTime */\n      sload(0x03)\n        /* \"contracts/zombiefeeding.sol\":811:814  now */\n      timestamp\n        /* \"contracts/zombiefeeding.sol\":811:829  now + cooldownTime */\n      add\n        /* \"contracts/zombiefeeding.sol\":784:791  _zombie */\n      dup2\n        /* \"contracts/zombiefeeding.sol\":784:801  _zombie.readyTime */\n      0x02\n      add\n      0x04\n        /* \"contracts/zombiefeeding.sol\":784:830  _zombie.readyTime = uint32(now + cooldownTime) */\n      0x0100\n      exp\n      dup2\n      sload\n      dup2\n      0xffffffff\n      mul\n      not\n      and\n      swap1\n      dup4\n      0xffffffff\n      and\n      mul\n      or\n      swap1\n      sstore\n      pop\n        /* \"contracts/zombiefeeding.sol\":718:836  function _triggerCooldown(Zombie storage _zombie) internal {\r... */\n      pop\n      jump\t// out\n        /* \"contracts/zombiehelper.sol\":68:853  contract ZombieHelper is ZombieFeeding {\r... */\n    tag_109:\n      dup3\n      dup1\n      sload\n      0x01\n      dup2\n      0x01\n      and\n      iszero\n      0x0100\n      mul\n      sub\n      and\n      0x02\n      swap1\n      div\n      swap1\n      0x00\n      mstore\n      keccak256(0x00, 0x20)\n      swap1\n      0x1f\n      add\n      0x20\n      swap1\n      div\n      dup2\n      add\n      swap3\n      dup3\n      0x1f\n      lt\n      tag_152\n      jumpi\n      dup1\n      calldataload\n      not(0xff)\n      and\n      dup4\n      dup1\n      add\n      or\n      dup6\n      sstore\n      jump(tag_151)\n    tag_152:\n      dup3\n      dup1\n      add\n      0x01\n      add\n      dup6\n      sstore\n      dup3\n      iszero\n      tag_151\n      jumpi\n      swap2\n      dup3\n      add\n    tag_153:\n      dup3\n      dup2\n      gt\n      iszero\n      tag_154\n      jumpi\n      dup3\n      calldataload\n      dup3\n      sstore\n      swap2\n      0x20\n      add\n      swap2\n      swap1\n      0x01\n      add\n      swap1\n      jump(tag_153)\n    tag_154:\n    tag_151:\n      pop\n      swap1\n      pop\n      tag_155\n      swap2\n      swap1\n      tag_156\n      jump\t// in\n    tag_155:\n      pop\n      swap1\n      jump\t// out\n    tag_142:\n      dup3\n      dup1\n      sload\n      0x01\n      dup2\n      0x01\n      and\n      iszero\n      0x0100\n      mul\n      sub\n      and\n      0x02\n      swap1\n      div\n      swap1\n      0x00\n      mstore\n      keccak256(0x00, 0x20)\n      swap1\n      0x1f\n      add\n      0x20\n      swap1\n      div\n      dup2\n      add\n      swap3\n      dup3\n      0x1f\n      lt\n      tag_158\n      jumpi\n      dup1\n      mload\n      not(0xff)\n      and\n      dup4\n      dup1\n      add\n      or\n      dup6\n      sstore\n      jump(tag_157)\n    tag_158:\n      dup3\n      dup1\n      add\n      0x01\n      add\n      dup6\n      sstore\n      dup3\n      iszero\n      tag_157\n      jumpi\n      swap2\n      dup3\n      add\n    tag_159:\n      dup3\n      dup2\n      gt\n      iszero\n      tag_160\n      jumpi\n      dup3\n      mload\n      dup3\n      sstore\n      swap2\n      0x20\n      add\n      swap2\n      swap1\n      0x01\n      add\n      swap1\n      jump(tag_159)\n    tag_160:\n    tag_157:\n      pop\n      swap1\n      pop\n      tag_161\n      swap2\n      swap1\n      tag_156\n      jump\t// in\n    tag_161:\n      pop\n      swap1\n      jump\t// out\n    tag_156:\n      tag_162\n      swap2\n      swap1\n    tag_163:\n      dup1\n      dup3\n      gt\n      iszero\n      tag_164\n      jumpi\n      0x00\n      dup2\n      0x00\n      swap1\n      sstore\n      pop\n      0x01\n      add\n      jump(tag_163)\n    tag_164:\n      pop\n      swap1\n      jump\n    tag_162:\n      swap1\n      jump\t// out\n\n    auxdata: 0xa265627a7a723158201147d1b2e9ac617ce3a478ca496f0831c1dd345d43dab8db9eda3454b2d9754664736f6c63430005110032\n}\n",
				"bytecode": {
					"linkReferences": {},
					"object": "60806040526010600155600154600a0a60025562015180600355336000806101000a81548173ffffffffffffffffffffffffffffffffffffffff021916908373ffffffffffffffffffffffffffffffffffffffff1602179055506000809054906101000a900473ffffffffffffffffffffffffffffffffffffffff1673ffffffffffffffffffffffffffffffffffffffff16600073ffffffffffffffffffffffffffffffffffffffff167f8be0079c531659141344cd1fd0a4f28419497f9722a3daafe3b4186f6b6457e060405160405180910390a3611448806100e46000396000f3fe608060405234801561001057600080fd5b50600436106100b45760003560e01c8063715018a611610071578063715018a6146103665780637bff0a01146103705780638da5cb5b1461042b5780638f32d59b14610475578063c39cbef114610497578063f2fde38b1461051a576100b4565b806317a7f4cc146100b95780632052465e146100f15780634412e104146101e3578063528b7b8f1461027c5780635f4623f1146102ea5780635faf28801461032e575b600080fd5b6100ef600480360360408110156100cf57600080fd5b81019080803590602001909291908035906020019092919050505061055e565b005b61011d6004803603602081101561010757600080fd5b81019080803590602001909291905050506106e9565b60405180806020018781526020018663ffffffff1663ffffffff1681526020018563ffffffff1663ffffffff1681526020018461ffff1661ffff1681526020018361ffff1661ffff168152602001828103825288818151815260200191508051906020019080838360005b838110156101a3578082015181840152602081019050610188565b50505050905090810190601f1680156101d05780820380516001836020036101000a031916815260200191505b5097505050505050505060405180910390f35b610225600480360360208110156101f957600080fd5b81019080803573ffffffffffffffffffffffffffffffffffffffff169060200190929190505050610806565b6040518080602001828103825283818151815260200191508051906020019060200280838360005b8381101561026857808201518184015260208101905061024d565b505050509050019250505060405180910390f35b6102a86004803603602081101561029257600080fd5b8101908080359060200190929190505050610883565b604051808273ffffffffffffffffffffffffffffffffffffffff1673ffffffffffffffffffffffffffffffffffffffff16815260200191505060405180910390f35b61032c6004803603602081101561030057600080fd5b81019080803573ffffffffffffffffffffffffffffffffffffffff1690602001909291905050506108b6565b005b6103646004803603604081101561034457600080fd5b81019080803590602001909291908035906020019092919050505061090b565b005b61036e6109e3565b005b6104296004803603602081101561038657600080fd5b81019080803590602001906401000000008111156103a357600080fd5b8201836020820111156103b557600080fd5b803590602001918460018302840111640100000000831117156103d757600080fd5b91908080601f016020809104026020016040519081016040528093929190818152602001838380828437600081840152601f19601f820116905080830192505050505050509192919290505050610ab3565b005b610433610b29565b604051808273ffffffffffffffffffffffffffffffffffffffff1673ffffffffffffffffffffffffffffffffffffffff16815260200191505060405180910390f35b61047d610b52565b604051808215151515815260200191505060405180910390f35b610518600480360360408110156104ad57600080fd5b8101908080359060200190929190803590602001906401000000008111156104d457600080fd5b8201836020820111156104e657600080fd5b8035906020019184600183028401116401000000008311171561050857600080fd5b9091929391929390505050610ba9565b005b61055c6004803603602081101561053057600080fd5b81019080803573ffffffffffffffffffffffffffffffffffffffff169060200190929190505050610c8d565b005b6000600760009054906101000a900473ffffffffffffffffffffffffffffffffffffffff1673ffffffffffffffffffffffffffffffffffffffff1663e98b7f4d836040518263ffffffff1660e01b8152600401808281526020019150506101406040518083038186803b1580156105d457600080fd5b505afa1580156105e8573d6000803e3d6000fd5b505050506040513d6101408110156105ff57600080fd5b8101908080519060200190929190805190602001909291908051906020019092919080519060200190929190805190602001909291908051906020019092919080519060200190929190805190602001909291908051906020019092919080519060200190929190505050909192939495969798509091929394959697509091929394959650909192939495509091929394509091929350909192509091509050809150506106e483826040518060400160405280600581526020017f6b69747479000000000000000000000000000000000000000000000000000000815250610caa565b505050565b600481815481106106f657fe5b9060005260206000209060030201600091509050806000018054600181600116156101000203166002900480601f0160208091040260200160405190810160405280929190818152602001828054600181600116156101000203166002900480156107a25780601f10610777576101008083540402835291602001916107a2565b820191906000526020600020905b81548152906001019060200180831161078557829003601f168201915b5050505050908060010154908060020160009054906101000a900463ffffffff16908060020160049054906101000a900463ffffffff16908060020160089054906101000a900461ffff169080600201600a9054906101000a900461ffff16905086565b606080600660008473ffffffffffffffffffffffffffffffffffffffff1673ffffffffffffffffffffffffffffffffffffffff168152602001908152602001600020546040519080825280602002602001820160405280156108775781602001602082028038833980820191505090505b50905080915050919050565b60056020528060005260406000206000915054906101000a900473ffffffffffffffffffffffffffffffffffffffff1681565b6108be610b52565b6108c757600080fd5b80600760006101000a81548173ffffffffffffffffffffffffffffffffffffffff021916908373ffffffffffffffffffffffffffffffffffffffff16021790555050565b601482816004828154811061091c57fe5b906000526020600020906003020160020160009054906101000a900463ffffffff1663ffffffff16101561094f57600080fd5b6005600085815260200190815260200160002060009054906101000a900473ffffffffffffffffffffffffffffffffffffffff1673ffffffffffffffffffffffffffffffffffffffff163373ffffffffffffffffffffffffffffffffffffffff16146109ba57600080fd5b82600485815481106109c857fe5b90600052602060002090600302016001018190555050505050565b6109eb610b52565b6109f457600080fd5b600073ffffffffffffffffffffffffffffffffffffffff166000809054906101000a900473ffffffffffffffffffffffffffffffffffffffff1673ffffffffffffffffffffffffffffffffffffffff167f8be0079c531659141344cd1fd0a4f28419497f9722a3daafe3b4186f6b6457e060405160405180910390a360008060006101000a81548173ffffffffffffffffffffffffffffffffffffffff021916908373ffffffffffffffffffffffffffffffffffffffff160217905550565b6000600660003373ffffffffffffffffffffffffffffffffffffffff1673ffffffffffffffffffffffffffffffffffffffff1681526020019081526020016000205414610aff57600080fd5b6000610b0a82610e8c565b905060648181610b1657fe5b0681039050610b258282610f1a565b5050565b60008060009054906101000a900473ffffffffffffffffffffffffffffffffffffffff16905090565b60008060009054906101000a900473ffffffffffffffffffffffffffffffffffffffff1673ffffffffffffffffffffffffffffffffffffffff163373ffffffffffffffffffffffffffffffffffffffff1614905090565b6002838160048281548110610bba57fe5b906000526020600020906003020160020160009054906101000a900463ffffffff1663ffffffff161015610bed57600080fd5b6005600086815260200190815260200160002060009054906101000a900473ffffffffffffffffffffffffffffffffffffffff1673ffffffffffffffffffffffffffffffffffffffff163373ffffffffffffffffffffffffffffffffffffffff1614610c5857600080fd5b838360048781548110610c6757fe5b90600052602060002090600302016000019190610c859291906112ee565b505050505050565b610c95610b52565b610c9e57600080fd5b610ca7816111a5565b50565b826005600082815260200190815260200160002060009054906101000a900473ffffffffffffffffffffffffffffffffffffffff1673ffffffffffffffffffffffffffffffffffffffff163373ffffffffffffffffffffffffffffffffffffffff1614610d1657600080fd5b600060048581548110610d2557fe5b90600052602060002090600302019050610d3e8161129d565b610d4757600080fd5b6002548481610d5257fe5b069350600060028583600101540181610d6757fe5b04905060405160200180807f6b69747479000000000000000000000000000000000000000000000000000000815250600501905060405160208183030381529060405280519060200120846040516020018082805190602001908083835b60208310610de85780518252602082019150602081019050602083039250610dc5565b6001836020036101000a038019825116818451168082178552505050505050905001915050604051602081830303815290604052805190602001201415610e3c57606360648281610e3557fe5b0682030190505b610e7b6040518060400160405280600681526020017f4e6f4e616d65000000000000000000000000000000000000000000000000000081525082610f1a565b610e84826112c4565b505050505050565b600080826040516020018082805190602001908083835b60208310610ec65780518252602082019150602081019050602083039250610ea3565b6001836020036101000a0380198251168184511680821785525050505050509050019150506040516020818303038152906040528051906020012060001c90506002548181610f1157fe5b06915050919050565b6000600160046040518060c00160405280868152602001858152602001600163ffffffff168152602001600354420163ffffffff168152602001600061ffff168152602001600061ffff16815250908060018154018082558091505090600182039060005260206000209060030201600090919290919091506000820151816000019080519060200190610faf92919061136e565b506020820151816001015560408201518160020160006101000a81548163ffffffff021916908363ffffffff16021790555060608201518160020160046101000a81548163ffffffff021916908363ffffffff16021790555060808201518160020160086101000a81548161ffff021916908361ffff16021790555060a082015181600201600a6101000a81548161ffff021916908361ffff1602179055505050039050336005600083815260200190815260200160002060006101000a81548173ffffffffffffffffffffffffffffffffffffffff021916908373ffffffffffffffffffffffffffffffffffffffff160217905550600660003373ffffffffffffffffffffffffffffffffffffffff1673ffffffffffffffffffffffffffffffffffffffff168152602001908152602001600020600081548092919060010191905055507f88f026aacbbecc90c18411df4b1185fd8d9be2470f1962f192bf84a27d0704b78184846040518084815260200180602001838152602001828103825284818151815260200191508051906020019080838360005b83811015611164578082015181840152602081019050611149565b50505050905090810190601f1680156111915780820380516001836020036101000a031916815260200191505b5094505050505060405180910390a1505050565b600073ffffffffffffffffffffffffffffffffffffffff168173ffffffffffffffffffffffffffffffffffffffff1614156111df57600080fd5b8073ffffffffffffffffffffffffffffffffffffffff166000809054906101000a900473ffffffffffffffffffffffffffffffffffffffff1673ffffffffffffffffffffffffffffffffffffffff167f8be0079c531659141344cd1fd0a4f28419497f9722a3daafe3b4186f6b6457e060405160405180910390a3806000806101000a81548173ffffffffffffffffffffffffffffffffffffffff021916908373ffffffffffffffffffffffffffffffffffffffff16021790555050565b6000428260020160049054906101000a900463ffffffff1663ffffffff1611159050919050565b60035442018160020160046101000a81548163ffffffff021916908363ffffffff16021790555050565b828054600181600116156101000203166002900490600052602060002090601f016020900481019282601f1061132f57803560ff191683800117855561135d565b8280016001018555821561135d579182015b8281111561135c578235825591602001919060010190611341565b5b50905061136a91906113ee565b5090565b828054600181600116156101000203166002900490600052602060002090601f016020900481019282601f106113af57805160ff19168380011785556113dd565b828001600101855582156113dd579182015b828111156113dc5782518255916020019190600101906113c1565b5b5090506113ea91906113ee565b5090565b61141091905b8082111561140c5760008160009055506001016113f4565b5090565b9056fea265627a7a723158201147d1b2e9ac617ce3a478ca496f0831c1dd345d43dab8db9eda3454b2d9754664736f6c63430005110032",
					"opcodes": "PUSH1 0x80 PUSH1 0x40 MSTORE PUSH1 0x10 PUSH1 0x1 SSTORE PUSH1 0x1 SLOAD PUSH1 0xA EXP PUSH1 0x2 SSTORE PUSH3 0x15180 PUSH1 0x3 SSTORE CALLER PUSH1 0x0 DUP1 PUSH2 0x100 EXP DUP2 SLOAD DUP2 PUSH20 0xFFFFFFFFFFFFFFFFFFFFFFFFFFFFFFFFFFFFFFFF MUL NOT AND SWAP1 DUP4 PUSH20 0xFFFFFFFFFFFFFFFFFFFFFFFFFFFFFFFFFFFFFFFF AND MUL OR SWAP1 SSTORE POP PUSH1 0x0 DUP1 SWAP1 SLOAD SWAP1 PUSH2 0x100 EXP SWAP1 DIV PUSH20 0xFFFFFFFFFFFFFFFFFFFFFFFFFFFFFFFFFFFFFFFF AND PUSH20 0xFFFFFFFFFFFFFFFFFFFFFFFFFFFFFFFFFFFFFFFF AND PUSH1 0x0 PUSH20 0xFFFFFFFFFFFFFFFFFFFFFFFFFFFFFFFFFFFFFFFF AND PUSH32 0x8BE0079C531659141344CD1FD0A4F28419497F9722A3DAAFE3B4186F6B6457E0 PUSH1 0x40 MLOAD PUSH1 0x40 MLOAD DUP1 SWAP2 SUB SWAP1 LOG3 PUSH2 0x1448 DUP1 PUSH2 0xE4 PUSH1 0x0 CODECOPY PUSH1 0x0 RETURN INVALID PUSH1 0x80 PUSH1 0x40 MSTORE CALLVALUE DUP1 ISZERO PUSH2 0x10 JUMPI PUSH1 0x0 DUP1 REVERT JUMPDEST POP PUSH1 0x4 CALLDATASIZE LT PUSH2 0xB4 JUMPI PUSH1 0x0 CALLDATALOAD PUSH1 0xE0 SHR DUP1 PUSH4 0x715018A6 GT PUSH2 0x71 JUMPI DUP1 PUSH4 0x715018A6 EQ PUSH2 0x366 JUMPI DUP1 PUSH4 0x7BFF0A01 EQ PUSH2 0x370 JUMPI DUP1 PUSH4 0x8DA5CB5B EQ PUSH2 0x42B JUMPI DUP1 PUSH4 0x8F32D59B EQ PUSH2 0x475 JUMPI DUP1 PUSH4 0xC39CBEF1 EQ PUSH2 0x497 JUMPI DUP1 PUSH4 0xF2FDE38B EQ PUSH2 0x51A JUMPI PUSH2 0xB4 JUMP JUMPDEST DUP1 PUSH4 0x17A7F4CC EQ PUSH2 0xB9 JUMPI DUP1 PUSH4 0x2052465E EQ PUSH2 0xF1 JUMPI DUP1 PUSH4 0x4412E104 EQ PUSH2 0x1E3 JUMPI DUP1 PUSH4 0x528B7B8F EQ PUSH2 0x27C JUMPI DUP1 PUSH4 0x5F4623F1 EQ PUSH2 0x2EA JUMPI DUP1 PUSH4 0x5FAF2880 EQ PUSH2 0x32E JUMPI JUMPDEST PUSH1 0x0 DUP1 REVERT JUMPDEST PUSH2 0xEF PUSH1 0x4 DUP1 CALLDATASIZE SUB PUSH1 0x40 DUP2 LT ISZERO PUSH2 0xCF JUMPI PUSH1 0x0 DUP1 REVERT JUMPDEST DUP2 ADD SWAP1 DUP1 DUP1 CALLDATALOAD SWAP1 PUSH1 0x20 ADD SWAP1 SWAP3 SWAP2 SWAP1 DUP1 CALLDATALOAD SWAP1 PUSH1 0x20 ADD SWAP1 SWAP3 SWAP2 SWAP1 POP POP POP PUSH2 0x55E JUMP JUMPDEST STOP JUMPDEST PUSH2 0x11D PUSH1 0x4 DUP1 CALLDATASIZE SUB PUSH1 0x20 DUP2 LT ISZERO PUSH2 0x107 JUMPI PUSH1 0x0 DUP1 REVERT JUMPDEST DUP2 ADD SWAP1 DUP1 DUP1 CALLDATALOAD SWAP1 PUSH1 0x20 ADD SWAP1 SWAP3 SWAP2 SWAP1 POP POP POP PUSH2 0x6E9 JUMP JUMPDEST PUSH1 0x40 MLOAD DUP1 DUP1 PUSH1 0x20 ADD DUP8 DUP2 MSTORE PUSH1 0x20 ADD DUP7 PUSH4 0xFFFFFFFF AND PUSH4 0xFFFFFFFF AND DUP2 MSTORE PUSH1 0x20 ADD DUP6 PUSH4 0xFFFFFFFF AND PUSH4 0xFFFFFFFF AND DUP2 MSTORE PUSH1 0x20 ADD DUP5 PUSH2 0xFFFF AND PUSH2 0xFFFF AND DUP2 MSTORE PUSH1 0x20 ADD DUP4 PUSH2 0xFFFF AND PUSH2 0xFFFF AND DUP2 MSTORE PUSH1 0x20 ADD DUP3 DUP2 SUB DUP3 MSTORE DUP9 DUP2 DUP2 MLOAD DUP2 MSTORE PUSH1 0x20 ADD SWAP2 POP DUP1 MLOAD SWAP1 PUSH1 0x20 ADD SWAP1 DUP1 DUP4 DUP4 PUSH1 0x0 JUMPDEST DUP4 DUP2 LT ISZERO PUSH2 0x1A3 JUMPI DUP1 DUP3 ADD MLOAD DUP2 DUP5 ADD MSTORE PUSH1 0x20 DUP2 ADD SWAP1 POP PUSH2 0x188 JUMP JUMPDEST POP POP POP POP SWAP1 POP SWAP1 DUP2 ADD SWAP1 PUSH1 0x1F AND DUP1 ISZERO PUSH2 0x1D0 JUMPI DUP1 DUP3 SUB DUP1 MLOAD PUSH1 0x1 DUP4 PUSH1 0x20 SUB PUSH2 0x100 EXP SUB NOT AND DUP2 MSTORE PUSH1 0x20 ADD SWAP2 POP JUMPDEST POP SWAP8 POP POP POP POP POP POP POP POP PUSH1 0x40 MLOAD DUP1 SWAP2 SUB SWAP1 RETURN JUMPDEST PUSH2 0x225 PUSH1 0x4 DUP1 CALLDATASIZE SUB PUSH1 0x20 DUP2 LT ISZERO PUSH2 0x1F9 JUMPI PUSH1 0x0 DUP1 REVERT JUMPDEST DUP2 ADD SWAP1 DUP1 DUP1 CALLDATALOAD PUSH20 0xFFFFFFFFFFFFFFFFFFFFFFFFFFFFFFFFFFFFFFFF AND SWAP1 PUSH1 0x20 ADD SWAP1 SWAP3 SWAP2 SWAP1 POP POP POP PUSH2 0x806 JUMP JUMPDEST PUSH1 0x40 MLOAD DUP1 DUP1 PUSH1 0x20 ADD DUP3 DUP2 SUB DUP3 MSTORE DUP4 DUP2 DUP2 MLOAD DUP2 MSTORE PUSH1 0x20 ADD SWAP2 POP DUP1 MLOAD SWAP1 PUSH1 0x20 ADD SWAP1 PUSH1 0x20 MUL DUP1 DUP4 DUP4 PUSH1 0x0 JUMPDEST DUP4 DUP2 LT ISZERO PUSH2 0x268 JUMPI DUP1 DUP3 ADD MLOAD DUP2 DUP5 ADD MSTORE PUSH1 0x20 DUP2 ADD SWAP1 POP PUSH2 0x24D JUMP JUMPDEST POP POP POP POP SWAP1 POP ADD SWAP3 POP POP POP PUSH1 0x40 MLOAD DUP1 SWAP2 SUB SWAP1 RETURN JUMPDEST PUSH2 0x2A8 PUSH1 0x4 DUP1 CALLDATASIZE SUB PUSH1 0x20 DUP2 LT ISZERO PUSH2 0x292 JUMPI PUSH1 0x0 DUP1 REVERT JUMPDEST DUP2 ADD SWAP1 DUP1 DUP1 CALLDATALOAD SWAP1 PUSH1 0x20 ADD SWAP1 SWAP3 SWAP2 SWAP1 POP POP POP PUSH2 0x883 JUMP JUMPDEST PUSH1 0x40 MLOAD DUP1 DUP3 PUSH20 0xFFFFFFFFFFFFFFFFFFFFFFFFFFFFFFFFFFFFFFFF AND PUSH20 0xFFFFFFFFFFFFFFFFFFFFFFFFFFFFFFFFFFFFFFFF AND DUP2 MSTORE PUSH1 0x20 ADD SWAP2 POP POP PUSH1 0x40 MLOAD DUP1 SWAP2 SUB SWAP1 RETURN JUMPDEST PUSH2 0x32C PUSH1 0x4 DUP1 CALLDATASIZE SUB PUSH1 0x20 DUP2 LT ISZERO PUSH2 0x300 JUMPI PUSH1 0x0 DUP1 REVERT JUMPDEST DUP2 ADD SWAP1 DUP1 DUP1 CALLDATALOAD PUSH20 0xFFFFFFFFFFFFFFFFFFFFFFFFFFFFFFFFFFFFFFFF AND SWAP1 PUSH1 0x20 ADD SWAP1 SWAP3 SWAP2 SWAP1 POP POP POP PUSH2 0x8B6 JUMP JUMPDEST STOP JUMPDEST PUSH2 0x364 PUSH1 0x4 DUP1 CALLDATASIZE SUB PUSH1 0x40 DUP2 LT ISZERO PUSH2 0x344 JUMPI PUSH1 0x0 DUP1 REVERT JUMPDEST DUP2 ADD SWAP1 DUP1 DUP1 CALLDATALOAD SWAP1 PUSH1 0x20 ADD SWAP1 SWAP3 SWAP2 SWAP1 DUP1 CALLDATALOAD SWAP1 PUSH1 0x20 ADD SWAP1 SWAP3 SWAP2 SWAP1 POP POP POP PUSH2 0x90B JUMP JUMPDEST STOP JUMPDEST PUSH2 0x36E PUSH2 0x9E3 JUMP JUMPDEST STOP JUMPDEST PUSH2 0x429 PUSH1 0x4 DUP1 CALLDATASIZE SUB PUSH1 0x20 DUP2 LT ISZERO PUSH2 0x386 JUMPI PUSH1 0x0 DUP1 REVERT JUMPDEST DUP2 ADD SWAP1 DUP1 DUP1 CALLDATALOAD SWAP1 PUSH1 0x20 ADD SWAP1 PUSH5 0x100000000 DUP2 GT ISZERO PUSH2 0x3A3 JUMPI PUSH1 0x0 DUP1 REVERT JUMPDEST DUP3 ADD DUP4 PUSH1 0x20 DUP3 ADD GT ISZERO PUSH2 0x3B5 JUMPI PUSH1 0x0 DUP1 REVERT JUMPDEST DUP1 CALLDATALOAD SWAP1 PUSH1 0x20 ADD SWAP2 DUP5 PUSH1 0x1 DUP4 MUL DUP5 ADD GT PUSH5 0x100000000 DUP4 GT OR ISZERO PUSH2 0x3D7 JUMPI PUSH1 0x0 DUP1 REVERT JUMPDEST SWAP2 SWAP1 DUP1 DUP1 PUSH1 0x1F ADD PUSH1 0x20 DUP1 SWAP2 DIV MUL PUSH1 0x20 ADD PUSH1 0x40 MLOAD SWAP1 DUP2 ADD PUSH1 0x40 MSTORE DUP1 SWAP4 SWAP3 SWAP2 SWAP1 DUP2 DUP2 MSTORE PUSH1 0x20 ADD DUP4 DUP4 DUP1 DUP3 DUP5 CALLDATACOPY PUSH1 0x0 DUP2 DUP5 ADD MSTORE PUSH1 0x1F NOT PUSH1 0x1F DUP3 ADD AND SWAP1 POP DUP1 DUP4 ADD SWAP3 POP POP POP POP POP POP POP SWAP2 SWAP3 SWAP2 SWAP3 SWAP1 POP POP POP PUSH2 0xAB3 JUMP JUMPDEST STOP JUMPDEST PUSH2 0x433 PUSH2 0xB29 JUMP JUMPDEST PUSH1 0x40 MLOAD DUP1 DUP3 PUSH20 0xFFFFFFFFFFFFFFFFFFFFFFFFFFFFFFFFFFFFFFFF AND PUSH20 0xFFFFFFFFFFFFFFFFFFFFFFFFFFFFFFFFFFFFFFFF AND DUP2 MSTORE PUSH1 0x20 ADD SWAP2 POP POP PUSH1 0x40 MLOAD DUP1 SWAP2 SUB SWAP1 RETURN JUMPDEST PUSH2 0x47D PUSH2 0xB52 JUMP JUMPDEST PUSH1 0x40 MLOAD DUP1 DUP3 ISZERO ISZERO ISZERO ISZERO DUP2 MSTORE PUSH1 0x20 ADD SWAP2 POP POP PUSH1 0x40 MLOAD DUP1 SWAP2 SUB SWAP1 RETURN JUMPDEST PUSH2 0x518 PUSH1 0x4 DUP1 CALLDATASIZE SUB PUSH1 0x40 DUP2 LT ISZERO PUSH2 0x4AD JUMPI PUSH1 0x0 DUP1 REVERT JUMPDEST DUP2 ADD SWAP1 DUP1 DUP1 CALLDATALOAD SWAP1 PUSH1 0x20 ADD SWAP1 SWAP3 SWAP2 SWAP1 DUP1 CALLDATALOAD SWAP1 PUSH1 0x20 ADD SWAP1 PUSH5 0x100000000 DUP2 GT ISZERO PUSH2 0x4D4 JUMPI PUSH1 0x0 DUP1 REVERT JUMPDEST DUP3 ADD DUP4 PUSH1 0x20 DUP3 ADD GT ISZERO PUSH2 0x4E6 JUMPI PUSH1 0x0 DUP1 REVERT JUMPDEST DUP1 CALLDATALOAD SWAP1 PUSH1 0x20 ADD SWAP2 DUP5 PUSH1 0x1 DUP4 MUL DUP5 ADD GT PUSH5 0x100000000 DUP4 GT OR ISZERO PUSH2 0x508 JUMPI PUSH1 0x0 DUP1 REVERT JUMPDEST SWAP1 SWAP2 SWAP3 SWAP4 SWAP2 SWAP3 SWAP4 SWAP1 POP POP POP PUSH2 0xBA9 JUMP JUMPDEST STOP JUMPDEST PUSH2 0x55C PUSH1 0x4 DUP1 CALLDATASIZE SUB PUSH1 0x20 DUP2 LT ISZERO PUSH2 0x530 JUMPI PUSH1 0x0 DUP1 REVERT JUMPDEST DUP2 ADD SWAP1 DUP1 DUP1 CALLDATALOAD PUSH20 0xFFFFFFFFFFFFFFFFFFFFFFFFFFFFFFFFFFFFFFFF AND SWAP1 PUSH1 0x20 ADD SWAP1 SWAP3 SWAP2 SWAP1 POP POP POP PUSH2 0xC8D JUMP JUMPDEST STOP JUMPDEST PUSH1 0x0 PUSH1 0x7 PUSH1 0x0 SWAP1 SLOAD SWAP1 PUSH2 0x100 EXP SWAP1 DIV PUSH20 0xFFFFFFFFFFFFFFFFFFFFFFFFFFFFFFFFFFFFFFFF AND PUSH20 0xFFFFFFFFFFFFFFFFFFFFFFFFFFFFFFFFFFFFFFFF AND PUSH4 0xE98B7F4D DUP4 PUSH1 0x40 MLOAD DUP3 PUSH4 0xFFFFFFFF AND PUSH1 0xE0 SHL DUP2 MSTORE PUSH1 0x4 ADD DUP1 DUP3 DUP2 MSTORE PUSH1 0x20 ADD SWAP2 POP POP PUSH2 0x140 PUSH1 0x40 MLOAD DUP1 DUP4 SUB DUP2 DUP7 DUP1 EXTCODESIZE ISZERO DUP1 ISZERO PUSH2 0x5D4 JUMPI PUSH1 0x0 DUP1 REVERT JUMPDEST POP GAS STATICCALL ISZERO DUP1 ISZERO PUSH2 0x5E8 JUMPI RETURNDATASIZE PUSH1 0x0 DUP1 RETURNDATACOPY RETURNDATASIZE PUSH1 0x0 REVERT JUMPDEST POP POP POP POP PUSH1 0x40 MLOAD RETURNDATASIZE PUSH2 0x140 DUP2 LT ISZERO PUSH2 0x5FF JUMPI PUSH1 0x0 DUP1 REVERT JUMPDEST DUP2 ADD SWAP1 DUP1 DUP1 MLOAD SWAP1 PUSH1 0x20 ADD SWAP1 SWAP3 SWAP2 SWAP1 DUP1 MLOAD SWAP1 PUSH1 0x20 ADD SWAP1 SWAP3 SWAP2 SWAP1 DUP1 MLOAD SWAP1 PUSH1 0x20 ADD SWAP1 SWAP3 SWAP2 SWAP1 DUP1 MLOAD SWAP1 PUSH1 0x20 ADD SWAP1 SWAP3 SWAP2 SWAP1 DUP1 MLOAD SWAP1 PUSH1 0x20 ADD SWAP1 SWAP3 SWAP2 SWAP1 DUP1 MLOAD SWAP1 PUSH1 0x20 ADD SWAP1 SWAP3 SWAP2 SWAP1 DUP1 MLOAD SWAP1 PUSH1 0x20 ADD SWAP1 SWAP3 SWAP2 SWAP1 DUP1 MLOAD SWAP1 PUSH1 0x20 ADD SWAP1 SWAP3 SWAP2 SWAP1 DUP1 MLOAD SWAP1 PUSH1 0x20 ADD SWAP1 SWAP3 SWAP2 SWAP1 DUP1 MLOAD SWAP1 PUSH1 0x20 ADD SWAP1 SWAP3 SWAP2 SWAP1 POP POP POP SWAP1 SWAP2 SWAP3 SWAP4 SWAP5 SWAP6 SWAP7 SWAP8 SWAP9 POP SWAP1 SWAP2 SWAP3 SWAP4 SWAP5 SWAP6 SWAP7 SWAP8 POP SWAP1 SWAP2 SWAP3 SWAP4 SWAP5 SWAP6 SWAP7 POP SWAP1 SWAP2 SWAP3 SWAP4 SWAP5 SWAP6 POP SWAP1 SWAP2 SWAP3 SWAP4 SWAP5 POP SWAP1 SWAP2 SWAP3 SWAP4 POP SWAP1 SWAP2 SWAP3 POP SWAP1 SWAP2 POP SWAP1 POP DUP1 SWAP2 POP POP PUSH2 0x6E4 DUP4 DUP3 PUSH1 0x40 MLOAD DUP1 PUSH1 0x40 ADD PUSH1 0x40 MSTORE DUP1 PUSH1 0x5 DUP2 MSTORE PUSH1 0x20 ADD PUSH32 0x6B69747479000000000000000000000000000000000000000000000000000000 DUP2 MSTORE POP PUSH2 0xCAA JUMP JUMPDEST POP POP POP JUMP JUMPDEST PUSH1 0x4 DUP2 DUP2 SLOAD DUP2 LT PUSH2 0x6F6 JUMPI INVALID JUMPDEST SWAP1 PUSH1 0x0 MSTORE PUSH1 0x20 PUSH1 0x0 KECCAK256 SWAP1 PUSH1 0x3 MUL ADD PUSH1 0x0 SWAP2 POP SWAP1 POP DUP1 PUSH1 0x0 ADD DUP1 SLOAD PUSH1 0x1 DUP2 PUSH1 0x1 AND ISZERO PUSH2 0x100 MUL SUB AND PUSH1 0x2 SWAP1 DIV DUP1 PUSH1 0x1F ADD PUSH1 0x20 DUP1 SWAP2 DIV MUL PUSH1 0x20 ADD PUSH1 0x40 MLOAD SWAP1 DUP2 ADD PUSH1 0x40 MSTORE DUP1 SWAP3 SWAP2 SWAP1 DUP2 DUP2 MSTORE PUSH1 0x20 ADD DUP3 DUP1 SLOAD PUSH1 0x1 DUP2 PUSH1 0x1 AND ISZERO PUSH2 0x100 MUL SUB AND PUSH1 0x2 SWAP1 DIV DUP1 ISZERO PUSH2 0x7A2 JUMPI DUP1 PUSH1 0x1F LT PUSH2 0x777 JUMPI PUSH2 0x100 DUP1 DUP4 SLOAD DIV MUL DUP4 MSTORE SWAP2 PUSH1 0x20 ADD SWAP2 PUSH2 0x7A2 JUMP JUMPDEST DUP3 ADD SWAP2 SWAP1 PUSH1 0x0 MSTORE PUSH1 0x20 PUSH1 0x0 KECCAK256 SWAP1 JUMPDEST DUP2 SLOAD DUP2 MSTORE SWAP1 PUSH1 0x1 ADD SWAP1 PUSH1 0x20 ADD DUP1 DUP4 GT PUSH2 0x785 JUMPI DUP3 SWAP1 SUB PUSH1 0x1F AND DUP3 ADD SWAP2 JUMPDEST POP POP POP POP POP SWAP1 DUP1 PUSH1 0x1 ADD SLOAD SWAP1 DUP1 PUSH1 0x2 ADD PUSH1 0x0 SWAP1 SLOAD SWAP1 PUSH2 0x100 EXP SWAP1 DIV PUSH4 0xFFFFFFFF AND SWAP1 DUP1 PUSH1 0x2 ADD PUSH1 0x4 SWAP1 SLOAD SWAP1 PUSH2 0x100 EXP SWAP1 DIV PUSH4 0xFFFFFFFF AND SWAP1 DUP1 PUSH1 0x2 ADD PUSH1 0x8 SWAP1 SLOAD SWAP1 PUSH2 0x100 EXP SWAP1 DIV PUSH2 0xFFFF AND SWAP1 DUP1 PUSH1 0x2 ADD PUSH1 0xA SWAP1 SLOAD SWAP1 PUSH2 0x100 EXP SWAP1 DIV PUSH2 0xFFFF AND SWAP1 POP DUP7 JUMP JUMPDEST PUSH1 0x60 DUP1 PUSH1 0x6 PUSH1 0x0 DUP5 PUSH20 0xFFFFFFFFFFFFFFFFFFFFFFFFFFFFFFFFFFFFFFFF AND PUSH20 0xFFFFFFFFFFFFFFFFFFFFFFFFFFFFFFFFFFFFFFFF AND DUP2 MSTORE PUSH1 0x20 ADD SWAP1 DUP2 MSTORE PUSH1 0x20 ADD PUSH1 0x0 KECCAK256 SLOAD PUSH1 0x40 MLOAD SWAP1 DUP1 DUP3 MSTORE DUP1 PUSH1 0x20 MUL PUSH1 0x20 ADD DUP3 ADD PUSH1 0x40 MSTORE DUP1 ISZERO PUSH2 0x877 JUMPI DUP2 PUSH1 0x20 ADD PUSH1 0x20 DUP3 MUL DUP1 CODESIZE DUP4 CODECOPY DUP1 DUP3 ADD SWAP2 POP POP SWAP1 POP JUMPDEST POP SWAP1 POP DUP1 SWAP2 POP POP SWAP2 SWAP1 POP JUMP JUMPDEST PUSH1 0x5 PUSH1 0x20 MSTORE DUP1 PUSH1 0x0 MSTORE PUSH1 0x40 PUSH1 0x0 KECCAK256 PUSH1 0x0 SWAP2 POP SLOAD SWAP1 PUSH2 0x100 EXP SWAP1 DIV PUSH20 0xFFFFFFFFFFFFFFFFFFFFFFFFFFFFFFFFFFFFFFFF AND DUP2 JUMP JUMPDEST PUSH2 0x8BE PUSH2 0xB52 JUMP JUMPDEST PUSH2 0x8C7 JUMPI PUSH1 0x0 DUP1 REVERT JUMPDEST DUP1 PUSH1 0x7 PUSH1 0x0 PUSH2 0x100 EXP DUP2 SLOAD DUP2 PUSH20 0xFFFFFFFFFFFFFFFFFFFFFFFFFFFFFFFFFFFFFFFF MUL NOT AND SWAP1 DUP4 PUSH20 0xFFFFFFFFFFFFFFFFFFFFFFFFFFFFFFFFFFFFFFFF AND MUL OR SWAP1 SSTORE POP POP JUMP JUMPDEST PUSH1 0x14 DUP3 DUP2 PUSH1 0x4 DUP3 DUP2 SLOAD DUP2 LT PUSH2 0x91C JUMPI INVALID JUMPDEST SWAP1 PUSH1 0x0 MSTORE PUSH1 0x20 PUSH1 0x0 KECCAK256 SWAP1 PUSH1 0x3 MUL ADD PUSH1 0x2 ADD PUSH1 0x0 SWAP1 SLOAD SWAP1 PUSH2 0x100 EXP SWAP1 DIV PUSH4 0xFFFFFFFF AND PUSH4 0xFFFFFFFF AND LT ISZERO PUSH2 0x94F JUMPI PUSH1 0x0 DUP1 REVERT JUMPDEST PUSH1 0x5 PUSH1 0x0 DUP6 DUP2 MSTORE PUSH1 0x20 ADD SWAP1 DUP2 MSTORE PUSH1 0x20 ADD PUSH1 0x0 KECCAK256 PUSH1 0x0 SWAP1 SLOAD SWAP1 PUSH2 0x100 EXP SWAP1 DIV PUSH20 0xFFFFFFFFFFFFFFFFFFFFFFFFFFFFFFFFFFFFFFFF AND PUSH20 0xFFFFFFFFFFFFFFFFFFFFFFFFFFFFFFFFFFFFFFFF AND CALLER PUSH20 0xFFFFFFFFFFFFFFFFFFFFFFFFFFFFFFFFFFFFFFFF AND EQ PUSH2 0x9BA JUMPI PUSH1 0x0 DUP1 REVERT JUMPDEST DUP3 PUSH1 0x4 DUP6 DUP2 SLOAD DUP2 LT PUSH2 0x9C8 JUMPI INVALID JUMPDEST SWAP1 PUSH1 0x0 MSTORE PUSH1 0x20 PUSH1 0x0 KECCAK256 SWAP1 PUSH1 0x3 MUL ADD PUSH1 0x1 ADD DUP2 SWAP1 SSTORE POP POP POP POP POP JUMP JUMPDEST PUSH2 0x9EB PUSH2 0xB52 JUMP JUMPDEST PUSH2 0x9F4 JUMPI PUSH1 0x0 DUP1 REVERT JUMPDEST PUSH1 0x0 PUSH20 0xFFFFFFFFFFFFFFFFFFFFFFFFFFFFFFFFFFFFFFFF AND PUSH1 0x0 DUP1 SWAP1 SLOAD SWAP1 PUSH2 0x100 EXP SWAP1 DIV PUSH20 0xFFFFFFFFFFFFFFFFFFFFFFFFFFFFFFFFFFFFFFFF AND PUSH20 0xFFFFFFFFFFFFFFFFFFFFFFFFFFFFFFFFFFFFFFFF AND PUSH32 0x8BE0079C531659141344CD1FD0A4F28419497F9722A3DAAFE3B4186F6B6457E0 PUSH1 0x40 MLOAD PUSH1 0x40 MLOAD DUP1 SWAP2 SUB SWAP1 LOG3 PUSH1 0x0 DUP1 PUSH1 0x0 PUSH2 0x100 EXP DUP2 SLOAD DUP2 PUSH20 0xFFFFFFFFFFFFFFFFFFFFFFFFFFFFFFFFFFFFFFFF MUL NOT AND SWAP1 DUP4 PUSH20 0xFFFFFFFFFFFFFFFFFFFFFFFFFFFFFFFFFFFFFFFF AND MUL OR SWAP1 SSTORE POP JUMP JUMPDEST PUSH1 0x0 PUSH1 0x6 PUSH1 0x0 CALLER PUSH20 0xFFFFFFFFFFFFFFFFFFFFFFFFFFFFFFFFFFFFFFFF AND PUSH20 0xFFFFFFFFFFFFFFFFFFFFFFFFFFFFFFFFFFFFFFFF AND DUP2 MSTORE PUSH1 0x20 ADD SWAP1 DUP2 MSTORE PUSH1 0x20 ADD PUSH1 0x0 KECCAK256 SLOAD EQ PUSH2 0xAFF JUMPI PUSH1 0x0 DUP1 REVERT JUMPDEST PUSH1 0x0 PUSH2 0xB0A DUP3 PUSH2 0xE8C JUMP JUMPDEST SWAP1 POP PUSH1 0x64 DUP2 DUP2 PUSH2 0xB16 JUMPI INVALID JUMPDEST MOD DUP2 SUB SWAP1 POP PUSH2 0xB25 DUP3 DUP3 PUSH2 0xF1A JUMP JUMPDEST POP POP JUMP JUMPDEST PUSH1 0x0 DUP1 PUSH1 0x0 SWAP1 SLOAD SWAP1 PUSH2 0x100 EXP SWAP1 DIV PUSH20 0xFFFFFFFFFFFFFFFFFFFFFFFFFFFFFFFFFFFFFFFF AND SWAP1 POP SWAP1 JUMP JUMPDEST PUSH1 0x0 DUP1 PUSH1 0x0 SWAP1 SLOAD SWAP1 PUSH2 0x100 EXP SWAP1 DIV PUSH20 0xFFFFFFFFFFFFFFFFFFFFFFFFFFFFFFFFFFFFFFFF AND PUSH20 0xFFFFFFFFFFFFFFFFFFFFFFFFFFFFFFFFFFFFFFFF AND CALLER PUSH20 0xFFFFFFFFFFFFFFFFFFFFFFFFFFFFFFFFFFFFFFFF AND EQ SWAP1 POP SWAP1 JUMP JUMPDEST PUSH1 0x2 DUP4 DUP2 PUSH1 0x4 DUP3 DUP2 SLOAD DUP2 LT PUSH2 0xBBA JUMPI INVALID JUMPDEST SWAP1 PUSH1 0x0 MSTORE PUSH1 0x20 PUSH1 0x0 KECCAK256 SWAP1 PUSH1 0x3 MUL ADD PUSH1 0x2 ADD PUSH1 0x0 SWAP1 SLOAD SWAP1 PUSH2 0x100 EXP SWAP1 DIV PUSH4 0xFFFFFFFF AND PUSH4 0xFFFFFFFF AND LT ISZERO PUSH2 0xBED JUMPI PUSH1 0x0 DUP1 REVERT JUMPDEST PUSH1 0x5 PUSH1 0x0 DUP7 DUP2 MSTORE PUSH1 0x20 ADD SWAP1 DUP2 MSTORE PUSH1 0x20 ADD PUSH1 0x0 KECCAK256 PUSH1 0x0 SWAP1 SLOAD SWAP1 PUSH2 0x100 EXP SWAP1 DIV PUSH20 0xFFFFFFFFFFFFFFFFFFFFFFFFFFFFFFFFFFFFFFFF AND PUSH20 0xFFFFFFFFFFFFFFFFFFFFFFFFFFFFFFFFFFFFFFFF AND CALLER PUSH20 0xFFFFFFFFFFFFFFFFFFFFFFFFFFFFFFFFFFFFFFFF AND EQ PUSH2 0xC58 JUMPI PUSH1 0x0 DUP1 REVERT JUMPDEST DUP4 DUP4 PUSH1 0x4 DUP8 DUP2 SLOAD DUP2 LT PUSH2 0xC67 JUMPI INVALID JUMPDEST SWAP1 PUSH1 0x0 MSTORE PUSH1 0x20 PUSH1 0x0 KECCAK256 SWAP1 PUSH1 0x3 MUL ADD PUSH1 0x0 ADD SWAP2 SWAP1 PUSH2 0xC85 SWAP3 SWAP2 SWAP1 PUSH2 0x12EE JUMP JUMPDEST POP POP POP POP POP POP JUMP JUMPDEST PUSH2 0xC95 PUSH2 0xB52 JUMP JUMPDEST PUSH2 0xC9E JUMPI PUSH1 0x0 DUP1 REVERT JUMPDEST PUSH2 0xCA7 DUP2 PUSH2 0x11A5 JUMP JUMPDEST POP JUMP JUMPDEST DUP3 PUSH1 0x5 PUSH1 0x0 DUP3 DUP2 MSTORE PUSH1 0x20 ADD SWAP1 DUP2 MSTORE PUSH1 0x20 ADD PUSH1 0x0 KECCAK256 PUSH1 0x0 SWAP1 SLOAD SWAP1 PUSH2 0x100 EXP SWAP1 DIV PUSH20 0xFFFFFFFFFFFFFFFFFFFFFFFFFFFFFFFFFFFFFFFF AND PUSH20 0xFFFFFFFFFFFFFFFFFFFFFFFFFFFFFFFFFFFFFFFF AND CALLER PUSH20 0xFFFFFFFFFFFFFFFFFFFFFFFFFFFFFFFFFFFFFFFF AND EQ PUSH2 0xD16 JUMPI PUSH1 0x0 DUP1 REVERT JUMPDEST PUSH1 0x0 PUSH1 0x4 DUP6 DUP2 SLOAD DUP2 LT PUSH2 0xD25 JUMPI INVALID JUMPDEST SWAP1 PUSH1 0x0 MSTORE PUSH1 0x20 PUSH1 0x0 KECCAK256 SWAP1 PUSH1 0x3 MUL ADD SWAP1 POP PUSH2 0xD3E DUP2 PUSH2 0x129D JUMP JUMPDEST PUSH2 0xD47 JUMPI PUSH1 0x0 DUP1 REVERT JUMPDEST PUSH1 0x2 SLOAD DUP5 DUP2 PUSH2 0xD52 JUMPI INVALID JUMPDEST MOD SWAP4 POP PUSH1 0x0 PUSH1 0x2 DUP6 DUP4 PUSH1 0x1 ADD SLOAD ADD DUP2 PUSH2 0xD67 JUMPI INVALID JUMPDEST DIV SWAP1 POP PUSH1 0x40 MLOAD PUSH1 0x20 ADD DUP1 DUP1 PUSH32 0x6B69747479000000000000000000000000000000000000000000000000000000 DUP2 MSTORE POP PUSH1 0x5 ADD SWAP1 POP PUSH1 0x40 MLOAD PUSH1 0x20 DUP2 DUP4 SUB SUB DUP2 MSTORE SWAP1 PUSH1 0x40 MSTORE DUP1 MLOAD SWAP1 PUSH1 0x20 ADD KECCAK256 DUP5 PUSH1 0x40 MLOAD PUSH1 0x20 ADD DUP1 DUP3 DUP1 MLOAD SWAP1 PUSH1 0x20 ADD SWAP1 DUP1 DUP4 DUP4 JUMPDEST PUSH1 0x20 DUP4 LT PUSH2 0xDE8 JUMPI DUP1 MLOAD DUP3 MSTORE PUSH1 0x20 DUP3 ADD SWAP2 POP PUSH1 0x20 DUP2 ADD SWAP1 POP PUSH1 0x20 DUP4 SUB SWAP3 POP PUSH2 0xDC5 JUMP JUMPDEST PUSH1 0x1 DUP4 PUSH1 0x20 SUB PUSH2 0x100 EXP SUB DUP1 NOT DUP3 MLOAD AND DUP2 DUP5 MLOAD AND DUP1 DUP3 OR DUP6 MSTORE POP POP POP POP POP POP SWAP1 POP ADD SWAP2 POP POP PUSH1 0x40 MLOAD PUSH1 0x20 DUP2 DUP4 SUB SUB DUP2 MSTORE SWAP1 PUSH1 0x40 MSTORE DUP1 MLOAD SWAP1 PUSH1 0x20 ADD KECCAK256 EQ ISZERO PUSH2 0xE3C JUMPI PUSH1 0x63 PUSH1 0x64 DUP3 DUP2 PUSH2 0xE35 JUMPI INVALID JUMPDEST MOD DUP3 SUB ADD SWAP1 POP JUMPDEST PUSH2 0xE7B PUSH1 0x40 MLOAD DUP1 PUSH1 0x40 ADD PUSH1 0x40 MSTORE DUP1 PUSH1 0x6 DUP2 MSTORE PUSH1 0x20 ADD PUSH32 0x4E6F4E616D650000000000000000000000000000000000000000000000000000 DUP2 MSTORE POP DUP3 PUSH2 0xF1A JUMP JUMPDEST PUSH2 0xE84 DUP3 PUSH2 0x12C4 JUMP JUMPDEST POP POP POP POP POP POP JUMP JUMPDEST PUSH1 0x0 DUP1 DUP3 PUSH1 0x40 MLOAD PUSH1 0x20 ADD DUP1 DUP3 DUP1 MLOAD SWAP1 PUSH1 0x20 ADD SWAP1 DUP1 DUP4 DUP4 JUMPDEST PUSH1 0x20 DUP4 LT PUSH2 0xEC6 JUMPI DUP1 MLOAD DUP3 MSTORE PUSH1 0x20 DUP3 ADD SWAP2 POP PUSH1 0x20 DUP2 ADD SWAP1 POP PUSH1 0x20 DUP4 SUB SWAP3 POP PUSH2 0xEA3 JUMP JUMPDEST PUSH1 0x1 DUP4 PUSH1 0x20 SUB PUSH2 0x100 EXP SUB DUP1 NOT DUP3 MLOAD AND DUP2 DUP5 MLOAD AND DUP1 DUP3 OR DUP6 MSTORE POP POP POP POP POP POP SWAP1 POP ADD SWAP2 POP POP PUSH1 0x40 MLOAD PUSH1 0x20 DUP2 DUP4 SUB SUB DUP2 MSTORE SWAP1 PUSH1 0x40 MSTORE DUP1 MLOAD SWAP1 PUSH1 0x20 ADD KECCAK256 PUSH1 0x0 SHR SWAP1 POP PUSH1 0x2 SLOAD DUP2 DUP2 PUSH2 0xF11 JUMPI INVALID JUMPDEST MOD SWAP2 POP POP SWAP2 SWAP1 POP JUMP JUMPDEST PUSH1 0x0 PUSH1 0x1 PUSH1 0x4 PUSH1 0x40 MLOAD DUP1 PUSH1 0xC0 ADD PUSH1 0x40 MSTORE DUP1 DUP7 DUP2 MSTORE PUSH1 0x20 ADD DUP6 DUP2 MSTORE PUSH1 0x20 ADD PUSH1 0x1 PUSH4 0xFFFFFFFF AND DUP2 MSTORE PUSH1 0x20 ADD PUSH1 0x3 SLOAD TIMESTAMP ADD PUSH4 0xFFFFFFFF AND DUP2 MSTORE PUSH1 0x20 ADD PUSH1 0x0 PUSH2 0xFFFF AND DUP2 MSTORE PUSH1 0x20 ADD PUSH1 0x0 PUSH2 0xFFFF AND DUP2 MSTORE POP SWAP1 DUP1 PUSH1 0x1 DUP2 SLOAD ADD DUP1 DUP3 SSTORE DUP1 SWAP2 POP POP SWAP1 PUSH1 0x1 DUP3 SUB SWAP1 PUSH1 0x0 MSTORE PUSH1 0x20 PUSH1 0x0 KECCAK256 SWAP1 PUSH1 0x3 MUL ADD PUSH1 0x0 SWAP1 SWAP2 SWAP3 SWAP1 SWAP2 SWAP1 SWAP2 POP PUSH1 0x0 DUP3 ADD MLOAD DUP2 PUSH1 0x0 ADD SWAP1 DUP1 MLOAD SWAP1 PUSH1 0x20 ADD SWAP1 PUSH2 0xFAF SWAP3 SWAP2 SWAP1 PUSH2 0x136E JUMP JUMPDEST POP PUSH1 0x20 DUP3 ADD MLOAD DUP2 PUSH1 0x1 ADD SSTORE PUSH1 0x40 DUP3 ADD MLOAD DUP2 PUSH1 0x2 ADD PUSH1 0x0 PUSH2 0x100 EXP DUP2 SLOAD DUP2 PUSH4 0xFFFFFFFF MUL NOT AND SWAP1 DUP4 PUSH4 0xFFFFFFFF AND MUL OR SWAP1 SSTORE POP PUSH1 0x60 DUP3 ADD MLOAD DUP2 PUSH1 0x2 ADD PUSH1 0x4 PUSH2 0x100 EXP DUP2 SLOAD DUP2 PUSH4 0xFFFFFFFF MUL NOT AND SWAP1 DUP4 PUSH4 0xFFFFFFFF AND MUL OR SWAP1 SSTORE POP PUSH1 0x80 DUP3 ADD MLOAD DUP2 PUSH1 0x2 ADD PUSH1 0x8 PUSH2 0x100 EXP DUP2 SLOAD DUP2 PUSH2 0xFFFF MUL NOT AND SWAP1 DUP4 PUSH2 0xFFFF AND MUL OR SWAP1 SSTORE POP PUSH1 0xA0 DUP3 ADD MLOAD DUP2 PUSH1 0x2 ADD PUSH1 0xA PUSH2 0x100 EXP DUP2 SLOAD DUP2 PUSH2 0xFFFF MUL NOT AND SWAP1 DUP4 PUSH2 0xFFFF AND MUL OR SWAP1 SSTORE POP POP POP SUB SWAP1 POP CALLER PUSH1 0x5 PUSH1 0x0 DUP4 DUP2 MSTORE PUSH1 0x20 ADD SWAP1 DUP2 MSTORE PUSH1 0x20 ADD PUSH1 0x0 KECCAK256 PUSH1 0x0 PUSH2 0x100 EXP DUP2 SLOAD DUP2 PUSH20 0xFFFFFFFFFFFFFFFFFFFFFFFFFFFFFFFFFFFFFFFF MUL NOT AND SWAP1 DUP4 PUSH20 0xFFFFFFFFFFFFFFFFFFFFFFFFFFFFFFFFFFFFFFFF AND MUL OR SWAP1 SSTORE POP PUSH1 0x6 PUSH1 0x0 CALLER PUSH20 0xFFFFFFFFFFFFFFFFFFFFFFFFFFFFFFFFFFFFFFFF AND PUSH20 0xFFFFFFFFFFFFFFFFFFFFFFFFFFFFFFFFFFFFFFFF AND DUP2 MSTORE PUSH1 0x20 ADD SWAP1 DUP2 MSTORE PUSH1 0x20 ADD PUSH1 0x0 KECCAK256 PUSH1 0x0 DUP2 SLOAD DUP1 SWAP3 SWAP2 SWAP1 PUSH1 0x1 ADD SWAP2 SWAP1 POP SSTORE POP PUSH32 0x88F026AACBBECC90C18411DF4B1185FD8D9BE2470F1962F192BF84A27D0704B7 DUP2 DUP5 DUP5 PUSH1 0x40 MLOAD DUP1 DUP5 DUP2 MSTORE PUSH1 0x20 ADD DUP1 PUSH1 0x20 ADD DUP4 DUP2 MSTORE PUSH1 0x20 ADD DUP3 DUP2 SUB DUP3 MSTORE DUP5 DUP2 DUP2 MLOAD DUP2 MSTORE PUSH1 0x20 ADD SWAP2 POP DUP1 MLOAD SWAP1 PUSH1 0x20 ADD SWAP1 DUP1 DUP4 DUP4 PUSH1 0x0 JUMPDEST DUP4 DUP2 LT ISZERO PUSH2 0x1164 JUMPI DUP1 DUP3 ADD MLOAD DUP2 DUP5 ADD MSTORE PUSH1 0x20 DUP2 ADD SWAP1 POP PUSH2 0x1149 JUMP JUMPDEST POP POP POP POP SWAP1 POP SWAP1 DUP2 ADD SWAP1 PUSH1 0x1F AND DUP1 ISZERO PUSH2 0x1191 JUMPI DUP1 DUP3 SUB DUP1 MLOAD PUSH1 0x1 DUP4 PUSH1 0x20 SUB PUSH2 0x100 EXP SUB NOT AND DUP2 MSTORE PUSH1 0x20 ADD SWAP2 POP JUMPDEST POP SWAP5 POP POP POP POP POP PUSH1 0x40 MLOAD DUP1 SWAP2 SUB SWAP1 LOG1 POP POP POP JUMP JUMPDEST PUSH1 0x0 PUSH20 0xFFFFFFFFFFFFFFFFFFFFFFFFFFFFFFFFFFFFFFFF AND DUP2 PUSH20 0xFFFFFFFFFFFFFFFFFFFFFFFFFFFFFFFFFFFFFFFF AND EQ ISZERO PUSH2 0x11DF JUMPI PUSH1 0x0 DUP1 REVERT JUMPDEST DUP1 PUSH20 0xFFFFFFFFFFFFFFFFFFFFFFFFFFFFFFFFFFFFFFFF AND PUSH1 0x0 DUP1 SWAP1 SLOAD SWAP1 PUSH2 0x100 EXP SWAP1 DIV PUSH20 0xFFFFFFFFFFFFFFFFFFFFFFFFFFFFFFFFFFFFFFFF AND PUSH20 0xFFFFFFFFFFFFFFFFFFFFFFFFFFFFFFFFFFFFFFFF AND PUSH32 0x8BE0079C531659141344CD1FD0A4F28419497F9722A3DAAFE3B4186F6B6457E0 PUSH1 0x40 MLOAD PUSH1 0x40 MLOAD DUP1 SWAP2 SUB SWAP1 LOG3 DUP1 PUSH1 0x0 DUP1 PUSH2 0x100 EXP DUP2 SLOAD DUP2 PUSH20 0xFFFFFFFFFFFFFFFFFFFFFFFFFFFFFFFFFFFFFFFF MUL NOT AND SWAP1 DUP4 PUSH20 0xFFFFFFFFFFFFFFFFFFFFFFFFFFFFFFFFFFFFFFFF AND MUL OR SWAP1 SSTORE POP POP JUMP JUMPDEST PUSH1 0x0 TIMESTAMP DUP3 PUSH1 0x2 ADD PUSH1 0x4 SWAP1 SLOAD SWAP1 PUSH2 0x100 EXP SWAP1 DIV PUSH4 0xFFFFFFFF AND PUSH4 0xFFFFFFFF AND GT ISZERO SWAP1 POP SWAP2 SWAP1 POP JUMP JUMPDEST PUSH1 0x3 SLOAD TIMESTAMP ADD DUP2 PUSH1 0x2 ADD PUSH1 0x4 PUSH2 0x100 EXP DUP2 SLOAD DUP2 PUSH4 0xFFFFFFFF MUL NOT AND SWAP1 DUP4 PUSH4 0xFFFFFFFF AND MUL OR SWAP1 SSTORE POP POP JUMP JUMPDEST DUP3 DUP1 SLOAD PUSH1 0x1 DUP2 PUSH1 0x1 AND ISZERO PUSH2 0x100 MUL SUB AND PUSH1 0x2 SWAP1 DIV SWAP1 PUSH1 0x0 MSTORE PUSH1 0x20 PUSH1 0x0 KECCAK256 SWAP1 PUSH1 0x1F ADD PUSH1 0x20 SWAP1 DIV DUP2 ADD SWAP3 DUP3 PUSH1 0x1F LT PUSH2 0x132F JUMPI DUP1 CALLDATALOAD PUSH1 0xFF NOT AND DUP4 DUP1 ADD OR DUP6 SSTORE PUSH2 0x135D JUMP JUMPDEST DUP3 DUP1 ADD PUSH1 0x1 ADD DUP6 SSTORE DUP3 ISZERO PUSH2 0x135D JUMPI SWAP2 DUP3 ADD JUMPDEST DUP3 DUP2 GT ISZERO PUSH2 0x135C JUMPI DUP3 CALLDATALOAD DUP3 SSTORE SWAP2 PUSH1 0x20 ADD SWAP2 SWAP1 PUSH1 0x1 ADD SWAP1 PUSH2 0x1341 JUMP JUMPDEST JUMPDEST POP SWAP1 POP PUSH2 0x136A SWAP2 SWAP1 PUSH2 0x13EE JUMP JUMPDEST POP SWAP1 JUMP JUMPDEST DUP3 DUP1 SLOAD PUSH1 0x1 DUP2 PUSH1 0x1 AND ISZERO PUSH2 0x100 MUL SUB AND PUSH1 0x2 SWAP1 DIV SWAP1 PUSH1 0x0 MSTORE PUSH1 0x20 PUSH1 0x0 KECCAK256 SWAP1 PUSH1 0x1F ADD PUSH1 0x20 SWAP1 DIV DUP2 ADD SWAP3 DUP3 PUSH1 0x1F LT PUSH2 0x13AF JUMPI DUP1 MLOAD PUSH1 0xFF NOT AND DUP4 DUP1 ADD OR DUP6 SSTORE PUSH2 0x13DD JUMP JUMPDEST DUP3 DUP1 ADD PUSH1 0x1 ADD DUP6 SSTORE DUP3 ISZERO PUSH2 0x13DD JUMPI SWAP2 DUP3 ADD JUMPDEST DUP3 DUP2 GT ISZERO PUSH2 0x13DC JUMPI DUP3 MLOAD DUP3 SSTORE SWAP2 PUSH1 0x20 ADD SWAP2 SWAP1 PUSH1 0x1 ADD SWAP1 PUSH2 0x13C1 JUMP JUMPDEST JUMPDEST POP SWAP1 POP PUSH2 0x13EA SWAP2 SWAP1 PUSH2 0x13EE JUMP JUMPDEST POP SWAP1 JUMP JUMPDEST PUSH2 0x1410 SWAP2 SWAP1 JUMPDEST DUP1 DUP3 GT ISZERO PUSH2 0x140C JUMPI PUSH1 0x0 DUP2 PUSH1 0x0 SWAP1 SSTORE POP PUSH1 0x1 ADD PUSH2 0x13F4 JUMP JUMPDEST POP SWAP1 JUMP JUMPDEST SWAP1 JUMP INVALID LOG2 PUSH6 0x627A7A723158 KECCAK256 GT SELFBALANCE 0xD1 0xB2 0xE9 0xAC PUSH2 0x7CE3 LOG4 PUSH25 0xCA496F0831C1DD345D43DAB8DB9EDA3454B2D9754664736F6C PUSH4 0x43000511 STOP ORIGIN "
				},
				"gasEstimates": {
					"creation": {
						"codeDepositCost": "1038400",
						"executionCost": "85184",
						"totalCost": "1123584"
					},
					"external": {
						"changeDna(uint256,uint256)": "24002",
						"changeName(uint256,string)": "infinite",
						"createRandomZombie(string)": "infinite",
						"feedOnKitty(uint256,uint256)": "infinite",
						"getZombiesByOwner(address)": "infinite",
						"isOwner()": "1144",
						"owner()": "1105",
						"renounceOwnership()": "24297",
						"setKittyContractAddress(address)": "22095",
						"transferOwnership(address)": "24564",
						"zombieToOwner(uint256)": "1267",
						"zombies(uint256)": "infinite"
					}
				},
				"methodIdentifiers": {
					"changeDna(uint256,uint256)": "5faf2880",
					"changeName(uint256,string)": "c39cbef1",
					"createRandomZombie(string)": "7bff0a01",
					"feedOnKitty(uint256,uint256)": "17a7f4cc",
					"getZombiesByOwner(address)": "4412e104",
					"isOwner()": "8f32d59b",
					"owner()": "8da5cb5b",
					"renounceOwnership()": "715018a6",
					"setKittyContractAddress(address)": "5f4623f1",
					"transferOwnership(address)": "f2fde38b",
					"zombieToOwner(uint256)": "528b7b8f",
					"zombies(uint256)": "2052465e"
				}
			},
			"userdoc": {
				"methods": {
					"renounceOwnership()": {
						"notice": "Renouncing to ownership will leave the contract without an owner. It will not be possible to call the functions with the `onlyOwner` modifier anymore."
					}
				}
			}
		}
	}
}