{
	"contracts/zombieattack.sol": {
		"ZombieAttack": {
			"abi": [
				{
					"anonymous": false,
					"inputs": [
						{
							"indexed": false,
							"internalType": "uint256",
							"name": "zombieId",
							"type": "uint256"
						},
						{
							"indexed": false,
							"internalType": "string",
							"name": "name",
							"type": "string"
						},
						{
							"indexed": false,
							"internalType": "uint256",
							"name": "dna",
							"type": "uint256"
						}
					],
					"name": "NewZombie",
					"type": "event"
				},
				{
					"anonymous": false,
					"inputs": [
						{
							"indexed": true,
							"internalType": "address",
							"name": "previousOwner",
							"type": "address"
						},
						{
							"indexed": true,
							"internalType": "address",
							"name": "newOwner",
							"type": "address"
						}
					],
					"name": "OwnershipTransferred",
					"type": "event"
				},
				{
					"constant": false,
					"inputs": [
						{
							"internalType": "uint256",
							"name": "_zombieId",
							"type": "uint256"
						},
						{
							"internalType": "uint256",
							"name": "_targetId",
							"type": "uint256"
						}
					],
					"name": "attack",
					"outputs": [],
					"payable": false,
					"stateMutability": "nonpayable",
					"type": "function"
				},
				{
					"constant": false,
					"inputs": [
						{
							"internalType": "uint256",
							"name": "_zombieId",
							"type": "uint256"
						},
						{
							"internalType": "uint256",
							"name": "_newDna",
							"type": "uint256"
						}
					],
					"name": "changeDna",
					"outputs": [],
					"payable": false,
					"stateMutability": "nonpayable",
					"type": "function"
				},
				{
					"constant": false,
					"inputs": [
						{
							"internalType": "uint256",
							"name": "_zombieId",
							"type": "uint256"
						},
						{
							"internalType": "string",
							"name": "_newName",
							"type": "string"
						}
					],
					"name": "changeName",
					"outputs": [],
					"payable": false,
					"stateMutability": "nonpayable",
					"type": "function"
				},
				{
					"constant": false,
					"inputs": [
						{
							"internalType": "string",
							"name": "_name",
							"type": "string"
						}
					],
					"name": "createRandomZombie",
					"outputs": [],
					"payable": false,
					"stateMutability": "nonpayable",
					"type": "function"
				},
				{
					"constant": false,
					"inputs": [
						{
							"internalType": "uint256",
							"name": "_zombieId",
							"type": "uint256"
						},
						{
							"internalType": "uint256",
							"name": "_kittyId",
							"type": "uint256"
						}
					],
					"name": "feedOnKitty",
					"outputs": [],
					"payable": false,
					"stateMutability": "nonpayable",
					"type": "function"
				},
				{
					"constant": true,
					"inputs": [
						{
							"internalType": "address",
							"name": "_owner",
							"type": "address"
						}
					],
					"name": "getZombiesByOwner",
					"outputs": [
						{
							"internalType": "uint256[]",
							"name": "",
							"type": "uint256[]"
						}
					],
					"payable": false,
					"stateMutability": "view",
					"type": "function"
				},
				{
					"constant": true,
					"inputs": [],
					"name": "isOwner",
					"outputs": [
						{
							"internalType": "bool",
							"name": "",
							"type": "bool"
						}
					],
					"payable": false,
					"stateMutability": "view",
					"type": "function"
				},
				{
					"constant": false,
					"inputs": [
						{
							"internalType": "uint256",
							"name": "_zombieId",
							"type": "uint256"
						}
					],
					"name": "levelUp",
					"outputs": [],
					"payable": true,
					"stateMutability": "payable",
					"type": "function"
				},
				{
					"constant": true,
					"inputs": [],
					"name": "owner",
					"outputs": [
						{
							"internalType": "address",
							"name": "",
							"type": "address"
						}
					],
					"payable": false,
					"stateMutability": "view",
					"type": "function"
				},
				{
					"constant": false,
					"inputs": [],
					"name": "renounceOwnership",
					"outputs": [],
					"payable": false,
					"stateMutability": "nonpayable",
					"type": "function"
				},
				{
					"constant": false,
					"inputs": [
						{
							"internalType": "address",
							"name": "_address",
							"type": "address"
						}
					],
					"name": "setKittyContractAddress",
					"outputs": [],
					"payable": false,
					"stateMutability": "nonpayable",
					"type": "function"
				},
				{
					"constant": false,
					"inputs": [
						{
							"internalType": "uint256",
							"name": "_fee",
							"type": "uint256"
						}
					],
					"name": "setLevelUpFee",
					"outputs": [],
					"payable": false,
					"stateMutability": "nonpayable",
					"type": "function"
				},
				{
					"constant": false,
					"inputs": [
						{
							"internalType": "address",
							"name": "newOwner",
							"type": "address"
						}
					],
					"name": "transferOwnership",
					"outputs": [],
					"payable": false,
					"stateMutability": "nonpayable",
					"type": "function"
				},
				{
					"constant": false,
					"inputs": [],
					"name": "withdraw",
					"outputs": [],
					"payable": false,
					"stateMutability": "nonpayable",
					"type": "function"
				},
				{
					"constant": true,
					"inputs": [
						{
							"internalType": "uint256",
							"name": "",
							"type": "uint256"
						}
					],
					"name": "zombieToOwner",
					"outputs": [
						{
							"internalType": "address",
							"name": "",
							"type": "address"
						}
					],
					"payable": false,
					"stateMutability": "view",
					"type": "function"
				},
				{
					"constant": true,
					"inputs": [
						{
							"internalType": "uint256",
							"name": "",
							"type": "uint256"
						}
					],
					"name": "zombies",
					"outputs": [
						{
							"internalType": "string",
							"name": "name",
							"type": "string"
						},
						{
							"internalType": "uint256",
							"name": "dna",
							"type": "uint256"
						},
						{
							"internalType": "uint32",
							"name": "level",
							"type": "uint32"
						},
						{
							"internalType": "uint32",
							"name": "readyTime",
							"type": "uint32"
						},
						{
							"internalType": "uint16",
							"name": "winCount",
							"type": "uint16"
						},
						{
							"internalType": "uint16",
							"name": "lossCount",
							"type": "uint16"
						}
					],
					"payable": false,
					"stateMutability": "view",
					"type": "function"
				}
			],
			"devdoc": {
				"methods": {
					"isOwner()": {
						"return": "true if `msg.sender` is the owner of the contract."
					},
					"owner()": {
						"return": "the address of the owner."
					},
					"renounceOwnership()": {
						"details": "Allows the current owner to relinquish control of the contract."
					},
					"transferOwnership(address)": {
						"details": "Allows the current owner to transfer control of the contract to a newOwner.",
						"params": {
							"newOwner": "The address to transfer ownership to."
						}
					}
				}
			},
			"evm": {
				"assembly": "    /* \"contracts/zombieattack.sol\":67:897  contract ZombieAttack is ZombieHelper {\r... */\n  mstore(0x40, 0x80)\n    /* \"contracts/zombiefactory.sol\":184:186  16 */\n  0x10\n    /* \"contracts/zombiefactory.sol\":167:186  uint dnaDigits = 16 */\n  0x01\n  sstore\n    /* \"contracts/zombiefactory.sol\":217:226  dnaDigits */\n  sload(0x01)\n    /* \"contracts/zombiefactory.sol\":211:213  10 */\n  0x0a\n    /* \"contracts/zombiefactory.sol\":211:226  10 ** dnaDigits */\n  exp\n    /* \"contracts/zombiefactory.sol\":193:226  uint dnaModulus = 10 ** dnaDigits */\n  0x02\n  sstore\n    /* \"contracts/zombiefactory.sol\":253:259  1 days */\n  0x015180\n    /* \"contracts/zombiefactory.sol\":233:259  uint cooldownTime = 1 days */\n  0x03\n  sstore\n    /* \"contracts/zombiehelper.sol\":132:143  0.001 ether */\n  0x038d7ea4c68000\n    /* \"contracts/zombiehelper.sol\":114:143  uint levelUpFee = 0.001 ether */\n  0x08\n  sstore\n    /* \"contracts/zombieattack.sol\":127:128  0 */\n  0x00\n    /* \"contracts/zombieattack.sol\":110:128  uint randNonce = 0 */\n  0x09\n  sstore\n    /* \"contracts/zombieattack.sol\":165:167  70 */\n  0x46\n    /* \"contracts/zombieattack.sol\":133:167  uint attackVictoryProbability = 70 */\n  0x0a\n  sstore\n    /* \"contracts/ownable.sol\":572:582  msg.sender */\n  caller\n    /* \"contracts/ownable.sol\":563:569  _owner */\n  0x00\n  dup1\n    /* \"contracts/ownable.sol\":563:582  _owner = msg.sender */\n  0x0100\n  exp\n  dup2\n  sload\n  dup2\n  0xffffffffffffffffffffffffffffffffffffffff\n  mul\n  not\n  and\n  swap1\n  dup4\n  0xffffffffffffffffffffffffffffffffffffffff\n  and\n  mul\n  or\n  swap1\n  sstore\n  pop\n    /* \"contracts/ownable.sol\":629:635  _owner */\n  0x00\n  dup1\n  swap1\n  sload\n  swap1\n  0x0100\n  exp\n  swap1\n  div\n  0xffffffffffffffffffffffffffffffffffffffff\n  and\n    /* \"contracts/ownable.sol\":596:636  OwnershipTransferred(address(0), _owner) */\n  0xffffffffffffffffffffffffffffffffffffffff\n  and\n    /* \"contracts/ownable.sol\":625:626  0 */\n  0x00\n    /* \"contracts/ownable.sol\":596:636  OwnershipTransferred(address(0), _owner) */\n  0xffffffffffffffffffffffffffffffffffffffff\n  and\n  0x8be0079c531659141344cd1fd0a4f28419497f9722a3daafe3b4186f6b6457e0\n  mload(0x40)\n  mload(0x40)\n  dup1\n  swap2\n  sub\n  swap1\n  log3\n    /* \"contracts/zombieattack.sol\":67:897  contract ZombieAttack is ZombieHelper {\r... */\n  dataSize(sub_0)\n  dup1\n  dataOffset(sub_0)\n  0x00\n  codecopy\n  0x00\n  return\nstop\n\nsub_0: assembly {\n        /* \"contracts/zombieattack.sol\":67:897  contract ZombieAttack is ZombieHelper {\r... */\n      mstore(0x40, 0x80)\n      jumpi(tag_1, lt(calldatasize, 0x04))\n      shr(0xe0, calldataload(0x00))\n      dup1\n      0x715018a6\n      gt\n      tag_18\n      jumpi\n      dup1\n      0xc39cbef1\n      gt\n      tag_19\n      jumpi\n      dup1\n      0xc39cbef1\n      eq\n      tag_14\n      jumpi\n      dup1\n      0xccf670f8\n      eq\n      tag_15\n      jumpi\n      dup1\n      0xe1fa7638\n      eq\n      tag_16\n      jumpi\n      dup1\n      0xf2fde38b\n      eq\n      tag_17\n      jumpi\n      jump(tag_1)\n    tag_19:\n      dup1\n      0x715018a6\n      eq\n      tag_10\n      jumpi\n      dup1\n      0x7bff0a01\n      eq\n      tag_11\n      jumpi\n      dup1\n      0x8da5cb5b\n      eq\n      tag_12\n      jumpi\n      dup1\n      0x8f32d59b\n      eq\n      tag_13\n      jumpi\n      jump(tag_1)\n    tag_18:\n      dup1\n      0x4412e104\n      gt\n      tag_20\n      jumpi\n      dup1\n      0x4412e104\n      eq\n      tag_6\n      jumpi\n      dup1\n      0x528b7b8f\n      eq\n      tag_7\n      jumpi\n      dup1\n      0x5f4623f1\n      eq\n      tag_8\n      jumpi\n      dup1\n      0x5faf2880\n      eq\n      tag_9\n      jumpi\n      jump(tag_1)\n    tag_20:\n      dup1\n      0x0ce90ec2\n      eq\n      tag_2\n      jumpi\n      dup1\n      0x17a7f4cc\n      eq\n      tag_3\n      jumpi\n      dup1\n      0x2052465e\n      eq\n      tag_4\n      jumpi\n      dup1\n      0x3ccfd60b\n      eq\n      tag_5\n      jumpi\n    tag_1:\n      0x00\n      dup1\n      revert\n        /* \"contracts/zombiehelper.sol\":511:639  function levelUp(uint _zombieId) external payable {\r... */\n    tag_2:\n      tag_21\n      0x04\n      dup1\n      calldatasize\n      sub\n        /* \"--CODEGEN--\":13:15   */\n      0x20\n        /* \"--CODEGEN--\":8:11   */\n      dup2\n        /* \"--CODEGEN--\":5:16   */\n      lt\n        /* \"--CODEGEN--\":2:4   */\n      iszero\n      tag_22\n      jumpi\n        /* \"--CODEGEN--\":29:30   */\n      0x00\n        /* \"--CODEGEN--\":26:27   */\n      dup1\n        /* \"--CODEGEN--\":19:31   */\n      revert\n        /* \"--CODEGEN--\":2:4   */\n    tag_22:\n        /* \"contracts/zombiehelper.sol\":511:639  function levelUp(uint _zombieId) external payable {\r... */\n      dup2\n      add\n      swap1\n      dup1\n      dup1\n      calldataload\n      swap1\n      0x20\n      add\n      swap1\n      swap3\n      swap2\n      swap1\n      pop\n      pop\n      pop\n      tag_23\n      jump\t// in\n    tag_21:\n      stop\n        /* \"contracts/zombiefeeding.sol\":1489:1687  function feedOnKitty(uint _zombieId, uint _kittyId) public {\r... */\n    tag_3:\n      callvalue\n        /* \"--CODEGEN--\":8:17   */\n      dup1\n        /* \"--CODEGEN--\":5:7   */\n      iszero\n      tag_24\n      jumpi\n        /* \"--CODEGEN--\":30:31   */\n      0x00\n        /* \"--CODEGEN--\":27:28   */\n      dup1\n        /* \"--CODEGEN--\":20:32   */\n      revert\n        /* \"--CODEGEN--\":5:7   */\n    tag_24:\n        /* \"contracts/zombiefeeding.sol\":1489:1687  function feedOnKitty(uint _zombieId, uint _kittyId) public {\r... */\n      pop\n      tag_25\n      0x04\n      dup1\n      calldatasize\n      sub\n        /* \"--CODEGEN--\":13:15   */\n      0x40\n        /* \"--CODEGEN--\":8:11   */\n      dup2\n        /* \"--CODEGEN--\":5:16   */\n      lt\n        /* \"--CODEGEN--\":2:4   */\n      iszero\n      tag_26\n      jumpi\n        /* \"--CODEGEN--\":29:30   */\n      0x00\n        /* \"--CODEGEN--\":26:27   */\n      dup1\n        /* \"--CODEGEN--\":19:31   */\n      revert\n        /* \"--CODEGEN--\":2:4   */\n    tag_26:\n        /* \"contracts/zombiefeeding.sol\":1489:1687  function feedOnKitty(uint _zombieId, uint _kittyId) public {\r... */\n      dup2\n      add\n      swap1\n      dup1\n      dup1\n      calldataload\n      swap1\n      0x20\n      add\n      swap1\n      swap3\n      swap2\n      swap1\n      dup1\n      calldataload\n      swap1\n      0x20\n      add\n      swap1\n      swap3\n      swap2\n      swap1\n      pop\n      pop\n      pop\n      tag_27\n      jump\t// in\n    tag_25:\n      stop\n        /* \"contracts/zombiefactory.sol\":430:453  Zombie[] public zombies */\n    tag_4:\n      callvalue\n        /* \"--CODEGEN--\":8:17   */\n      dup1\n        /* \"--CODEGEN--\":5:7   */\n      iszero\n      tag_28\n      jumpi\n        /* \"--CODEGEN--\":30:31   */\n      0x00\n        /* \"--CODEGEN--\":27:28   */\n      dup1\n        /* \"--CODEGEN--\":20:32   */\n      revert\n        /* \"--CODEGEN--\":5:7   */\n    tag_28:\n        /* \"contracts/zombiefactory.sol\":430:453  Zombie[] public zombies */\n      pop\n      tag_29\n      0x04\n      dup1\n      calldatasize\n      sub\n        /* \"--CODEGEN--\":13:15   */\n      0x20\n        /* \"--CODEGEN--\":8:11   */\n      dup2\n        /* \"--CODEGEN--\":5:16   */\n      lt\n        /* \"--CODEGEN--\":2:4   */\n      iszero\n      tag_30\n      jumpi\n        /* \"--CODEGEN--\":29:30   */\n      0x00\n        /* \"--CODEGEN--\":26:27   */\n      dup1\n        /* \"--CODEGEN--\":19:31   */\n      revert\n        /* \"--CODEGEN--\":2:4   */\n    tag_30:\n        /* \"contracts/zombiefactory.sol\":430:453  Zombie[] public zombies */\n      dup2\n      add\n      swap1\n      dup1\n      dup1\n      calldataload\n      swap1\n      0x20\n      add\n      swap1\n      swap3\n      swap2\n      swap1\n      pop\n      pop\n      pop\n      tag_31\n      jump\t// in\n    tag_29:\n      mload(0x40)\n      dup1\n      dup1\n      0x20\n      add\n      dup8\n      dup2\n      mstore\n      0x20\n      add\n      dup7\n      0xffffffff\n      and\n      0xffffffff\n      and\n      dup2\n      mstore\n      0x20\n      add\n      dup6\n      0xffffffff\n      and\n      0xffffffff\n      and\n      dup2\n      mstore\n      0x20\n      add\n      dup5\n      0xffff\n      and\n      0xffff\n      and\n      dup2\n      mstore\n      0x20\n      add\n      dup4\n      0xffff\n      and\n      0xffff\n      and\n      dup2\n      mstore\n      0x20\n      add\n      dup3\n      dup2\n      sub\n      dup3\n      mstore\n      dup9\n      dup2\n      dup2\n      mload\n      dup2\n      mstore\n      0x20\n      add\n      swap2\n      pop\n      dup1\n      mload\n      swap1\n      0x20\n      add\n      swap1\n      dup1\n      dup4\n      dup4\n        /* \"--CODEGEN--\":23:24   */\n      0x00\n        /* \"--CODEGEN--\":8:108   */\n    tag_32:\n        /* \"--CODEGEN--\":33:36   */\n      dup4\n        /* \"--CODEGEN--\":30:31   */\n      dup2\n        /* \"--CODEGEN--\":27:37   */\n      lt\n        /* \"--CODEGEN--\":8:108   */\n      iszero\n      tag_34\n      jumpi\n        /* \"--CODEGEN--\":99:100   */\n      dup1\n        /* \"--CODEGEN--\":94:97   */\n      dup3\n        /* \"--CODEGEN--\":90:101   */\n      add\n        /* \"--CODEGEN--\":84:102   */\n      mload\n        /* \"--CODEGEN--\":80:81   */\n      dup2\n        /* \"--CODEGEN--\":75:78   */\n      dup5\n        /* \"--CODEGEN--\":71:82   */\n      add\n        /* \"--CODEGEN--\":64:103   */\n      mstore\n        /* \"--CODEGEN--\":52:54   */\n      0x20\n        /* \"--CODEGEN--\":49:50   */\n      dup2\n        /* \"--CODEGEN--\":45:55   */\n      add\n        /* \"--CODEGEN--\":40:55   */\n      swap1\n      pop\n        /* \"--CODEGEN--\":8:108   */\n      jump(tag_32)\n    tag_34:\n        /* \"--CODEGEN--\":12:26   */\n      pop\n        /* \"contracts/zombiefactory.sol\":430:453  Zombie[] public zombies */\n      pop\n      pop\n      pop\n      swap1\n      pop\n      swap1\n      dup2\n      add\n      swap1\n      0x1f\n      and\n      dup1\n      iszero\n      tag_35\n      jumpi\n      dup1\n      dup3\n      sub\n      dup1\n      mload\n      0x01\n      dup4\n      0x20\n      sub\n      0x0100\n      exp\n      sub\n      not\n      and\n      dup2\n      mstore\n      0x20\n      add\n      swap2\n      pop\n    tag_35:\n      pop\n      swap8\n      pop\n      pop\n      pop\n      pop\n      pop\n      pop\n      pop\n      pop\n      mload(0x40)\n      dup1\n      swap2\n      sub\n      swap1\n      return\n        /* \"contracts/zombiehelper.sol\":269:416  function withdraw() external onlyOwner {\r... */\n    tag_5:\n      callvalue\n        /* \"--CODEGEN--\":8:17   */\n      dup1\n        /* \"--CODEGEN--\":5:7   */\n      iszero\n      tag_36\n      jumpi\n        /* \"--CODEGEN--\":30:31   */\n      0x00\n        /* \"--CODEGEN--\":27:28   */\n      dup1\n        /* \"--CODEGEN--\":20:32   */\n      revert\n        /* \"--CODEGEN--\":5:7   */\n    tag_36:\n        /* \"contracts/zombiehelper.sol\":269:416  function withdraw() external onlyOwner {\r... */\n      pop\n      tag_37\n      tag_38\n      jump\t// in\n    tag_37:\n      stop\n        /* \"contracts/zombiehelper.sol\":975:1326  function getZombiesByOwner(address _owner) external view returns(uint[] memory) {\r... */\n    tag_6:\n      callvalue\n        /* \"--CODEGEN--\":8:17   */\n      dup1\n        /* \"--CODEGEN--\":5:7   */\n      iszero\n      tag_39\n      jumpi\n        /* \"--CODEGEN--\":30:31   */\n      0x00\n        /* \"--CODEGEN--\":27:28   */\n      dup1\n        /* \"--CODEGEN--\":20:32   */\n      revert\n        /* \"--CODEGEN--\":5:7   */\n    tag_39:\n        /* \"contracts/zombiehelper.sol\":975:1326  function getZombiesByOwner(address _owner) external view returns(uint[] memory) {\r... */\n      pop\n      tag_40\n      0x04\n      dup1\n      calldatasize\n      sub\n        /* \"--CODEGEN--\":13:15   */\n      0x20\n        /* \"--CODEGEN--\":8:11   */\n      dup2\n        /* \"--CODEGEN--\":5:16   */\n      lt\n        /* \"--CODEGEN--\":2:4   */\n      iszero\n      tag_41\n      jumpi\n        /* \"--CODEGEN--\":29:30   */\n      0x00\n        /* \"--CODEGEN--\":26:27   */\n      dup1\n        /* \"--CODEGEN--\":19:31   */\n      revert\n        /* \"--CODEGEN--\":2:4   */\n    tag_41:\n        /* \"contracts/zombiehelper.sol\":975:1326  function getZombiesByOwner(address _owner) external view returns(uint[] memory) {\r... */\n      dup2\n      add\n      swap1\n      dup1\n      dup1\n      calldataload\n      0xffffffffffffffffffffffffffffffffffffffff\n      and\n      swap1\n      0x20\n      add\n      swap1\n      swap3\n      swap2\n      swap1\n      pop\n      pop\n      pop\n      tag_42\n      jump\t// in\n    tag_40:\n      mload(0x40)\n      dup1\n      dup1\n      0x20\n      add\n      dup3\n      dup2\n      sub\n      dup3\n      mstore\n      dup4\n      dup2\n      dup2\n      mload\n      dup2\n      mstore\n      0x20\n      add\n      swap2\n      pop\n      dup1\n      mload\n      swap1\n      0x20\n      add\n      swap1\n      0x20\n      mul\n      dup1\n      dup4\n      dup4\n        /* \"--CODEGEN--\":23:24   */\n      0x00\n        /* \"--CODEGEN--\":8:108   */\n    tag_43:\n        /* \"--CODEGEN--\":33:36   */\n      dup4\n        /* \"--CODEGEN--\":30:31   */\n      dup2\n        /* \"--CODEGEN--\":27:37   */\n      lt\n        /* \"--CODEGEN--\":8:108   */\n      iszero\n      tag_45\n      jumpi\n        /* \"--CODEGEN--\":99:100   */\n      dup1\n        /* \"--CODEGEN--\":94:97   */\n      dup3\n        /* \"--CODEGEN--\":90:101   */\n      add\n        /* \"--CODEGEN--\":84:102   */\n      mload\n        /* \"--CODEGEN--\":80:81   */\n      dup2\n        /* \"--CODEGEN--\":75:78   */\n      dup5\n        /* \"--CODEGEN--\":71:82   */\n      add\n        /* \"--CODEGEN--\":64:103   */\n      mstore\n        /* \"--CODEGEN--\":52:54   */\n      0x20\n        /* \"--CODEGEN--\":49:50   */\n      dup2\n        /* \"--CODEGEN--\":45:55   */\n      add\n        /* \"--CODEGEN--\":40:55   */\n      swap1\n      pop\n        /* \"--CODEGEN--\":8:108   */\n      jump(tag_43)\n    tag_45:\n        /* \"--CODEGEN--\":12:26   */\n      pop\n        /* \"contracts/zombiehelper.sol\":975:1326  function getZombiesByOwner(address _owner) external view returns(uint[] memory) {\r... */\n      pop\n      pop\n      pop\n      swap1\n      pop\n      add\n      swap3\n      pop\n      pop\n      pop\n      mload(0x40)\n      dup1\n      swap2\n      sub\n      swap1\n      return\n        /* \"contracts/zombiefactory.sol\":462:508  mapping (uint => address) public zombieToOwner */\n    tag_7:\n      callvalue\n        /* \"--CODEGEN--\":8:17   */\n      dup1\n        /* \"--CODEGEN--\":5:7   */\n      iszero\n      tag_46\n      jumpi\n        /* \"--CODEGEN--\":30:31   */\n      0x00\n        /* \"--CODEGEN--\":27:28   */\n      dup1\n        /* \"--CODEGEN--\":20:32   */\n      revert\n        /* \"--CODEGEN--\":5:7   */\n    tag_46:\n        /* \"contracts/zombiefactory.sol\":462:508  mapping (uint => address) public zombieToOwner */\n      pop\n      tag_47\n      0x04\n      dup1\n      calldatasize\n      sub\n        /* \"--CODEGEN--\":13:15   */\n      0x20\n        /* \"--CODEGEN--\":8:11   */\n      dup2\n        /* \"--CODEGEN--\":5:16   */\n      lt\n        /* \"--CODEGEN--\":2:4   */\n      iszero\n      tag_48\n      jumpi\n        /* \"--CODEGEN--\":29:30   */\n      0x00\n        /* \"--CODEGEN--\":26:27   */\n      dup1\n        /* \"--CODEGEN--\":19:31   */\n      revert\n        /* \"--CODEGEN--\":2:4   */\n    tag_48:\n        /* \"contracts/zombiefactory.sol\":462:508  mapping (uint => address) public zombieToOwner */\n      dup2\n      add\n      swap1\n      dup1\n      dup1\n      calldataload\n      swap1\n      0x20\n      add\n      swap1\n      swap3\n      swap2\n      swap1\n      pop\n      pop\n      pop\n      tag_49\n      jump\t// in\n    tag_47:\n      mload(0x40)\n      dup1\n      dup3\n      0xffffffffffffffffffffffffffffffffffffffff\n      and\n      0xffffffffffffffffffffffffffffffffffffffff\n      and\n      dup2\n      mstore\n      0x20\n      add\n      swap2\n      pop\n      pop\n      mload(0x40)\n      dup1\n      swap2\n      sub\n      swap1\n      return\n        /* \"contracts/zombiefeeding.sol\":593:716  function setKittyContractAddress(address _address) external onlyOwner {\r... */\n    tag_8:\n      callvalue\n        /* \"--CODEGEN--\":8:17   */\n      dup1\n        /* \"--CODEGEN--\":5:7   */\n      iszero\n      tag_50\n      jumpi\n        /* \"--CODEGEN--\":30:31   */\n      0x00\n        /* \"--CODEGEN--\":27:28   */\n      dup1\n        /* \"--CODEGEN--\":20:32   */\n      revert\n        /* \"--CODEGEN--\":5:7   */\n    tag_50:\n        /* \"contracts/zombiefeeding.sol\":593:716  function setKittyContractAddress(address _address) external onlyOwner {\r... */\n      pop\n      tag_51\n      0x04\n      dup1\n      calldatasize\n      sub\n        /* \"--CODEGEN--\":13:15   */\n      0x20\n        /* \"--CODEGEN--\":8:11   */\n      dup2\n        /* \"--CODEGEN--\":5:16   */\n      lt\n        /* \"--CODEGEN--\":2:4   */\n      iszero\n      tag_52\n      jumpi\n        /* \"--CODEGEN--\":29:30   */\n      0x00\n        /* \"--CODEGEN--\":26:27   */\n      dup1\n        /* \"--CODEGEN--\":19:31   */\n      revert\n        /* \"--CODEGEN--\":2:4   */\n    tag_52:\n        /* \"contracts/zombiefeeding.sol\":593:716  function setKittyContractAddress(address _address) external onlyOwner {\r... */\n      dup2\n      add\n      swap1\n      dup1\n      dup1\n      calldataload\n      0xffffffffffffffffffffffffffffffffffffffff\n      and\n      swap1\n      0x20\n      add\n      swap1\n      swap3\n      swap2\n      swap1\n      pop\n      pop\n      pop\n      tag_53\n      jump\t// in\n    tag_51:\n      stop\n        /* \"contracts/zombiehelper.sol\":817:969  function changeDna(uint _zombieId, uint _newDna) external aboveLevel(20, _zombieId) onlyOwnerOf(_zombieId) {\r... */\n    tag_9:\n      callvalue\n        /* \"--CODEGEN--\":8:17   */\n      dup1\n        /* \"--CODEGEN--\":5:7   */\n      iszero\n      tag_54\n      jumpi\n        /* \"--CODEGEN--\":30:31   */\n      0x00\n        /* \"--CODEGEN--\":27:28   */\n      dup1\n        /* \"--CODEGEN--\":20:32   */\n      revert\n        /* \"--CODEGEN--\":5:7   */\n    tag_54:\n        /* \"contracts/zombiehelper.sol\":817:969  function changeDna(uint _zombieId, uint _newDna) external aboveLevel(20, _zombieId) onlyOwnerOf(_zombieId) {\r... */\n      pop\n      tag_55\n      0x04\n      dup1\n      calldatasize\n      sub\n        /* \"--CODEGEN--\":13:15   */\n      0x40\n        /* \"--CODEGEN--\":8:11   */\n      dup2\n        /* \"--CODEGEN--\":5:16   */\n      lt\n        /* \"--CODEGEN--\":2:4   */\n      iszero\n      tag_56\n      jumpi\n        /* \"--CODEGEN--\":29:30   */\n      0x00\n        /* \"--CODEGEN--\":26:27   */\n      dup1\n        /* \"--CODEGEN--\":19:31   */\n      revert\n        /* \"--CODEGEN--\":2:4   */\n    tag_56:\n        /* \"contracts/zombiehelper.sol\":817:969  function changeDna(uint _zombieId, uint _newDna) external aboveLevel(20, _zombieId) onlyOwnerOf(_zombieId) {\r... */\n      dup2\n      add\n      swap1\n      dup1\n      dup1\n      calldataload\n      swap1\n      0x20\n      add\n      swap1\n      swap3\n      swap2\n      swap1\n      dup1\n      calldataload\n      swap1\n      0x20\n      add\n      swap1\n      swap3\n      swap2\n      swap1\n      pop\n      pop\n      pop\n      tag_57\n      jump\t// in\n    tag_55:\n      stop\n        /* \"contracts/ownable.sol\":1404:1540  function renounceOwnership() public onlyOwner {\r... */\n    tag_10:\n      callvalue\n        /* \"--CODEGEN--\":8:17   */\n      dup1\n        /* \"--CODEGEN--\":5:7   */\n      iszero\n      tag_58\n      jumpi\n        /* \"--CODEGEN--\":30:31   */\n      0x00\n        /* \"--CODEGEN--\":27:28   */\n      dup1\n        /* \"--CODEGEN--\":20:32   */\n      revert\n        /* \"--CODEGEN--\":5:7   */\n    tag_58:\n        /* \"contracts/ownable.sol\":1404:1540  function renounceOwnership() public onlyOwner {\r... */\n      pop\n      tag_59\n      tag_60\n      jump\t// in\n    tag_59:\n      stop\n        /* \"contracts/zombiefactory.sol\":1054:1306  function createRandomZombie(string memory _name) public {\r... */\n    tag_11:\n      callvalue\n        /* \"--CODEGEN--\":8:17   */\n      dup1\n        /* \"--CODEGEN--\":5:7   */\n      iszero\n      tag_61\n      jumpi\n        /* \"--CODEGEN--\":30:31   */\n      0x00\n        /* \"--CODEGEN--\":27:28   */\n      dup1\n        /* \"--CODEGEN--\":20:32   */\n      revert\n        /* \"--CODEGEN--\":5:7   */\n    tag_61:\n        /* \"contracts/zombiefactory.sol\":1054:1306  function createRandomZombie(string memory _name) public {\r... */\n      pop\n      tag_62\n      0x04\n      dup1\n      calldatasize\n      sub\n        /* \"--CODEGEN--\":13:15   */\n      0x20\n        /* \"--CODEGEN--\":8:11   */\n      dup2\n        /* \"--CODEGEN--\":5:16   */\n      lt\n        /* \"--CODEGEN--\":2:4   */\n      iszero\n      tag_63\n      jumpi\n        /* \"--CODEGEN--\":29:30   */\n      0x00\n        /* \"--CODEGEN--\":26:27   */\n      dup1\n        /* \"--CODEGEN--\":19:31   */\n      revert\n        /* \"--CODEGEN--\":2:4   */\n    tag_63:\n        /* \"contracts/zombiefactory.sol\":1054:1306  function createRandomZombie(string memory _name) public {\r... */\n      dup2\n      add\n      swap1\n      dup1\n      dup1\n      calldataload\n      swap1\n      0x20\n      add\n      swap1\n        /* \"--CODEGEN--\":21:32   */\n      0x0100000000\n        /* \"--CODEGEN--\":8:19   */\n      dup2\n        /* \"--CODEGEN--\":5:33   */\n      gt\n        /* \"--CODEGEN--\":2:4   */\n      iszero\n      tag_64\n      jumpi\n        /* \"--CODEGEN--\":46:47   */\n      0x00\n        /* \"--CODEGEN--\":43:44   */\n      dup1\n        /* \"--CODEGEN--\":36:48   */\n      revert\n        /* \"--CODEGEN--\":2:4   */\n    tag_64:\n        /* \"contracts/zombiefactory.sol\":1054:1306  function createRandomZombie(string memory _name) public {\r... */\n      dup3\n      add\n        /* \"--CODEGEN--\":35:44   */\n      dup4\n        /* \"--CODEGEN--\":28:32   */\n      0x20\n        /* \"--CODEGEN--\":12:26   */\n      dup3\n        /* \"--CODEGEN--\":8:33   */\n      add\n        /* \"--CODEGEN--\":5:45   */\n      gt\n        /* \"--CODEGEN--\":2:4   */\n      iszero\n      tag_65\n      jumpi\n        /* \"--CODEGEN--\":58:59   */\n      0x00\n        /* \"--CODEGEN--\":55:56   */\n      dup1\n        /* \"--CODEGEN--\":48:60   */\n      revert\n        /* \"--CODEGEN--\":2:4   */\n    tag_65:\n        /* \"contracts/zombiefactory.sol\":1054:1306  function createRandomZombie(string memory _name) public {\r... */\n      dup1\n      calldataload\n      swap1\n      0x20\n      add\n      swap2\n        /* \"--CODEGEN--\":100:109   */\n      dup5\n        /* \"--CODEGEN--\":95:96   */\n      0x01\n        /* \"--CODEGEN--\":81:93   */\n      dup4\n        /* \"--CODEGEN--\":77:97   */\n      mul\n        /* \"--CODEGEN--\":67:75   */\n      dup5\n        /* \"--CODEGEN--\":63:98   */\n      add\n        /* \"--CODEGEN--\":60:110   */\n      gt\n        /* \"--CODEGEN--\":39:50   */\n      0x0100000000\n        /* \"--CODEGEN--\":25:37   */\n      dup4\n        /* \"--CODEGEN--\":22:51   */\n      gt\n        /* \"--CODEGEN--\":11:118   */\n      or\n        /* \"--CODEGEN--\":8:10   */\n      iszero\n      tag_66\n      jumpi\n        /* \"--CODEGEN--\":131:132   */\n      0x00\n        /* \"--CODEGEN--\":128:129   */\n      dup1\n        /* \"--CODEGEN--\":121:133   */\n      revert\n        /* \"--CODEGEN--\":8:10   */\n    tag_66:\n        /* \"contracts/zombiefactory.sol\":1054:1306  function createRandomZombie(string memory _name) public {\r... */\n      swap2\n      swap1\n      dup1\n      dup1\n      0x1f\n      add\n      0x20\n      dup1\n      swap2\n      div\n      mul\n      0x20\n      add\n      mload(0x40)\n      swap1\n      dup2\n      add\n      0x40\n      mstore\n      dup1\n      swap4\n      swap3\n      swap2\n      swap1\n      dup2\n      dup2\n      mstore\n      0x20\n      add\n      dup4\n      dup4\n        /* \"--CODEGEN--\":30:33   */\n      dup1\n        /* \"--CODEGEN--\":22:28   */\n      dup3\n        /* \"--CODEGEN--\":14:20   */\n      dup5\n        /* \"--CODEGEN--\":1:34   */\n      calldatacopy\n        /* \"--CODEGEN--\":99:100   */\n      0x00\n        /* \"--CODEGEN--\":93:96   */\n      dup2\n        /* \"--CODEGEN--\":85:91   */\n      dup5\n        /* \"--CODEGEN--\":81:97   */\n      add\n        /* \"--CODEGEN--\":74:101   */\n      mstore\n        /* \"--CODEGEN--\":137:141   */\n      0x1f\n        /* \"--CODEGEN--\":133:142   */\n      not\n        /* \"--CODEGEN--\":126:130   */\n      0x1f\n        /* \"--CODEGEN--\":121:124   */\n      dup3\n        /* \"--CODEGEN--\":117:131   */\n      add\n        /* \"--CODEGEN--\":113:143   */\n      and\n        /* \"--CODEGEN--\":106:143   */\n      swap1\n      pop\n        /* \"--CODEGEN--\":169:172   */\n      dup1\n        /* \"--CODEGEN--\":161:167   */\n      dup4\n        /* \"--CODEGEN--\":157:173   */\n      add\n        /* \"--CODEGEN--\":147:173   */\n      swap3\n      pop\n        /* \"contracts/zombiefactory.sol\":1054:1306  function createRandomZombie(string memory _name) public {\r... */\n      pop\n      pop\n      pop\n      pop\n      pop\n      pop\n      swap2\n      swap3\n      swap2\n      swap3\n      swap1\n      pop\n      pop\n      pop\n      tag_67\n      jump\t// in\n    tag_62:\n      stop\n        /* \"contracts/ownable.sol\":710:786  function owner() public view returns(address) {\r... */\n    tag_12:\n      callvalue\n        /* \"--CODEGEN--\":8:17   */\n      dup1\n        /* \"--CODEGEN--\":5:7   */\n      iszero\n      tag_68\n      jumpi\n        /* \"--CODEGEN--\":30:31   */\n      0x00\n        /* \"--CODEGEN--\":27:28   */\n      dup1\n        /* \"--CODEGEN--\":20:32   */\n      revert\n        /* \"--CODEGEN--\":5:7   */\n    tag_68:\n        /* \"contracts/ownable.sol\":710:786  function owner() public view returns(address) {\r... */\n      pop\n      tag_69\n      tag_70\n      jump\t// in\n    tag_69:\n      mload(0x40)\n      dup1\n      dup3\n      0xffffffffffffffffffffffffffffffffffffffff\n      and\n      0xffffffffffffffffffffffffffffffffffffffff\n      and\n      dup2\n      mstore\n      0x20\n      add\n      swap2\n      pop\n      pop\n      mload(0x40)\n      dup1\n      swap2\n      sub\n      swap1\n      return\n        /* \"contracts/ownable.sol\":1034:1123  function isOwner() public view returns(bool) {\r... */\n    tag_13:\n      callvalue\n        /* \"--CODEGEN--\":8:17   */\n      dup1\n        /* \"--CODEGEN--\":5:7   */\n      iszero\n      tag_71\n      jumpi\n        /* \"--CODEGEN--\":30:31   */\n      0x00\n        /* \"--CODEGEN--\":27:28   */\n      dup1\n        /* \"--CODEGEN--\":20:32   */\n      revert\n        /* \"--CODEGEN--\":5:7   */\n    tag_71:\n        /* \"contracts/ownable.sol\":1034:1123  function isOwner() public view returns(bool) {\r... */\n      pop\n      tag_72\n      tag_73\n      jump\t// in\n    tag_72:\n      mload(0x40)\n      dup1\n      dup3\n      iszero\n      iszero\n      iszero\n      iszero\n      dup2\n      mstore\n      0x20\n      add\n      swap2\n      pop\n      pop\n      mload(0x40)\n      dup1\n      swap2\n      sub\n      swap1\n      return\n        /* \"contracts/zombiehelper.sol\":645:811  function changeName(uint _zombieId, string calldata _newName) external aboveLevel(2, _zombieId) onlyOwnerOf(_zombieId) {\r... */\n    tag_14:\n      callvalue\n        /* \"--CODEGEN--\":8:17   */\n      dup1\n        /* \"--CODEGEN--\":5:7   */\n      iszero\n      tag_74\n      jumpi\n        /* \"--CODEGEN--\":30:31   */\n      0x00\n        /* \"--CODEGEN--\":27:28   */\n      dup1\n        /* \"--CODEGEN--\":20:32   */\n      revert\n        /* \"--CODEGEN--\":5:7   */\n    tag_74:\n        /* \"contracts/zombiehelper.sol\":645:811  function changeName(uint _zombieId, string calldata _newName) external aboveLevel(2, _zombieId) onlyOwnerOf(_zombieId) {\r... */\n      pop\n      tag_75\n      0x04\n      dup1\n      calldatasize\n      sub\n        /* \"--CODEGEN--\":13:15   */\n      0x40\n        /* \"--CODEGEN--\":8:11   */\n      dup2\n        /* \"--CODEGEN--\":5:16   */\n      lt\n        /* \"--CODEGEN--\":2:4   */\n      iszero\n      tag_76\n      jumpi\n        /* \"--CODEGEN--\":29:30   */\n      0x00\n        /* \"--CODEGEN--\":26:27   */\n      dup1\n        /* \"--CODEGEN--\":19:31   */\n      revert\n        /* \"--CODEGEN--\":2:4   */\n    tag_76:\n        /* \"contracts/zombiehelper.sol\":645:811  function changeName(uint _zombieId, string calldata _newName) external aboveLevel(2, _zombieId) onlyOwnerOf(_zombieId) {\r... */\n      dup2\n      add\n      swap1\n      dup1\n      dup1\n      calldataload\n      swap1\n      0x20\n      add\n      swap1\n      swap3\n      swap2\n      swap1\n      dup1\n      calldataload\n      swap1\n      0x20\n      add\n      swap1\n        /* \"--CODEGEN--\":21:32   */\n      0x0100000000\n        /* \"--CODEGEN--\":8:19   */\n      dup2\n        /* \"--CODEGEN--\":5:33   */\n      gt\n        /* \"--CODEGEN--\":2:4   */\n      iszero\n      tag_77\n      jumpi\n        /* \"--CODEGEN--\":46:47   */\n      0x00\n        /* \"--CODEGEN--\":43:44   */\n      dup1\n        /* \"--CODEGEN--\":36:48   */\n      revert\n        /* \"--CODEGEN--\":2:4   */\n    tag_77:\n        /* \"contracts/zombiehelper.sol\":645:811  function changeName(uint _zombieId, string calldata _newName) external aboveLevel(2, _zombieId) onlyOwnerOf(_zombieId) {\r... */\n      dup3\n      add\n        /* \"--CODEGEN--\":35:44   */\n      dup4\n        /* \"--CODEGEN--\":28:32   */\n      0x20\n        /* \"--CODEGEN--\":12:26   */\n      dup3\n        /* \"--CODEGEN--\":8:33   */\n      add\n        /* \"--CODEGEN--\":5:45   */\n      gt\n        /* \"--CODEGEN--\":2:4   */\n      iszero\n      tag_78\n      jumpi\n        /* \"--CODEGEN--\":58:59   */\n      0x00\n        /* \"--CODEGEN--\":55:56   */\n      dup1\n        /* \"--CODEGEN--\":48:60   */\n      revert\n        /* \"--CODEGEN--\":2:4   */\n    tag_78:\n        /* \"contracts/zombiehelper.sol\":645:811  function changeName(uint _zombieId, string calldata _newName) external aboveLevel(2, _zombieId) onlyOwnerOf(_zombieId) {\r... */\n      dup1\n      calldataload\n      swap1\n      0x20\n      add\n      swap2\n        /* \"--CODEGEN--\":100:109   */\n      dup5\n        /* \"--CODEGEN--\":95:96   */\n      0x01\n        /* \"--CODEGEN--\":81:93   */\n      dup4\n        /* \"--CODEGEN--\":77:97   */\n      mul\n        /* \"--CODEGEN--\":67:75   */\n      dup5\n        /* \"--CODEGEN--\":63:98   */\n      add\n        /* \"--CODEGEN--\":60:110   */\n      gt\n        /* \"--CODEGEN--\":39:50   */\n      0x0100000000\n        /* \"--CODEGEN--\":25:37   */\n      dup4\n        /* \"--CODEGEN--\":22:51   */\n      gt\n        /* \"--CODEGEN--\":11:118   */\n      or\n        /* \"--CODEGEN--\":8:10   */\n      iszero\n      tag_79\n      jumpi\n        /* \"--CODEGEN--\":131:132   */\n      0x00\n        /* \"--CODEGEN--\":128:129   */\n      dup1\n        /* \"--CODEGEN--\":121:133   */\n      revert\n        /* \"--CODEGEN--\":8:10   */\n    tag_79:\n        /* \"contracts/zombiehelper.sol\":645:811  function changeName(uint _zombieId, string calldata _newName) external aboveLevel(2, _zombieId) onlyOwnerOf(_zombieId) {\r... */\n      swap1\n      swap2\n      swap3\n      swap4\n      swap2\n      swap3\n      swap4\n      swap1\n      pop\n      pop\n      pop\n      tag_80\n      jump\t// in\n    tag_75:\n      stop\n        /* \"contracts/zombiehelper.sol\":422:505  function setLevelUpFee(uint _fee) external onlyOwner {\r... */\n    tag_15:\n      callvalue\n        /* \"--CODEGEN--\":8:17   */\n      dup1\n        /* \"--CODEGEN--\":5:7   */\n      iszero\n      tag_81\n      jumpi\n        /* \"--CODEGEN--\":30:31   */\n      0x00\n        /* \"--CODEGEN--\":27:28   */\n      dup1\n        /* \"--CODEGEN--\":20:32   */\n      revert\n        /* \"--CODEGEN--\":5:7   */\n    tag_81:\n        /* \"contracts/zombiehelper.sol\":422:505  function setLevelUpFee(uint _fee) external onlyOwner {\r... */\n      pop\n      tag_82\n      0x04\n      dup1\n      calldatasize\n      sub\n        /* \"--CODEGEN--\":13:15   */\n      0x20\n        /* \"--CODEGEN--\":8:11   */\n      dup2\n        /* \"--CODEGEN--\":5:16   */\n      lt\n        /* \"--CODEGEN--\":2:4   */\n      iszero\n      tag_83\n      jumpi\n        /* \"--CODEGEN--\":29:30   */\n      0x00\n        /* \"--CODEGEN--\":26:27   */\n      dup1\n        /* \"--CODEGEN--\":19:31   */\n      revert\n        /* \"--CODEGEN--\":2:4   */\n    tag_83:\n        /* \"contracts/zombiehelper.sol\":422:505  function setLevelUpFee(uint _fee) external onlyOwner {\r... */\n      dup2\n      add\n      swap1\n      dup1\n      dup1\n      calldataload\n      swap1\n      0x20\n      add\n      swap1\n      swap3\n      swap2\n      swap1\n      pop\n      pop\n      pop\n      tag_84\n      jump\t// in\n    tag_82:\n      stop\n        /* \"contracts/zombieattack.sol\":345:894  function attack(uint _zombieId, uint _targetId) external onlyOwnerOf(_zombieId) {\r... */\n    tag_16:\n      callvalue\n        /* \"--CODEGEN--\":8:17   */\n      dup1\n        /* \"--CODEGEN--\":5:7   */\n      iszero\n      tag_85\n      jumpi\n        /* \"--CODEGEN--\":30:31   */\n      0x00\n        /* \"--CODEGEN--\":27:28   */\n      dup1\n        /* \"--CODEGEN--\":20:32   */\n      revert\n        /* \"--CODEGEN--\":5:7   */\n    tag_85:\n        /* \"contracts/zombieattack.sol\":345:894  function attack(uint _zombieId, uint _targetId) external onlyOwnerOf(_zombieId) {\r... */\n      pop\n      tag_86\n      0x04\n      dup1\n      calldatasize\n      sub\n        /* \"--CODEGEN--\":13:15   */\n      0x40\n        /* \"--CODEGEN--\":8:11   */\n      dup2\n        /* \"--CODEGEN--\":5:16   */\n      lt\n        /* \"--CODEGEN--\":2:4   */\n      iszero\n      tag_87\n      jumpi\n        /* \"--CODEGEN--\":29:30   */\n      0x00\n        /* \"--CODEGEN--\":26:27   */\n      dup1\n        /* \"--CODEGEN--\":19:31   */\n      revert\n        /* \"--CODEGEN--\":2:4   */\n    tag_87:\n        /* \"contracts/zombieattack.sol\":345:894  function attack(uint _zombieId, uint _targetId) external onlyOwnerOf(_zombieId) {\r... */\n      dup2\n      add\n      swap1\n      dup1\n      dup1\n      calldataload\n      swap1\n      0x20\n      add\n      swap1\n      swap3\n      swap2\n      swap1\n      dup1\n      calldataload\n      swap1\n      0x20\n      add\n      swap1\n      swap3\n      swap2\n      swap1\n      pop\n      pop\n      pop\n      tag_88\n      jump\t// in\n    tag_86:\n      stop\n        /* \"contracts/ownable.sol\":1714:1821  function transferOwnership(address newOwner) public onlyOwner {\r... */\n    tag_17:\n      callvalue\n        /* \"--CODEGEN--\":8:17   */\n      dup1\n        /* \"--CODEGEN--\":5:7   */\n      iszero\n      tag_89\n      jumpi\n        /* \"--CODEGEN--\":30:31   */\n      0x00\n        /* \"--CODEGEN--\":27:28   */\n      dup1\n        /* \"--CODEGEN--\":20:32   */\n      revert\n        /* \"--CODEGEN--\":5:7   */\n    tag_89:\n        /* \"contracts/ownable.sol\":1714:1821  function transferOwnership(address newOwner) public onlyOwner {\r... */\n      pop\n      tag_90\n      0x04\n      dup1\n      calldatasize\n      sub\n        /* \"--CODEGEN--\":13:15   */\n      0x20\n        /* \"--CODEGEN--\":8:11   */\n      dup2\n        /* \"--CODEGEN--\":5:16   */\n      lt\n        /* \"--CODEGEN--\":2:4   */\n      iszero\n      tag_91\n      jumpi\n        /* \"--CODEGEN--\":29:30   */\n      0x00\n        /* \"--CODEGEN--\":26:27   */\n      dup1\n        /* \"--CODEGEN--\":19:31   */\n      revert\n        /* \"--CODEGEN--\":2:4   */\n    tag_91:\n        /* \"contracts/ownable.sol\":1714:1821  function transferOwnership(address newOwner) public onlyOwner {\r... */\n      dup2\n      add\n      swap1\n      dup1\n      dup1\n      calldataload\n      0xffffffffffffffffffffffffffffffffffffffff\n      and\n      swap1\n      0x20\n      add\n      swap1\n      swap3\n      swap2\n      swap1\n      pop\n      pop\n      pop\n      tag_92\n      jump\t// in\n    tag_90:\n      stop\n        /* \"contracts/zombiehelper.sol\":511:639  function levelUp(uint _zombieId) external payable {\r... */\n    tag_23:\n        /* \"contracts/zombiehelper.sol\":589:599  levelUpFee */\n      sload(0x08)\n        /* \"contracts/zombiehelper.sol\":576:585  msg.value */\n      callvalue\n        /* \"contracts/zombiehelper.sol\":576:599  msg.value == levelUpFee */\n      eq\n        /* \"contracts/zombiehelper.sol\":568:600  require(msg.value == levelUpFee) */\n      tag_94\n      jumpi\n      0x00\n      dup1\n      revert\n    tag_94:\n        /* \"contracts/zombiehelper.sol\":607:614  zombies */\n      0x04\n        /* \"contracts/zombiehelper.sol\":615:624  _zombieId */\n      dup2\n        /* \"contracts/zombiehelper.sol\":607:625  zombies[_zombieId] */\n      dup2\n      sload\n      dup2\n      lt\n      tag_95\n      jumpi\n      invalid\n    tag_95:\n      swap1\n      0x00\n      mstore\n      keccak256(0x00, 0x20)\n      swap1\n      0x03\n      mul\n      add\n        /* \"contracts/zombiehelper.sol\":607:631  zombies[_zombieId].level */\n      0x02\n      add\n      0x00\n        /* \"contracts/zombiehelper.sol\":607:633  zombies[_zombieId].level++ */\n      dup2\n      dup2\n      swap1\n      sload\n      swap1\n      0x0100\n      exp\n      swap1\n      div\n      0xffffffff\n      and\n      dup1\n      swap3\n      swap2\n      swap1\n      0x01\n      add\n      swap2\n      swap1\n      0x0100\n      exp\n      dup2\n      sload\n      dup2\n      0xffffffff\n      mul\n      not\n      and\n      swap1\n      dup4\n      0xffffffff\n      and\n      mul\n      or\n      swap1\n      sstore\n      pop\n      pop\n        /* \"contracts/zombiehelper.sol\":511:639  function levelUp(uint _zombieId) external payable {\r... */\n      pop\n      jump\t// out\n        /* \"contracts/zombiefeeding.sol\":1489:1687  function feedOnKitty(uint _zombieId, uint _kittyId) public {\r... */\n    tag_27:\n        /* \"contracts/zombiefeeding.sol\":1555:1568  uint kittyDna */\n      0x00\n        /* \"contracts/zombiefeeding.sol\":1597:1610  kittyContract */\n      0x07\n      0x00\n      swap1\n      sload\n      swap1\n      0x0100\n      exp\n      swap1\n      div\n      0xffffffffffffffffffffffffffffffffffffffff\n      and\n        /* \"contracts/zombiefeeding.sol\":1597:1619  kittyContract.getKitty */\n      0xffffffffffffffffffffffffffffffffffffffff\n      and\n      0xe98b7f4d\n        /* \"contracts/zombiefeeding.sol\":1620:1628  _kittyId */\n      dup4\n        /* \"contracts/zombiefeeding.sol\":1597:1629  kittyContract.getKitty(_kittyId) */\n      mload(0x40)\n      dup3\n      0xffffffff\n      and\n      0xe0\n      shl\n      dup2\n      mstore\n      0x04\n      add\n      dup1\n      dup3\n      dup2\n      mstore\n      0x20\n      add\n      swap2\n      pop\n      pop\n      0x0140\n      mload(0x40)\n      dup1\n      dup4\n      sub\n      dup2\n      dup7\n      dup1\n      extcodesize\n      iszero\n        /* \"--CODEGEN--\":8:17   */\n      dup1\n        /* \"--CODEGEN--\":5:7   */\n      iszero\n      tag_98\n      jumpi\n        /* \"--CODEGEN--\":30:31   */\n      0x00\n        /* \"--CODEGEN--\":27:28   */\n      dup1\n        /* \"--CODEGEN--\":20:32   */\n      revert\n        /* \"--CODEGEN--\":5:7   */\n    tag_98:\n        /* \"contracts/zombiefeeding.sol\":1597:1629  kittyContract.getKitty(_kittyId) */\n      pop\n      gas\n      staticcall\n      iszero\n        /* \"--CODEGEN--\":8:17   */\n      dup1\n        /* \"--CODEGEN--\":5:7   */\n      iszero\n      tag_99\n      jumpi\n        /* \"--CODEGEN--\":45:61   */\n      returndatasize\n        /* \"--CODEGEN--\":42:43   */\n      0x00\n        /* \"--CODEGEN--\":39:40   */\n      dup1\n        /* \"--CODEGEN--\":24:62   */\n      returndatacopy\n        /* \"--CODEGEN--\":77:93   */\n      returndatasize\n        /* \"--CODEGEN--\":74:75   */\n      0x00\n        /* \"--CODEGEN--\":67:94   */\n      revert\n        /* \"--CODEGEN--\":5:7   */\n    tag_99:\n        /* \"contracts/zombiefeeding.sol\":1597:1629  kittyContract.getKitty(_kittyId) */\n      pop\n      pop\n      pop\n      pop\n      mload(0x40)\n      returndatasize\n        /* \"--CODEGEN--\":13:16   */\n      0x0140\n        /* \"--CODEGEN--\":8:11   */\n      dup2\n        /* \"--CODEGEN--\":5:17   */\n      lt\n        /* \"--CODEGEN--\":2:4   */\n      iszero\n      tag_100\n      jumpi\n        /* \"--CODEGEN--\":30:31   */\n      0x00\n        /* \"--CODEGEN--\":27:28   */\n      dup1\n        /* \"--CODEGEN--\":20:32   */\n      revert\n        /* \"--CODEGEN--\":2:4   */\n    tag_100:\n        /* \"contracts/zombiefeeding.sol\":1597:1629  kittyContract.getKitty(_kittyId) */\n      dup2\n      add\n      swap1\n      dup1\n      dup1\n      mload\n      swap1\n      0x20\n      add\n      swap1\n      swap3\n      swap2\n      swap1\n      dup1\n      mload\n      swap1\n      0x20\n      add\n      swap1\n      swap3\n      swap2\n      swap1\n      dup1\n      mload\n      swap1\n      0x20\n      add\n      swap1\n      swap3\n      swap2\n      swap1\n      dup1\n      mload\n      swap1\n      0x20\n      add\n      swap1\n      swap3\n      swap2\n      swap1\n      dup1\n      mload\n      swap1\n      0x20\n      add\n      swap1\n      swap3\n      swap2\n      swap1\n      dup1\n      mload\n      swap1\n      0x20\n      add\n      swap1\n      swap3\n      swap2\n      swap1\n      dup1\n      mload\n      swap1\n      0x20\n      add\n      swap1\n      swap3\n      swap2\n      swap1\n      dup1\n      mload\n      swap1\n      0x20\n      add\n      swap1\n      swap3\n      swap2\n      swap1\n      dup1\n      mload\n      swap1\n      0x20\n      add\n      swap1\n      swap3\n      swap2\n      swap1\n      dup1\n      mload\n      swap1\n      0x20\n      add\n      swap1\n      swap3\n      swap2\n      swap1\n      pop\n      pop\n      pop\n        /* \"contracts/zombiefeeding.sol\":1575:1629  (,,,,,,,,,kittyDna) = kittyContract.getKitty(_kittyId) */\n      swap1\n      swap2\n      swap3\n      swap4\n      swap5\n      swap6\n      swap7\n      swap8\n      swap9\n      pop\n      swap1\n      swap2\n      swap3\n      swap4\n      swap5\n      swap6\n      swap7\n      swap8\n      pop\n      swap1\n      swap2\n      swap3\n      swap4\n      swap5\n      swap6\n      swap7\n      pop\n      swap1\n      swap2\n      swap3\n      swap4\n      swap5\n      swap6\n      pop\n      swap1\n      swap2\n      swap3\n      swap4\n      swap5\n      pop\n      swap1\n      swap2\n      swap3\n      swap4\n      pop\n      swap1\n      swap2\n      swap3\n      pop\n      swap1\n      swap2\n      pop\n      swap1\n      pop\n      dup1\n      swap2\n      pop\n      pop\n        /* \"contracts/zombiefeeding.sol\":1636:1681  feedAndMultiply(_zombieId, kittyDna, \"kitty\") */\n      tag_101\n        /* \"contracts/zombiefeeding.sol\":1652:1661  _zombieId */\n      dup4\n        /* \"contracts/zombiefeeding.sol\":1663:1671  kittyDna */\n      dup3\n        /* \"contracts/zombiefeeding.sol\":1636:1681  feedAndMultiply(_zombieId, kittyDna, \"kitty\") */\n      mload(0x40)\n      dup1\n      0x40\n      add\n      0x40\n      mstore\n      dup1\n      0x05\n      dup2\n      mstore\n      0x20\n      add\n      0x6b69747479000000000000000000000000000000000000000000000000000000\n      dup2\n      mstore\n      pop\n        /* \"contracts/zombiefeeding.sol\":1636:1651  feedAndMultiply */\n      tag_102\n        /* \"contracts/zombiefeeding.sol\":1636:1681  feedAndMultiply(_zombieId, kittyDna, \"kitty\") */\n      jump\t// in\n    tag_101:\n        /* \"contracts/zombiefeeding.sol\":1489:1687  function feedOnKitty(uint _zombieId, uint _kittyId) public {\r... */\n      pop\n      pop\n      pop\n      jump\t// out\n        /* \"contracts/zombiefactory.sol\":430:453  Zombie[] public zombies */\n    tag_31:\n      0x04\n      dup2\n      dup2\n      sload\n      dup2\n      lt\n      tag_103\n      jumpi\n      invalid\n    tag_103:\n      swap1\n      0x00\n      mstore\n      keccak256(0x00, 0x20)\n      swap1\n      0x03\n      mul\n      add\n      0x00\n      swap2\n      pop\n      swap1\n      pop\n      dup1\n      0x00\n      add\n      dup1\n      sload\n      0x01\n      dup2\n      0x01\n      and\n      iszero\n      0x0100\n      mul\n      sub\n      and\n      0x02\n      swap1\n      div\n      dup1\n      0x1f\n      add\n      0x20\n      dup1\n      swap2\n      div\n      mul\n      0x20\n      add\n      mload(0x40)\n      swap1\n      dup2\n      add\n      0x40\n      mstore\n      dup1\n      swap3\n      swap2\n      swap1\n      dup2\n      dup2\n      mstore\n      0x20\n      add\n      dup3\n      dup1\n      sload\n      0x01\n      dup2\n      0x01\n      and\n      iszero\n      0x0100\n      mul\n      sub\n      and\n      0x02\n      swap1\n      div\n      dup1\n      iszero\n      tag_105\n      jumpi\n      dup1\n      0x1f\n      lt\n      tag_106\n      jumpi\n      0x0100\n      dup1\n      dup4\n      sload\n      div\n      mul\n      dup4\n      mstore\n      swap2\n      0x20\n      add\n      swap2\n      jump(tag_105)\n    tag_106:\n      dup3\n      add\n      swap2\n      swap1\n      0x00\n      mstore\n      keccak256(0x00, 0x20)\n      swap1\n    tag_107:\n      dup2\n      sload\n      dup2\n      mstore\n      swap1\n      0x01\n      add\n      swap1\n      0x20\n      add\n      dup1\n      dup4\n      gt\n      tag_107\n      jumpi\n      dup3\n      swap1\n      sub\n      0x1f\n      and\n      dup3\n      add\n      swap2\n    tag_105:\n      pop\n      pop\n      pop\n      pop\n      pop\n      swap1\n      dup1\n      0x01\n      add\n      sload\n      swap1\n      dup1\n      0x02\n      add\n      0x00\n      swap1\n      sload\n      swap1\n      0x0100\n      exp\n      swap1\n      div\n      0xffffffff\n      and\n      swap1\n      dup1\n      0x02\n      add\n      0x04\n      swap1\n      sload\n      swap1\n      0x0100\n      exp\n      swap1\n      div\n      0xffffffff\n      and\n      swap1\n      dup1\n      0x02\n      add\n      0x08\n      swap1\n      sload\n      swap1\n      0x0100\n      exp\n      swap1\n      div\n      0xffff\n      and\n      swap1\n      dup1\n      0x02\n      add\n      0x0a\n      swap1\n      sload\n      swap1\n      0x0100\n      exp\n      swap1\n      div\n      0xffff\n      and\n      swap1\n      pop\n      dup7\n      jump\t// out\n        /* \"contracts/zombiehelper.sol\":269:416  function withdraw() external onlyOwner {\r... */\n    tag_38:\n        /* \"contracts/ownable.sol\":915:924  isOwner() */\n      tag_109\n        /* \"contracts/ownable.sol\":915:922  isOwner */\n      tag_73\n        /* \"contracts/ownable.sol\":915:924  isOwner() */\n      jump\t// in\n    tag_109:\n        /* \"contracts/ownable.sol\":907:925  require(isOwner()) */\n      tag_110\n      jumpi\n      0x00\n      dup1\n      revert\n    tag_110:\n        /* \"contracts/zombiehelper.sol\":315:337  address payable _owner */\n      0x00\n        /* \"contracts/zombiehelper.sol\":356:363  owner() */\n      tag_112\n        /* \"contracts/zombiehelper.sol\":356:361  owner */\n      tag_70\n        /* \"contracts/zombiehelper.sol\":356:363  owner() */\n      jump\t// in\n    tag_112:\n        /* \"contracts/zombiehelper.sol\":315:365  address payable _owner = address(uint160(owner())) */\n      swap1\n      pop\n        /* \"contracts/zombiehelper.sol\":372:378  _owner */\n      dup1\n        /* \"contracts/zombiehelper.sol\":372:387  _owner.transfer */\n      0xffffffffffffffffffffffffffffffffffffffff\n      and\n        /* \"contracts/zombiehelper.sol\":372:410  _owner.transfer(address(this).balance) */\n      0x08fc\n        /* \"contracts/zombiehelper.sol\":388:409  address(this).balance */\n      selfbalance\n        /* \"contracts/zombiehelper.sol\":372:410  _owner.transfer(address(this).balance) */\n      swap1\n      dup2\n      iszero\n      mul\n      swap1\n      mload(0x40)\n      0x00\n      mload(0x40)\n      dup1\n      dup4\n      sub\n      dup2\n      dup6\n      dup9\n      dup9\n      call\n      swap4\n      pop\n      pop\n      pop\n      pop\n      iszero\n        /* \"--CODEGEN--\":8:17   */\n      dup1\n        /* \"--CODEGEN--\":5:7   */\n      iszero\n      tag_113\n      jumpi\n        /* \"--CODEGEN--\":45:61   */\n      returndatasize\n        /* \"--CODEGEN--\":42:43   */\n      0x00\n        /* \"--CODEGEN--\":39:40   */\n      dup1\n        /* \"--CODEGEN--\":24:62   */\n      returndatacopy\n        /* \"--CODEGEN--\":77:93   */\n      returndatasize\n        /* \"--CODEGEN--\":74:75   */\n      0x00\n        /* \"--CODEGEN--\":67:94   */\n      revert\n        /* \"--CODEGEN--\":5:7   */\n    tag_113:\n        /* \"contracts/zombiehelper.sol\":372:410  _owner.transfer(address(this).balance) */\n      pop\n        /* \"contracts/ownable.sol\":934:935  _ */\n      pop\n        /* \"contracts/zombiehelper.sol\":269:416  function withdraw() external onlyOwner {\r... */\n      jump\t// out\n        /* \"contracts/zombiehelper.sol\":975:1326  function getZombiesByOwner(address _owner) external view returns(uint[] memory) {\r... */\n    tag_42:\n        /* \"contracts/zombiehelper.sol\":1040:1053  uint[] memory */\n      0x60\n        /* \"contracts/zombiehelper.sol\":1062:1082  uint[] memory result */\n      dup1\n        /* \"contracts/zombiehelper.sol\":1096:1112  ownerZombieCount */\n      0x06\n        /* \"contracts/zombiehelper.sol\":1096:1120  ownerZombieCount[_owner] */\n      0x00\n        /* \"contracts/zombiehelper.sol\":1113:1119  _owner */\n      dup5\n        /* \"contracts/zombiehelper.sol\":1096:1120  ownerZombieCount[_owner] */\n      0xffffffffffffffffffffffffffffffffffffffff\n      and\n      0xffffffffffffffffffffffffffffffffffffffff\n      and\n      dup2\n      mstore\n      0x20\n      add\n      swap1\n      dup2\n      mstore\n      0x20\n      add\n      0x00\n      keccak256\n      sload\n        /* \"contracts/zombiehelper.sol\":1085:1121  new uint[](ownerZombieCount[_owner]) */\n      mload(0x40)\n      swap1\n      dup1\n      dup3\n      mstore\n      dup1\n      0x20\n      mul\n      0x20\n      add\n      dup3\n      add\n      0x40\n      mstore\n      dup1\n      iszero\n      tag_115\n      jumpi\n      dup2\n      0x20\n      add\n        /* \"--CODEGEN--\":29:31   */\n      0x20\n        /* \"--CODEGEN--\":21:27   */\n      dup3\n        /* \"--CODEGEN--\":17:32   */\n      mul\n        /* \"--CODEGEN--\":117:121   */\n      dup1\n        /* \"--CODEGEN--\":105:115   */\n      codesize\n        /* \"--CODEGEN--\":97:103   */\n      dup4\n        /* \"--CODEGEN--\":88:122   */\n      codecopy\n        /* \"--CODEGEN--\":148:152   */\n      dup1\n        /* \"--CODEGEN--\":140:146   */\n      dup3\n        /* \"--CODEGEN--\":136:153   */\n      add\n        /* \"--CODEGEN--\":126:153   */\n      swap2\n      pop\n        /* \"--CODEGEN--\":0:157   */\n      pop\n        /* \"contracts/zombiehelper.sol\":1085:1121  new uint[](ownerZombieCount[_owner]) */\n      swap1\n      pop\n    tag_115:\n      pop\n        /* \"contracts/zombiehelper.sol\":1062:1121  uint[] memory result = new uint[](ownerZombieCount[_owner]) */\n      swap1\n      pop\n        /* \"contracts/zombiehelper.sol\":1128:1140  uint counter */\n      0x00\n        /* \"contracts/zombiehelper.sol\":1143:1144  0 */\n      dup1\n        /* \"contracts/zombiehelper.sol\":1128:1144  uint counter = 0 */\n      swap1\n      pop\n        /* \"contracts/zombiehelper.sol\":1156:1162  uint i */\n      0x00\n        /* \"contracts/zombiehelper.sol\":1165:1166  0 */\n      dup1\n        /* \"contracts/zombiehelper.sol\":1156:1166  uint i = 0 */\n      swap1\n      pop\n        /* \"contracts/zombiehelper.sol\":1151:1301  for (uint i = 0; i < zombies.length; i++) {\r... */\n    tag_116:\n        /* \"contracts/zombiehelper.sol\":1172:1179  zombies */\n      0x04\n        /* \"contracts/zombiehelper.sol\":1172:1186  zombies.length */\n      dup1\n      sload\n      swap1\n      pop\n        /* \"contracts/zombiehelper.sol\":1168:1169  i */\n      dup2\n        /* \"contracts/zombiehelper.sol\":1168:1186  i < zombies.length */\n      lt\n        /* \"contracts/zombiehelper.sol\":1151:1301  for (uint i = 0; i < zombies.length; i++) {\r... */\n      iszero\n      tag_117\n      jumpi\n        /* \"contracts/zombiehelper.sol\":1226:1232  _owner */\n      dup5\n        /* \"contracts/zombiehelper.sol\":1206:1232  zombieToOwner[i] == _owner */\n      0xffffffffffffffffffffffffffffffffffffffff\n      and\n        /* \"contracts/zombiehelper.sol\":1206:1219  zombieToOwner */\n      0x05\n        /* \"contracts/zombiehelper.sol\":1206:1222  zombieToOwner[i] */\n      0x00\n        /* \"contracts/zombiehelper.sol\":1220:1221  i */\n      dup4\n        /* \"contracts/zombiehelper.sol\":1206:1222  zombieToOwner[i] */\n      dup2\n      mstore\n      0x20\n      add\n      swap1\n      dup2\n      mstore\n      0x20\n      add\n      0x00\n      keccak256\n      0x00\n      swap1\n      sload\n      swap1\n      0x0100\n      exp\n      swap1\n      div\n      0xffffffffffffffffffffffffffffffffffffffff\n      and\n        /* \"contracts/zombiehelper.sol\":1206:1232  zombieToOwner[i] == _owner */\n      0xffffffffffffffffffffffffffffffffffffffff\n      and\n      eq\n        /* \"contracts/zombiehelper.sol\":1202:1294  if (zombieToOwner[i] == _owner) {\r... */\n      iszero\n      tag_119\n      jumpi\n        /* \"contracts/zombiehelper.sol\":1263:1264  i */\n      dup1\n        /* \"contracts/zombiehelper.sol\":1245:1251  result */\n      dup4\n        /* \"contracts/zombiehelper.sol\":1252:1259  counter */\n      dup4\n        /* \"contracts/zombiehelper.sol\":1245:1260  result[counter] */\n      dup2\n      mload\n      dup2\n      lt\n      tag_120\n      jumpi\n      invalid\n    tag_120:\n      0x20\n      mul\n      0x20\n      add\n      add\n        /* \"contracts/zombiehelper.sol\":1245:1264  result[counter] = i */\n      dup2\n      dup2\n      mstore\n      pop\n      pop\n        /* \"contracts/zombiehelper.sol\":1275:1284  counter++ */\n      dup2\n      dup1\n      0x01\n      add\n      swap3\n      pop\n      pop\n        /* \"contracts/zombiehelper.sol\":1202:1294  if (zombieToOwner[i] == _owner) {\r... */\n    tag_119:\n        /* \"contracts/zombiehelper.sol\":1188:1191  i++ */\n      dup1\n      dup1\n      0x01\n      add\n      swap2\n      pop\n      pop\n        /* \"contracts/zombiehelper.sol\":1151:1301  for (uint i = 0; i < zombies.length; i++) {\r... */\n      jump(tag_116)\n    tag_117:\n      pop\n        /* \"contracts/zombiehelper.sol\":1314:1320  result */\n      dup2\n        /* \"contracts/zombiehelper.sol\":1307:1320  return result */\n      swap3\n      pop\n      pop\n      pop\n        /* \"contracts/zombiehelper.sol\":975:1326  function getZombiesByOwner(address _owner) external view returns(uint[] memory) {\r... */\n      swap2\n      swap1\n      pop\n      jump\t// out\n        /* \"contracts/zombiefactory.sol\":462:508  mapping (uint => address) public zombieToOwner */\n    tag_49:\n      mstore(0x20, 0x05)\n      dup1\n      0x00\n      mstore\n      keccak256(0x00, 0x40)\n      0x00\n      swap2\n      pop\n      sload\n      swap1\n      0x0100\n      exp\n      swap1\n      div\n      0xffffffffffffffffffffffffffffffffffffffff\n      and\n      dup2\n      jump\t// out\n        /* \"contracts/zombiefeeding.sol\":593:716  function setKittyContractAddress(address _address) external onlyOwner {\r... */\n    tag_53:\n        /* \"contracts/ownable.sol\":915:924  isOwner() */\n      tag_122\n        /* \"contracts/ownable.sol\":915:922  isOwner */\n      tag_73\n        /* \"contracts/ownable.sol\":915:924  isOwner() */\n      jump\t// in\n    tag_122:\n        /* \"contracts/ownable.sol\":907:925  require(isOwner()) */\n      tag_123\n      jumpi\n      0x00\n      dup1\n      revert\n    tag_123:\n        /* \"contracts/zombiefeeding.sol\":701:709  _address */\n      dup1\n        /* \"contracts/zombiefeeding.sol\":670:683  kittyContract */\n      0x07\n      0x00\n        /* \"contracts/zombiefeeding.sol\":670:710  kittyContract = KittyInterface(_address) */\n      0x0100\n      exp\n      dup2\n      sload\n      dup2\n      0xffffffffffffffffffffffffffffffffffffffff\n      mul\n      not\n      and\n      swap1\n      dup4\n      0xffffffffffffffffffffffffffffffffffffffff\n      and\n      mul\n      or\n      swap1\n      sstore\n      pop\n        /* \"contracts/zombiefeeding.sol\":593:716  function setKittyContractAddress(address _address) external onlyOwner {\r... */\n      pop\n      jump\t// out\n        /* \"contracts/zombiehelper.sol\":817:969  function changeDna(uint _zombieId, uint _newDna) external aboveLevel(20, _zombieId) onlyOwnerOf(_zombieId) {\r... */\n    tag_57:\n        /* \"contracts/zombiehelper.sol\":886:888  20 */\n      0x14\n        /* \"contracts/zombiehelper.sol\":890:899  _zombieId */\n      dup3\n        /* \"contracts/zombiehelper.sol\":242:248  _level */\n      dup2\n        /* \"contracts/zombiehelper.sol\":214:221  zombies */\n      0x04\n        /* \"contracts/zombiehelper.sol\":222:231  _zombieId */\n      dup3\n        /* \"contracts/zombiehelper.sol\":214:232  zombies[_zombieId] */\n      dup2\n      sload\n      dup2\n      lt\n      tag_126\n      jumpi\n      invalid\n    tag_126:\n      swap1\n      0x00\n      mstore\n      keccak256(0x00, 0x20)\n      swap1\n      0x03\n      mul\n      add\n        /* \"contracts/zombiehelper.sol\":214:238  zombies[_zombieId].level */\n      0x02\n      add\n      0x00\n      swap1\n      sload\n      swap1\n      0x0100\n      exp\n      swap1\n      div\n      0xffffffff\n      and\n        /* \"contracts/zombiehelper.sol\":214:248  zombies[_zombieId].level >= _level */\n      0xffffffff\n      and\n      lt\n      iszero\n        /* \"contracts/zombiehelper.sol\":206:249  require(zombies[_zombieId].level >= _level) */\n      tag_128\n      jumpi\n      0x00\n      dup1\n      revert\n    tag_128:\n        /* \"contracts/zombiehelper.sol\":913:922  _zombieId */\n      dup4\n        /* \"contracts/zombiefeeding.sol\":548:561  zombieToOwner */\n      0x05\n        /* \"contracts/zombiefeeding.sol\":548:572  zombieToOwner[_zombieId] */\n      0x00\n        /* \"contracts/zombiefeeding.sol\":562:571  _zombieId */\n      dup3\n        /* \"contracts/zombiefeeding.sol\":548:572  zombieToOwner[_zombieId] */\n      dup2\n      mstore\n      0x20\n      add\n      swap1\n      dup2\n      mstore\n      0x20\n      add\n      0x00\n      keccak256\n      0x00\n      swap1\n      sload\n      swap1\n      0x0100\n      exp\n      swap1\n      div\n      0xffffffffffffffffffffffffffffffffffffffff\n      and\n        /* \"contracts/zombiefeeding.sol\":534:572  msg.sender == zombieToOwner[_zombieId] */\n      0xffffffffffffffffffffffffffffffffffffffff\n      and\n        /* \"contracts/zombiefeeding.sol\":534:544  msg.sender */\n      caller\n        /* \"contracts/zombiefeeding.sol\":534:572  msg.sender == zombieToOwner[_zombieId] */\n      0xffffffffffffffffffffffffffffffffffffffff\n      and\n      eq\n        /* \"contracts/zombiefeeding.sol\":526:573  require(msg.sender == zombieToOwner[_zombieId]) */\n      tag_130\n      jumpi\n      0x00\n      dup1\n      revert\n    tag_130:\n        /* \"contracts/zombiehelper.sol\":956:963  _newDna */\n      dup4\n        /* \"contracts/zombiehelper.sol\":931:938  zombies */\n      0x04\n        /* \"contracts/zombiehelper.sol\":939:948  _zombieId */\n      dup7\n        /* \"contracts/zombiehelper.sol\":931:949  zombies[_zombieId] */\n      dup2\n      sload\n      dup2\n      lt\n      tag_132\n      jumpi\n      invalid\n    tag_132:\n      swap1\n      0x00\n      mstore\n      keccak256(0x00, 0x20)\n      swap1\n      0x03\n      mul\n      add\n        /* \"contracts/zombiehelper.sol\":931:953  zombies[_zombieId].dna */\n      0x01\n      add\n        /* \"contracts/zombiehelper.sol\":931:963  zombies[_zombieId].dna = _newDna */\n      dup2\n      swap1\n      sstore\n      pop\n        /* \"contracts/zombiehelper.sol\":256:257  _ */\n      pop\n        /* \"contracts/zombiehelper.sol\":817:969  function changeDna(uint _zombieId, uint _newDna) external aboveLevel(20, _zombieId) onlyOwnerOf(_zombieId) {\r... */\n      pop\n      pop\n      pop\n      pop\n      jump\t// out\n        /* \"contracts/ownable.sol\":1404:1540  function renounceOwnership() public onlyOwner {\r... */\n    tag_60:\n        /* \"contracts/ownable.sol\":915:924  isOwner() */\n      tag_135\n        /* \"contracts/ownable.sol\":915:922  isOwner */\n      tag_73\n        /* \"contracts/ownable.sol\":915:924  isOwner() */\n      jump\t// in\n    tag_135:\n        /* \"contracts/ownable.sol\":907:925  require(isOwner()) */\n      tag_136\n      jumpi\n      0x00\n      dup1\n      revert\n    tag_136:\n        /* \"contracts/ownable.sol\":1501:1502  0 */\n      0x00\n        /* \"contracts/ownable.sol\":1464:1504  OwnershipTransferred(_owner, address(0)) */\n      0xffffffffffffffffffffffffffffffffffffffff\n      and\n        /* \"contracts/ownable.sol\":1485:1491  _owner */\n      0x00\n      dup1\n      swap1\n      sload\n      swap1\n      0x0100\n      exp\n      swap1\n      div\n      0xffffffffffffffffffffffffffffffffffffffff\n      and\n        /* \"contracts/ownable.sol\":1464:1504  OwnershipTransferred(_owner, address(0)) */\n      0xffffffffffffffffffffffffffffffffffffffff\n      and\n      0x8be0079c531659141344cd1fd0a4f28419497f9722a3daafe3b4186f6b6457e0\n      mload(0x40)\n      mload(0x40)\n      dup1\n      swap2\n      sub\n      swap1\n      log3\n        /* \"contracts/ownable.sol\":1530:1531  0 */\n      0x00\n        /* \"contracts/ownable.sol\":1513:1519  _owner */\n      dup1\n      0x00\n        /* \"contracts/ownable.sol\":1513:1532  _owner = address(0) */\n      0x0100\n      exp\n      dup2\n      sload\n      dup2\n      0xffffffffffffffffffffffffffffffffffffffff\n      mul\n      not\n      and\n      swap1\n      dup4\n      0xffffffffffffffffffffffffffffffffffffffff\n      and\n      mul\n      or\n      swap1\n      sstore\n      pop\n        /* \"contracts/ownable.sol\":1404:1540  function renounceOwnership() public onlyOwner {\r... */\n      jump\t// out\n        /* \"contracts/zombiefactory.sol\":1054:1306  function createRandomZombie(string memory _name) public {\r... */\n    tag_67:\n        /* \"contracts/zombiefactory.sol\":1161:1162  0 */\n      0x00\n        /* \"contracts/zombiefactory.sol\":1129:1145  ownerZombieCount */\n      0x06\n        /* \"contracts/zombiefactory.sol\":1129:1157  ownerZombieCount[msg.sender] */\n      0x00\n        /* \"contracts/zombiefactory.sol\":1146:1156  msg.sender */\n      caller\n        /* \"contracts/zombiefactory.sol\":1129:1157  ownerZombieCount[msg.sender] */\n      0xffffffffffffffffffffffffffffffffffffffff\n      and\n      0xffffffffffffffffffffffffffffffffffffffff\n      and\n      dup2\n      mstore\n      0x20\n      add\n      swap1\n      dup2\n      mstore\n      0x20\n      add\n      0x00\n      keccak256\n      sload\n        /* \"contracts/zombiefactory.sol\":1129:1162  ownerZombieCount[msg.sender] == 0 */\n      eq\n        /* \"contracts/zombiefactory.sol\":1121:1163  require(ownerZombieCount[msg.sender] == 0) */\n      tag_139\n      jumpi\n      0x00\n      dup1\n      revert\n    tag_139:\n        /* \"contracts/zombiefactory.sol\":1174:1186  uint randDna */\n      0x00\n        /* \"contracts/zombiefactory.sol\":1189:1214  _generateRandomDna(_name) */\n      tag_140\n        /* \"contracts/zombiefactory.sol\":1208:1213  _name */\n      dup3\n        /* \"contracts/zombiefactory.sol\":1189:1207  _generateRandomDna */\n      tag_141\n        /* \"contracts/zombiefactory.sol\":1189:1214  _generateRandomDna(_name) */\n      jump\t// in\n    tag_140:\n        /* \"contracts/zombiefactory.sol\":1174:1214  uint randDna = _generateRandomDna(_name) */\n      swap1\n      pop\n        /* \"contracts/zombiefactory.sol\":1255:1258  100 */\n      0x64\n        /* \"contracts/zombiefactory.sol\":1245:1252  randDna */\n      dup2\n        /* \"contracts/zombiefactory.sol\":1245:1258  randDna % 100 */\n      dup2\n      tag_142\n      jumpi\n      invalid\n    tag_142:\n      mod\n        /* \"contracts/zombiefactory.sol\":1235:1242  randDna */\n      dup2\n        /* \"contracts/zombiefactory.sol\":1235:1258  randDna - randDna % 100 */\n      sub\n        /* \"contracts/zombiefactory.sol\":1225:1258  randDna = randDna - randDna % 100 */\n      swap1\n      pop\n        /* \"contracts/zombiefactory.sol\":1269:1298  _createZombie(_name, randDna) */\n      tag_143\n        /* \"contracts/zombiefactory.sol\":1283:1288  _name */\n      dup3\n        /* \"contracts/zombiefactory.sol\":1290:1297  randDna */\n      dup3\n        /* \"contracts/zombiefactory.sol\":1269:1282  _createZombie */\n      tag_144\n        /* \"contracts/zombiefactory.sol\":1269:1298  _createZombie(_name, randDna) */\n      jump\t// in\n    tag_143:\n        /* \"contracts/zombiefactory.sol\":1054:1306  function createRandomZombie(string memory _name) public {\r... */\n      pop\n      pop\n      jump\t// out\n        /* \"contracts/ownable.sol\":710:786  function owner() public view returns(address) {\r... */\n    tag_70:\n        /* \"contracts/ownable.sol\":747:754  address */\n      0x00\n        /* \"contracts/ownable.sol\":772:778  _owner */\n      dup1\n      0x00\n      swap1\n      sload\n      swap1\n      0x0100\n      exp\n      swap1\n      div\n      0xffffffffffffffffffffffffffffffffffffffff\n      and\n        /* \"contracts/ownable.sol\":765:778  return _owner */\n      swap1\n      pop\n        /* \"contracts/ownable.sol\":710:786  function owner() public view returns(address) {\r... */\n      swap1\n      jump\t// out\n        /* \"contracts/ownable.sol\":1034:1123  function isOwner() public view returns(bool) {\r... */\n    tag_73:\n        /* \"contracts/ownable.sol\":1073:1077  bool */\n      0x00\n        /* \"contracts/ownable.sol\":1109:1115  _owner */\n      dup1\n      0x00\n      swap1\n      sload\n      swap1\n      0x0100\n      exp\n      swap1\n      div\n      0xffffffffffffffffffffffffffffffffffffffff\n      and\n        /* \"contracts/ownable.sol\":1095:1115  msg.sender == _owner */\n      0xffffffffffffffffffffffffffffffffffffffff\n      and\n        /* \"contracts/ownable.sol\":1095:1105  msg.sender */\n      caller\n        /* \"contracts/ownable.sol\":1095:1115  msg.sender == _owner */\n      0xffffffffffffffffffffffffffffffffffffffff\n      and\n      eq\n        /* \"contracts/ownable.sol\":1088:1115  return msg.sender == _owner */\n      swap1\n      pop\n        /* \"contracts/ownable.sol\":1034:1123  function isOwner() public view returns(bool) {\r... */\n      swap1\n      jump\t// out\n        /* \"contracts/zombiehelper.sol\":645:811  function changeName(uint _zombieId, string calldata _newName) external aboveLevel(2, _zombieId) onlyOwnerOf(_zombieId) {\r... */\n    tag_80:\n        /* \"contracts/zombiehelper.sol\":727:728  2 */\n      0x02\n        /* \"contracts/zombiehelper.sol\":730:739  _zombieId */\n      dup4\n        /* \"contracts/zombiehelper.sol\":242:248  _level */\n      dup2\n        /* \"contracts/zombiehelper.sol\":214:221  zombies */\n      0x04\n        /* \"contracts/zombiehelper.sol\":222:231  _zombieId */\n      dup3\n        /* \"contracts/zombiehelper.sol\":214:232  zombies[_zombieId] */\n      dup2\n      sload\n      dup2\n      lt\n      tag_148\n      jumpi\n      invalid\n    tag_148:\n      swap1\n      0x00\n      mstore\n      keccak256(0x00, 0x20)\n      swap1\n      0x03\n      mul\n      add\n        /* \"contracts/zombiehelper.sol\":214:238  zombies[_zombieId].level */\n      0x02\n      add\n      0x00\n      swap1\n      sload\n      swap1\n      0x0100\n      exp\n      swap1\n      div\n      0xffffffff\n      and\n        /* \"contracts/zombiehelper.sol\":214:248  zombies[_zombieId].level >= _level */\n      0xffffffff\n      and\n      lt\n      iszero\n        /* \"contracts/zombiehelper.sol\":206:249  require(zombies[_zombieId].level >= _level) */\n      tag_150\n      jumpi\n      0x00\n      dup1\n      revert\n    tag_150:\n        /* \"contracts/zombiehelper.sol\":753:762  _zombieId */\n      dup5\n        /* \"contracts/zombiefeeding.sol\":548:561  zombieToOwner */\n      0x05\n        /* \"contracts/zombiefeeding.sol\":548:572  zombieToOwner[_zombieId] */\n      0x00\n        /* \"contracts/zombiefeeding.sol\":562:571  _zombieId */\n      dup3\n        /* \"contracts/zombiefeeding.sol\":548:572  zombieToOwner[_zombieId] */\n      dup2\n      mstore\n      0x20\n      add\n      swap1\n      dup2\n      mstore\n      0x20\n      add\n      0x00\n      keccak256\n      0x00\n      swap1\n      sload\n      swap1\n      0x0100\n      exp\n      swap1\n      div\n      0xffffffffffffffffffffffffffffffffffffffff\n      and\n        /* \"contracts/zombiefeeding.sol\":534:572  msg.sender == zombieToOwner[_zombieId] */\n      0xffffffffffffffffffffffffffffffffffffffff\n      and\n        /* \"contracts/zombiefeeding.sol\":534:544  msg.sender */\n      caller\n        /* \"contracts/zombiefeeding.sol\":534:572  msg.sender == zombieToOwner[_zombieId] */\n      0xffffffffffffffffffffffffffffffffffffffff\n      and\n      eq\n        /* \"contracts/zombiefeeding.sol\":526:573  require(msg.sender == zombieToOwner[_zombieId]) */\n      tag_152\n      jumpi\n      0x00\n      dup1\n      revert\n    tag_152:\n        /* \"contracts/zombiehelper.sol\":797:805  _newName */\n      dup5\n      dup5\n        /* \"contracts/zombiehelper.sol\":771:778  zombies */\n      0x04\n        /* \"contracts/zombiehelper.sol\":779:788  _zombieId */\n      dup9\n        /* \"contracts/zombiehelper.sol\":771:789  zombies[_zombieId] */\n      dup2\n      sload\n      dup2\n      lt\n      tag_154\n      jumpi\n      invalid\n    tag_154:\n      swap1\n      0x00\n      mstore\n      keccak256(0x00, 0x20)\n      swap1\n      0x03\n      mul\n      add\n        /* \"contracts/zombiehelper.sol\":771:794  zombies[_zombieId].name */\n      0x00\n      add\n        /* \"contracts/zombiehelper.sol\":771:805  zombies[_zombieId].name = _newName */\n      swap2\n      swap1\n      tag_156\n      swap3\n      swap2\n      swap1\n      tag_157\n      jump\t// in\n    tag_156:\n      pop\n        /* \"contracts/zombiehelper.sol\":256:257  _ */\n      pop\n        /* \"contracts/zombiehelper.sol\":645:811  function changeName(uint _zombieId, string calldata _newName) external aboveLevel(2, _zombieId) onlyOwnerOf(_zombieId) {\r... */\n      pop\n      pop\n      pop\n      pop\n      pop\n      jump\t// out\n        /* \"contracts/zombiehelper.sol\":422:505  function setLevelUpFee(uint _fee) external onlyOwner {\r... */\n    tag_84:\n        /* \"contracts/ownable.sol\":915:924  isOwner() */\n      tag_159\n        /* \"contracts/ownable.sol\":915:922  isOwner */\n      tag_73\n        /* \"contracts/ownable.sol\":915:924  isOwner() */\n      jump\t// in\n    tag_159:\n        /* \"contracts/ownable.sol\":907:925  require(isOwner()) */\n      tag_160\n      jumpi\n      0x00\n      dup1\n      revert\n    tag_160:\n        /* \"contracts/zombiehelper.sol\":495:499  _fee */\n      dup1\n        /* \"contracts/zombiehelper.sol\":482:492  levelUpFee */\n      0x08\n        /* \"contracts/zombiehelper.sol\":482:499  levelUpFee = _fee */\n      dup2\n      swap1\n      sstore\n      pop\n        /* \"contracts/zombiehelper.sol\":422:505  function setLevelUpFee(uint _fee) external onlyOwner {\r... */\n      pop\n      jump\t// out\n        /* \"contracts/zombieattack.sol\":345:894  function attack(uint _zombieId, uint _targetId) external onlyOwnerOf(_zombieId) {\r... */\n    tag_88:\n        /* \"contracts/zombieattack.sol\":414:423  _zombieId */\n      dup2\n        /* \"contracts/zombiefeeding.sol\":548:561  zombieToOwner */\n      0x05\n        /* \"contracts/zombiefeeding.sol\":548:572  zombieToOwner[_zombieId] */\n      0x00\n        /* \"contracts/zombiefeeding.sol\":562:571  _zombieId */\n      dup3\n        /* \"contracts/zombiefeeding.sol\":548:572  zombieToOwner[_zombieId] */\n      dup2\n      mstore\n      0x20\n      add\n      swap1\n      dup2\n      mstore\n      0x20\n      add\n      0x00\n      keccak256\n      0x00\n      swap1\n      sload\n      swap1\n      0x0100\n      exp\n      swap1\n      div\n      0xffffffffffffffffffffffffffffffffffffffff\n      and\n        /* \"contracts/zombiefeeding.sol\":534:572  msg.sender == zombieToOwner[_zombieId] */\n      0xffffffffffffffffffffffffffffffffffffffff\n      and\n        /* \"contracts/zombiefeeding.sol\":534:544  msg.sender */\n      caller\n        /* \"contracts/zombiefeeding.sol\":534:572  msg.sender == zombieToOwner[_zombieId] */\n      0xffffffffffffffffffffffffffffffffffffffff\n      and\n      eq\n        /* \"contracts/zombiefeeding.sol\":526:573  require(msg.sender == zombieToOwner[_zombieId]) */\n      tag_163\n      jumpi\n      0x00\n      dup1\n      revert\n    tag_163:\n        /* \"contracts/zombieattack.sol\":432:455  Zombie storage myZombie */\n      0x00\n        /* \"contracts/zombieattack.sol\":458:465  zombies */\n      0x04\n        /* \"contracts/zombieattack.sol\":466:475  _zombieId */\n      dup5\n        /* \"contracts/zombieattack.sol\":458:476  zombies[_zombieId] */\n      dup2\n      sload\n      dup2\n      lt\n      tag_165\n      jumpi\n      invalid\n    tag_165:\n      swap1\n      0x00\n      mstore\n      keccak256(0x00, 0x20)\n      swap1\n      0x03\n      mul\n      add\n        /* \"contracts/zombieattack.sol\":432:476  Zombie storage myZombie = zombies[_zombieId] */\n      swap1\n      pop\n        /* \"contracts/zombieattack.sol\":483:509  Zombie storage enemyZombie */\n      0x00\n        /* \"contracts/zombieattack.sol\":512:519  zombies */\n      0x04\n        /* \"contracts/zombieattack.sol\":520:529  _targetId */\n      dup5\n        /* \"contracts/zombieattack.sol\":512:530  zombies[_targetId] */\n      dup2\n      sload\n      dup2\n      lt\n      tag_167\n      jumpi\n      invalid\n    tag_167:\n      swap1\n      0x00\n      mstore\n      keccak256(0x00, 0x20)\n      swap1\n      0x03\n      mul\n      add\n        /* \"contracts/zombieattack.sol\":483:530  Zombie storage enemyZombie = zombies[_targetId] */\n      swap1\n      pop\n        /* \"contracts/zombieattack.sol\":537:546  uint rand */\n      0x00\n        /* \"contracts/zombieattack.sol\":549:561  randMod(100) */\n      tag_169\n        /* \"contracts/zombieattack.sol\":557:560  100 */\n      0x64\n        /* \"contracts/zombieattack.sol\":549:556  randMod */\n      tag_170\n        /* \"contracts/zombieattack.sol\":549:561  randMod(100) */\n      jump\t// in\n    tag_169:\n        /* \"contracts/zombieattack.sol\":537:561  uint rand = randMod(100) */\n      swap1\n      pop\n        /* \"contracts/zombieattack.sol\":580:604  attackVictoryProbability */\n      sload(0x0a)\n        /* \"contracts/zombieattack.sol\":572:576  rand */\n      dup2\n        /* \"contracts/zombieattack.sol\":572:604  rand <= attackVictoryProbability */\n      gt\n        /* \"contracts/zombieattack.sol\":568:889  if (rand <= attackVictoryProbability) {\r... */\n      tag_171\n      jumpi\n        /* \"contracts/zombieattack.sol\":615:623  myZombie */\n      dup3\n        /* \"contracts/zombieattack.sol\":615:632  myZombie.winCount */\n      0x02\n      add\n      0x08\n        /* \"contracts/zombieattack.sol\":615:634  myZombie.winCount++ */\n      dup2\n      dup2\n      swap1\n      sload\n      swap1\n      0x0100\n      exp\n      swap1\n      div\n      0xffff\n      and\n      dup1\n      swap3\n      swap2\n      swap1\n      0x01\n      add\n      swap2\n      swap1\n      0x0100\n      exp\n      dup2\n      sload\n      dup2\n      0xffff\n      mul\n      not\n      and\n      swap1\n      dup4\n      0xffff\n      and\n      mul\n      or\n      swap1\n      sstore\n      pop\n      pop\n        /* \"contracts/zombieattack.sol\":643:651  myZombie */\n      dup3\n        /* \"contracts/zombieattack.sol\":643:657  myZombie.level */\n      0x02\n      add\n      0x00\n        /* \"contracts/zombieattack.sol\":643:659  myZombie.level++ */\n      dup2\n      dup2\n      swap1\n      sload\n      swap1\n      0x0100\n      exp\n      swap1\n      div\n      0xffffffff\n      and\n      dup1\n      swap3\n      swap2\n      swap1\n      0x01\n      add\n      swap2\n      swap1\n      0x0100\n      exp\n      dup2\n      sload\n      dup2\n      0xffffffff\n      mul\n      not\n      and\n      swap1\n      dup4\n      0xffffffff\n      and\n      mul\n      or\n      swap1\n      sstore\n      pop\n      pop\n        /* \"contracts/zombieattack.sol\":668:679  enemyZombie */\n      dup2\n        /* \"contracts/zombieattack.sol\":668:689  enemyZombie.lossCount */\n      0x02\n      add\n      0x0a\n        /* \"contracts/zombieattack.sol\":668:691  enemyZombie.lossCount++ */\n      dup2\n      dup2\n      swap1\n      sload\n      swap1\n      0x0100\n      exp\n      swap1\n      div\n      0xffff\n      and\n      dup1\n      swap3\n      swap2\n      swap1\n      0x01\n      add\n      swap2\n      swap1\n      0x0100\n      exp\n      dup2\n      sload\n      dup2\n      0xffff\n      mul\n      not\n      and\n      swap1\n      dup4\n      0xffff\n      and\n      mul\n      or\n      swap1\n      sstore\n      pop\n      pop\n        /* \"contracts/zombieattack.sol\":700:753  feedAndMultiply(_zombieId, enemyZombie.dna, \"zombie\") */\n      tag_172\n        /* \"contracts/zombieattack.sol\":716:725  _zombieId */\n      dup7\n        /* \"contracts/zombieattack.sol\":727:738  enemyZombie */\n      dup4\n        /* \"contracts/zombieattack.sol\":727:742  enemyZombie.dna */\n      0x01\n      add\n      sload\n        /* \"contracts/zombieattack.sol\":700:753  feedAndMultiply(_zombieId, enemyZombie.dna, \"zombie\") */\n      mload(0x40)\n      dup1\n      0x40\n      add\n      0x40\n      mstore\n      dup1\n      0x06\n      dup2\n      mstore\n      0x20\n      add\n      0x7a6f6d6269650000000000000000000000000000000000000000000000000000\n      dup2\n      mstore\n      pop\n        /* \"contracts/zombieattack.sol\":700:715  feedAndMultiply */\n      tag_102\n        /* \"contracts/zombieattack.sol\":700:753  feedAndMultiply(_zombieId, enemyZombie.dna, \"zombie\") */\n      jump\t// in\n    tag_172:\n        /* \"contracts/zombieattack.sol\":568:889  if (rand <= attackVictoryProbability) {\r... */\n      jump(tag_173)\n    tag_171:\n        /* \"contracts/zombieattack.sol\":795:803  myZombie */\n      dup3\n        /* \"contracts/zombieattack.sol\":795:813  myZombie.lossCount */\n      0x02\n      add\n      0x0a\n        /* \"contracts/zombieattack.sol\":795:815  myZombie.lossCount++ */\n      dup2\n      dup2\n      swap1\n      sload\n      swap1\n      0x0100\n      exp\n      swap1\n      div\n      0xffff\n      and\n      dup1\n      swap3\n      swap2\n      swap1\n      0x01\n      add\n      swap2\n      swap1\n      0x0100\n      exp\n      dup2\n      sload\n      dup2\n      0xffff\n      mul\n      not\n      and\n      swap1\n      dup4\n      0xffff\n      and\n      mul\n      or\n      swap1\n      sstore\n      pop\n      pop\n        /* \"contracts/zombieattack.sol\":824:835  enemyZombie */\n      dup2\n        /* \"contracts/zombieattack.sol\":824:844  enemyZombie.winCount */\n      0x02\n      add\n      0x08\n        /* \"contracts/zombieattack.sol\":824:846  enemyZombie.winCount++ */\n      dup2\n      dup2\n      swap1\n      sload\n      swap1\n      0x0100\n      exp\n      swap1\n      div\n      0xffff\n      and\n      dup1\n      swap3\n      swap2\n      swap1\n      0x01\n      add\n      swap2\n      swap1\n      0x0100\n      exp\n      dup2\n      sload\n      dup2\n      0xffff\n      mul\n      not\n      and\n      swap1\n      dup4\n      0xffff\n      and\n      mul\n      or\n      swap1\n      sstore\n      pop\n      pop\n        /* \"contracts/zombieattack.sol\":855:881  _triggerCooldown(myZombie) */\n      tag_174\n        /* \"contracts/zombieattack.sol\":872:880  myZombie */\n      dup4\n        /* \"contracts/zombieattack.sol\":855:871  _triggerCooldown */\n      tag_175\n        /* \"contracts/zombieattack.sol\":855:881  _triggerCooldown(myZombie) */\n      jump\t// in\n    tag_174:\n        /* \"contracts/zombieattack.sol\":568:889  if (rand <= attackVictoryProbability) {\r... */\n    tag_173:\n        /* \"contracts/zombiefeeding.sol\":580:581  _ */\n      pop\n      pop\n      pop\n        /* \"contracts/zombieattack.sol\":345:894  function attack(uint _zombieId, uint _targetId) external onlyOwnerOf(_zombieId) {\r... */\n      pop\n      pop\n      pop\n      jump\t// out\n        /* \"contracts/ownable.sol\":1714:1821  function transferOwnership(address newOwner) public onlyOwner {\r... */\n    tag_92:\n        /* \"contracts/ownable.sol\":915:924  isOwner() */\n      tag_177\n        /* \"contracts/ownable.sol\":915:922  isOwner */\n      tag_73\n        /* \"contracts/ownable.sol\":915:924  isOwner() */\n      jump\t// in\n    tag_177:\n        /* \"contracts/ownable.sol\":907:925  require(isOwner()) */\n      tag_178\n      jumpi\n      0x00\n      dup1\n      revert\n    tag_178:\n        /* \"contracts/ownable.sol\":1785:1813  _transferOwnership(newOwner) */\n      tag_180\n        /* \"contracts/ownable.sol\":1804:1812  newOwner */\n      dup2\n        /* \"contracts/ownable.sol\":1785:1803  _transferOwnership */\n      tag_181\n        /* \"contracts/ownable.sol\":1785:1813  _transferOwnership(newOwner) */\n      jump\t// in\n    tag_180:\n        /* \"contracts/ownable.sol\":1714:1821  function transferOwnership(address newOwner) public onlyOwner {\r... */\n      pop\n      jump\t// out\n        /* \"contracts/zombiefeeding.sol\":971:1483  function feedAndMultiply(uint _zombieId, uint _targetDna, string memory _species) internal onlyOwnerOf(_zombieId) {\r... */\n    tag_102:\n        /* \"contracts/zombiefeeding.sol\":1074:1083  _zombieId */\n      dup3\n        /* \"contracts/zombiefeeding.sol\":548:561  zombieToOwner */\n      0x05\n        /* \"contracts/zombiefeeding.sol\":548:572  zombieToOwner[_zombieId] */\n      0x00\n        /* \"contracts/zombiefeeding.sol\":562:571  _zombieId */\n      dup3\n        /* \"contracts/zombiefeeding.sol\":548:572  zombieToOwner[_zombieId] */\n      dup2\n      mstore\n      0x20\n      add\n      swap1\n      dup2\n      mstore\n      0x20\n      add\n      0x00\n      keccak256\n      0x00\n      swap1\n      sload\n      swap1\n      0x0100\n      exp\n      swap1\n      div\n      0xffffffffffffffffffffffffffffffffffffffff\n      and\n        /* \"contracts/zombiefeeding.sol\":534:572  msg.sender == zombieToOwner[_zombieId] */\n      0xffffffffffffffffffffffffffffffffffffffff\n      and\n        /* \"contracts/zombiefeeding.sol\":534:544  msg.sender */\n      caller\n        /* \"contracts/zombiefeeding.sol\":534:572  msg.sender == zombieToOwner[_zombieId] */\n      0xffffffffffffffffffffffffffffffffffffffff\n      and\n      eq\n        /* \"contracts/zombiefeeding.sol\":526:573  require(msg.sender == zombieToOwner[_zombieId]) */\n      tag_183\n      jumpi\n      0x00\n      dup1\n      revert\n    tag_183:\n        /* \"contracts/zombiefeeding.sol\":1092:1115  Zombie storage myZombie */\n      0x00\n        /* \"contracts/zombiefeeding.sol\":1118:1125  zombies */\n      0x04\n        /* \"contracts/zombiefeeding.sol\":1126:1135  _zombieId */\n      dup6\n        /* \"contracts/zombiefeeding.sol\":1118:1136  zombies[_zombieId] */\n      dup2\n      sload\n      dup2\n      lt\n      tag_185\n      jumpi\n      invalid\n    tag_185:\n      swap1\n      0x00\n      mstore\n      keccak256(0x00, 0x20)\n      swap1\n      0x03\n      mul\n      add\n        /* \"contracts/zombiefeeding.sol\":1092:1136  Zombie storage myZombie = zombies[_zombieId] */\n      swap1\n      pop\n        /* \"contracts/zombiefeeding.sol\":1151:1169  _isReady(myZombie) */\n      tag_187\n        /* \"contracts/zombiefeeding.sol\":1160:1168  myZombie */\n      dup2\n        /* \"contracts/zombiefeeding.sol\":1151:1159  _isReady */\n      tag_188\n        /* \"contracts/zombiefeeding.sol\":1151:1169  _isReady(myZombie) */\n      jump\t// in\n    tag_187:\n        /* \"contracts/zombiefeeding.sol\":1143:1170  require(_isReady(myZombie)) */\n      tag_189\n      jumpi\n      0x00\n      dup1\n      revert\n    tag_189:\n        /* \"contracts/zombiefeeding.sol\":1203:1213  dnaModulus */\n      sload(0x02)\n        /* \"contracts/zombiefeeding.sol\":1190:1200  _targetDna */\n      dup5\n        /* \"contracts/zombiefeeding.sol\":1190:1213  _targetDna % dnaModulus */\n      dup2\n      tag_190\n      jumpi\n      invalid\n    tag_190:\n      mod\n        /* \"contracts/zombiefeeding.sol\":1177:1213  _targetDna = _targetDna % dnaModulus */\n      swap4\n      pop\n        /* \"contracts/zombiefeeding.sol\":1220:1231  uint newDna */\n      0x00\n        /* \"contracts/zombiefeeding.sol\":1264:1265  2 */\n      0x02\n        /* \"contracts/zombiefeeding.sol\":1250:1260  _targetDna */\n      dup6\n        /* \"contracts/zombiefeeding.sol\":1235:1243  myZombie */\n      dup4\n        /* \"contracts/zombiefeeding.sol\":1235:1247  myZombie.dna */\n      0x01\n      add\n      sload\n        /* \"contracts/zombiefeeding.sol\":1235:1260  myZombie.dna + _targetDna */\n      add\n        /* \"contracts/zombiefeeding.sol\":1234:1265  (myZombie.dna + _targetDna) / 2 */\n      dup2\n      tag_191\n      jumpi\n      invalid\n    tag_191:\n      div\n        /* \"contracts/zombiefeeding.sol\":1220:1265  uint newDna = (myZombie.dna + _targetDna) / 2 */\n      swap1\n      pop\n        /* \"contracts/zombiefeeding.sol\":1327:1352  abi.encodePacked(\"kitty\") */\n      add(0x20, mload(0x40))\n      dup1\n      dup1\n      0x6b69747479000000000000000000000000000000000000000000000000000000\n      dup2\n      mstore\n      pop\n      0x05\n      add\n      swap1\n      pop\n      mload(0x40)\n        /* \"--CODEGEN--\":49:53   */\n      0x20\n        /* \"--CODEGEN--\":39:46   */\n      dup2\n        /* \"--CODEGEN--\":30:37   */\n      dup4\n        /* \"--CODEGEN--\":26:47   */\n      sub\n        /* \"--CODEGEN--\":22:54   */\n      sub\n        /* \"--CODEGEN--\":13:20   */\n      dup2\n        /* \"--CODEGEN--\":6:55   */\n      mstore\n        /* \"contracts/zombiefeeding.sol\":1327:1352  abi.encodePacked(\"kitty\") */\n      swap1\n      0x40\n      mstore\n        /* \"contracts/zombiefeeding.sol\":1317:1353  keccak256(abi.encodePacked(\"kitty\")) */\n      dup1\n      mload\n      swap1\n      0x20\n      add\n      keccak256\n        /* \"contracts/zombiefeeding.sol\":1303:1311  _species */\n      dup5\n        /* \"contracts/zombiefeeding.sol\":1286:1312  abi.encodePacked(_species) */\n      add(0x20, mload(0x40))\n      dup1\n      dup3\n      dup1\n      mload\n      swap1\n      0x20\n      add\n      swap1\n      dup1\n      dup4\n      dup4\n        /* \"--CODEGEN--\":36:189   */\n    tag_192:\n        /* \"--CODEGEN--\":66:68   */\n      0x20\n        /* \"--CODEGEN--\":61:64   */\n      dup4\n        /* \"--CODEGEN--\":58:69   */\n      lt\n        /* \"--CODEGEN--\":36:189   */\n      tag_194\n      jumpi\n        /* \"--CODEGEN--\":182:185   */\n      dup1\n        /* \"--CODEGEN--\":176:186   */\n      mload\n        /* \"--CODEGEN--\":171:174   */\n      dup3\n        /* \"--CODEGEN--\":164:187   */\n      mstore\n        /* \"--CODEGEN--\":98:100   */\n      0x20\n        /* \"--CODEGEN--\":93:96   */\n      dup3\n        /* \"--CODEGEN--\":89:101   */\n      add\n        /* \"--CODEGEN--\":82:101   */\n      swap2\n      pop\n        /* \"--CODEGEN--\":123:125   */\n      0x20\n        /* \"--CODEGEN--\":118:121   */\n      dup2\n        /* \"--CODEGEN--\":114:126   */\n      add\n        /* \"--CODEGEN--\":107:126   */\n      swap1\n      pop\n        /* \"--CODEGEN--\":148:150   */\n      0x20\n        /* \"--CODEGEN--\":143:146   */\n      dup4\n        /* \"--CODEGEN--\":139:151   */\n      sub\n        /* \"--CODEGEN--\":132:151   */\n      swap3\n      pop\n        /* \"--CODEGEN--\":36:189   */\n      jump(tag_192)\n    tag_194:\n        /* \"--CODEGEN--\":274:275   */\n      0x01\n        /* \"--CODEGEN--\":267:270   */\n      dup4\n        /* \"--CODEGEN--\":263:265   */\n      0x20\n        /* \"--CODEGEN--\":259:271   */\n      sub\n        /* \"--CODEGEN--\":254:257   */\n      0x0100\n        /* \"--CODEGEN--\":250:272   */\n      exp\n        /* \"--CODEGEN--\":246:276   */\n      sub\n        /* \"--CODEGEN--\":315:319   */\n      dup1\n        /* \"--CODEGEN--\":311:320   */\n      not\n        /* \"--CODEGEN--\":305:308   */\n      dup3\n        /* \"--CODEGEN--\":299:309   */\n      mload\n        /* \"--CODEGEN--\":295:321   */\n      and\n        /* \"--CODEGEN--\":356:360   */\n      dup2\n        /* \"--CODEGEN--\":350:353   */\n      dup5\n        /* \"--CODEGEN--\":344:354   */\n      mload\n        /* \"--CODEGEN--\":340:361   */\n      and\n        /* \"--CODEGEN--\":389:396   */\n      dup1\n        /* \"--CODEGEN--\":380:387   */\n      dup3\n        /* \"--CODEGEN--\":377:397   */\n      or\n        /* \"--CODEGEN--\":372:375   */\n      dup6\n        /* \"--CODEGEN--\":365:398   */\n      mstore\n        /* \"--CODEGEN--\":3:402   */\n      pop\n      pop\n      pop\n        /* \"contracts/zombiefeeding.sol\":1286:1312  abi.encodePacked(_species) */\n      pop\n      pop\n      pop\n      swap1\n      pop\n      add\n      swap2\n      pop\n      pop\n      mload(0x40)\n        /* \"--CODEGEN--\":49:53   */\n      0x20\n        /* \"--CODEGEN--\":39:46   */\n      dup2\n        /* \"--CODEGEN--\":30:37   */\n      dup4\n        /* \"--CODEGEN--\":26:47   */\n      sub\n        /* \"--CODEGEN--\":22:54   */\n      sub\n        /* \"--CODEGEN--\":13:20   */\n      dup2\n        /* \"--CODEGEN--\":6:55   */\n      mstore\n        /* \"contracts/zombiefeeding.sol\":1286:1312  abi.encodePacked(_species) */\n      swap1\n      0x40\n      mstore\n        /* \"contracts/zombiefeeding.sol\":1276:1313  keccak256(abi.encodePacked(_species)) */\n      dup1\n      mload\n      swap1\n      0x20\n      add\n      keccak256\n        /* \"contracts/zombiefeeding.sol\":1276:1353  keccak256(abi.encodePacked(_species)) == keccak256(abi.encodePacked(\"kitty\")) */\n      eq\n        /* \"contracts/zombiefeeding.sol\":1272:1407  if (keccak256(abi.encodePacked(_species)) == keccak256(abi.encodePacked(\"kitty\"))) {\r... */\n      iszero\n      tag_195\n      jumpi\n        /* \"contracts/zombiefeeding.sol\":1397:1399  99 */\n      0x63\n        /* \"contracts/zombiefeeding.sol\":1391:1394  100 */\n      0x64\n        /* \"contracts/zombiefeeding.sol\":1382:1388  newDna */\n      dup3\n        /* \"contracts/zombiefeeding.sol\":1382:1394  newDna % 100 */\n      dup2\n      tag_196\n      jumpi\n      invalid\n    tag_196:\n      mod\n        /* \"contracts/zombiefeeding.sol\":1373:1379  newDna */\n      dup3\n        /* \"contracts/zombiefeeding.sol\":1373:1394  newDna - newDna % 100 */\n      sub\n        /* \"contracts/zombiefeeding.sol\":1373:1399  newDna - newDna % 100 + 99 */\n      add\n        /* \"contracts/zombiefeeding.sol\":1364:1399  newDna = newDna - newDna % 100 + 99 */\n      swap1\n      pop\n        /* \"contracts/zombiefeeding.sol\":1272:1407  if (keccak256(abi.encodePacked(_species)) == keccak256(abi.encodePacked(\"kitty\"))) {\r... */\n    tag_195:\n        /* \"contracts/zombiefeeding.sol\":1413:1444  _createZombie(\"NoName\", newDna) */\n      tag_197\n      mload(0x40)\n      dup1\n      0x40\n      add\n      0x40\n      mstore\n      dup1\n      0x06\n      dup2\n      mstore\n      0x20\n      add\n      0x4e6f4e616d650000000000000000000000000000000000000000000000000000\n      dup2\n      mstore\n      pop\n        /* \"contracts/zombiefeeding.sol\":1437:1443  newDna */\n      dup3\n        /* \"contracts/zombiefeeding.sol\":1413:1426  _createZombie */\n      tag_144\n        /* \"contracts/zombiefeeding.sol\":1413:1444  _createZombie(\"NoName\", newDna) */\n      jump\t// in\n    tag_197:\n        /* \"contracts/zombiefeeding.sol\":1451:1477  _triggerCooldown(myZombie) */\n      tag_198\n        /* \"contracts/zombiefeeding.sol\":1468:1476  myZombie */\n      dup3\n        /* \"contracts/zombiefeeding.sol\":1451:1467  _triggerCooldown */\n      tag_175\n        /* \"contracts/zombiefeeding.sol\":1451:1477  _triggerCooldown(myZombie) */\n      jump\t// in\n    tag_198:\n        /* \"contracts/zombiefeeding.sol\":580:581  _ */\n      pop\n      pop\n        /* \"contracts/zombiefeeding.sol\":971:1483  function feedAndMultiply(uint _zombieId, uint _targetDna, string memory _species) internal onlyOwnerOf(_zombieId) {\r... */\n      pop\n      pop\n      pop\n      pop\n      jump\t// out\n        /* \"contracts/zombiefactory.sol\":865:1046  function _generateRandomDna(string memory _str) private view returns (uint) {\r... */\n    tag_141:\n        /* \"contracts/zombiefactory.sol\":935:939  uint */\n      0x00\n        /* \"contracts/zombiefactory.sol\":952:961  uint rand */\n      dup1\n        /* \"contracts/zombiefactory.sol\":996:1000  _str */\n      dup3\n        /* \"contracts/zombiefactory.sol\":979:1001  abi.encodePacked(_str) */\n      add(0x20, mload(0x40))\n      dup1\n      dup3\n      dup1\n      mload\n      swap1\n      0x20\n      add\n      swap1\n      dup1\n      dup4\n      dup4\n        /* \"--CODEGEN--\":36:189   */\n    tag_200:\n        /* \"--CODEGEN--\":66:68   */\n      0x20\n        /* \"--CODEGEN--\":61:64   */\n      dup4\n        /* \"--CODEGEN--\":58:69   */\n      lt\n        /* \"--CODEGEN--\":36:189   */\n      tag_202\n      jumpi\n        /* \"--CODEGEN--\":182:185   */\n      dup1\n        /* \"--CODEGEN--\":176:186   */\n      mload\n        /* \"--CODEGEN--\":171:174   */\n      dup3\n        /* \"--CODEGEN--\":164:187   */\n      mstore\n        /* \"--CODEGEN--\":98:100   */\n      0x20\n        /* \"--CODEGEN--\":93:96   */\n      dup3\n        /* \"--CODEGEN--\":89:101   */\n      add\n        /* \"--CODEGEN--\":82:101   */\n      swap2\n      pop\n        /* \"--CODEGEN--\":123:125   */\n      0x20\n        /* \"--CODEGEN--\":118:121   */\n      dup2\n        /* \"--CODEGEN--\":114:126   */\n      add\n        /* \"--CODEGEN--\":107:126   */\n      swap1\n      pop\n        /* \"--CODEGEN--\":148:150   */\n      0x20\n        /* \"--CODEGEN--\":143:146   */\n      dup4\n        /* \"--CODEGEN--\":139:151   */\n      sub\n        /* \"--CODEGEN--\":132:151   */\n      swap3\n      pop\n        /* \"--CODEGEN--\":36:189   */\n      jump(tag_200)\n    tag_202:\n        /* \"--CODEGEN--\":274:275   */\n      0x01\n        /* \"--CODEGEN--\":267:270   */\n      dup4\n        /* \"--CODEGEN--\":263:265   */\n      0x20\n        /* \"--CODEGEN--\":259:271   */\n      sub\n        /* \"--CODEGEN--\":254:257   */\n      0x0100\n        /* \"--CODEGEN--\":250:272   */\n      exp\n        /* \"--CODEGEN--\":246:276   */\n      sub\n        /* \"--CODEGEN--\":315:319   */\n      dup1\n        /* \"--CODEGEN--\":311:320   */\n      not\n        /* \"--CODEGEN--\":305:308   */\n      dup3\n        /* \"--CODEGEN--\":299:309   */\n      mload\n        /* \"--CODEGEN--\":295:321   */\n      and\n        /* \"--CODEGEN--\":356:360   */\n      dup2\n        /* \"--CODEGEN--\":350:353   */\n      dup5\n        /* \"--CODEGEN--\":344:354   */\n      mload\n        /* \"--CODEGEN--\":340:361   */\n      and\n        /* \"--CODEGEN--\":389:396   */\n      dup1\n        /* \"--CODEGEN--\":380:387   */\n      dup3\n        /* \"--CODEGEN--\":377:397   */\n      or\n        /* \"--CODEGEN--\":372:375   */\n      dup6\n        /* \"--CODEGEN--\":365:398   */\n      mstore\n        /* \"--CODEGEN--\":3:402   */\n      pop\n      pop\n      pop\n        /* \"contracts/zombiefactory.sol\":979:1001  abi.encodePacked(_str) */\n      pop\n      pop\n      pop\n      swap1\n      pop\n      add\n      swap2\n      pop\n      pop\n      mload(0x40)\n        /* \"--CODEGEN--\":49:53   */\n      0x20\n        /* \"--CODEGEN--\":39:46   */\n      dup2\n        /* \"--CODEGEN--\":30:37   */\n      dup4\n        /* \"--CODEGEN--\":26:47   */\n      sub\n        /* \"--CODEGEN--\":22:54   */\n      sub\n        /* \"--CODEGEN--\":13:20   */\n      dup2\n        /* \"--CODEGEN--\":6:55   */\n      mstore\n        /* \"contracts/zombiefactory.sol\":979:1001  abi.encodePacked(_str) */\n      swap1\n      0x40\n      mstore\n        /* \"contracts/zombiefactory.sol\":969:1002  keccak256(abi.encodePacked(_str)) */\n      dup1\n      mload\n      swap1\n      0x20\n      add\n      keccak256\n        /* \"contracts/zombiefactory.sol\":964:1003  uint(keccak256(abi.encodePacked(_str))) */\n      0x00\n      shr\n        /* \"contracts/zombiefactory.sol\":952:1003  uint rand = uint(keccak256(abi.encodePacked(_str))) */\n      swap1\n      pop\n        /* \"contracts/zombiefactory.sol\":1028:1038  dnaModulus */\n      sload(0x02)\n        /* \"contracts/zombiefactory.sol\":1021:1025  rand */\n      dup2\n        /* \"contracts/zombiefactory.sol\":1021:1038  rand % dnaModulus */\n      dup2\n      tag_203\n      jumpi\n      invalid\n    tag_203:\n      mod\n        /* \"contracts/zombiefactory.sol\":1014:1038  return rand % dnaModulus */\n      swap2\n      pop\n      pop\n        /* \"contracts/zombiefactory.sol\":865:1046  function _generateRandomDna(string memory _str) private view returns (uint) {\r... */\n      swap2\n      swap1\n      pop\n      jump\t// out\n        /* \"contracts/zombiefactory.sol\":566:857  function _createZombie(string memory _name, uint _dna) internal {\r... */\n    tag_144:\n        /* \"contracts/zombiefactory.sol\":641:648  uint id */\n      0x00\n        /* \"contracts/zombiefactory.sol\":724:725  1 */\n      0x01\n        /* \"contracts/zombiefactory.sol\":651:658  zombies */\n      0x04\n        /* \"contracts/zombiefactory.sol\":664:720  Zombie(_name, _dna, 1, uint32(now + cooldownTime), 0, 0) */\n      mload(0x40)\n      dup1\n      0xc0\n      add\n      0x40\n      mstore\n      dup1\n        /* \"contracts/zombiefactory.sol\":671:676  _name */\n      dup7\n        /* \"contracts/zombiefactory.sol\":664:720  Zombie(_name, _dna, 1, uint32(now + cooldownTime), 0, 0) */\n      dup2\n      mstore\n      0x20\n      add\n        /* \"contracts/zombiefactory.sol\":678:682  _dna */\n      dup6\n        /* \"contracts/zombiefactory.sol\":664:720  Zombie(_name, _dna, 1, uint32(now + cooldownTime), 0, 0) */\n      dup2\n      mstore\n      0x20\n      add\n        /* \"contracts/zombiefactory.sol\":684:685  1 */\n      0x01\n        /* \"contracts/zombiefactory.sol\":664:720  Zombie(_name, _dna, 1, uint32(now + cooldownTime), 0, 0) */\n      0xffffffff\n      and\n      dup2\n      mstore\n      0x20\n      add\n        /* \"contracts/zombiefactory.sol\":700:712  cooldownTime */\n      sload(0x03)\n        /* \"contracts/zombiefactory.sol\":694:697  now */\n      timestamp\n        /* \"contracts/zombiefactory.sol\":694:712  now + cooldownTime */\n      add\n        /* \"contracts/zombiefactory.sol\":664:720  Zombie(_name, _dna, 1, uint32(now + cooldownTime), 0, 0) */\n      0xffffffff\n      and\n      dup2\n      mstore\n      0x20\n      add\n        /* \"contracts/zombiefactory.sol\":715:716  0 */\n      0x00\n        /* \"contracts/zombiefactory.sol\":664:720  Zombie(_name, _dna, 1, uint32(now + cooldownTime), 0, 0) */\n      0xffff\n      and\n      dup2\n      mstore\n      0x20\n      add\n        /* \"contracts/zombiefactory.sol\":718:719  0 */\n      0x00\n        /* \"contracts/zombiefactory.sol\":664:720  Zombie(_name, _dna, 1, uint32(now + cooldownTime), 0, 0) */\n      0xffff\n      and\n      dup2\n      mstore\n      pop\n        /* \"contracts/zombiefactory.sol\":651:721  zombies.push(Zombie(_name, _dna, 1, uint32(now + cooldownTime), 0, 0)) */\n      swap1\n      dup1\n        /* \"--CODEGEN--\":39:40   */\n      0x01\n        /* \"--CODEGEN--\":33:36   */\n      dup2\n        /* \"--CODEGEN--\":27:37   */\n      sload\n        /* \"--CODEGEN--\":23:41   */\n      add\n        /* \"--CODEGEN--\":57:67   */\n      dup1\n        /* \"--CODEGEN--\":52:55   */\n      dup3\n        /* \"--CODEGEN--\":45:68   */\n      sstore\n        /* \"--CODEGEN--\":79:89   */\n      dup1\n        /* \"--CODEGEN--\":72:89   */\n      swap2\n      pop\n        /* \"--CODEGEN--\":0:93   */\n      pop\n        /* \"contracts/zombiefactory.sol\":651:721  zombies.push(Zombie(_name, _dna, 1, uint32(now + cooldownTime), 0, 0)) */\n      swap1\n      0x01\n      dup3\n      sub\n      swap1\n      0x00\n      mstore\n      keccak256(0x00, 0x20)\n      swap1\n      0x03\n      mul\n      add\n      0x00\n      swap1\n      swap2\n      swap3\n      swap1\n      swap2\n      swap1\n      swap2\n      pop\n      0x00\n      dup3\n      add\n      mload\n      dup2\n      0x00\n      add\n      swap1\n      dup1\n      mload\n      swap1\n      0x20\n      add\n      swap1\n      tag_206\n      swap3\n      swap2\n      swap1\n      tag_207\n      jump\t// in\n    tag_206:\n      pop\n      0x20\n      dup3\n      add\n      mload\n      dup2\n      0x01\n      add\n      sstore\n      0x40\n      dup3\n      add\n      mload\n      dup2\n      0x02\n      add\n      exp(0x0100, 0x00)\n      dup2\n      sload\n      dup2\n      0xffffffff\n      mul\n      not\n      and\n      swap1\n      dup4\n      0xffffffff\n      and\n      mul\n      or\n      swap1\n      sstore\n      pop\n      0x60\n      dup3\n      add\n      mload\n      dup2\n      0x02\n      add\n      exp(0x0100, 0x04)\n      dup2\n      sload\n      dup2\n      0xffffffff\n      mul\n      not\n      and\n      swap1\n      dup4\n      0xffffffff\n      and\n      mul\n      or\n      swap1\n      sstore\n      pop\n      0x80\n      dup3\n      add\n      mload\n      dup2\n      0x02\n      add\n      exp(0x0100, 0x08)\n      dup2\n      sload\n      dup2\n      0xffff\n      mul\n      not\n      and\n      swap1\n      dup4\n      0xffff\n      and\n      mul\n      or\n      swap1\n      sstore\n      pop\n      0xa0\n      dup3\n      add\n      mload\n      dup2\n      0x02\n      add\n      exp(0x0100, 0x0a)\n      dup2\n      sload\n      dup2\n      0xffff\n      mul\n      not\n      and\n      swap1\n      dup4\n      0xffff\n      and\n      mul\n      or\n      swap1\n      sstore\n      pop\n      pop\n      pop\n        /* \"contracts/zombiefactory.sol\":651:725  zombies.push(Zombie(_name, _dna, 1, uint32(now + cooldownTime), 0, 0)) - 1 */\n      sub\n        /* \"contracts/zombiefactory.sol\":641:725  uint id = zombies.push(Zombie(_name, _dna, 1, uint32(now + cooldownTime), 0, 0)) - 1 */\n      swap1\n      pop\n        /* \"contracts/zombiefactory.sol\":756:766  msg.sender */\n      caller\n        /* \"contracts/zombiefactory.sol\":736:749  zombieToOwner */\n      0x05\n        /* \"contracts/zombiefactory.sol\":736:753  zombieToOwner[id] */\n      0x00\n        /* \"contracts/zombiefactory.sol\":750:752  id */\n      dup4\n        /* \"contracts/zombiefactory.sol\":736:753  zombieToOwner[id] */\n      dup2\n      mstore\n      0x20\n      add\n      swap1\n      dup2\n      mstore\n      0x20\n      add\n      0x00\n      keccak256\n      0x00\n        /* \"contracts/zombiefactory.sol\":736:766  zombieToOwner[id] = msg.sender */\n      0x0100\n      exp\n      dup2\n      sload\n      dup2\n      0xffffffffffffffffffffffffffffffffffffffff\n      mul\n      not\n      and\n      swap1\n      dup4\n      0xffffffffffffffffffffffffffffffffffffffff\n      and\n      mul\n      or\n      swap1\n      sstore\n      pop\n        /* \"contracts/zombiefactory.sol\":777:793  ownerZombieCount */\n      0x06\n        /* \"contracts/zombiefactory.sol\":777:805  ownerZombieCount[msg.sender] */\n      0x00\n        /* \"contracts/zombiefactory.sol\":794:804  msg.sender */\n      caller\n        /* \"contracts/zombiefactory.sol\":777:805  ownerZombieCount[msg.sender] */\n      0xffffffffffffffffffffffffffffffffffffffff\n      and\n      0xffffffffffffffffffffffffffffffffffffffff\n      and\n      dup2\n      mstore\n      0x20\n      add\n      swap1\n      dup2\n      mstore\n      0x20\n      add\n      0x00\n      keccak256\n      0x00\n        /* \"contracts/zombiefactory.sol\":777:807  ownerZombieCount[msg.sender]++ */\n      dup2\n      sload\n      dup1\n      swap3\n      swap2\n      swap1\n      0x01\n      add\n      swap2\n      swap1\n      pop\n      sstore\n      pop\n        /* \"contracts/zombiefactory.sol\":823:849  NewZombie(id, _name, _dna) */\n      0x88f026aacbbecc90c18411df4b1185fd8d9be2470f1962f192bf84a27d0704b7\n        /* \"contracts/zombiefactory.sol\":833:835  id */\n      dup2\n        /* \"contracts/zombiefactory.sol\":837:842  _name */\n      dup5\n        /* \"contracts/zombiefactory.sol\":844:848  _dna */\n      dup5\n        /* \"contracts/zombiefactory.sol\":823:849  NewZombie(id, _name, _dna) */\n      mload(0x40)\n      dup1\n      dup5\n      dup2\n      mstore\n      0x20\n      add\n      dup1\n      0x20\n      add\n      dup4\n      dup2\n      mstore\n      0x20\n      add\n      dup3\n      dup2\n      sub\n      dup3\n      mstore\n      dup5\n      dup2\n      dup2\n      mload\n      dup2\n      mstore\n      0x20\n      add\n      swap2\n      pop\n      dup1\n      mload\n      swap1\n      0x20\n      add\n      swap1\n      dup1\n      dup4\n      dup4\n        /* \"--CODEGEN--\":23:24   */\n      0x00\n        /* \"--CODEGEN--\":8:108   */\n    tag_208:\n        /* \"--CODEGEN--\":33:36   */\n      dup4\n        /* \"--CODEGEN--\":30:31   */\n      dup2\n        /* \"--CODEGEN--\":27:37   */\n      lt\n        /* \"--CODEGEN--\":8:108   */\n      iszero\n      tag_210\n      jumpi\n        /* \"--CODEGEN--\":99:100   */\n      dup1\n        /* \"--CODEGEN--\":94:97   */\n      dup3\n        /* \"--CODEGEN--\":90:101   */\n      add\n        /* \"--CODEGEN--\":84:102   */\n      mload\n        /* \"--CODEGEN--\":80:81   */\n      dup2\n        /* \"--CODEGEN--\":75:78   */\n      dup5\n        /* \"--CODEGEN--\":71:82   */\n      add\n        /* \"--CODEGEN--\":64:103   */\n      mstore\n        /* \"--CODEGEN--\":52:54   */\n      0x20\n        /* \"--CODEGEN--\":49:50   */\n      dup2\n        /* \"--CODEGEN--\":45:55   */\n      add\n        /* \"--CODEGEN--\":40:55   */\n      swap1\n      pop\n        /* \"--CODEGEN--\":8:108   */\n      jump(tag_208)\n    tag_210:\n        /* \"--CODEGEN--\":12:26   */\n      pop\n        /* \"contracts/zombiefactory.sol\":823:849  NewZombie(id, _name, _dna) */\n      pop\n      pop\n      pop\n      swap1\n      pop\n      swap1\n      dup2\n      add\n      swap1\n      0x1f\n      and\n      dup1\n      iszero\n      tag_211\n      jumpi\n      dup1\n      dup3\n      sub\n      dup1\n      mload\n      0x01\n      dup4\n      0x20\n      sub\n      0x0100\n      exp\n      sub\n      not\n      and\n      dup2\n      mstore\n      0x20\n      add\n      swap2\n      pop\n    tag_211:\n      pop\n      swap5\n      pop\n      pop\n      pop\n      pop\n      pop\n      mload(0x40)\n      dup1\n      swap2\n      sub\n      swap1\n      log1\n        /* \"contracts/zombiefactory.sol\":566:857  function _createZombie(string memory _name, uint _dna) internal {\r... */\n      pop\n      pop\n      pop\n      jump\t// out\n        /* \"contracts/zombieattack.sol\":174:339  function randMod(uint _modulus) internal returns(uint) {\r... */\n    tag_170:\n        /* \"contracts/zombieattack.sol\":223:227  uint */\n      0x00\n        /* \"contracts/zombieattack.sol\":236:245  randNonce */\n      0x09\n      0x00\n        /* \"contracts/zombieattack.sol\":236:247  randNonce++ */\n      dup2\n      sload\n      dup1\n      swap3\n      swap2\n      swap1\n      0x01\n      add\n      swap2\n      swap1\n      pop\n      sstore\n      pop\n        /* \"contracts/zombieattack.sol\":325:333  _modulus */\n      dup2\n        /* \"contracts/zombieattack.sol\":293:296  now */\n      timestamp\n        /* \"contracts/zombieattack.sol\":298:308  msg.sender */\n      caller\n        /* \"contracts/zombieattack.sol\":310:319  randNonce */\n      sload(0x09)\n        /* \"contracts/zombieattack.sol\":276:320  abi.encodePacked(now, msg.sender, randNonce) */\n      add(0x20, mload(0x40))\n      dup1\n      dup5\n      dup2\n      mstore\n      0x20\n      add\n      dup4\n      0xffffffffffffffffffffffffffffffffffffffff\n      and\n      0xffffffffffffffffffffffffffffffffffffffff\n      and\n      0x60\n      shl\n      dup2\n      mstore\n      0x14\n      add\n      dup3\n      dup2\n      mstore\n      0x20\n      add\n      swap4\n      pop\n      pop\n      pop\n      pop\n      mload(0x40)\n        /* \"--CODEGEN--\":49:53   */\n      0x20\n        /* \"--CODEGEN--\":39:46   */\n      dup2\n        /* \"--CODEGEN--\":30:37   */\n      dup4\n        /* \"--CODEGEN--\":26:47   */\n      sub\n        /* \"--CODEGEN--\":22:54   */\n      sub\n        /* \"--CODEGEN--\":13:20   */\n      dup2\n        /* \"--CODEGEN--\":6:55   */\n      mstore\n        /* \"contracts/zombieattack.sol\":276:320  abi.encodePacked(now, msg.sender, randNonce) */\n      swap1\n      0x40\n      mstore\n        /* \"contracts/zombieattack.sol\":266:321  keccak256(abi.encodePacked(now, msg.sender, randNonce)) */\n      dup1\n      mload\n      swap1\n      0x20\n      add\n      keccak256\n        /* \"contracts/zombieattack.sol\":261:322  uint(keccak256(abi.encodePacked(now, msg.sender, randNonce))) */\n      0x00\n      shr\n        /* \"contracts/zombieattack.sol\":261:333  uint(keccak256(abi.encodePacked(now, msg.sender, randNonce))) % _modulus */\n      dup2\n      tag_213\n      jumpi\n      invalid\n    tag_213:\n      mod\n        /* \"contracts/zombieattack.sol\":254:333  return uint(keccak256(abi.encodePacked(now, msg.sender, randNonce))) % _modulus */\n      swap1\n      pop\n        /* \"contracts/zombieattack.sol\":174:339  function randMod(uint _modulus) internal returns(uint) {\r... */\n      swap2\n      swap1\n      pop\n      jump\t// out\n        /* \"contracts/zombiefeeding.sol\":722:840  function _triggerCooldown(Zombie storage _zombie) internal {\r... */\n    tag_175:\n        /* \"contracts/zombiefeeding.sol\":821:833  cooldownTime */\n      sload(0x03)\n        /* \"contracts/zombiefeeding.sol\":815:818  now */\n      timestamp\n        /* \"contracts/zombiefeeding.sol\":815:833  now + cooldownTime */\n      add\n        /* \"contracts/zombiefeeding.sol\":788:795  _zombie */\n      dup2\n        /* \"contracts/zombiefeeding.sol\":788:805  _zombie.readyTime */\n      0x02\n      add\n      0x04\n        /* \"contracts/zombiefeeding.sol\":788:834  _zombie.readyTime = uint32(now + cooldownTime) */\n      0x0100\n      exp\n      dup2\n      sload\n      dup2\n      0xffffffff\n      mul\n      not\n      and\n      swap1\n      dup4\n      0xffffffff\n      and\n      mul\n      or\n      swap1\n      sstore\n      pop\n        /* \"contracts/zombiefeeding.sol\":722:840  function _triggerCooldown(Zombie storage _zombie) internal {\r... */\n      pop\n      jump\t// out\n        /* \"contracts/ownable.sol\":1968:2149  function _transferOwnership(address newOwner) internal {\r... */\n    tag_181:\n        /* \"contracts/ownable.sol\":2060:2061  0 */\n      0x00\n        /* \"contracts/ownable.sol\":2040:2062  newOwner != address(0) */\n      0xffffffffffffffffffffffffffffffffffffffff\n      and\n        /* \"contracts/ownable.sol\":2040:2048  newOwner */\n      dup2\n        /* \"contracts/ownable.sol\":2040:2062  newOwner != address(0) */\n      0xffffffffffffffffffffffffffffffffffffffff\n      and\n      eq\n      iszero\n        /* \"contracts/ownable.sol\":2032:2063  require(newOwner != address(0)) */\n      tag_216\n      jumpi\n      0x00\n      dup1\n      revert\n    tag_216:\n        /* \"contracts/ownable.sol\":2106:2114  newOwner */\n      dup1\n        /* \"contracts/ownable.sol\":2077:2115  OwnershipTransferred(_owner, newOwner) */\n      0xffffffffffffffffffffffffffffffffffffffff\n      and\n        /* \"contracts/ownable.sol\":2098:2104  _owner */\n      0x00\n      dup1\n      swap1\n      sload\n      swap1\n      0x0100\n      exp\n      swap1\n      div\n      0xffffffffffffffffffffffffffffffffffffffff\n      and\n        /* \"contracts/ownable.sol\":2077:2115  OwnershipTransferred(_owner, newOwner) */\n      0xffffffffffffffffffffffffffffffffffffffff\n      and\n      0x8be0079c531659141344cd1fd0a4f28419497f9722a3daafe3b4186f6b6457e0\n      mload(0x40)\n      mload(0x40)\n      dup1\n      swap2\n      sub\n      swap1\n      log3\n        /* \"contracts/ownable.sol\":2133:2141  newOwner */\n      dup1\n        /* \"contracts/ownable.sol\":2124:2130  _owner */\n      0x00\n      dup1\n        /* \"contracts/ownable.sol\":2124:2141  _owner = newOwner */\n      0x0100\n      exp\n      dup2\n      sload\n      dup2\n      0xffffffffffffffffffffffffffffffffffffffff\n      mul\n      not\n      and\n      swap1\n      dup4\n      0xffffffffffffffffffffffffffffffffffffffff\n      and\n      mul\n      or\n      swap1\n      sstore\n      pop\n        /* \"contracts/ownable.sol\":1968:2149  function _transferOwnership(address newOwner) internal {\r... */\n      pop\n      jump\t// out\n        /* \"contracts/zombiefeeding.sol\":846:965  function _isReady(Zombie storage _zombie) internal view returns (bool) {\r... */\n    tag_188:\n        /* \"contracts/zombiefeeding.sol\":911:915  bool */\n      0x00\n        /* \"contracts/zombiefeeding.sol\":955:958  now */\n      timestamp\n        /* \"contracts/zombiefeeding.sol\":934:941  _zombie */\n      dup3\n        /* \"contracts/zombiefeeding.sol\":934:951  _zombie.readyTime */\n      0x02\n      add\n      0x04\n      swap1\n      sload\n      swap1\n      0x0100\n      exp\n      swap1\n      div\n      0xffffffff\n      and\n        /* \"contracts/zombiefeeding.sol\":934:958  _zombie.readyTime <= now */\n      0xffffffff\n      and\n      gt\n      iszero\n        /* \"contracts/zombiefeeding.sol\":926:959  return (_zombie.readyTime <= now) */\n      swap1\n      pop\n        /* \"contracts/zombiefeeding.sol\":846:965  function _isReady(Zombie storage _zombie) internal view returns (bool) {\r... */\n      swap2\n      swap1\n      pop\n      jump\t// out\n        /* \"contracts/zombieattack.sol\":67:897  contract ZombieAttack is ZombieHelper {\r... */\n    tag_157:\n      dup3\n      dup1\n      sload\n      0x01\n      dup2\n      0x01\n      and\n      iszero\n      0x0100\n      mul\n      sub\n      and\n      0x02\n      swap1\n      div\n      swap1\n      0x00\n      mstore\n      keccak256(0x00, 0x20)\n      swap1\n      0x1f\n      add\n      0x20\n      swap1\n      div\n      dup2\n      add\n      swap3\n      dup3\n      0x1f\n      lt\n      tag_219\n      jumpi\n      dup1\n      calldataload\n      not(0xff)\n      and\n      dup4\n      dup1\n      add\n      or\n      dup6\n      sstore\n      jump(tag_218)\n    tag_219:\n      dup3\n      dup1\n      add\n      0x01\n      add\n      dup6\n      sstore\n      dup3\n      iszero\n      tag_218\n      jumpi\n      swap2\n      dup3\n      add\n    tag_220:\n      dup3\n      dup2\n      gt\n      iszero\n      tag_221\n      jumpi\n      dup3\n      calldataload\n      dup3\n      sstore\n      swap2\n      0x20\n      add\n      swap2\n      swap1\n      0x01\n      add\n      swap1\n      jump(tag_220)\n    tag_221:\n    tag_218:\n      pop\n      swap1\n      pop\n      tag_222\n      swap2\n      swap1\n      tag_223\n      jump\t// in\n    tag_222:\n      pop\n      swap1\n      jump\t// out\n    tag_207:\n      dup3\n      dup1\n      sload\n      0x01\n      dup2\n      0x01\n      and\n      iszero\n      0x0100\n      mul\n      sub\n      and\n      0x02\n      swap1\n      div\n      swap1\n      0x00\n      mstore\n      keccak256(0x00, 0x20)\n      swap1\n      0x1f\n      add\n      0x20\n      swap1\n      div\n      dup2\n      add\n      swap3\n      dup3\n      0x1f\n      lt\n      tag_225\n      jumpi\n      dup1\n      mload\n      not(0xff)\n      and\n      dup4\n      dup1\n      add\n      or\n      dup6\n      sstore\n      jump(tag_224)\n    tag_225:\n      dup3\n      dup1\n      add\n      0x01\n      add\n      dup6\n      sstore\n      dup3\n      iszero\n      tag_224\n      jumpi\n      swap2\n      dup3\n      add\n    tag_226:\n      dup3\n      dup2\n      gt\n      iszero\n      tag_227\n      jumpi\n      dup3\n      mload\n      dup3\n      sstore\n      swap2\n      0x20\n      add\n      swap2\n      swap1\n      0x01\n      add\n      swap1\n      jump(tag_226)\n    tag_227:\n    tag_224:\n      pop\n      swap1\n      pop\n      tag_228\n      swap2\n      swap1\n      tag_223\n      jump\t// in\n    tag_228:\n      pop\n      swap1\n      jump\t// out\n    tag_223:\n      tag_229\n      swap2\n      swap1\n    tag_230:\n      dup1\n      dup3\n      gt\n      iszero\n      tag_231\n      jumpi\n      0x00\n      dup2\n      0x00\n      swap1\n      sstore\n      pop\n      0x01\n      add\n      jump(tag_230)\n    tag_231:\n      pop\n      swap1\n      jump\n    tag_229:\n      swap1\n      jump\t// out\n\n    auxdata: 0xa265627a7a72315820619bf83cf771d00ee8c361e40485551909f07c37218db8f9ee98a085bde46a7e64736f6c63430005110032\n}\n",
				"bytecode": {
					"linkReferences": {},
					"object": "60806040526010600155600154600a0a6002556201518060035566038d7ea4c6800060085560006009556046600a55336000806101000a81548173ffffffffffffffffffffffffffffffffffffffff021916908373ffffffffffffffffffffffffffffffffffffffff1602179055506000809054906101000a900473ffffffffffffffffffffffffffffffffffffffff1673ffffffffffffffffffffffffffffffffffffffff16600073ffffffffffffffffffffffffffffffffffffffff167f8be0079c531659141344cd1fd0a4f28419497f9722a3daafe3b4186f6b6457e060405160405180910390a3611a4a806100f96000396000f3fe6080604052600436106100f35760003560e01c8063715018a61161008a578063c39cbef111610059578063c39cbef11461059d578063ccf670f81461062d578063e1fa763814610668578063f2fde38b146106ad576100f3565b8063715018a6146104385780637bff0a011461044f5780638da5cb5b146105175780638f32d59b1461056e576100f3565b80634412e104116100c65780634412e10414610281578063528b7b8f146103275780635f4623f1146103a25780635faf2880146103f3576100f3565b80630ce90ec2146100f857806317a7f4cc146101265780632052465e1461016b5780633ccfd60b1461026a575b600080fd5b6101246004803603602081101561010e57600080fd5b81019080803590602001909291905050506106fe565b005b34801561013257600080fd5b506101696004803603604081101561014957600080fd5b810190808035906020019092919080359060200190929190505050610766565b005b34801561017757600080fd5b506101a46004803603602081101561018e57600080fd5b81019080803590602001909291905050506108f1565b60405180806020018781526020018663ffffffff1663ffffffff1681526020018563ffffffff1663ffffffff1681526020018461ffff1661ffff1681526020018361ffff1661ffff168152602001828103825288818151815260200191508051906020019080838360005b8381101561022a57808201518184015260208101905061020f565b50505050905090810190601f1680156102575780820380516001836020036101000a031916815260200191505b5097505050505050505060405180910390f35b34801561027657600080fd5b5061027f610a0e565b005b34801561028d57600080fd5b506102d0600480360360208110156102a457600080fd5b81019080803573ffffffffffffffffffffffffffffffffffffffff169060200190929190505050610a75565b6040518080602001828103825283818151815260200191508051906020019060200280838360005b838110156103135780820151818401526020810190506102f8565b505050509050019250505060405180910390f35b34801561033357600080fd5b506103606004803603602081101561034a57600080fd5b8101908080359060200190929190505050610ba2565b604051808273ffffffffffffffffffffffffffffffffffffffff1673ffffffffffffffffffffffffffffffffffffffff16815260200191505060405180910390f35b3480156103ae57600080fd5b506103f1600480360360208110156103c557600080fd5b81019080803573ffffffffffffffffffffffffffffffffffffffff169060200190929190505050610bd5565b005b3480156103ff57600080fd5b506104366004803603604081101561041657600080fd5b810190808035906020019092919080359060200190929190505050610c2a565b005b34801561044457600080fd5b5061044d610d04565b005b34801561045b57600080fd5b506105156004803603602081101561047257600080fd5b810190808035906020019064010000000081111561048f57600080fd5b8201836020820111156104a157600080fd5b803590602001918460018302840111640100000000831117156104c357600080fd5b91908080601f016020809104026020016040519081016040528093929190818152602001838380828437600081840152601f19601f820116905080830192505050505050509192919290505050610dd4565b005b34801561052357600080fd5b5061052c610e4a565b604051808273ffffffffffffffffffffffffffffffffffffffff1673ffffffffffffffffffffffffffffffffffffffff16815260200191505060405180910390f35b34801561057a57600080fd5b50610583610e73565b604051808215151515815260200191505060405180910390f35b3480156105a957600080fd5b5061062b600480360360408110156105c057600080fd5b8101908080359060200190929190803590602001906401000000008111156105e757600080fd5b8201836020820111156105f957600080fd5b8035906020019184600183028401116401000000008311171561061b57600080fd5b9091929391929390505050610eca565b005b34801561063957600080fd5b506106666004803603602081101561065057600080fd5b8101908080359060200190929190505050610fb0565b005b34801561067457600080fd5b506106ab6004803603604081101561068b57600080fd5b810190808035906020019092919080359060200190929190505050610fcb565b005b3480156106b957600080fd5b506106fc600480360360208110156106d057600080fd5b81019080803573ffffffffffffffffffffffffffffffffffffffff169060200190929190505050611200565b005b600854341461070c57600080fd5b6004818154811061071957fe5b9060005260206000209060030201600201600081819054906101000a900463ffffffff168092919060010191906101000a81548163ffffffff021916908363ffffffff1602179055505050565b6000600760009054906101000a900473ffffffffffffffffffffffffffffffffffffffff1673ffffffffffffffffffffffffffffffffffffffff1663e98b7f4d836040518263ffffffff1660e01b8152600401808281526020019150506101406040518083038186803b1580156107dc57600080fd5b505afa1580156107f0573d6000803e3d6000fd5b505050506040513d61014081101561080757600080fd5b8101908080519060200190929190805190602001909291908051906020019092919080519060200190929190805190602001909291908051906020019092919080519060200190929190805190602001909291908051906020019092919080519060200190929190505050909192939495969798509091929394959697509091929394959650909192939495509091929394509091929350909192509091509050809150506108ec83826040518060400160405280600581526020017f6b6974747900000000000000000000000000000000000000000000000000000081525061121d565b505050565b600481815481106108fe57fe5b9060005260206000209060030201600091509050806000018054600181600116156101000203166002900480601f0160208091040260200160405190810160405280929190818152602001828054600181600116156101000203166002900480156109aa5780601f1061097f576101008083540402835291602001916109aa565b820191906000526020600020905b81548152906001019060200180831161098d57829003601f168201915b5050505050908060010154908060020160009054906101000a900463ffffffff16908060020160049054906101000a900463ffffffff16908060020160089054906101000a900461ffff169080600201600a9054906101000a900461ffff16905086565b610a16610e73565b610a1f57600080fd5b6000610a29610e4a565b90508073ffffffffffffffffffffffffffffffffffffffff166108fc479081150290604051600060405180830381858888f19350505050158015610a71573d6000803e3d6000fd5b5050565b606080600660008473ffffffffffffffffffffffffffffffffffffffff1673ffffffffffffffffffffffffffffffffffffffff16815260200190815260200160002054604051908082528060200260200182016040528015610ae65781602001602082028038833980820191505090505b509050600080905060008090505b600480549050811015610b97578473ffffffffffffffffffffffffffffffffffffffff166005600083815260200190815260200160002060009054906101000a900473ffffffffffffffffffffffffffffffffffffffff1673ffffffffffffffffffffffffffffffffffffffff161415610b8a5780838381518110610b7557fe5b60200260200101818152505081806001019250505b8080600101915050610af4565b508192505050919050565b60056020528060005260406000206000915054906101000a900473ffffffffffffffffffffffffffffffffffffffff1681565b610bdd610e73565b610be657600080fd5b80600760006101000a81548173ffffffffffffffffffffffffffffffffffffffff021916908373ffffffffffffffffffffffffffffffffffffffff16021790555050565b6014828160048281548110610c3b57fe5b906000526020600020906003020160020160009054906101000a900463ffffffff1663ffffffff161015610c6e57600080fd5b836005600082815260200190815260200160002060009054906101000a900473ffffffffffffffffffffffffffffffffffffffff1673ffffffffffffffffffffffffffffffffffffffff163373ffffffffffffffffffffffffffffffffffffffff1614610cda57600080fd5b8360048681548110610ce857fe5b9060005260206000209060030201600101819055505050505050565b610d0c610e73565b610d1557600080fd5b600073ffffffffffffffffffffffffffffffffffffffff166000809054906101000a900473ffffffffffffffffffffffffffffffffffffffff1673ffffffffffffffffffffffffffffffffffffffff167f8be0079c531659141344cd1fd0a4f28419497f9722a3daafe3b4186f6b6457e060405160405180910390a360008060006101000a81548173ffffffffffffffffffffffffffffffffffffffff021916908373ffffffffffffffffffffffffffffffffffffffff160217905550565b6000600660003373ffffffffffffffffffffffffffffffffffffffff1673ffffffffffffffffffffffffffffffffffffffff1681526020019081526020016000205414610e2057600080fd5b6000610e2b826113ff565b905060648181610e3757fe5b0681039050610e46828261148d565b5050565b60008060009054906101000a900473ffffffffffffffffffffffffffffffffffffffff16905090565b60008060009054906101000a900473ffffffffffffffffffffffffffffffffffffffff1673ffffffffffffffffffffffffffffffffffffffff163373ffffffffffffffffffffffffffffffffffffffff1614905090565b6002838160048281548110610edb57fe5b906000526020600020906003020160020160009054906101000a900463ffffffff1663ffffffff161015610f0e57600080fd5b846005600082815260200190815260200160002060009054906101000a900473ffffffffffffffffffffffffffffffffffffffff1673ffffffffffffffffffffffffffffffffffffffff163373ffffffffffffffffffffffffffffffffffffffff1614610f7a57600080fd5b848460048881548110610f8957fe5b90600052602060002090600302016000019190610fa79291906118f0565b50505050505050565b610fb8610e73565b610fc157600080fd5b8060088190555050565b816005600082815260200190815260200160002060009054906101000a900473ffffffffffffffffffffffffffffffffffffffff1673ffffffffffffffffffffffffffffffffffffffff163373ffffffffffffffffffffffffffffffffffffffff161461103757600080fd5b60006004848154811061104657fe5b9060005260206000209060030201905060006004848154811061106557fe5b9060005260206000209060030201905060006110816064611718565b9050600a5481116111805782600201600881819054906101000a900461ffff168092919060010191906101000a81548161ffff021916908361ffff1602179055505082600201600081819054906101000a900463ffffffff168092919060010191906101000a81548163ffffffff021916908363ffffffff1602179055505081600201600a81819054906101000a900461ffff168092919060010191906101000a81548161ffff021916908361ffff1602179055505061117b8683600101546040518060400160405280600681526020017f7a6f6d626965000000000000000000000000000000000000000000000000000081525061121d565b6111f8565b82600201600a81819054906101000a900461ffff168092919060010191906101000a81548161ffff021916908361ffff1602179055505081600201600881819054906101000a900461ffff168092919060010191906101000a81548161ffff021916908361ffff160217905550506111f7836117a7565b5b505050505050565b611208610e73565b61121157600080fd5b61121a816117d1565b50565b826005600082815260200190815260200160002060009054906101000a900473ffffffffffffffffffffffffffffffffffffffff1673ffffffffffffffffffffffffffffffffffffffff163373ffffffffffffffffffffffffffffffffffffffff161461128957600080fd5b60006004858154811061129857fe5b906000526020600020906003020190506112b1816118c9565b6112ba57600080fd5b60025484816112c557fe5b0693506000600285836001015401816112da57fe5b04905060405160200180807f6b69747479000000000000000000000000000000000000000000000000000000815250600501905060405160208183030381529060405280519060200120846040516020018082805190602001908083835b6020831061135b5780518252602082019150602081019050602083039250611338565b6001836020036101000a0380198251168184511680821785525050505050509050019150506040516020818303038152906040528051906020012014156113af576063606482816113a857fe5b0682030190505b6113ee6040518060400160405280600681526020017f4e6f4e616d6500000000000000000000000000000000000000000000000000008152508261148d565b6113f7826117a7565b505050505050565b600080826040516020018082805190602001908083835b602083106114395780518252602082019150602081019050602083039250611416565b6001836020036101000a0380198251168184511680821785525050505050509050019150506040516020818303038152906040528051906020012060001c9050600254818161148457fe5b06915050919050565b6000600160046040518060c00160405280868152602001858152602001600163ffffffff168152602001600354420163ffffffff168152602001600061ffff168152602001600061ffff16815250908060018154018082558091505090600182039060005260206000209060030201600090919290919091506000820151816000019080519060200190611522929190611970565b506020820151816001015560408201518160020160006101000a81548163ffffffff021916908363ffffffff16021790555060608201518160020160046101000a81548163ffffffff021916908363ffffffff16021790555060808201518160020160086101000a81548161ffff021916908361ffff16021790555060a082015181600201600a6101000a81548161ffff021916908361ffff1602179055505050039050336005600083815260200190815260200160002060006101000a81548173ffffffffffffffffffffffffffffffffffffffff021916908373ffffffffffffffffffffffffffffffffffffffff160217905550600660003373ffffffffffffffffffffffffffffffffffffffff1673ffffffffffffffffffffffffffffffffffffffff168152602001908152602001600020600081548092919060010191905055507f88f026aacbbecc90c18411df4b1185fd8d9be2470f1962f192bf84a27d0704b78184846040518084815260200180602001838152602001828103825284818151815260200191508051906020019080838360005b838110156116d75780820151818401526020810190506116bc565b50505050905090810190601f1680156117045780820380516001836020036101000a031916815260200191505b5094505050505060405180910390a1505050565b6000600960008154809291906001019190505550814233600954604051602001808481526020018373ffffffffffffffffffffffffffffffffffffffff1673ffffffffffffffffffffffffffffffffffffffff1660601b815260140182815260200193505050506040516020818303038152906040528051906020012060001c8161179f57fe5b069050919050565b60035442018160020160046101000a81548163ffffffff021916908363ffffffff16021790555050565b600073ffffffffffffffffffffffffffffffffffffffff168173ffffffffffffffffffffffffffffffffffffffff16141561180b57600080fd5b8073ffffffffffffffffffffffffffffffffffffffff166000809054906101000a900473ffffffffffffffffffffffffffffffffffffffff1673ffffffffffffffffffffffffffffffffffffffff167f8be0079c531659141344cd1fd0a4f28419497f9722a3daafe3b4186f6b6457e060405160405180910390a3806000806101000a81548173ffffffffffffffffffffffffffffffffffffffff021916908373ffffffffffffffffffffffffffffffffffffffff16021790555050565b6000428260020160049054906101000a900463ffffffff1663ffffffff1611159050919050565b828054600181600116156101000203166002900490600052602060002090601f016020900481019282601f1061193157803560ff191683800117855561195f565b8280016001018555821561195f579182015b8281111561195e578235825591602001919060010190611943565b5b50905061196c91906119f0565b5090565b828054600181600116156101000203166002900490600052602060002090601f016020900481019282601f106119b157805160ff19168380011785556119df565b828001600101855582156119df579182015b828111156119de5782518255916020019190600101906119c3565b5b5090506119ec91906119f0565b5090565b611a1291905b80821115611a0e5760008160009055506001016119f6565b5090565b9056fea265627a7a72315820619bf83cf771d00ee8c361e40485551909f07c37218db8f9ee98a085bde46a7e64736f6c63430005110032",
					"opcodes": "PUSH1 0x80 PUSH1 0x40 MSTORE PUSH1 0x10 PUSH1 0x1 SSTORE PUSH1 0x1 SLOAD PUSH1 0xA EXP PUSH1 0x2 SSTORE PUSH3 0x15180 PUSH1 0x3 SSTORE PUSH7 0x38D7EA4C68000 PUSH1 0x8 SSTORE PUSH1 0x0 PUSH1 0x9 SSTORE PUSH1 0x46 PUSH1 0xA SSTORE CALLER PUSH1 0x0 DUP1 PUSH2 0x100 EXP DUP2 SLOAD DUP2 PUSH20 0xFFFFFFFFFFFFFFFFFFFFFFFFFFFFFFFFFFFFFFFF MUL NOT AND SWAP1 DUP4 PUSH20 0xFFFFFFFFFFFFFFFFFFFFFFFFFFFFFFFFFFFFFFFF AND MUL OR SWAP1 SSTORE POP PUSH1 0x0 DUP1 SWAP1 SLOAD SWAP1 PUSH2 0x100 EXP SWAP1 DIV PUSH20 0xFFFFFFFFFFFFFFFFFFFFFFFFFFFFFFFFFFFFFFFF AND PUSH20 0xFFFFFFFFFFFFFFFFFFFFFFFFFFFFFFFFFFFFFFFF AND PUSH1 0x0 PUSH20 0xFFFFFFFFFFFFFFFFFFFFFFFFFFFFFFFFFFFFFFFF AND PUSH32 0x8BE0079C531659141344CD1FD0A4F28419497F9722A3DAAFE3B4186F6B6457E0 PUSH1 0x40 MLOAD PUSH1 0x40 MLOAD DUP1 SWAP2 SUB SWAP1 LOG3 PUSH2 0x1A4A DUP1 PUSH2 0xF9 PUSH1 0x0 CODECOPY PUSH1 0x0 RETURN INVALID PUSH1 0x80 PUSH1 0x40 MSTORE PUSH1 0x4 CALLDATASIZE LT PUSH2 0xF3 JUMPI PUSH1 0x0 CALLDATALOAD PUSH1 0xE0 SHR DUP1 PUSH4 0x715018A6 GT PUSH2 0x8A JUMPI DUP1 PUSH4 0xC39CBEF1 GT PUSH2 0x59 JUMPI DUP1 PUSH4 0xC39CBEF1 EQ PUSH2 0x59D JUMPI DUP1 PUSH4 0xCCF670F8 EQ PUSH2 0x62D JUMPI DUP1 PUSH4 0xE1FA7638 EQ PUSH2 0x668 JUMPI DUP1 PUSH4 0xF2FDE38B EQ PUSH2 0x6AD JUMPI PUSH2 0xF3 JUMP JUMPDEST DUP1 PUSH4 0x715018A6 EQ PUSH2 0x438 JUMPI DUP1 PUSH4 0x7BFF0A01 EQ PUSH2 0x44F JUMPI DUP1 PUSH4 0x8DA5CB5B EQ PUSH2 0x517 JUMPI DUP1 PUSH4 0x8F32D59B EQ PUSH2 0x56E JUMPI PUSH2 0xF3 JUMP JUMPDEST DUP1 PUSH4 0x4412E104 GT PUSH2 0xC6 JUMPI DUP1 PUSH4 0x4412E104 EQ PUSH2 0x281 JUMPI DUP1 PUSH4 0x528B7B8F EQ PUSH2 0x327 JUMPI DUP1 PUSH4 0x5F4623F1 EQ PUSH2 0x3A2 JUMPI DUP1 PUSH4 0x5FAF2880 EQ PUSH2 0x3F3 JUMPI PUSH2 0xF3 JUMP JUMPDEST DUP1 PUSH4 0xCE90EC2 EQ PUSH2 0xF8 JUMPI DUP1 PUSH4 0x17A7F4CC EQ PUSH2 0x126 JUMPI DUP1 PUSH4 0x2052465E EQ PUSH2 0x16B JUMPI DUP1 PUSH4 0x3CCFD60B EQ PUSH2 0x26A JUMPI JUMPDEST PUSH1 0x0 DUP1 REVERT JUMPDEST PUSH2 0x124 PUSH1 0x4 DUP1 CALLDATASIZE SUB PUSH1 0x20 DUP2 LT ISZERO PUSH2 0x10E JUMPI PUSH1 0x0 DUP1 REVERT JUMPDEST DUP2 ADD SWAP1 DUP1 DUP1 CALLDATALOAD SWAP1 PUSH1 0x20 ADD SWAP1 SWAP3 SWAP2 SWAP1 POP POP POP PUSH2 0x6FE JUMP JUMPDEST STOP JUMPDEST CALLVALUE DUP1 ISZERO PUSH2 0x132 JUMPI PUSH1 0x0 DUP1 REVERT JUMPDEST POP PUSH2 0x169 PUSH1 0x4 DUP1 CALLDATASIZE SUB PUSH1 0x40 DUP2 LT ISZERO PUSH2 0x149 JUMPI PUSH1 0x0 DUP1 REVERT JUMPDEST DUP2 ADD SWAP1 DUP1 DUP1 CALLDATALOAD SWAP1 PUSH1 0x20 ADD SWAP1 SWAP3 SWAP2 SWAP1 DUP1 CALLDATALOAD SWAP1 PUSH1 0x20 ADD SWAP1 SWAP3 SWAP2 SWAP1 POP POP POP PUSH2 0x766 JUMP JUMPDEST STOP JUMPDEST CALLVALUE DUP1 ISZERO PUSH2 0x177 JUMPI PUSH1 0x0 DUP1 REVERT JUMPDEST POP PUSH2 0x1A4 PUSH1 0x4 DUP1 CALLDATASIZE SUB PUSH1 0x20 DUP2 LT ISZERO PUSH2 0x18E JUMPI PUSH1 0x0 DUP1 REVERT JUMPDEST DUP2 ADD SWAP1 DUP1 DUP1 CALLDATALOAD SWAP1 PUSH1 0x20 ADD SWAP1 SWAP3 SWAP2 SWAP1 POP POP POP PUSH2 0x8F1 JUMP JUMPDEST PUSH1 0x40 MLOAD DUP1 DUP1 PUSH1 0x20 ADD DUP8 DUP2 MSTORE PUSH1 0x20 ADD DUP7 PUSH4 0xFFFFFFFF AND PUSH4 0xFFFFFFFF AND DUP2 MSTORE PUSH1 0x20 ADD DUP6 PUSH4 0xFFFFFFFF AND PUSH4 0xFFFFFFFF AND DUP2 MSTORE PUSH1 0x20 ADD DUP5 PUSH2 0xFFFF AND PUSH2 0xFFFF AND DUP2 MSTORE PUSH1 0x20 ADD DUP4 PUSH2 0xFFFF AND PUSH2 0xFFFF AND DUP2 MSTORE PUSH1 0x20 ADD DUP3 DUP2 SUB DUP3 MSTORE DUP9 DUP2 DUP2 MLOAD DUP2 MSTORE PUSH1 0x20 ADD SWAP2 POP DUP1 MLOAD SWAP1 PUSH1 0x20 ADD SWAP1 DUP1 DUP4 DUP4 PUSH1 0x0 JUMPDEST DUP4 DUP2 LT ISZERO PUSH2 0x22A JUMPI DUP1 DUP3 ADD MLOAD DUP2 DUP5 ADD MSTORE PUSH1 0x20 DUP2 ADD SWAP1 POP PUSH2 0x20F JUMP JUMPDEST POP POP POP POP SWAP1 POP SWAP1 DUP2 ADD SWAP1 PUSH1 0x1F AND DUP1 ISZERO PUSH2 0x257 JUMPI DUP1 DUP3 SUB DUP1 MLOAD PUSH1 0x1 DUP4 PUSH1 0x20 SUB PUSH2 0x100 EXP SUB NOT AND DUP2 MSTORE PUSH1 0x20 ADD SWAP2 POP JUMPDEST POP SWAP8 POP POP POP POP POP POP POP POP PUSH1 0x40 MLOAD DUP1 SWAP2 SUB SWAP1 RETURN JUMPDEST CALLVALUE DUP1 ISZERO PUSH2 0x276 JUMPI PUSH1 0x0 DUP1 REVERT JUMPDEST POP PUSH2 0x27F PUSH2 0xA0E JUMP JUMPDEST STOP JUMPDEST CALLVALUE DUP1 ISZERO PUSH2 0x28D JUMPI PUSH1 0x0 DUP1 REVERT JUMPDEST POP PUSH2 0x2D0 PUSH1 0x4 DUP1 CALLDATASIZE SUB PUSH1 0x20 DUP2 LT ISZERO PUSH2 0x2A4 JUMPI PUSH1 0x0 DUP1 REVERT JUMPDEST DUP2 ADD SWAP1 DUP1 DUP1 CALLDATALOAD PUSH20 0xFFFFFFFFFFFFFFFFFFFFFFFFFFFFFFFFFFFFFFFF AND SWAP1 PUSH1 0x20 ADD SWAP1 SWAP3 SWAP2 SWAP1 POP POP POP PUSH2 0xA75 JUMP JUMPDEST PUSH1 0x40 MLOAD DUP1 DUP1 PUSH1 0x20 ADD DUP3 DUP2 SUB DUP3 MSTORE DUP4 DUP2 DUP2 MLOAD DUP2 MSTORE PUSH1 0x20 ADD SWAP2 POP DUP1 MLOAD SWAP1 PUSH1 0x20 ADD SWAP1 PUSH1 0x20 MUL DUP1 DUP4 DUP4 PUSH1 0x0 JUMPDEST DUP4 DUP2 LT ISZERO PUSH2 0x313 JUMPI DUP1 DUP3 ADD MLOAD DUP2 DUP5 ADD MSTORE PUSH1 0x20 DUP2 ADD SWAP1 POP PUSH2 0x2F8 JUMP JUMPDEST POP POP POP POP SWAP1 POP ADD SWAP3 POP POP POP PUSH1 0x40 MLOAD DUP1 SWAP2 SUB SWAP1 RETURN JUMPDEST CALLVALUE DUP1 ISZERO PUSH2 0x333 JUMPI PUSH1 0x0 DUP1 REVERT JUMPDEST POP PUSH2 0x360 PUSH1 0x4 DUP1 CALLDATASIZE SUB PUSH1 0x20 DUP2 LT ISZERO PUSH2 0x34A JUMPI PUSH1 0x0 DUP1 REVERT JUMPDEST DUP2 ADD SWAP1 DUP1 DUP1 CALLDATALOAD SWAP1 PUSH1 0x20 ADD SWAP1 SWAP3 SWAP2 SWAP1 POP POP POP PUSH2 0xBA2 JUMP JUMPDEST PUSH1 0x40 MLOAD DUP1 DUP3 PUSH20 0xFFFFFFFFFFFFFFFFFFFFFFFFFFFFFFFFFFFFFFFF AND PUSH20 0xFFFFFFFFFFFFFFFFFFFFFFFFFFFFFFFFFFFFFFFF AND DUP2 MSTORE PUSH1 0x20 ADD SWAP2 POP POP PUSH1 0x40 MLOAD DUP1 SWAP2 SUB SWAP1 RETURN JUMPDEST CALLVALUE DUP1 ISZERO PUSH2 0x3AE JUMPI PUSH1 0x0 DUP1 REVERT JUMPDEST POP PUSH2 0x3F1 PUSH1 0x4 DUP1 CALLDATASIZE SUB PUSH1 0x20 DUP2 LT ISZERO PUSH2 0x3C5 JUMPI PUSH1 0x0 DUP1 REVERT JUMPDEST DUP2 ADD SWAP1 DUP1 DUP1 CALLDATALOAD PUSH20 0xFFFFFFFFFFFFFFFFFFFFFFFFFFFFFFFFFFFFFFFF AND SWAP1 PUSH1 0x20 ADD SWAP1 SWAP3 SWAP2 SWAP1 POP POP POP PUSH2 0xBD5 JUMP JUMPDEST STOP JUMPDEST CALLVALUE DUP1 ISZERO PUSH2 0x3FF JUMPI PUSH1 0x0 DUP1 REVERT JUMPDEST POP PUSH2 0x436 PUSH1 0x4 DUP1 CALLDATASIZE SUB PUSH1 0x40 DUP2 LT ISZERO PUSH2 0x416 JUMPI PUSH1 0x0 DUP1 REVERT JUMPDEST DUP2 ADD SWAP1 DUP1 DUP1 CALLDATALOAD SWAP1 PUSH1 0x20 ADD SWAP1 SWAP3 SWAP2 SWAP1 DUP1 CALLDATALOAD SWAP1 PUSH1 0x20 ADD SWAP1 SWAP3 SWAP2 SWAP1 POP POP POP PUSH2 0xC2A JUMP JUMPDEST STOP JUMPDEST CALLVALUE DUP1 ISZERO PUSH2 0x444 JUMPI PUSH1 0x0 DUP1 REVERT JUMPDEST POP PUSH2 0x44D PUSH2 0xD04 JUMP JUMPDEST STOP JUMPDEST CALLVALUE DUP1 ISZERO PUSH2 0x45B JUMPI PUSH1 0x0 DUP1 REVERT JUMPDEST POP PUSH2 0x515 PUSH1 0x4 DUP1 CALLDATASIZE SUB PUSH1 0x20 DUP2 LT ISZERO PUSH2 0x472 JUMPI PUSH1 0x0 DUP1 REVERT JUMPDEST DUP2 ADD SWAP1 DUP1 DUP1 CALLDATALOAD SWAP1 PUSH1 0x20 ADD SWAP1 PUSH5 0x100000000 DUP2 GT ISZERO PUSH2 0x48F JUMPI PUSH1 0x0 DUP1 REVERT JUMPDEST DUP3 ADD DUP4 PUSH1 0x20 DUP3 ADD GT ISZERO PUSH2 0x4A1 JUMPI PUSH1 0x0 DUP1 REVERT JUMPDEST DUP1 CALLDATALOAD SWAP1 PUSH1 0x20 ADD SWAP2 DUP5 PUSH1 0x1 DUP4 MUL DUP5 ADD GT PUSH5 0x100000000 DUP4 GT OR ISZERO PUSH2 0x4C3 JUMPI PUSH1 0x0 DUP1 REVERT JUMPDEST SWAP2 SWAP1 DUP1 DUP1 PUSH1 0x1F ADD PUSH1 0x20 DUP1 SWAP2 DIV MUL PUSH1 0x20 ADD PUSH1 0x40 MLOAD SWAP1 DUP2 ADD PUSH1 0x40 MSTORE DUP1 SWAP4 SWAP3 SWAP2 SWAP1 DUP2 DUP2 MSTORE PUSH1 0x20 ADD DUP4 DUP4 DUP1 DUP3 DUP5 CALLDATACOPY PUSH1 0x0 DUP2 DUP5 ADD MSTORE PUSH1 0x1F NOT PUSH1 0x1F DUP3 ADD AND SWAP1 POP DUP1 DUP4 ADD SWAP3 POP POP POP POP POP POP POP SWAP2 SWAP3 SWAP2 SWAP3 SWAP1 POP POP POP PUSH2 0xDD4 JUMP JUMPDEST STOP JUMPDEST CALLVALUE DUP1 ISZERO PUSH2 0x523 JUMPI PUSH1 0x0 DUP1 REVERT JUMPDEST POP PUSH2 0x52C PUSH2 0xE4A JUMP JUMPDEST PUSH1 0x40 MLOAD DUP1 DUP3 PUSH20 0xFFFFFFFFFFFFFFFFFFFFFFFFFFFFFFFFFFFFFFFF AND PUSH20 0xFFFFFFFFFFFFFFFFFFFFFFFFFFFFFFFFFFFFFFFF AND DUP2 MSTORE PUSH1 0x20 ADD SWAP2 POP POP PUSH1 0x40 MLOAD DUP1 SWAP2 SUB SWAP1 RETURN JUMPDEST CALLVALUE DUP1 ISZERO PUSH2 0x57A JUMPI PUSH1 0x0 DUP1 REVERT JUMPDEST POP PUSH2 0x583 PUSH2 0xE73 JUMP JUMPDEST PUSH1 0x40 MLOAD DUP1 DUP3 ISZERO ISZERO ISZERO ISZERO DUP2 MSTORE PUSH1 0x20 ADD SWAP2 POP POP PUSH1 0x40 MLOAD DUP1 SWAP2 SUB SWAP1 RETURN JUMPDEST CALLVALUE DUP1 ISZERO PUSH2 0x5A9 JUMPI PUSH1 0x0 DUP1 REVERT JUMPDEST POP PUSH2 0x62B PUSH1 0x4 DUP1 CALLDATASIZE SUB PUSH1 0x40 DUP2 LT ISZERO PUSH2 0x5C0 JUMPI PUSH1 0x0 DUP1 REVERT JUMPDEST DUP2 ADD SWAP1 DUP1 DUP1 CALLDATALOAD SWAP1 PUSH1 0x20 ADD SWAP1 SWAP3 SWAP2 SWAP1 DUP1 CALLDATALOAD SWAP1 PUSH1 0x20 ADD SWAP1 PUSH5 0x100000000 DUP2 GT ISZERO PUSH2 0x5E7 JUMPI PUSH1 0x0 DUP1 REVERT JUMPDEST DUP3 ADD DUP4 PUSH1 0x20 DUP3 ADD GT ISZERO PUSH2 0x5F9 JUMPI PUSH1 0x0 DUP1 REVERT JUMPDEST DUP1 CALLDATALOAD SWAP1 PUSH1 0x20 ADD SWAP2 DUP5 PUSH1 0x1 DUP4 MUL DUP5 ADD GT PUSH5 0x100000000 DUP4 GT OR ISZERO PUSH2 0x61B JUMPI PUSH1 0x0 DUP1 REVERT JUMPDEST SWAP1 SWAP2 SWAP3 SWAP4 SWAP2 SWAP3 SWAP4 SWAP1 POP POP POP PUSH2 0xECA JUMP JUMPDEST STOP JUMPDEST CALLVALUE DUP1 ISZERO PUSH2 0x639 JUMPI PUSH1 0x0 DUP1 REVERT JUMPDEST POP PUSH2 0x666 PUSH1 0x4 DUP1 CALLDATASIZE SUB PUSH1 0x20 DUP2 LT ISZERO PUSH2 0x650 JUMPI PUSH1 0x0 DUP1 REVERT JUMPDEST DUP2 ADD SWAP1 DUP1 DUP1 CALLDATALOAD SWAP1 PUSH1 0x20 ADD SWAP1 SWAP3 SWAP2 SWAP1 POP POP POP PUSH2 0xFB0 JUMP JUMPDEST STOP JUMPDEST CALLVALUE DUP1 ISZERO PUSH2 0x674 JUMPI PUSH1 0x0 DUP1 REVERT JUMPDEST POP PUSH2 0x6AB PUSH1 0x4 DUP1 CALLDATASIZE SUB PUSH1 0x40 DUP2 LT ISZERO PUSH2 0x68B JUMPI PUSH1 0x0 DUP1 REVERT JUMPDEST DUP2 ADD SWAP1 DUP1 DUP1 CALLDATALOAD SWAP1 PUSH1 0x20 ADD SWAP1 SWAP3 SWAP2 SWAP1 DUP1 CALLDATALOAD SWAP1 PUSH1 0x20 ADD SWAP1 SWAP3 SWAP2 SWAP1 POP POP POP PUSH2 0xFCB JUMP JUMPDEST STOP JUMPDEST CALLVALUE DUP1 ISZERO PUSH2 0x6B9 JUMPI PUSH1 0x0 DUP1 REVERT JUMPDEST POP PUSH2 0x6FC PUSH1 0x4 DUP1 CALLDATASIZE SUB PUSH1 0x20 DUP2 LT ISZERO PUSH2 0x6D0 JUMPI PUSH1 0x0 DUP1 REVERT JUMPDEST DUP2 ADD SWAP1 DUP1 DUP1 CALLDATALOAD PUSH20 0xFFFFFFFFFFFFFFFFFFFFFFFFFFFFFFFFFFFFFFFF AND SWAP1 PUSH1 0x20 ADD SWAP1 SWAP3 SWAP2 SWAP1 POP POP POP PUSH2 0x1200 JUMP JUMPDEST STOP JUMPDEST PUSH1 0x8 SLOAD CALLVALUE EQ PUSH2 0x70C JUMPI PUSH1 0x0 DUP1 REVERT JUMPDEST PUSH1 0x4 DUP2 DUP2 SLOAD DUP2 LT PUSH2 0x719 JUMPI INVALID JUMPDEST SWAP1 PUSH1 0x0 MSTORE PUSH1 0x20 PUSH1 0x0 KECCAK256 SWAP1 PUSH1 0x3 MUL ADD PUSH1 0x2 ADD PUSH1 0x0 DUP2 DUP2 SWAP1 SLOAD SWAP1 PUSH2 0x100 EXP SWAP1 DIV PUSH4 0xFFFFFFFF AND DUP1 SWAP3 SWAP2 SWAP1 PUSH1 0x1 ADD SWAP2 SWAP1 PUSH2 0x100 EXP DUP2 SLOAD DUP2 PUSH4 0xFFFFFFFF MUL NOT AND SWAP1 DUP4 PUSH4 0xFFFFFFFF AND MUL OR SWAP1 SSTORE POP POP POP JUMP JUMPDEST PUSH1 0x0 PUSH1 0x7 PUSH1 0x0 SWAP1 SLOAD SWAP1 PUSH2 0x100 EXP SWAP1 DIV PUSH20 0xFFFFFFFFFFFFFFFFFFFFFFFFFFFFFFFFFFFFFFFF AND PUSH20 0xFFFFFFFFFFFFFFFFFFFFFFFFFFFFFFFFFFFFFFFF AND PUSH4 0xE98B7F4D DUP4 PUSH1 0x40 MLOAD DUP3 PUSH4 0xFFFFFFFF AND PUSH1 0xE0 SHL DUP2 MSTORE PUSH1 0x4 ADD DUP1 DUP3 DUP2 MSTORE PUSH1 0x20 ADD SWAP2 POP POP PUSH2 0x140 PUSH1 0x40 MLOAD DUP1 DUP4 SUB DUP2 DUP7 DUP1 EXTCODESIZE ISZERO DUP1 ISZERO PUSH2 0x7DC JUMPI PUSH1 0x0 DUP1 REVERT JUMPDEST POP GAS STATICCALL ISZERO DUP1 ISZERO PUSH2 0x7F0 JUMPI RETURNDATASIZE PUSH1 0x0 DUP1 RETURNDATACOPY RETURNDATASIZE PUSH1 0x0 REVERT JUMPDEST POP POP POP POP PUSH1 0x40 MLOAD RETURNDATASIZE PUSH2 0x140 DUP2 LT ISZERO PUSH2 0x807 JUMPI PUSH1 0x0 DUP1 REVERT JUMPDEST DUP2 ADD SWAP1 DUP1 DUP1 MLOAD SWAP1 PUSH1 0x20 ADD SWAP1 SWAP3 SWAP2 SWAP1 DUP1 MLOAD SWAP1 PUSH1 0x20 ADD SWAP1 SWAP3 SWAP2 SWAP1 DUP1 MLOAD SWAP1 PUSH1 0x20 ADD SWAP1 SWAP3 SWAP2 SWAP1 DUP1 MLOAD SWAP1 PUSH1 0x20 ADD SWAP1 SWAP3 SWAP2 SWAP1 DUP1 MLOAD SWAP1 PUSH1 0x20 ADD SWAP1 SWAP3 SWAP2 SWAP1 DUP1 MLOAD SWAP1 PUSH1 0x20 ADD SWAP1 SWAP3 SWAP2 SWAP1 DUP1 MLOAD SWAP1 PUSH1 0x20 ADD SWAP1 SWAP3 SWAP2 SWAP1 DUP1 MLOAD SWAP1 PUSH1 0x20 ADD SWAP1 SWAP3 SWAP2 SWAP1 DUP1 MLOAD SWAP1 PUSH1 0x20 ADD SWAP1 SWAP3 SWAP2 SWAP1 DUP1 MLOAD SWAP1 PUSH1 0x20 ADD SWAP1 SWAP3 SWAP2 SWAP1 POP POP POP SWAP1 SWAP2 SWAP3 SWAP4 SWAP5 SWAP6 SWAP7 SWAP8 SWAP9 POP SWAP1 SWAP2 SWAP3 SWAP4 SWAP5 SWAP6 SWAP7 SWAP8 POP SWAP1 SWAP2 SWAP3 SWAP4 SWAP5 SWAP6 SWAP7 POP SWAP1 SWAP2 SWAP3 SWAP4 SWAP5 SWAP6 POP SWAP1 SWAP2 SWAP3 SWAP4 SWAP5 POP SWAP1 SWAP2 SWAP3 SWAP4 POP SWAP1 SWAP2 SWAP3 POP SWAP1 SWAP2 POP SWAP1 POP DUP1 SWAP2 POP POP PUSH2 0x8EC DUP4 DUP3 PUSH1 0x40 MLOAD DUP1 PUSH1 0x40 ADD PUSH1 0x40 MSTORE DUP1 PUSH1 0x5 DUP2 MSTORE PUSH1 0x20 ADD PUSH32 0x6B69747479000000000000000000000000000000000000000000000000000000 DUP2 MSTORE POP PUSH2 0x121D JUMP JUMPDEST POP POP POP JUMP JUMPDEST PUSH1 0x4 DUP2 DUP2 SLOAD DUP2 LT PUSH2 0x8FE JUMPI INVALID JUMPDEST SWAP1 PUSH1 0x0 MSTORE PUSH1 0x20 PUSH1 0x0 KECCAK256 SWAP1 PUSH1 0x3 MUL ADD PUSH1 0x0 SWAP2 POP SWAP1 POP DUP1 PUSH1 0x0 ADD DUP1 SLOAD PUSH1 0x1 DUP2 PUSH1 0x1 AND ISZERO PUSH2 0x100 MUL SUB AND PUSH1 0x2 SWAP1 DIV DUP1 PUSH1 0x1F ADD PUSH1 0x20 DUP1 SWAP2 DIV MUL PUSH1 0x20 ADD PUSH1 0x40 MLOAD SWAP1 DUP2 ADD PUSH1 0x40 MSTORE DUP1 SWAP3 SWAP2 SWAP1 DUP2 DUP2 MSTORE PUSH1 0x20 ADD DUP3 DUP1 SLOAD PUSH1 0x1 DUP2 PUSH1 0x1 AND ISZERO PUSH2 0x100 MUL SUB AND PUSH1 0x2 SWAP1 DIV DUP1 ISZERO PUSH2 0x9AA JUMPI DUP1 PUSH1 0x1F LT PUSH2 0x97F JUMPI PUSH2 0x100 DUP1 DUP4 SLOAD DIV MUL DUP4 MSTORE SWAP2 PUSH1 0x20 ADD SWAP2 PUSH2 0x9AA JUMP JUMPDEST DUP3 ADD SWAP2 SWAP1 PUSH1 0x0 MSTORE PUSH1 0x20 PUSH1 0x0 KECCAK256 SWAP1 JUMPDEST DUP2 SLOAD DUP2 MSTORE SWAP1 PUSH1 0x1 ADD SWAP1 PUSH1 0x20 ADD DUP1 DUP4 GT PUSH2 0x98D JUMPI DUP3 SWAP1 SUB PUSH1 0x1F AND DUP3 ADD SWAP2 JUMPDEST POP POP POP POP POP SWAP1 DUP1 PUSH1 0x1 ADD SLOAD SWAP1 DUP1 PUSH1 0x2 ADD PUSH1 0x0 SWAP1 SLOAD SWAP1 PUSH2 0x100 EXP SWAP1 DIV PUSH4 0xFFFFFFFF AND SWAP1 DUP1 PUSH1 0x2 ADD PUSH1 0x4 SWAP1 SLOAD SWAP1 PUSH2 0x100 EXP SWAP1 DIV PUSH4 0xFFFFFFFF AND SWAP1 DUP1 PUSH1 0x2 ADD PUSH1 0x8 SWAP1 SLOAD SWAP1 PUSH2 0x100 EXP SWAP1 DIV PUSH2 0xFFFF AND SWAP1 DUP1 PUSH1 0x2 ADD PUSH1 0xA SWAP1 SLOAD SWAP1 PUSH2 0x100 EXP SWAP1 DIV PUSH2 0xFFFF AND SWAP1 POP DUP7 JUMP JUMPDEST PUSH2 0xA16 PUSH2 0xE73 JUMP JUMPDEST PUSH2 0xA1F JUMPI PUSH1 0x0 DUP1 REVERT JUMPDEST PUSH1 0x0 PUSH2 0xA29 PUSH2 0xE4A JUMP JUMPDEST SWAP1 POP DUP1 PUSH20 0xFFFFFFFFFFFFFFFFFFFFFFFFFFFFFFFFFFFFFFFF AND PUSH2 0x8FC SELFBALANCE SWAP1 DUP2 ISZERO MUL SWAP1 PUSH1 0x40 MLOAD PUSH1 0x0 PUSH1 0x40 MLOAD DUP1 DUP4 SUB DUP2 DUP6 DUP9 DUP9 CALL SWAP4 POP POP POP POP ISZERO DUP1 ISZERO PUSH2 0xA71 JUMPI RETURNDATASIZE PUSH1 0x0 DUP1 RETURNDATACOPY RETURNDATASIZE PUSH1 0x0 REVERT JUMPDEST POP POP JUMP JUMPDEST PUSH1 0x60 DUP1 PUSH1 0x6 PUSH1 0x0 DUP5 PUSH20 0xFFFFFFFFFFFFFFFFFFFFFFFFFFFFFFFFFFFFFFFF AND PUSH20 0xFFFFFFFFFFFFFFFFFFFFFFFFFFFFFFFFFFFFFFFF AND DUP2 MSTORE PUSH1 0x20 ADD SWAP1 DUP2 MSTORE PUSH1 0x20 ADD PUSH1 0x0 KECCAK256 SLOAD PUSH1 0x40 MLOAD SWAP1 DUP1 DUP3 MSTORE DUP1 PUSH1 0x20 MUL PUSH1 0x20 ADD DUP3 ADD PUSH1 0x40 MSTORE DUP1 ISZERO PUSH2 0xAE6 JUMPI DUP2 PUSH1 0x20 ADD PUSH1 0x20 DUP3 MUL DUP1 CODESIZE DUP4 CODECOPY DUP1 DUP3 ADD SWAP2 POP POP SWAP1 POP JUMPDEST POP SWAP1 POP PUSH1 0x0 DUP1 SWAP1 POP PUSH1 0x0 DUP1 SWAP1 POP JUMPDEST PUSH1 0x4 DUP1 SLOAD SWAP1 POP DUP2 LT ISZERO PUSH2 0xB97 JUMPI DUP5 PUSH20 0xFFFFFFFFFFFFFFFFFFFFFFFFFFFFFFFFFFFFFFFF AND PUSH1 0x5 PUSH1 0x0 DUP4 DUP2 MSTORE PUSH1 0x20 ADD SWAP1 DUP2 MSTORE PUSH1 0x20 ADD PUSH1 0x0 KECCAK256 PUSH1 0x0 SWAP1 SLOAD SWAP1 PUSH2 0x100 EXP SWAP1 DIV PUSH20 0xFFFFFFFFFFFFFFFFFFFFFFFFFFFFFFFFFFFFFFFF AND PUSH20 0xFFFFFFFFFFFFFFFFFFFFFFFFFFFFFFFFFFFFFFFF AND EQ ISZERO PUSH2 0xB8A JUMPI DUP1 DUP4 DUP4 DUP2 MLOAD DUP2 LT PUSH2 0xB75 JUMPI INVALID JUMPDEST PUSH1 0x20 MUL PUSH1 0x20 ADD ADD DUP2 DUP2 MSTORE POP POP DUP2 DUP1 PUSH1 0x1 ADD SWAP3 POP POP JUMPDEST DUP1 DUP1 PUSH1 0x1 ADD SWAP2 POP POP PUSH2 0xAF4 JUMP JUMPDEST POP DUP2 SWAP3 POP POP POP SWAP2 SWAP1 POP JUMP JUMPDEST PUSH1 0x5 PUSH1 0x20 MSTORE DUP1 PUSH1 0x0 MSTORE PUSH1 0x40 PUSH1 0x0 KECCAK256 PUSH1 0x0 SWAP2 POP SLOAD SWAP1 PUSH2 0x100 EXP SWAP1 DIV PUSH20 0xFFFFFFFFFFFFFFFFFFFFFFFFFFFFFFFFFFFFFFFF AND DUP2 JUMP JUMPDEST PUSH2 0xBDD PUSH2 0xE73 JUMP JUMPDEST PUSH2 0xBE6 JUMPI PUSH1 0x0 DUP1 REVERT JUMPDEST DUP1 PUSH1 0x7 PUSH1 0x0 PUSH2 0x100 EXP DUP2 SLOAD DUP2 PUSH20 0xFFFFFFFFFFFFFFFFFFFFFFFFFFFFFFFFFFFFFFFF MUL NOT AND SWAP1 DUP4 PUSH20 0xFFFFFFFFFFFFFFFFFFFFFFFFFFFFFFFFFFFFFFFF AND MUL OR SWAP1 SSTORE POP POP JUMP JUMPDEST PUSH1 0x14 DUP3 DUP2 PUSH1 0x4 DUP3 DUP2 SLOAD DUP2 LT PUSH2 0xC3B JUMPI INVALID JUMPDEST SWAP1 PUSH1 0x0 MSTORE PUSH1 0x20 PUSH1 0x0 KECCAK256 SWAP1 PUSH1 0x3 MUL ADD PUSH1 0x2 ADD PUSH1 0x0 SWAP1 SLOAD SWAP1 PUSH2 0x100 EXP SWAP1 DIV PUSH4 0xFFFFFFFF AND PUSH4 0xFFFFFFFF AND LT ISZERO PUSH2 0xC6E JUMPI PUSH1 0x0 DUP1 REVERT JUMPDEST DUP4 PUSH1 0x5 PUSH1 0x0 DUP3 DUP2 MSTORE PUSH1 0x20 ADD SWAP1 DUP2 MSTORE PUSH1 0x20 ADD PUSH1 0x0 KECCAK256 PUSH1 0x0 SWAP1 SLOAD SWAP1 PUSH2 0x100 EXP SWAP1 DIV PUSH20 0xFFFFFFFFFFFFFFFFFFFFFFFFFFFFFFFFFFFFFFFF AND PUSH20 0xFFFFFFFFFFFFFFFFFFFFFFFFFFFFFFFFFFFFFFFF AND CALLER PUSH20 0xFFFFFFFFFFFFFFFFFFFFFFFFFFFFFFFFFFFFFFFF AND EQ PUSH2 0xCDA JUMPI PUSH1 0x0 DUP1 REVERT JUMPDEST DUP4 PUSH1 0x4 DUP7 DUP2 SLOAD DUP2 LT PUSH2 0xCE8 JUMPI INVALID JUMPDEST SWAP1 PUSH1 0x0 MSTORE PUSH1 0x20 PUSH1 0x0 KECCAK256 SWAP1 PUSH1 0x3 MUL ADD PUSH1 0x1 ADD DUP2 SWAP1 SSTORE POP POP POP POP POP POP JUMP JUMPDEST PUSH2 0xD0C PUSH2 0xE73 JUMP JUMPDEST PUSH2 0xD15 JUMPI PUSH1 0x0 DUP1 REVERT JUMPDEST PUSH1 0x0 PUSH20 0xFFFFFFFFFFFFFFFFFFFFFFFFFFFFFFFFFFFFFFFF AND PUSH1 0x0 DUP1 SWAP1 SLOAD SWAP1 PUSH2 0x100 EXP SWAP1 DIV PUSH20 0xFFFFFFFFFFFFFFFFFFFFFFFFFFFFFFFFFFFFFFFF AND PUSH20 0xFFFFFFFFFFFFFFFFFFFFFFFFFFFFFFFFFFFFFFFF AND PUSH32 0x8BE0079C531659141344CD1FD0A4F28419497F9722A3DAAFE3B4186F6B6457E0 PUSH1 0x40 MLOAD PUSH1 0x40 MLOAD DUP1 SWAP2 SUB SWAP1 LOG3 PUSH1 0x0 DUP1 PUSH1 0x0 PUSH2 0x100 EXP DUP2 SLOAD DUP2 PUSH20 0xFFFFFFFFFFFFFFFFFFFFFFFFFFFFFFFFFFFFFFFF MUL NOT AND SWAP1 DUP4 PUSH20 0xFFFFFFFFFFFFFFFFFFFFFFFFFFFFFFFFFFFFFFFF AND MUL OR SWAP1 SSTORE POP JUMP JUMPDEST PUSH1 0x0 PUSH1 0x6 PUSH1 0x0 CALLER PUSH20 0xFFFFFFFFFFFFFFFFFFFFFFFFFFFFFFFFFFFFFFFF AND PUSH20 0xFFFFFFFFFFFFFFFFFFFFFFFFFFFFFFFFFFFFFFFF AND DUP2 MSTORE PUSH1 0x20 ADD SWAP1 DUP2 MSTORE PUSH1 0x20 ADD PUSH1 0x0 KECCAK256 SLOAD EQ PUSH2 0xE20 JUMPI PUSH1 0x0 DUP1 REVERT JUMPDEST PUSH1 0x0 PUSH2 0xE2B DUP3 PUSH2 0x13FF JUMP JUMPDEST SWAP1 POP PUSH1 0x64 DUP2 DUP2 PUSH2 0xE37 JUMPI INVALID JUMPDEST MOD DUP2 SUB SWAP1 POP PUSH2 0xE46 DUP3 DUP3 PUSH2 0x148D JUMP JUMPDEST POP POP JUMP JUMPDEST PUSH1 0x0 DUP1 PUSH1 0x0 SWAP1 SLOAD SWAP1 PUSH2 0x100 EXP SWAP1 DIV PUSH20 0xFFFFFFFFFFFFFFFFFFFFFFFFFFFFFFFFFFFFFFFF AND SWAP1 POP SWAP1 JUMP JUMPDEST PUSH1 0x0 DUP1 PUSH1 0x0 SWAP1 SLOAD SWAP1 PUSH2 0x100 EXP SWAP1 DIV PUSH20 0xFFFFFFFFFFFFFFFFFFFFFFFFFFFFFFFFFFFFFFFF AND PUSH20 0xFFFFFFFFFFFFFFFFFFFFFFFFFFFFFFFFFFFFFFFF AND CALLER PUSH20 0xFFFFFFFFFFFFFFFFFFFFFFFFFFFFFFFFFFFFFFFF AND EQ SWAP1 POP SWAP1 JUMP JUMPDEST PUSH1 0x2 DUP4 DUP2 PUSH1 0x4 DUP3 DUP2 SLOAD DUP2 LT PUSH2 0xEDB JUMPI INVALID JUMPDEST SWAP1 PUSH1 0x0 MSTORE PUSH1 0x20 PUSH1 0x0 KECCAK256 SWAP1 PUSH1 0x3 MUL ADD PUSH1 0x2 ADD PUSH1 0x0 SWAP1 SLOAD SWAP1 PUSH2 0x100 EXP SWAP1 DIV PUSH4 0xFFFFFFFF AND PUSH4 0xFFFFFFFF AND LT ISZERO PUSH2 0xF0E JUMPI PUSH1 0x0 DUP1 REVERT JUMPDEST DUP5 PUSH1 0x5 PUSH1 0x0 DUP3 DUP2 MSTORE PUSH1 0x20 ADD SWAP1 DUP2 MSTORE PUSH1 0x20 ADD PUSH1 0x0 KECCAK256 PUSH1 0x0 SWAP1 SLOAD SWAP1 PUSH2 0x100 EXP SWAP1 DIV PUSH20 0xFFFFFFFFFFFFFFFFFFFFFFFFFFFFFFFFFFFFFFFF AND PUSH20 0xFFFFFFFFFFFFFFFFFFFFFFFFFFFFFFFFFFFFFFFF AND CALLER PUSH20 0xFFFFFFFFFFFFFFFFFFFFFFFFFFFFFFFFFFFFFFFF AND EQ PUSH2 0xF7A JUMPI PUSH1 0x0 DUP1 REVERT JUMPDEST DUP5 DUP5 PUSH1 0x4 DUP9 DUP2 SLOAD DUP2 LT PUSH2 0xF89 JUMPI INVALID JUMPDEST SWAP1 PUSH1 0x0 MSTORE PUSH1 0x20 PUSH1 0x0 KECCAK256 SWAP1 PUSH1 0x3 MUL ADD PUSH1 0x0 ADD SWAP2 SWAP1 PUSH2 0xFA7 SWAP3 SWAP2 SWAP1 PUSH2 0x18F0 JUMP JUMPDEST POP POP POP POP POP POP POP JUMP JUMPDEST PUSH2 0xFB8 PUSH2 0xE73 JUMP JUMPDEST PUSH2 0xFC1 JUMPI PUSH1 0x0 DUP1 REVERT JUMPDEST DUP1 PUSH1 0x8 DUP2 SWAP1 SSTORE POP POP JUMP JUMPDEST DUP2 PUSH1 0x5 PUSH1 0x0 DUP3 DUP2 MSTORE PUSH1 0x20 ADD SWAP1 DUP2 MSTORE PUSH1 0x20 ADD PUSH1 0x0 KECCAK256 PUSH1 0x0 SWAP1 SLOAD SWAP1 PUSH2 0x100 EXP SWAP1 DIV PUSH20 0xFFFFFFFFFFFFFFFFFFFFFFFFFFFFFFFFFFFFFFFF AND PUSH20 0xFFFFFFFFFFFFFFFFFFFFFFFFFFFFFFFFFFFFFFFF AND CALLER PUSH20 0xFFFFFFFFFFFFFFFFFFFFFFFFFFFFFFFFFFFFFFFF AND EQ PUSH2 0x1037 JUMPI PUSH1 0x0 DUP1 REVERT JUMPDEST PUSH1 0x0 PUSH1 0x4 DUP5 DUP2 SLOAD DUP2 LT PUSH2 0x1046 JUMPI INVALID JUMPDEST SWAP1 PUSH1 0x0 MSTORE PUSH1 0x20 PUSH1 0x0 KECCAK256 SWAP1 PUSH1 0x3 MUL ADD SWAP1 POP PUSH1 0x0 PUSH1 0x4 DUP5 DUP2 SLOAD DUP2 LT PUSH2 0x1065 JUMPI INVALID JUMPDEST SWAP1 PUSH1 0x0 MSTORE PUSH1 0x20 PUSH1 0x0 KECCAK256 SWAP1 PUSH1 0x3 MUL ADD SWAP1 POP PUSH1 0x0 PUSH2 0x1081 PUSH1 0x64 PUSH2 0x1718 JUMP JUMPDEST SWAP1 POP PUSH1 0xA SLOAD DUP2 GT PUSH2 0x1180 JUMPI DUP3 PUSH1 0x2 ADD PUSH1 0x8 DUP2 DUP2 SWAP1 SLOAD SWAP1 PUSH2 0x100 EXP SWAP1 DIV PUSH2 0xFFFF AND DUP1 SWAP3 SWAP2 SWAP1 PUSH1 0x1 ADD SWAP2 SWAP1 PUSH2 0x100 EXP DUP2 SLOAD DUP2 PUSH2 0xFFFF MUL NOT AND SWAP1 DUP4 PUSH2 0xFFFF AND MUL OR SWAP1 SSTORE POP POP DUP3 PUSH1 0x2 ADD PUSH1 0x0 DUP2 DUP2 SWAP1 SLOAD SWAP1 PUSH2 0x100 EXP SWAP1 DIV PUSH4 0xFFFFFFFF AND DUP1 SWAP3 SWAP2 SWAP1 PUSH1 0x1 ADD SWAP2 SWAP1 PUSH2 0x100 EXP DUP2 SLOAD DUP2 PUSH4 0xFFFFFFFF MUL NOT AND SWAP1 DUP4 PUSH4 0xFFFFFFFF AND MUL OR SWAP1 SSTORE POP POP DUP2 PUSH1 0x2 ADD PUSH1 0xA DUP2 DUP2 SWAP1 SLOAD SWAP1 PUSH2 0x100 EXP SWAP1 DIV PUSH2 0xFFFF AND DUP1 SWAP3 SWAP2 SWAP1 PUSH1 0x1 ADD SWAP2 SWAP1 PUSH2 0x100 EXP DUP2 SLOAD DUP2 PUSH2 0xFFFF MUL NOT AND SWAP1 DUP4 PUSH2 0xFFFF AND MUL OR SWAP1 SSTORE POP POP PUSH2 0x117B DUP7 DUP4 PUSH1 0x1 ADD SLOAD PUSH1 0x40 MLOAD DUP1 PUSH1 0x40 ADD PUSH1 0x40 MSTORE DUP1 PUSH1 0x6 DUP2 MSTORE PUSH1 0x20 ADD PUSH32 0x7A6F6D6269650000000000000000000000000000000000000000000000000000 DUP2 MSTORE POP PUSH2 0x121D JUMP JUMPDEST PUSH2 0x11F8 JUMP JUMPDEST DUP3 PUSH1 0x2 ADD PUSH1 0xA DUP2 DUP2 SWAP1 SLOAD SWAP1 PUSH2 0x100 EXP SWAP1 DIV PUSH2 0xFFFF AND DUP1 SWAP3 SWAP2 SWAP1 PUSH1 0x1 ADD SWAP2 SWAP1 PUSH2 0x100 EXP DUP2 SLOAD DUP2 PUSH2 0xFFFF MUL NOT AND SWAP1 DUP4 PUSH2 0xFFFF AND MUL OR SWAP1 SSTORE POP POP DUP2 PUSH1 0x2 ADD PUSH1 0x8 DUP2 DUP2 SWAP1 SLOAD SWAP1 PUSH2 0x100 EXP SWAP1 DIV PUSH2 0xFFFF AND DUP1 SWAP3 SWAP2 SWAP1 PUSH1 0x1 ADD SWAP2 SWAP1 PUSH2 0x100 EXP DUP2 SLOAD DUP2 PUSH2 0xFFFF MUL NOT AND SWAP1 DUP4 PUSH2 0xFFFF AND MUL OR SWAP1 SSTORE POP POP PUSH2 0x11F7 DUP4 PUSH2 0x17A7 JUMP JUMPDEST JUMPDEST POP POP POP POP POP POP JUMP JUMPDEST PUSH2 0x1208 PUSH2 0xE73 JUMP JUMPDEST PUSH2 0x1211 JUMPI PUSH1 0x0 DUP1 REVERT JUMPDEST PUSH2 0x121A DUP2 PUSH2 0x17D1 JUMP JUMPDEST POP JUMP JUMPDEST DUP3 PUSH1 0x5 PUSH1 0x0 DUP3 DUP2 MSTORE PUSH1 0x20 ADD SWAP1 DUP2 MSTORE PUSH1 0x20 ADD PUSH1 0x0 KECCAK256 PUSH1 0x0 SWAP1 SLOAD SWAP1 PUSH2 0x100 EXP SWAP1 DIV PUSH20 0xFFFFFFFFFFFFFFFFFFFFFFFFFFFFFFFFFFFFFFFF AND PUSH20 0xFFFFFFFFFFFFFFFFFFFFFFFFFFFFFFFFFFFFFFFF AND CALLER PUSH20 0xFFFFFFFFFFFFFFFFFFFFFFFFFFFFFFFFFFFFFFFF AND EQ PUSH2 0x1289 JUMPI PUSH1 0x0 DUP1 REVERT JUMPDEST PUSH1 0x0 PUSH1 0x4 DUP6 DUP2 SLOAD DUP2 LT PUSH2 0x1298 JUMPI INVALID JUMPDEST SWAP1 PUSH1 0x0 MSTORE PUSH1 0x20 PUSH1 0x0 KECCAK256 SWAP1 PUSH1 0x3 MUL ADD SWAP1 POP PUSH2 0x12B1 DUP2 PUSH2 0x18C9 JUMP JUMPDEST PUSH2 0x12BA JUMPI PUSH1 0x0 DUP1 REVERT JUMPDEST PUSH1 0x2 SLOAD DUP5 DUP2 PUSH2 0x12C5 JUMPI INVALID JUMPDEST MOD SWAP4 POP PUSH1 0x0 PUSH1 0x2 DUP6 DUP4 PUSH1 0x1 ADD SLOAD ADD DUP2 PUSH2 0x12DA JUMPI INVALID JUMPDEST DIV SWAP1 POP PUSH1 0x40 MLOAD PUSH1 0x20 ADD DUP1 DUP1 PUSH32 0x6B69747479000000000000000000000000000000000000000000000000000000 DUP2 MSTORE POP PUSH1 0x5 ADD SWAP1 POP PUSH1 0x40 MLOAD PUSH1 0x20 DUP2 DUP4 SUB SUB DUP2 MSTORE SWAP1 PUSH1 0x40 MSTORE DUP1 MLOAD SWAP1 PUSH1 0x20 ADD KECCAK256 DUP5 PUSH1 0x40 MLOAD PUSH1 0x20 ADD DUP1 DUP3 DUP1 MLOAD SWAP1 PUSH1 0x20 ADD SWAP1 DUP1 DUP4 DUP4 JUMPDEST PUSH1 0x20 DUP4 LT PUSH2 0x135B JUMPI DUP1 MLOAD DUP3 MSTORE PUSH1 0x20 DUP3 ADD SWAP2 POP PUSH1 0x20 DUP2 ADD SWAP1 POP PUSH1 0x20 DUP4 SUB SWAP3 POP PUSH2 0x1338 JUMP JUMPDEST PUSH1 0x1 DUP4 PUSH1 0x20 SUB PUSH2 0x100 EXP SUB DUP1 NOT DUP3 MLOAD AND DUP2 DUP5 MLOAD AND DUP1 DUP3 OR DUP6 MSTORE POP POP POP POP POP POP SWAP1 POP ADD SWAP2 POP POP PUSH1 0x40 MLOAD PUSH1 0x20 DUP2 DUP4 SUB SUB DUP2 MSTORE SWAP1 PUSH1 0x40 MSTORE DUP1 MLOAD SWAP1 PUSH1 0x20 ADD KECCAK256 EQ ISZERO PUSH2 0x13AF JUMPI PUSH1 0x63 PUSH1 0x64 DUP3 DUP2 PUSH2 0x13A8 JUMPI INVALID JUMPDEST MOD DUP3 SUB ADD SWAP1 POP JUMPDEST PUSH2 0x13EE PUSH1 0x40 MLOAD DUP1 PUSH1 0x40 ADD PUSH1 0x40 MSTORE DUP1 PUSH1 0x6 DUP2 MSTORE PUSH1 0x20 ADD PUSH32 0x4E6F4E616D650000000000000000000000000000000000000000000000000000 DUP2 MSTORE POP DUP3 PUSH2 0x148D JUMP JUMPDEST PUSH2 0x13F7 DUP3 PUSH2 0x17A7 JUMP JUMPDEST POP POP POP POP POP POP JUMP JUMPDEST PUSH1 0x0 DUP1 DUP3 PUSH1 0x40 MLOAD PUSH1 0x20 ADD DUP1 DUP3 DUP1 MLOAD SWAP1 PUSH1 0x20 ADD SWAP1 DUP1 DUP4 DUP4 JUMPDEST PUSH1 0x20 DUP4 LT PUSH2 0x1439 JUMPI DUP1 MLOAD DUP3 MSTORE PUSH1 0x20 DUP3 ADD SWAP2 POP PUSH1 0x20 DUP2 ADD SWAP1 POP PUSH1 0x20 DUP4 SUB SWAP3 POP PUSH2 0x1416 JUMP JUMPDEST PUSH1 0x1 DUP4 PUSH1 0x20 SUB PUSH2 0x100 EXP SUB DUP1 NOT DUP3 MLOAD AND DUP2 DUP5 MLOAD AND DUP1 DUP3 OR DUP6 MSTORE POP POP POP POP POP POP SWAP1 POP ADD SWAP2 POP POP PUSH1 0x40 MLOAD PUSH1 0x20 DUP2 DUP4 SUB SUB DUP2 MSTORE SWAP1 PUSH1 0x40 MSTORE DUP1 MLOAD SWAP1 PUSH1 0x20 ADD KECCAK256 PUSH1 0x0 SHR SWAP1 POP PUSH1 0x2 SLOAD DUP2 DUP2 PUSH2 0x1484 JUMPI INVALID JUMPDEST MOD SWAP2 POP POP SWAP2 SWAP1 POP JUMP JUMPDEST PUSH1 0x0 PUSH1 0x1 PUSH1 0x4 PUSH1 0x40 MLOAD DUP1 PUSH1 0xC0 ADD PUSH1 0x40 MSTORE DUP1 DUP7 DUP2 MSTORE PUSH1 0x20 ADD DUP6 DUP2 MSTORE PUSH1 0x20 ADD PUSH1 0x1 PUSH4 0xFFFFFFFF AND DUP2 MSTORE PUSH1 0x20 ADD PUSH1 0x3 SLOAD TIMESTAMP ADD PUSH4 0xFFFFFFFF AND DUP2 MSTORE PUSH1 0x20 ADD PUSH1 0x0 PUSH2 0xFFFF AND DUP2 MSTORE PUSH1 0x20 ADD PUSH1 0x0 PUSH2 0xFFFF AND DUP2 MSTORE POP SWAP1 DUP1 PUSH1 0x1 DUP2 SLOAD ADD DUP1 DUP3 SSTORE DUP1 SWAP2 POP POP SWAP1 PUSH1 0x1 DUP3 SUB SWAP1 PUSH1 0x0 MSTORE PUSH1 0x20 PUSH1 0x0 KECCAK256 SWAP1 PUSH1 0x3 MUL ADD PUSH1 0x0 SWAP1 SWAP2 SWAP3 SWAP1 SWAP2 SWAP1 SWAP2 POP PUSH1 0x0 DUP3 ADD MLOAD DUP2 PUSH1 0x0 ADD SWAP1 DUP1 MLOAD SWAP1 PUSH1 0x20 ADD SWAP1 PUSH2 0x1522 SWAP3 SWAP2 SWAP1 PUSH2 0x1970 JUMP JUMPDEST POP PUSH1 0x20 DUP3 ADD MLOAD DUP2 PUSH1 0x1 ADD SSTORE PUSH1 0x40 DUP3 ADD MLOAD DUP2 PUSH1 0x2 ADD PUSH1 0x0 PUSH2 0x100 EXP DUP2 SLOAD DUP2 PUSH4 0xFFFFFFFF MUL NOT AND SWAP1 DUP4 PUSH4 0xFFFFFFFF AND MUL OR SWAP1 SSTORE POP PUSH1 0x60 DUP3 ADD MLOAD DUP2 PUSH1 0x2 ADD PUSH1 0x4 PUSH2 0x100 EXP DUP2 SLOAD DUP2 PUSH4 0xFFFFFFFF MUL NOT AND SWAP1 DUP4 PUSH4 0xFFFFFFFF AND MUL OR SWAP1 SSTORE POP PUSH1 0x80 DUP3 ADD MLOAD DUP2 PUSH1 0x2 ADD PUSH1 0x8 PUSH2 0x100 EXP DUP2 SLOAD DUP2 PUSH2 0xFFFF MUL NOT AND SWAP1 DUP4 PUSH2 0xFFFF AND MUL OR SWAP1 SSTORE POP PUSH1 0xA0 DUP3 ADD MLOAD DUP2 PUSH1 0x2 ADD PUSH1 0xA PUSH2 0x100 EXP DUP2 SLOAD DUP2 PUSH2 0xFFFF MUL NOT AND SWAP1 DUP4 PUSH2 0xFFFF AND MUL OR SWAP1 SSTORE POP POP POP SUB SWAP1 POP CALLER PUSH1 0x5 PUSH1 0x0 DUP4 DUP2 MSTORE PUSH1 0x20 ADD SWAP1 DUP2 MSTORE PUSH1 0x20 ADD PUSH1 0x0 KECCAK256 PUSH1 0x0 PUSH2 0x100 EXP DUP2 SLOAD DUP2 PUSH20 0xFFFFFFFFFFFFFFFFFFFFFFFFFFFFFFFFFFFFFFFF MUL NOT AND SWAP1 DUP4 PUSH20 0xFFFFFFFFFFFFFFFFFFFFFFFFFFFFFFFFFFFFFFFF AND MUL OR SWAP1 SSTORE POP PUSH1 0x6 PUSH1 0x0 CALLER PUSH20 0xFFFFFFFFFFFFFFFFFFFFFFFFFFFFFFFFFFFFFFFF AND PUSH20 0xFFFFFFFFFFFFFFFFFFFFFFFFFFFFFFFFFFFFFFFF AND DUP2 MSTORE PUSH1 0x20 ADD SWAP1 DUP2 MSTORE PUSH1 0x20 ADD PUSH1 0x0 KECCAK256 PUSH1 0x0 DUP2 SLOAD DUP1 SWAP3 SWAP2 SWAP1 PUSH1 0x1 ADD SWAP2 SWAP1 POP SSTORE POP PUSH32 0x88F026AACBBECC90C18411DF4B1185FD8D9BE2470F1962F192BF84A27D0704B7 DUP2 DUP5 DUP5 PUSH1 0x40 MLOAD DUP1 DUP5 DUP2 MSTORE PUSH1 0x20 ADD DUP1 PUSH1 0x20 ADD DUP4 DUP2 MSTORE PUSH1 0x20 ADD DUP3 DUP2 SUB DUP3 MSTORE DUP5 DUP2 DUP2 MLOAD DUP2 MSTORE PUSH1 0x20 ADD SWAP2 POP DUP1 MLOAD SWAP1 PUSH1 0x20 ADD SWAP1 DUP1 DUP4 DUP4 PUSH1 0x0 JUMPDEST DUP4 DUP2 LT ISZERO PUSH2 0x16D7 JUMPI DUP1 DUP3 ADD MLOAD DUP2 DUP5 ADD MSTORE PUSH1 0x20 DUP2 ADD SWAP1 POP PUSH2 0x16BC JUMP JUMPDEST POP POP POP POP SWAP1 POP SWAP1 DUP2 ADD SWAP1 PUSH1 0x1F AND DUP1 ISZERO PUSH2 0x1704 JUMPI DUP1 DUP3 SUB DUP1 MLOAD PUSH1 0x1 DUP4 PUSH1 0x20 SUB PUSH2 0x100 EXP SUB NOT AND DUP2 MSTORE PUSH1 0x20 ADD SWAP2 POP JUMPDEST POP SWAP5 POP POP POP POP POP PUSH1 0x40 MLOAD DUP1 SWAP2 SUB SWAP1 LOG1 POP POP POP JUMP JUMPDEST PUSH1 0x0 PUSH1 0x9 PUSH1 0x0 DUP2 SLOAD DUP1 SWAP3 SWAP2 SWAP1 PUSH1 0x1 ADD SWAP2 SWAP1 POP SSTORE POP DUP2 TIMESTAMP CALLER PUSH1 0x9 SLOAD PUSH1 0x40 MLOAD PUSH1 0x20 ADD DUP1 DUP5 DUP2 MSTORE PUSH1 0x20 ADD DUP4 PUSH20 0xFFFFFFFFFFFFFFFFFFFFFFFFFFFFFFFFFFFFFFFF AND PUSH20 0xFFFFFFFFFFFFFFFFFFFFFFFFFFFFFFFFFFFFFFFF AND PUSH1 0x60 SHL DUP2 MSTORE PUSH1 0x14 ADD DUP3 DUP2 MSTORE PUSH1 0x20 ADD SWAP4 POP POP POP POP PUSH1 0x40 MLOAD PUSH1 0x20 DUP2 DUP4 SUB SUB DUP2 MSTORE SWAP1 PUSH1 0x40 MSTORE DUP1 MLOAD SWAP1 PUSH1 0x20 ADD KECCAK256 PUSH1 0x0 SHR DUP2 PUSH2 0x179F JUMPI INVALID JUMPDEST MOD SWAP1 POP SWAP2 SWAP1 POP JUMP JUMPDEST PUSH1 0x3 SLOAD TIMESTAMP ADD DUP2 PUSH1 0x2 ADD PUSH1 0x4 PUSH2 0x100 EXP DUP2 SLOAD DUP2 PUSH4 0xFFFFFFFF MUL NOT AND SWAP1 DUP4 PUSH4 0xFFFFFFFF AND MUL OR SWAP1 SSTORE POP POP JUMP JUMPDEST PUSH1 0x0 PUSH20 0xFFFFFFFFFFFFFFFFFFFFFFFFFFFFFFFFFFFFFFFF AND DUP2 PUSH20 0xFFFFFFFFFFFFFFFFFFFFFFFFFFFFFFFFFFFFFFFF AND EQ ISZERO PUSH2 0x180B JUMPI PUSH1 0x0 DUP1 REVERT JUMPDEST DUP1 PUSH20 0xFFFFFFFFFFFFFFFFFFFFFFFFFFFFFFFFFFFFFFFF AND PUSH1 0x0 DUP1 SWAP1 SLOAD SWAP1 PUSH2 0x100 EXP SWAP1 DIV PUSH20 0xFFFFFFFFFFFFFFFFFFFFFFFFFFFFFFFFFFFFFFFF AND PUSH20 0xFFFFFFFFFFFFFFFFFFFFFFFFFFFFFFFFFFFFFFFF AND PUSH32 0x8BE0079C531659141344CD1FD0A4F28419497F9722A3DAAFE3B4186F6B6457E0 PUSH1 0x40 MLOAD PUSH1 0x40 MLOAD DUP1 SWAP2 SUB SWAP1 LOG3 DUP1 PUSH1 0x0 DUP1 PUSH2 0x100 EXP DUP2 SLOAD DUP2 PUSH20 0xFFFFFFFFFFFFFFFFFFFFFFFFFFFFFFFFFFFFFFFF MUL NOT AND SWAP1 DUP4 PUSH20 0xFFFFFFFFFFFFFFFFFFFFFFFFFFFFFFFFFFFFFFFF AND MUL OR SWAP1 SSTORE POP POP JUMP JUMPDEST PUSH1 0x0 TIMESTAMP DUP3 PUSH1 0x2 ADD PUSH1 0x4 SWAP1 SLOAD SWAP1 PUSH2 0x100 EXP SWAP1 DIV PUSH4 0xFFFFFFFF AND PUSH4 0xFFFFFFFF AND GT ISZERO SWAP1 POP SWAP2 SWAP1 POP JUMP JUMPDEST DUP3 DUP1 SLOAD PUSH1 0x1 DUP2 PUSH1 0x1 AND ISZERO PUSH2 0x100 MUL SUB AND PUSH1 0x2 SWAP1 DIV SWAP1 PUSH1 0x0 MSTORE PUSH1 0x20 PUSH1 0x0 KECCAK256 SWAP1 PUSH1 0x1F ADD PUSH1 0x20 SWAP1 DIV DUP2 ADD SWAP3 DUP3 PUSH1 0x1F LT PUSH2 0x1931 JUMPI DUP1 CALLDATALOAD PUSH1 0xFF NOT AND DUP4 DUP1 ADD OR DUP6 SSTORE PUSH2 0x195F JUMP JUMPDEST DUP3 DUP1 ADD PUSH1 0x1 ADD DUP6 SSTORE DUP3 ISZERO PUSH2 0x195F JUMPI SWAP2 DUP3 ADD JUMPDEST DUP3 DUP2 GT ISZERO PUSH2 0x195E JUMPI DUP3 CALLDATALOAD DUP3 SSTORE SWAP2 PUSH1 0x20 ADD SWAP2 SWAP1 PUSH1 0x1 ADD SWAP1 PUSH2 0x1943 JUMP JUMPDEST JUMPDEST POP SWAP1 POP PUSH2 0x196C SWAP2 SWAP1 PUSH2 0x19F0 JUMP JUMPDEST POP SWAP1 JUMP JUMPDEST DUP3 DUP1 SLOAD PUSH1 0x1 DUP2 PUSH1 0x1 AND ISZERO PUSH2 0x100 MUL SUB AND PUSH1 0x2 SWAP1 DIV SWAP1 PUSH1 0x0 MSTORE PUSH1 0x20 PUSH1 0x0 KECCAK256 SWAP1 PUSH1 0x1F ADD PUSH1 0x20 SWAP1 DIV DUP2 ADD SWAP3 DUP3 PUSH1 0x1F LT PUSH2 0x19B1 JUMPI DUP1 MLOAD PUSH1 0xFF NOT AND DUP4 DUP1 ADD OR DUP6 SSTORE PUSH2 0x19DF JUMP JUMPDEST DUP3 DUP1 ADD PUSH1 0x1 ADD DUP6 SSTORE DUP3 ISZERO PUSH2 0x19DF JUMPI SWAP2 DUP3 ADD JUMPDEST DUP3 DUP2 GT ISZERO PUSH2 0x19DE JUMPI DUP3 MLOAD DUP3 SSTORE SWAP2 PUSH1 0x20 ADD SWAP2 SWAP1 PUSH1 0x1 ADD SWAP1 PUSH2 0x19C3 JUMP JUMPDEST JUMPDEST POP SWAP1 POP PUSH2 0x19EC SWAP2 SWAP1 PUSH2 0x19F0 JUMP JUMPDEST POP SWAP1 JUMP JUMPDEST PUSH2 0x1A12 SWAP2 SWAP1 JUMPDEST DUP1 DUP3 GT ISZERO PUSH2 0x1A0E JUMPI PUSH1 0x0 DUP2 PUSH1 0x0 SWAP1 SSTORE POP PUSH1 0x1 ADD PUSH2 0x19F6 JUMP JUMPDEST POP SWAP1 JUMP JUMPDEST SWAP1 JUMP INVALID LOG2 PUSH6 0x627A7A723158 KECCAK256 PUSH2 0x9BF8 EXTCODECOPY 0xF7 PUSH18 0xD00EE8C361E40485551909F07C37218DB8F9 0xEE SWAP9 LOG0 DUP6 0xBD 0xE4 PUSH11 0x7E64736F6C634300051100 ORIGIN "
				},
				"gasEstimates": {
					"creation": {
						"codeDepositCost": "1346000",
						"executionCost": "130525",
						"totalCost": "1476525"
					},
					"external": {
						"attack(uint256,uint256)": "infinite",
						"changeDna(uint256,uint256)": "23985",
						"changeName(uint256,string)": "infinite",
						"createRandomZombie(string)": "infinite",
						"feedOnKitty(uint256,uint256)": "infinite",
						"getZombiesByOwner(address)": "infinite",
						"isOwner()": "1167",
						"levelUp(uint256)": "23676",
						"owner()": "1128",
						"renounceOwnership()": "24320",
						"setKittyContractAddress(address)": "22073",
						"setLevelUpFee(uint256)": "21191",
						"transferOwnership(address)": "24542",
						"withdraw()": "infinite",
						"zombieToOwner(uint256)": "1245",
						"zombies(uint256)": "infinite"
					},
					"internal": {
						"randMod(uint256)": "infinite"
					}
				},
				"methodIdentifiers": {
					"attack(uint256,uint256)": "e1fa7638",
					"changeDna(uint256,uint256)": "5faf2880",
					"changeName(uint256,string)": "c39cbef1",
					"createRandomZombie(string)": "7bff0a01",
					"feedOnKitty(uint256,uint256)": "17a7f4cc",
					"getZombiesByOwner(address)": "4412e104",
					"isOwner()": "8f32d59b",
					"levelUp(uint256)": "0ce90ec2",
					"owner()": "8da5cb5b",
					"renounceOwnership()": "715018a6",
					"setKittyContractAddress(address)": "5f4623f1",
					"setLevelUpFee(uint256)": "ccf670f8",
					"transferOwnership(address)": "f2fde38b",
					"withdraw()": "3ccfd60b",
					"zombieToOwner(uint256)": "528b7b8f",
					"zombies(uint256)": "2052465e"
				}
			},
			"storageLayout": {
				"storage": [
					{
						"astId": 52,
						"contract": "contracts/zombieattack.sol:ZombieAttack",
						"label": "_owner",
						"offset": 0,
						"slot": "0",
						"type": "t_address"
					},
					{
						"astId": 571,
						"contract": "contracts/zombieattack.sol:ZombieAttack",
						"label": "dnaDigits",
						"offset": 0,
						"slot": "1",
						"type": "t_uint256"
					},
					{
						"astId": 576,
						"contract": "contracts/zombieattack.sol:ZombieAttack",
						"label": "dnaModulus",
						"offset": 0,
						"slot": "2",
						"type": "t_uint256"
					},
					{
						"astId": 579,
						"contract": "contracts/zombieattack.sol:ZombieAttack",
						"label": "cooldownTime",
						"offset": 0,
						"slot": "3",
						"type": "t_uint256"
					},
					{
						"astId": 595,
						"contract": "contracts/zombieattack.sol:ZombieAttack",
						"label": "zombies",
						"offset": 0,
						"slot": "4",
						"type": "t_array(t_struct(Zombie)592_storage)dyn_storage"
					},
					{
						"astId": 599,
						"contract": "contracts/zombieattack.sol:ZombieAttack",
						"label": "zombieToOwner",
						"offset": 0,
						"slot": "5",
						"type": "t_mapping(t_uint256,t_address)"
					},
					{
						"astId": 603,
						"contract": "contracts/zombieattack.sol:ZombieAttack",
						"label": "ownerZombieCount",
						"offset": 0,
						"slot": "6",
						"type": "t_mapping(t_address,t_uint256)"
					},
					{
						"astId": 741,
						"contract": "contracts/zombieattack.sol:ZombieAttack",
						"label": "kittyContract",
						"offset": 0,
						"slot": "7",
						"type": "t_contract(KittyInterface)737"
					},
					{
						"astId": 909,
						"contract": "contracts/zombieattack.sol:ZombieAttack",
						"label": "levelUpFee",
						"offset": 0,
						"slot": "8",
						"type": "t_uint256"
					},
					{
						"astId": 455,
						"contract": "contracts/zombieattack.sol:ZombieAttack",
						"label": "randNonce",
						"offset": 0,
						"slot": "9",
						"type": "t_uint256"
					},
					{
						"astId": 458,
						"contract": "contracts/zombieattack.sol:ZombieAttack",
						"label": "attackVictoryProbability",
						"offset": 0,
						"slot": "10",
						"type": "t_uint256"
					}
				],
				"types": {
					"t_address": {
						"encoding": "inplace",
						"label": "address",
						"numberOfBytes": "20"
					},
					"t_array(t_struct(Zombie)592_storage)dyn_storage": {
						"base": "t_struct(Zombie)592_storage",
						"encoding": "dynamic_array",
						"label": "struct ZombieFactory.Zombie[]",
						"numberOfBytes": "32"
					},
					"t_contract(KittyInterface)737": {
						"encoding": "inplace",
						"label": "contract KittyInterface",
						"numberOfBytes": "20"
					},
					"t_mapping(t_address,t_uint256)": {
						"encoding": "mapping",
						"key": "t_address",
						"label": "mapping(address => uint256)",
						"numberOfBytes": "32",
						"value": "t_uint256"
					},
					"t_mapping(t_uint256,t_address)": {
						"encoding": "mapping",
						"key": "t_uint256",
						"label": "mapping(uint256 => address)",
						"numberOfBytes": "32",
						"value": "t_address"
					},
					"t_string_storage": {
						"encoding": "bytes",
						"label": "string",
						"numberOfBytes": "32"
					},
					"t_struct(Zombie)592_storage": {
						"encoding": "inplace",
						"label": "struct ZombieFactory.Zombie",
						"members": [
							{
								"astId": 581,
								"contract": "contracts/zombieattack.sol:ZombieAttack",
								"label": "name",
								"offset": 0,
								"slot": "0",
								"type": "t_string_storage"
							},
							{
								"astId": 583,
								"contract": "contracts/zombieattack.sol:ZombieAttack",
								"label": "dna",
								"offset": 0,
								"slot": "1",
								"type": "t_uint256"
							},
							{
								"astId": 585,
								"contract": "contracts/zombieattack.sol:ZombieAttack",
								"label": "level",
								"offset": 0,
								"slot": "2",
								"type": "t_uint32"
							},
							{
								"astId": 587,
								"contract": "contracts/zombieattack.sol:ZombieAttack",
								"label": "readyTime",
								"offset": 4,
								"slot": "2",
								"type": "t_uint32"
							},
							{
								"astId": 589,
								"contract": "contracts/zombieattack.sol:ZombieAttack",
								"label": "winCount",
								"offset": 8,
								"slot": "2",
								"type": "t_uint16"
							},
							{
								"astId": 591,
								"contract": "contracts/zombieattack.sol:ZombieAttack",
								"label": "lossCount",
								"offset": 10,
								"slot": "2",
								"type": "t_uint16"
							}
						],
						"numberOfBytes": "96"
					},
					"t_uint16": {
						"encoding": "inplace",
						"label": "uint16",
						"numberOfBytes": "2"
					},
					"t_uint256": {
						"encoding": "inplace",
						"label": "uint256",
						"numberOfBytes": "32"
					},
					"t_uint32": {
						"encoding": "inplace",
						"label": "uint32",
						"numberOfBytes": "4"
					}
				}
			},
			"userdoc": {
				"methods": {
					"renounceOwnership()": {
						"notice": "Renouncing to ownership will leave the contract without an owner. It will not be possible to call the functions with the `onlyOwner` modifier anymore."
					}
				}
			}
		}
	}
}