{
	"data": {
		"bytecode": {
			"linkReferences": {},
			"object": "60806040526010600155600154600a0a6002556201518060035566038d7ea4c6800060085560006009556046600a55336000806101000a81548173ffffffffffffffffffffffffffffffffffffffff021916908373ffffffffffffffffffffffffffffffffffffffff1602179055506000809054906101000a900473ffffffffffffffffffffffffffffffffffffffff1673ffffffffffffffffffffffffffffffffffffffff16600073ffffffffffffffffffffffffffffffffffffffff167f8be0079c531659141344cd1fd0a4f28419497f9722a3daafe3b4186f6b6457e060405160405180910390a3611a4a806100f96000396000f3fe6080604052600436106100f35760003560e01c8063715018a61161008a578063c39cbef111610059578063c39cbef11461059d578063ccf670f81461062d578063e1fa763814610668578063f2fde38b146106ad576100f3565b8063715018a6146104385780637bff0a011461044f5780638da5cb5b146105175780638f32d59b1461056e576100f3565b80634412e104116100c65780634412e10414610281578063528b7b8f146103275780635f4623f1146103a25780635faf2880146103f3576100f3565b80630ce90ec2146100f857806317a7f4cc146101265780632052465e1461016b5780633ccfd60b1461026a575b600080fd5b6101246004803603602081101561010e57600080fd5b81019080803590602001909291905050506106fe565b005b34801561013257600080fd5b506101696004803603604081101561014957600080fd5b810190808035906020019092919080359060200190929190505050610766565b005b34801561017757600080fd5b506101a46004803603602081101561018e57600080fd5b81019080803590602001909291905050506108f1565b60405180806020018781526020018663ffffffff1663ffffffff1681526020018563ffffffff1663ffffffff1681526020018461ffff1661ffff1681526020018361ffff1661ffff168152602001828103825288818151815260200191508051906020019080838360005b8381101561022a57808201518184015260208101905061020f565b50505050905090810190601f1680156102575780820380516001836020036101000a031916815260200191505b5097505050505050505060405180910390f35b34801561027657600080fd5b5061027f610a0e565b005b34801561028d57600080fd5b506102d0600480360360208110156102a457600080fd5b81019080803573ffffffffffffffffffffffffffffffffffffffff169060200190929190505050610a75565b6040518080602001828103825283818151815260200191508051906020019060200280838360005b838110156103135780820151818401526020810190506102f8565b505050509050019250505060405180910390f35b34801561033357600080fd5b506103606004803603602081101561034a57600080fd5b8101908080359060200190929190505050610ba2565b604051808273ffffffffffffffffffffffffffffffffffffffff1673ffffffffffffffffffffffffffffffffffffffff16815260200191505060405180910390f35b3480156103ae57600080fd5b506103f1600480360360208110156103c557600080fd5b81019080803573ffffffffffffffffffffffffffffffffffffffff169060200190929190505050610bd5565b005b3480156103ff57600080fd5b506104366004803603604081101561041657600080fd5b810190808035906020019092919080359060200190929190505050610c2a565b005b34801561044457600080fd5b5061044d610d04565b005b34801561045b57600080fd5b506105156004803603602081101561047257600080fd5b810190808035906020019064010000000081111561048f57600080fd5b8201836020820111156104a157600080fd5b803590602001918460018302840111640100000000831117156104c357600080fd5b91908080601f016020809104026020016040519081016040528093929190818152602001838380828437600081840152601f19601f820116905080830192505050505050509192919290505050610dd4565b005b34801561052357600080fd5b5061052c610e4a565b604051808273ffffffffffffffffffffffffffffffffffffffff1673ffffffffffffffffffffffffffffffffffffffff16815260200191505060405180910390f35b34801561057a57600080fd5b50610583610e73565b604051808215151515815260200191505060405180910390f35b3480156105a957600080fd5b5061062b600480360360408110156105c057600080fd5b8101908080359060200190929190803590602001906401000000008111156105e757600080fd5b8201836020820111156105f957600080fd5b8035906020019184600183028401116401000000008311171561061b57600080fd5b9091929391929390505050610eca565b005b34801561063957600080fd5b506106666004803603602081101561065057600080fd5b8101908080359060200190929190505050610fb0565b005b34801561067457600080fd5b506106ab6004803603604081101561068b57600080fd5b810190808035906020019092919080359060200190929190505050610fcb565b005b3480156106b957600080fd5b506106fc600480360360208110156106d057600080fd5b81019080803573ffffffffffffffffffffffffffffffffffffffff169060200190929190505050611200565b005b600854341461070c57600080fd5b6004818154811061071957fe5b9060005260206000209060030201600201600081819054906101000a900463ffffffff168092919060010191906101000a81548163ffffffff021916908363ffffffff1602179055505050565b6000600760009054906101000a900473ffffffffffffffffffffffffffffffffffffffff1673ffffffffffffffffffffffffffffffffffffffff1663e98b7f4d836040518263ffffffff1660e01b8152600401808281526020019150506101406040518083038186803b1580156107dc57600080fd5b505afa1580156107f0573d6000803e3d6000fd5b505050506040513d61014081101561080757600080fd5b8101908080519060200190929190805190602001909291908051906020019092919080519060200190929190805190602001909291908051906020019092919080519060200190929190805190602001909291908051906020019092919080519060200190929190505050909192939495969798509091929394959697509091929394959650909192939495509091929394509091929350909192509091509050809150506108ec83826040518060400160405280600581526020017f6b6974747900000000000000000000000000000000000000000000000000000081525061121d565b505050565b600481815481106108fe57fe5b9060005260206000209060030201600091509050806000018054600181600116156101000203166002900480601f0160208091040260200160405190810160405280929190818152602001828054600181600116156101000203166002900480156109aa5780601f1061097f576101008083540402835291602001916109aa565b820191906000526020600020905b81548152906001019060200180831161098d57829003601f168201915b5050505050908060010154908060020160009054906101000a900463ffffffff16908060020160049054906101000a900463ffffffff16908060020160089054906101000a900461ffff169080600201600a9054906101000a900461ffff16905086565b610a16610e73565b610a1f57600080fd5b6000610a29610e4a565b90508073ffffffffffffffffffffffffffffffffffffffff166108fc479081150290604051600060405180830381858888f19350505050158015610a71573d6000803e3d6000fd5b5050565b606080600660008473ffffffffffffffffffffffffffffffffffffffff1673ffffffffffffffffffffffffffffffffffffffff16815260200190815260200160002054604051908082528060200260200182016040528015610ae65781602001602082028038833980820191505090505b509050600080905060008090505b600480549050811015610b97578473ffffffffffffffffffffffffffffffffffffffff166005600083815260200190815260200160002060009054906101000a900473ffffffffffffffffffffffffffffffffffffffff1673ffffffffffffffffffffffffffffffffffffffff161415610b8a5780838381518110610b7557fe5b60200260200101818152505081806001019250505b8080600101915050610af4565b508192505050919050565b60056020528060005260406000206000915054906101000a900473ffffffffffffffffffffffffffffffffffffffff1681565b610bdd610e73565b610be657600080fd5b80600760006101000a81548173ffffffffffffffffffffffffffffffffffffffff021916908373ffffffffffffffffffffffffffffffffffffffff16021790555050565b6014828160048281548110610c3b57fe5b906000526020600020906003020160020160009054906101000a900463ffffffff1663ffffffff161015610c6e57600080fd5b836005600082815260200190815260200160002060009054906101000a900473ffffffffffffffffffffffffffffffffffffffff1673ffffffffffffffffffffffffffffffffffffffff163373ffffffffffffffffffffffffffffffffffffffff1614610cda57600080fd5b8360048681548110610ce857fe5b9060005260206000209060030201600101819055505050505050565b610d0c610e73565b610d1557600080fd5b600073ffffffffffffffffffffffffffffffffffffffff166000809054906101000a900473ffffffffffffffffffffffffffffffffffffffff1673ffffffffffffffffffffffffffffffffffffffff167f8be0079c531659141344cd1fd0a4f28419497f9722a3daafe3b4186f6b6457e060405160405180910390a360008060006101000a81548173ffffffffffffffffffffffffffffffffffffffff021916908373ffffffffffffffffffffffffffffffffffffffff160217905550565b6000600660003373ffffffffffffffffffffffffffffffffffffffff1673ffffffffffffffffffffffffffffffffffffffff1681526020019081526020016000205414610e2057600080fd5b6000610e2b826113ff565b905060648181610e3757fe5b0681039050610e46828261148d565b5050565b60008060009054906101000a900473ffffffffffffffffffffffffffffffffffffffff16905090565b60008060009054906101000a900473ffffffffffffffffffffffffffffffffffffffff1673ffffffffffffffffffffffffffffffffffffffff163373ffffffffffffffffffffffffffffffffffffffff1614905090565b6002838160048281548110610edb57fe5b906000526020600020906003020160020160009054906101000a900463ffffffff1663ffffffff161015610f0e57600080fd5b846005600082815260200190815260200160002060009054906101000a900473ffffffffffffffffffffffffffffffffffffffff1673ffffffffffffffffffffffffffffffffffffffff163373ffffffffffffffffffffffffffffffffffffffff1614610f7a57600080fd5b848460048881548110610f8957fe5b90600052602060002090600302016000019190610fa79291906118f0565b50505050505050565b610fb8610e73565b610fc157600080fd5b8060088190555050565b816005600082815260200190815260200160002060009054906101000a900473ffffffffffffffffffffffffffffffffffffffff1673ffffffffffffffffffffffffffffffffffffffff163373ffffffffffffffffffffffffffffffffffffffff161461103757600080fd5b60006004848154811061104657fe5b9060005260206000209060030201905060006004848154811061106557fe5b9060005260206000209060030201905060006110816064611718565b9050600a5481116111805782600201600881819054906101000a900461ffff168092919060010191906101000a81548161ffff021916908361ffff1602179055505082600201600081819054906101000a900463ffffffff168092919060010191906101000a81548163ffffffff021916908363ffffffff1602179055505081600201600a81819054906101000a900461ffff168092919060010191906101000a81548161ffff021916908361ffff1602179055505061117b8683600101546040518060400160405280600681526020017f7a6f6d626965000000000000000000000000000000000000000000000000000081525061121d565b6111f8565b82600201600a81819054906101000a900461ffff168092919060010191906101000a81548161ffff021916908361ffff1602179055505081600201600881819054906101000a900461ffff168092919060010191906101000a81548161ffff021916908361ffff160217905550506111f7836117a7565b5b505050505050565b611208610e73565b61121157600080fd5b61121a816117d1565b50565b826005600082815260200190815260200160002060009054906101000a900473ffffffffffffffffffffffffffffffffffffffff1673ffffffffffffffffffffffffffffffffffffffff163373ffffffffffffffffffffffffffffffffffffffff161461128957600080fd5b60006004858154811061129857fe5b906000526020600020906003020190506112b1816118c9565b6112ba57600080fd5b60025484816112c557fe5b0693506000600285836001015401816112da57fe5b04905060405160200180807f6b69747479000000000000000000000000000000000000000000000000000000815250600501905060405160208183030381529060405280519060200120846040516020018082805190602001908083835b6020831061135b5780518252602082019150602081019050602083039250611338565b6001836020036101000a0380198251168184511680821785525050505050509050019150506040516020818303038152906040528051906020012014156113af576063606482816113a857fe5b0682030190505b6113ee6040518060400160405280600681526020017f4e6f4e616d6500000000000000000000000000000000000000000000000000008152508261148d565b6113f7826117a7565b505050505050565b600080826040516020018082805190602001908083835b602083106114395780518252602082019150602081019050602083039250611416565b6001836020036101000a0380198251168184511680821785525050505050509050019150506040516020818303038152906040528051906020012060001c9050600254818161148457fe5b06915050919050565b6000600160046040518060c00160405280868152602001858152602001600163ffffffff168152602001600354420163ffffffff168152602001600061ffff168152602001600061ffff16815250908060018154018082558091505090600182039060005260206000209060030201600090919290919091506000820151816000019080519060200190611522929190611970565b506020820151816001015560408201518160020160006101000a81548163ffffffff021916908363ffffffff16021790555060608201518160020160046101000a81548163ffffffff021916908363ffffffff16021790555060808201518160020160086101000a81548161ffff021916908361ffff16021790555060a082015181600201600a6101000a81548161ffff021916908361ffff1602179055505050039050336005600083815260200190815260200160002060006101000a81548173ffffffffffffffffffffffffffffffffffffffff021916908373ffffffffffffffffffffffffffffffffffffffff160217905550600660003373ffffffffffffffffffffffffffffffffffffffff1673ffffffffffffffffffffffffffffffffffffffff168152602001908152602001600020600081548092919060010191905055507f88f026aacbbecc90c18411df4b1185fd8d9be2470f1962f192bf84a27d0704b78184846040518084815260200180602001838152602001828103825284818151815260200191508051906020019080838360005b838110156116d75780820151818401526020810190506116bc565b50505050905090810190601f1680156117045780820380516001836020036101000a031916815260200191505b5094505050505060405180910390a1505050565b6000600960008154809291906001019190505550814233600954604051602001808481526020018373ffffffffffffffffffffffffffffffffffffffff1673ffffffffffffffffffffffffffffffffffffffff1660601b815260140182815260200193505050506040516020818303038152906040528051906020012060001c8161179f57fe5b069050919050565b60035442018160020160046101000a81548163ffffffff021916908363ffffffff16021790555050565b600073ffffffffffffffffffffffffffffffffffffffff168173ffffffffffffffffffffffffffffffffffffffff16141561180b57600080fd5b8073ffffffffffffffffffffffffffffffffffffffff166000809054906101000a900473ffffffffffffffffffffffffffffffffffffffff1673ffffffffffffffffffffffffffffffffffffffff167f8be0079c531659141344cd1fd0a4f28419497f9722a3daafe3b4186f6b6457e060405160405180910390a3806000806101000a81548173ffffffffffffffffffffffffffffffffffffffff021916908373ffffffffffffffffffffffffffffffffffffffff16021790555050565b6000428260020160049054906101000a900463ffffffff1663ffffffff1611159050919050565b828054600181600116156101000203166002900490600052602060002090601f016020900481019282601f1061193157803560ff191683800117855561195f565b8280016001018555821561195f579182015b8281111561195e578235825591602001919060010190611943565b5b50905061196c91906119f0565b5090565b828054600181600116156101000203166002900490600052602060002090601f016020900481019282601f106119b157805160ff19168380011785556119df565b828001600101855582156119df579182015b828111156119de5782518255916020019190600101906119c3565b5b5090506119ec91906119f0565b5090565b611a1291905b80821115611a0e5760008160009055506001016119f6565b5090565b9056fea265627a7a72315820619bf83cf771d00ee8c361e40485551909f07c37218db8f9ee98a085bde46a7e64736f6c63430005110032",
			"opcodes": "PUSH1 0x80 PUSH1 0x40 MSTORE PUSH1 0x10 PUSH1 0x1 SSTORE PUSH1 0x1 SLOAD PUSH1 0xA EXP PUSH1 0x2 SSTORE PUSH3 0x15180 PUSH1 0x3 SSTORE PUSH7 0x38D7EA4C68000 PUSH1 0x8 SSTORE PUSH1 0x0 PUSH1 0x9 SSTORE PUSH1 0x46 PUSH1 0xA SSTORE CALLER PUSH1 0x0 DUP1 PUSH2 0x100 EXP DUP2 SLOAD DUP2 PUSH20 0xFFFFFFFFFFFFFFFFFFFFFFFFFFFFFFFFFFFFFFFF MUL NOT AND SWAP1 DUP4 PUSH20 0xFFFFFFFFFFFFFFFFFFFFFFFFFFFFFFFFFFFFFFFF AND MUL OR SWAP1 SSTORE POP PUSH1 0x0 DUP1 SWAP1 SLOAD SWAP1 PUSH2 0x100 EXP SWAP1 DIV PUSH20 0xFFFFFFFFFFFFFFFFFFFFFFFFFFFFFFFFFFFFFFFF AND PUSH20 0xFFFFFFFFFFFFFFFFFFFFFFFFFFFFFFFFFFFFFFFF AND PUSH1 0x0 PUSH20 0xFFFFFFFFFFFFFFFFFFFFFFFFFFFFFFFFFFFFFFFF AND PUSH32 0x8BE0079C531659141344CD1FD0A4F28419497F9722A3DAAFE3B4186F6B6457E0 PUSH1 0x40 MLOAD PUSH1 0x40 MLOAD DUP1 SWAP2 SUB SWAP1 LOG3 PUSH2 0x1A4A DUP1 PUSH2 0xF9 PUSH1 0x0 CODECOPY PUSH1 0x0 RETURN INVALID PUSH1 0x80 PUSH1 0x40 MSTORE PUSH1 0x4 CALLDATASIZE LT PUSH2 0xF3 JUMPI PUSH1 0x0 CALLDATALOAD PUSH1 0xE0 SHR DUP1 PUSH4 0x715018A6 GT PUSH2 0x8A JUMPI DUP1 PUSH4 0xC39CBEF1 GT PUSH2 0x59 JUMPI DUP1 PUSH4 0xC39CBEF1 EQ PUSH2 0x59D JUMPI DUP1 PUSH4 0xCCF670F8 EQ PUSH2 0x62D JUMPI DUP1 PUSH4 0xE1FA7638 EQ PUSH2 0x668 JUMPI DUP1 PUSH4 0xF2FDE38B EQ PUSH2 0x6AD JUMPI PUSH2 0xF3 JUMP JUMPDEST DUP1 PUSH4 0x715018A6 EQ PUSH2 0x438 JUMPI DUP1 PUSH4 0x7BFF0A01 EQ PUSH2 0x44F JUMPI DUP1 PUSH4 0x8DA5CB5B EQ PUSH2 0x517 JUMPI DUP1 PUSH4 0x8F32D59B EQ PUSH2 0x56E JUMPI PUSH2 0xF3 JUMP JUMPDEST DUP1 PUSH4 0x4412E104 GT PUSH2 0xC6 JUMPI DUP1 PUSH4 0x4412E104 EQ PUSH2 0x281 JUMPI DUP1 PUSH4 0x528B7B8F EQ PUSH2 0x327 JUMPI DUP1 PUSH4 0x5F4623F1 EQ PUSH2 0x3A2 JUMPI DUP1 PUSH4 0x5FAF2880 EQ PUSH2 0x3F3 JUMPI PUSH2 0xF3 JUMP JUMPDEST DUP1 PUSH4 0xCE90EC2 EQ PUSH2 0xF8 JUMPI DUP1 PUSH4 0x17A7F4CC EQ PUSH2 0x126 JUMPI DUP1 PUSH4 0x2052465E EQ PUSH2 0x16B JUMPI DUP1 PUSH4 0x3CCFD60B EQ PUSH2 0x26A JUMPI JUMPDEST PUSH1 0x0 DUP1 REVERT JUMPDEST PUSH2 0x124 PUSH1 0x4 DUP1 CALLDATASIZE SUB PUSH1 0x20 DUP2 LT ISZERO PUSH2 0x10E JUMPI PUSH1 0x0 DUP1 REVERT JUMPDEST DUP2 ADD SWAP1 DUP1 DUP1 CALLDATALOAD SWAP1 PUSH1 0x20 ADD SWAP1 SWAP3 SWAP2 SWAP1 POP POP POP PUSH2 0x6FE JUMP JUMPDEST STOP JUMPDEST CALLVALUE DUP1 ISZERO PUSH2 0x132 JUMPI PUSH1 0x0 DUP1 REVERT JUMPDEST POP PUSH2 0x169 PUSH1 0x4 DUP1 CALLDATASIZE SUB PUSH1 0x40 DUP2 LT ISZERO PUSH2 0x149 JUMPI PUSH1 0x0 DUP1 REVERT JUMPDEST DUP2 ADD SWAP1 DUP1 DUP1 CALLDATALOAD SWAP1 PUSH1 0x20 ADD SWAP1 SWAP3 SWAP2 SWAP1 DUP1 CALLDATALOAD SWAP1 PUSH1 0x20 ADD SWAP1 SWAP3 SWAP2 SWAP1 POP POP POP PUSH2 0x766 JUMP JUMPDEST STOP JUMPDEST CALLVALUE DUP1 ISZERO PUSH2 0x177 JUMPI PUSH1 0x0 DUP1 REVERT JUMPDEST POP PUSH2 0x1A4 PUSH1 0x4 DUP1 CALLDATASIZE SUB PUSH1 0x20 DUP2 LT ISZERO PUSH2 0x18E JUMPI PUSH1 0x0 DUP1 REVERT JUMPDEST DUP2 ADD SWAP1 DUP1 DUP1 CALLDATALOAD SWAP1 PUSH1 0x20 ADD SWAP1 SWAP3 SWAP2 SWAP1 POP POP POP PUSH2 0x8F1 JUMP JUMPDEST PUSH1 0x40 MLOAD DUP1 DUP1 PUSH1 0x20 ADD DUP8 DUP2 MSTORE PUSH1 0x20 ADD DUP7 PUSH4 0xFFFFFFFF AND PUSH4 0xFFFFFFFF AND DUP2 MSTORE PUSH1 0x20 ADD DUP6 PUSH4 0xFFFFFFFF AND PUSH4 0xFFFFFFFF AND DUP2 MSTORE PUSH1 0x20 ADD DUP5 PUSH2 0xFFFF AND PUSH2 0xFFFF AND DUP2 MSTORE PUSH1 0x20 ADD DUP4 PUSH2 0xFFFF AND PUSH2 0xFFFF AND DUP2 MSTORE PUSH1 0x20 ADD DUP3 DUP2 SUB DUP3 MSTORE DUP9 DUP2 DUP2 MLOAD DUP2 MSTORE PUSH1 0x20 ADD SWAP2 POP DUP1 MLOAD SWAP1 PUSH1 0x20 ADD SWAP1 DUP1 DUP4 DUP4 PUSH1 0x0 JUMPDEST DUP4 DUP2 LT ISZERO PUSH2 0x22A JUMPI DUP1 DUP3 ADD MLOAD DUP2 DUP5 ADD MSTORE PUSH1 0x20 DUP2 ADD SWAP1 POP PUSH2 0x20F JUMP JUMPDEST POP POP POP POP SWAP1 POP SWAP1 DUP2 ADD SWAP1 PUSH1 0x1F AND DUP1 ISZERO PUSH2 0x257 JUMPI DUP1 DUP3 SUB DUP1 MLOAD PUSH1 0x1 DUP4 PUSH1 0x20 SUB PUSH2 0x100 EXP SUB NOT AND DUP2 MSTORE PUSH1 0x20 ADD SWAP2 POP JUMPDEST POP SWAP8 POP POP POP POP POP POP POP POP PUSH1 0x40 MLOAD DUP1 SWAP2 SUB SWAP1 RETURN JUMPDEST CALLVALUE DUP1 ISZERO PUSH2 0x276 JUMPI PUSH1 0x0 DUP1 REVERT JUMPDEST POP PUSH2 0x27F PUSH2 0xA0E JUMP JUMPDEST STOP JUMPDEST CALLVALUE DUP1 ISZERO PUSH2 0x28D JUMPI PUSH1 0x0 DUP1 REVERT JUMPDEST POP PUSH2 0x2D0 PUSH1 0x4 DUP1 CALLDATASIZE SUB PUSH1 0x20 DUP2 LT ISZERO PUSH2 0x2A4 JUMPI PUSH1 0x0 DUP1 REVERT JUMPDEST DUP2 ADD SWAP1 DUP1 DUP1 CALLDATALOAD PUSH20 0xFFFFFFFFFFFFFFFFFFFFFFFFFFFFFFFFFFFFFFFF AND SWAP1 PUSH1 0x20 ADD SWAP1 SWAP3 SWAP2 SWAP1 POP POP POP PUSH2 0xA75 JUMP JUMPDEST PUSH1 0x40 MLOAD DUP1 DUP1 PUSH1 0x20 ADD DUP3 DUP2 SUB DUP3 MSTORE DUP4 DUP2 DUP2 MLOAD DUP2 MSTORE PUSH1 0x20 ADD SWAP2 POP DUP1 MLOAD SWAP1 PUSH1 0x20 ADD SWAP1 PUSH1 0x20 MUL DUP1 DUP4 DUP4 PUSH1 0x0 JUMPDEST DUP4 DUP2 LT ISZERO PUSH2 0x313 JUMPI DUP1 DUP3 ADD MLOAD DUP2 DUP5 ADD MSTORE PUSH1 0x20 DUP2 ADD SWAP1 POP PUSH2 0x2F8 JUMP JUMPDEST POP POP POP POP SWAP1 POP ADD SWAP3 POP POP POP PUSH1 0x40 MLOAD DUP1 SWAP2 SUB SWAP1 RETURN JUMPDEST CALLVALUE DUP1 ISZERO PUSH2 0x333 JUMPI PUSH1 0x0 DUP1 REVERT JUMPDEST POP PUSH2 0x360 PUSH1 0x4 DUP1 CALLDATASIZE SUB PUSH1 0x20 DUP2 LT ISZERO PUSH2 0x34A JUMPI PUSH1 0x0 DUP1 REVERT JUMPDEST DUP2 ADD SWAP1 DUP1 DUP1 CALLDATALOAD SWAP1 PUSH1 0x20 ADD SWAP1 SWAP3 SWAP2 SWAP1 POP POP POP PUSH2 0xBA2 JUMP JUMPDEST PUSH1 0x40 MLOAD DUP1 DUP3 PUSH20 0xFFFFFFFFFFFFFFFFFFFFFFFFFFFFFFFFFFFFFFFF AND PUSH20 0xFFFFFFFFFFFFFFFFFFFFFFFFFFFFFFFFFFFFFFFF AND DUP2 MSTORE PUSH1 0x20 ADD SWAP2 POP POP PUSH1 0x40 MLOAD DUP1 SWAP2 SUB SWAP1 RETURN JUMPDEST CALLVALUE DUP1 ISZERO PUSH2 0x3AE JUMPI PUSH1 0x0 DUP1 REVERT JUMPDEST POP PUSH2 0x3F1 PUSH1 0x4 DUP1 CALLDATASIZE SUB PUSH1 0x20 DUP2 LT ISZERO PUSH2 0x3C5 JUMPI PUSH1 0x0 DUP1 REVERT JUMPDEST DUP2 ADD SWAP1 DUP1 DUP1 CALLDATALOAD PUSH20 0xFFFFFFFFFFFFFFFFFFFFFFFFFFFFFFFFFFFFFFFF AND SWAP1 PUSH1 0x20 ADD SWAP1 SWAP3 SWAP2 SWAP1 POP POP POP PUSH2 0xBD5 JUMP JUMPDEST STOP JUMPDEST CALLVALUE DUP1 ISZERO PUSH2 0x3FF JUMPI PUSH1 0x0 DUP1 REVERT JUMPDEST POP PUSH2 0x436 PUSH1 0x4 DUP1 CALLDATASIZE SUB PUSH1 0x40 DUP2 LT ISZERO PUSH2 0x416 JUMPI PUSH1 0x0 DUP1 REVERT JUMPDEST DUP2 ADD SWAP1 DUP1 DUP1 CALLDATALOAD SWAP1 PUSH1 0x20 ADD SWAP1 SWAP3 SWAP2 SWAP1 DUP1 CALLDATALOAD SWAP1 PUSH1 0x20 ADD SWAP1 SWAP3 SWAP2 SWAP1 POP POP POP PUSH2 0xC2A JUMP JUMPDEST STOP JUMPDEST CALLVALUE DUP1 ISZERO PUSH2 0x444 JUMPI PUSH1 0x0 DUP1 REVERT JUMPDEST POP PUSH2 0x44D PUSH2 0xD04 JUMP JUMPDEST STOP JUMPDEST CALLVALUE DUP1 ISZERO PUSH2 0x45B JUMPI PUSH1 0x0 DUP1 REVERT JUMPDEST POP PUSH2 0x515 PUSH1 0x4 DUP1 CALLDATASIZE SUB PUSH1 0x20 DUP2 LT ISZERO PUSH2 0x472 JUMPI PUSH1 0x0 DUP1 REVERT JUMPDEST DUP2 ADD SWAP1 DUP1 DUP1 CALLDATALOAD SWAP1 PUSH1 0x20 ADD SWAP1 PUSH5 0x100000000 DUP2 GT ISZERO PUSH2 0x48F JUMPI PUSH1 0x0 DUP1 REVERT JUMPDEST DUP3 ADD DUP4 PUSH1 0x20 DUP3 ADD GT ISZERO PUSH2 0x4A1 JUMPI PUSH1 0x0 DUP1 REVERT JUMPDEST DUP1 CALLDATALOAD SWAP1 PUSH1 0x20 ADD SWAP2 DUP5 PUSH1 0x1 DUP4 MUL DUP5 ADD GT PUSH5 0x100000000 DUP4 GT OR ISZERO PUSH2 0x4C3 JUMPI PUSH1 0x0 DUP1 REVERT JUMPDEST SWAP2 SWAP1 DUP1 DUP1 PUSH1 0x1F ADD PUSH1 0x20 DUP1 SWAP2 DIV MUL PUSH1 0x20 ADD PUSH1 0x40 MLOAD SWAP1 DUP2 ADD PUSH1 0x40 MSTORE DUP1 SWAP4 SWAP3 SWAP2 SWAP1 DUP2 DUP2 MSTORE PUSH1 0x20 ADD DUP4 DUP4 DUP1 DUP3 DUP5 CALLDATACOPY PUSH1 0x0 DUP2 DUP5 ADD MSTORE PUSH1 0x1F NOT PUSH1 0x1F DUP3 ADD AND SWAP1 POP DUP1 DUP4 ADD SWAP3 POP POP POP POP POP POP POP SWAP2 SWAP3 SWAP2 SWAP3 SWAP1 POP POP POP PUSH2 0xDD4 JUMP JUMPDEST STOP JUMPDEST CALLVALUE DUP1 ISZERO PUSH2 0x523 JUMPI PUSH1 0x0 DUP1 REVERT JUMPDEST POP PUSH2 0x52C PUSH2 0xE4A JUMP JUMPDEST PUSH1 0x40 MLOAD DUP1 DUP3 PUSH20 0xFFFFFFFFFFFFFFFFFFFFFFFFFFFFFFFFFFFFFFFF AND PUSH20 0xFFFFFFFFFFFFFFFFFFFFFFFFFFFFFFFFFFFFFFFF AND DUP2 MSTORE PUSH1 0x20 ADD SWAP2 POP POP PUSH1 0x40 MLOAD DUP1 SWAP2 SUB SWAP1 RETURN JUMPDEST CALLVALUE DUP1 ISZERO PUSH2 0x57A JUMPI PUSH1 0x0 DUP1 REVERT JUMPDEST POP PUSH2 0x583 PUSH2 0xE73 JUMP JUMPDEST PUSH1 0x40 MLOAD DUP1 DUP3 ISZERO ISZERO ISZERO ISZERO DUP2 MSTORE PUSH1 0x20 ADD SWAP2 POP POP PUSH1 0x40 MLOAD DUP1 SWAP2 SUB SWAP1 RETURN JUMPDEST CALLVALUE DUP1 ISZERO PUSH2 0x5A9 JUMPI PUSH1 0x0 DUP1 REVERT JUMPDEST POP PUSH2 0x62B PUSH1 0x4 DUP1 CALLDATASIZE SUB PUSH1 0x40 DUP2 LT ISZERO PUSH2 0x5C0 JUMPI PUSH1 0x0 DUP1 REVERT JUMPDEST DUP2 ADD SWAP1 DUP1 DUP1 CALLDATALOAD SWAP1 PUSH1 0x20 ADD SWAP1 SWAP3 SWAP2 SWAP1 DUP1 CALLDATALOAD SWAP1 PUSH1 0x20 ADD SWAP1 PUSH5 0x100000000 DUP2 GT ISZERO PUSH2 0x5E7 JUMPI PUSH1 0x0 DUP1 REVERT JUMPDEST DUP3 ADD DUP4 PUSH1 0x20 DUP3 ADD GT ISZERO PUSH2 0x5F9 JUMPI PUSH1 0x0 DUP1 REVERT JUMPDEST DUP1 CALLDATALOAD SWAP1 PUSH1 0x20 ADD SWAP2 DUP5 PUSH1 0x1 DUP4 MUL DUP5 ADD GT PUSH5 0x100000000 DUP4 GT OR ISZERO PUSH2 0x61B JUMPI PUSH1 0x0 DUP1 REVERT JUMPDEST SWAP1 SWAP2 SWAP3 SWAP4 SWAP2 SWAP3 SWAP4 SWAP1 POP POP POP PUSH2 0xECA JUMP JUMPDEST STOP JUMPDEST CALLVALUE DUP1 ISZERO PUSH2 0x639 JUMPI PUSH1 0x0 DUP1 REVERT JUMPDEST POP PUSH2 0x666 PUSH1 0x4 DUP1 CALLDATASIZE SUB PUSH1 0x20 DUP2 LT ISZERO PUSH2 0x650 JUMPI PUSH1 0x0 DUP1 REVERT JUMPDEST DUP2 ADD SWAP1 DUP1 DUP1 CALLDATALOAD SWAP1 PUSH1 0x20 ADD SWAP1 SWAP3 SWAP2 SWAP1 POP POP POP PUSH2 0xFB0 JUMP JUMPDEST STOP JUMPDEST CALLVALUE DUP1 ISZERO PUSH2 0x674 JUMPI PUSH1 0x0 DUP1 REVERT JUMPDEST POP PUSH2 0x6AB PUSH1 0x4 DUP1 CALLDATASIZE SUB PUSH1 0x40 DUP2 LT ISZERO PUSH2 0x68B JUMPI PUSH1 0x0 DUP1 REVERT JUMPDEST DUP2 ADD SWAP1 DUP1 DUP1 CALLDATALOAD SWAP1 PUSH1 0x20 ADD SWAP1 SWAP3 SWAP2 SWAP1 DUP1 CALLDATALOAD SWAP1 PUSH1 0x20 ADD SWAP1 SWAP3 SWAP2 SWAP1 POP POP POP PUSH2 0xFCB JUMP JUMPDEST STOP JUMPDEST CALLVALUE DUP1 ISZERO PUSH2 0x6B9 JUMPI PUSH1 0x0 DUP1 REVERT JUMPDEST POP PUSH2 0x6FC PUSH1 0x4 DUP1 CALLDATASIZE SUB PUSH1 0x20 DUP2 LT ISZERO PUSH2 0x6D0 JUMPI PUSH1 0x0 DUP1 REVERT JUMPDEST DUP2 ADD SWAP1 DUP1 DUP1 CALLDATALOAD PUSH20 0xFFFFFFFFFFFFFFFFFFFFFFFFFFFFFFFFFFFFFFFF AND SWAP1 PUSH1 0x20 ADD SWAP1 SWAP3 SWAP2 SWAP1 POP POP POP PUSH2 0x1200 JUMP JUMPDEST STOP JUMPDEST PUSH1 0x8 SLOAD CALLVALUE EQ PUSH2 0x70C JUMPI PUSH1 0x0 DUP1 REVERT JUMPDEST PUSH1 0x4 DUP2 DUP2 SLOAD DUP2 LT PUSH2 0x719 JUMPI INVALID JUMPDEST SWAP1 PUSH1 0x0 MSTORE PUSH1 0x20 PUSH1 0x0 KECCAK256 SWAP1 PUSH1 0x3 MUL ADD PUSH1 0x2 ADD PUSH1 0x0 DUP2 DUP2 SWAP1 SLOAD SWAP1 PUSH2 0x100 EXP SWAP1 DIV PUSH4 0xFFFFFFFF AND DUP1 SWAP3 SWAP2 SWAP1 PUSH1 0x1 ADD SWAP2 SWAP1 PUSH2 0x100 EXP DUP2 SLOAD DUP2 PUSH4 0xFFFFFFFF MUL NOT AND SWAP1 DUP4 PUSH4 0xFFFFFFFF AND MUL OR SWAP1 SSTORE POP POP POP JUMP JUMPDEST PUSH1 0x0 PUSH1 0x7 PUSH1 0x0 SWAP1 SLOAD SWAP1 PUSH2 0x100 EXP SWAP1 DIV PUSH20 0xFFFFFFFFFFFFFFFFFFFFFFFFFFFFFFFFFFFFFFFF AND PUSH20 0xFFFFFFFFFFFFFFFFFFFFFFFFFFFFFFFFFFFFFFFF AND PUSH4 0xE98B7F4D DUP4 PUSH1 0x40 MLOAD DUP3 PUSH4 0xFFFFFFFF AND PUSH1 0xE0 SHL DUP2 MSTORE PUSH1 0x4 ADD DUP1 DUP3 DUP2 MSTORE PUSH1 0x20 ADD SWAP2 POP POP PUSH2 0x140 PUSH1 0x40 MLOAD DUP1 DUP4 SUB DUP2 DUP7 DUP1 EXTCODESIZE ISZERO DUP1 ISZERO PUSH2 0x7DC JUMPI PUSH1 0x0 DUP1 REVERT JUMPDEST POP GAS STATICCALL ISZERO DUP1 ISZERO PUSH2 0x7F0 JUMPI RETURNDATASIZE PUSH1 0x0 DUP1 RETURNDATACOPY RETURNDATASIZE PUSH1 0x0 REVERT JUMPDEST POP POP POP POP PUSH1 0x40 MLOAD RETURNDATASIZE PUSH2 0x140 DUP2 LT ISZERO PUSH2 0x807 JUMPI PUSH1 0x0 DUP1 REVERT JUMPDEST DUP2 ADD SWAP1 DUP1 DUP1 MLOAD SWAP1 PUSH1 0x20 ADD SWAP1 SWAP3 SWAP2 SWAP1 DUP1 MLOAD SWAP1 PUSH1 0x20 ADD SWAP1 SWAP3 SWAP2 SWAP1 DUP1 MLOAD SWAP1 PUSH1 0x20 ADD SWAP1 SWAP3 SWAP2 SWAP1 DUP1 MLOAD SWAP1 PUSH1 0x20 ADD SWAP1 SWAP3 SWAP2 SWAP1 DUP1 MLOAD SWAP1 PUSH1 0x20 ADD SWAP1 SWAP3 SWAP2 SWAP1 DUP1 MLOAD SWAP1 PUSH1 0x20 ADD SWAP1 SWAP3 SWAP2 SWAP1 DUP1 MLOAD SWAP1 PUSH1 0x20 ADD SWAP1 SWAP3 SWAP2 SWAP1 DUP1 MLOAD SWAP1 PUSH1 0x20 ADD SWAP1 SWAP3 SWAP2 SWAP1 DUP1 MLOAD SWAP1 PUSH1 0x20 ADD SWAP1 SWAP3 SWAP2 SWAP1 DUP1 MLOAD SWAP1 PUSH1 0x20 ADD SWAP1 SWAP3 SWAP2 SWAP1 POP POP POP SWAP1 SWAP2 SWAP3 SWAP4 SWAP5 SWAP6 SWAP7 SWAP8 SWAP9 POP SWAP1 SWAP2 SWAP3 SWAP4 SWAP5 SWAP6 SWAP7 SWAP8 POP SWAP1 SWAP2 SWAP3 SWAP4 SWAP5 SWAP6 SWAP7 POP SWAP1 SWAP2 SWAP3 SWAP4 SWAP5 SWAP6 POP SWAP1 SWAP2 SWAP3 SWAP4 SWAP5 POP SWAP1 SWAP2 SWAP3 SWAP4 POP SWAP1 SWAP2 SWAP3 POP SWAP1 SWAP2 POP SWAP1 POP DUP1 SWAP2 POP POP PUSH2 0x8EC DUP4 DUP3 PUSH1 0x40 MLOAD DUP1 PUSH1 0x40 ADD PUSH1 0x40 MSTORE DUP1 PUSH1 0x5 DUP2 MSTORE PUSH1 0x20 ADD PUSH32 0x6B69747479000000000000000000000000000000000000000000000000000000 DUP2 MSTORE POP PUSH2 0x121D JUMP JUMPDEST POP POP POP JUMP JUMPDEST PUSH1 0x4 DUP2 DUP2 SLOAD DUP2 LT PUSH2 0x8FE JUMPI INVALID JUMPDEST SWAP1 PUSH1 0x0 MSTORE PUSH1 0x20 PUSH1 0x0 KECCAK256 SWAP1 PUSH1 0x3 MUL ADD PUSH1 0x0 SWAP2 POP SWAP1 POP DUP1 PUSH1 0x0 ADD DUP1 SLOAD PUSH1 0x1 DUP2 PUSH1 0x1 AND ISZERO PUSH2 0x100 MUL SUB AND PUSH1 0x2 SWAP1 DIV DUP1 PUSH1 0x1F ADD PUSH1 0x20 DUP1 SWAP2 DIV MUL PUSH1 0x20 ADD PUSH1 0x40 MLOAD SWAP1 DUP2 ADD PUSH1 0x40 MSTORE DUP1 SWAP3 SWAP2 SWAP1 DUP2 DUP2 MSTORE PUSH1 0x20 ADD DUP3 DUP1 SLOAD PUSH1 0x1 DUP2 PUSH1 0x1 AND ISZERO PUSH2 0x100 MUL SUB AND PUSH1 0x2 SWAP1 DIV DUP1 ISZERO PUSH2 0x9AA JUMPI DUP1 PUSH1 0x1F LT PUSH2 0x97F JUMPI PUSH2 0x100 DUP1 DUP4 SLOAD DIV MUL DUP4 MSTORE SWAP2 PUSH1 0x20 ADD SWAP2 PUSH2 0x9AA JUMP JUMPDEST DUP3 ADD SWAP2 SWAP1 PUSH1 0x0 MSTORE PUSH1 0x20 PUSH1 0x0 KECCAK256 SWAP1 JUMPDEST DUP2 SLOAD DUP2 MSTORE SWAP1 PUSH1 0x1 ADD SWAP1 PUSH1 0x20 ADD DUP1 DUP4 GT PUSH2 0x98D JUMPI DUP3 SWAP1 SUB PUSH1 0x1F AND DUP3 ADD SWAP2 JUMPDEST POP POP POP POP POP SWAP1 DUP1 PUSH1 0x1 ADD SLOAD SWAP1 DUP1 PUSH1 0x2 ADD PUSH1 0x0 SWAP1 SLOAD SWAP1 PUSH2 0x100 EXP SWAP1 DIV PUSH4 0xFFFFFFFF AND SWAP1 DUP1 PUSH1 0x2 ADD PUSH1 0x4 SWAP1 SLOAD SWAP1 PUSH2 0x100 EXP SWAP1 DIV PUSH4 0xFFFFFFFF AND SWAP1 DUP1 PUSH1 0x2 ADD PUSH1 0x8 SWAP1 SLOAD SWAP1 PUSH2 0x100 EXP SWAP1 DIV PUSH2 0xFFFF AND SWAP1 DUP1 PUSH1 0x2 ADD PUSH1 0xA SWAP1 SLOAD SWAP1 PUSH2 0x100 EXP SWAP1 DIV PUSH2 0xFFFF AND SWAP1 POP DUP7 JUMP JUMPDEST PUSH2 0xA16 PUSH2 0xE73 JUMP JUMPDEST PUSH2 0xA1F JUMPI PUSH1 0x0 DUP1 REVERT JUMPDEST PUSH1 0x0 PUSH2 0xA29 PUSH2 0xE4A JUMP JUMPDEST SWAP1 POP DUP1 PUSH20 0xFFFFFFFFFFFFFFFFFFFFFFFFFFFFFFFFFFFFFFFF AND PUSH2 0x8FC SELFBALANCE SWAP1 DUP2 ISZERO MUL SWAP1 PUSH1 0x40 MLOAD PUSH1 0x0 PUSH1 0x40 MLOAD DUP1 DUP4 SUB DUP2 DUP6 DUP9 DUP9 CALL SWAP4 POP POP POP POP ISZERO DUP1 ISZERO PUSH2 0xA71 JUMPI RETURNDATASIZE PUSH1 0x0 DUP1 RETURNDATACOPY RETURNDATASIZE PUSH1 0x0 REVERT JUMPDEST POP POP JUMP JUMPDEST PUSH1 0x60 DUP1 PUSH1 0x6 PUSH1 0x0 DUP5 PUSH20 0xFFFFFFFFFFFFFFFFFFFFFFFFFFFFFFFFFFFFFFFF AND PUSH20 0xFFFFFFFFFFFFFFFFFFFFFFFFFFFFFFFFFFFFFFFF AND DUP2 MSTORE PUSH1 0x20 ADD SWAP1 DUP2 MSTORE PUSH1 0x20 ADD PUSH1 0x0 KECCAK256 SLOAD PUSH1 0x40 MLOAD SWAP1 DUP1 DUP3 MSTORE DUP1 PUSH1 0x20 MUL PUSH1 0x20 ADD DUP3 ADD PUSH1 0x40 MSTORE DUP1 ISZERO PUSH2 0xAE6 JUMPI DUP2 PUSH1 0x20 ADD PUSH1 0x20 DUP3 MUL DUP1 CODESIZE DUP4 CODECOPY DUP1 DUP3 ADD SWAP2 POP POP SWAP1 POP JUMPDEST POP SWAP1 POP PUSH1 0x0 DUP1 SWAP1 POP PUSH1 0x0 DUP1 SWAP1 POP JUMPDEST PUSH1 0x4 DUP1 SLOAD SWAP1 POP DUP2 LT ISZERO PUSH2 0xB97 JUMPI DUP5 PUSH20 0xFFFFFFFFFFFFFFFFFFFFFFFFFFFFFFFFFFFFFFFF AND PUSH1 0x5 PUSH1 0x0 DUP4 DUP2 MSTORE PUSH1 0x20 ADD SWAP1 DUP2 MSTORE PUSH1 0x20 ADD PUSH1 0x0 KECCAK256 PUSH1 0x0 SWAP1 SLOAD SWAP1 PUSH2 0x100 EXP SWAP1 DIV PUSH20 0xFFFFFFFFFFFFFFFFFFFFFFFFFFFFFFFFFFFFFFFF AND PUSH20 0xFFFFFFFFFFFFFFFFFFFFFFFFFFFFFFFFFFFFFFFF AND EQ ISZERO PUSH2 0xB8A JUMPI DUP1 DUP4 DUP4 DUP2 MLOAD DUP2 LT PUSH2 0xB75 JUMPI INVALID JUMPDEST PUSH1 0x20 MUL PUSH1 0x20 ADD ADD DUP2 DUP2 MSTORE POP POP DUP2 DUP1 PUSH1 0x1 ADD SWAP3 POP POP JUMPDEST DUP1 DUP1 PUSH1 0x1 ADD SWAP2 POP POP PUSH2 0xAF4 JUMP JUMPDEST POP DUP2 SWAP3 POP POP POP SWAP2 SWAP1 POP JUMP JUMPDEST PUSH1 0x5 PUSH1 0x20 MSTORE DUP1 PUSH1 0x0 MSTORE PUSH1 0x40 PUSH1 0x0 KECCAK256 PUSH1 0x0 SWAP2 POP SLOAD SWAP1 PUSH2 0x100 EXP SWAP1 DIV PUSH20 0xFFFFFFFFFFFFFFFFFFFFFFFFFFFFFFFFFFFFFFFF AND DUP2 JUMP JUMPDEST PUSH2 0xBDD PUSH2 0xE73 JUMP JUMPDEST PUSH2 0xBE6 JUMPI PUSH1 0x0 DUP1 REVERT JUMPDEST DUP1 PUSH1 0x7 PUSH1 0x0 PUSH2 0x100 EXP DUP2 SLOAD DUP2 PUSH20 0xFFFFFFFFFFFFFFFFFFFFFFFFFFFFFFFFFFFFFFFF MUL NOT AND SWAP1 DUP4 PUSH20 0xFFFFFFFFFFFFFFFFFFFFFFFFFFFFFFFFFFFFFFFF AND MUL OR SWAP1 SSTORE POP POP JUMP JUMPDEST PUSH1 0x14 DUP3 DUP2 PUSH1 0x4 DUP3 DUP2 SLOAD DUP2 LT PUSH2 0xC3B JUMPI INVALID JUMPDEST SWAP1 PUSH1 0x0 MSTORE PUSH1 0x20 PUSH1 0x0 KECCAK256 SWAP1 PUSH1 0x3 MUL ADD PUSH1 0x2 ADD PUSH1 0x0 SWAP1 SLOAD SWAP1 PUSH2 0x100 EXP SWAP1 DIV PUSH4 0xFFFFFFFF AND PUSH4 0xFFFFFFFF AND LT ISZERO PUSH2 0xC6E JUMPI PUSH1 0x0 DUP1 REVERT JUMPDEST DUP4 PUSH1 0x5 PUSH1 0x0 DUP3 DUP2 MSTORE PUSH1 0x20 ADD SWAP1 DUP2 MSTORE PUSH1 0x20 ADD PUSH1 0x0 KECCAK256 PUSH1 0x0 SWAP1 SLOAD SWAP1 PUSH2 0x100 EXP SWAP1 DIV PUSH20 0xFFFFFFFFFFFFFFFFFFFFFFFFFFFFFFFFFFFFFFFF AND PUSH20 0xFFFFFFFFFFFFFFFFFFFFFFFFFFFFFFFFFFFFFFFF AND CALLER PUSH20 0xFFFFFFFFFFFFFFFFFFFFFFFFFFFFFFFFFFFFFFFF AND EQ PUSH2 0xCDA JUMPI PUSH1 0x0 DUP1 REVERT JUMPDEST DUP4 PUSH1 0x4 DUP7 DUP2 SLOAD DUP2 LT PUSH2 0xCE8 JUMPI INVALID JUMPDEST SWAP1 PUSH1 0x0 MSTORE PUSH1 0x20 PUSH1 0x0 KECCAK256 SWAP1 PUSH1 0x3 MUL ADD PUSH1 0x1 ADD DUP2 SWAP1 SSTORE POP POP POP POP POP POP JUMP JUMPDEST PUSH2 0xD0C PUSH2 0xE73 JUMP JUMPDEST PUSH2 0xD15 JUMPI PUSH1 0x0 DUP1 REVERT JUMPDEST PUSH1 0x0 PUSH20 0xFFFFFFFFFFFFFFFFFFFFFFFFFFFFFFFFFFFFFFFF AND PUSH1 0x0 DUP1 SWAP1 SLOAD SWAP1 PUSH2 0x100 EXP SWAP1 DIV PUSH20 0xFFFFFFFFFFFFFFFFFFFFFFFFFFFFFFFFFFFFFFFF AND PUSH20 0xFFFFFFFFFFFFFFFFFFFFFFFFFFFFFFFFFFFFFFFF AND PUSH32 0x8BE0079C531659141344CD1FD0A4F28419497F9722A3DAAFE3B4186F6B6457E0 PUSH1 0x40 MLOAD PUSH1 0x40 MLOAD DUP1 SWAP2 SUB SWAP1 LOG3 PUSH1 0x0 DUP1 PUSH1 0x0 PUSH2 0x100 EXP DUP2 SLOAD DUP2 PUSH20 0xFFFFFFFFFFFFFFFFFFFFFFFFFFFFFFFFFFFFFFFF MUL NOT AND SWAP1 DUP4 PUSH20 0xFFFFFFFFFFFFFFFFFFFFFFFFFFFFFFFFFFFFFFFF AND MUL OR SWAP1 SSTORE POP JUMP JUMPDEST PUSH1 0x0 PUSH1 0x6 PUSH1 0x0 CALLER PUSH20 0xFFFFFFFFFFFFFFFFFFFFFFFFFFFFFFFFFFFFFFFF AND PUSH20 0xFFFFFFFFFFFFFFFFFFFFFFFFFFFFFFFFFFFFFFFF AND DUP2 MSTORE PUSH1 0x20 ADD SWAP1 DUP2 MSTORE PUSH1 0x20 ADD PUSH1 0x0 KECCAK256 SLOAD EQ PUSH2 0xE20 JUMPI PUSH1 0x0 DUP1 REVERT JUMPDEST PUSH1 0x0 PUSH2 0xE2B DUP3 PUSH2 0x13FF JUMP JUMPDEST SWAP1 POP PUSH1 0x64 DUP2 DUP2 PUSH2 0xE37 JUMPI INVALID JUMPDEST MOD DUP2 SUB SWAP1 POP PUSH2 0xE46 DUP3 DUP3 PUSH2 0x148D JUMP JUMPDEST POP POP JUMP JUMPDEST PUSH1 0x0 DUP1 PUSH1 0x0 SWAP1 SLOAD SWAP1 PUSH2 0x100 EXP SWAP1 DIV PUSH20 0xFFFFFFFFFFFFFFFFFFFFFFFFFFFFFFFFFFFFFFFF AND SWAP1 POP SWAP1 JUMP JUMPDEST PUSH1 0x0 DUP1 PUSH1 0x0 SWAP1 SLOAD SWAP1 PUSH2 0x100 EXP SWAP1 DIV PUSH20 0xFFFFFFFFFFFFFFFFFFFFFFFFFFFFFFFFFFFFFFFF AND PUSH20 0xFFFFFFFFFFFFFFFFFFFFFFFFFFFFFFFFFFFFFFFF AND CALLER PUSH20 0xFFFFFFFFFFFFFFFFFFFFFFFFFFFFFFFFFFFFFFFF AND EQ SWAP1 POP SWAP1 JUMP JUMPDEST PUSH1 0x2 DUP4 DUP2 PUSH1 0x4 DUP3 DUP2 SLOAD DUP2 LT PUSH2 0xEDB JUMPI INVALID JUMPDEST SWAP1 PUSH1 0x0 MSTORE PUSH1 0x20 PUSH1 0x0 KECCAK256 SWAP1 PUSH1 0x3 MUL ADD PUSH1 0x2 ADD PUSH1 0x0 SWAP1 SLOAD SWAP1 PUSH2 0x100 EXP SWAP1 DIV PUSH4 0xFFFFFFFF AND PUSH4 0xFFFFFFFF AND LT ISZERO PUSH2 0xF0E JUMPI PUSH1 0x0 DUP1 REVERT JUMPDEST DUP5 PUSH1 0x5 PUSH1 0x0 DUP3 DUP2 MSTORE PUSH1 0x20 ADD SWAP1 DUP2 MSTORE PUSH1 0x20 ADD PUSH1 0x0 KECCAK256 PUSH1 0x0 SWAP1 SLOAD SWAP1 PUSH2 0x100 EXP SWAP1 DIV PUSH20 0xFFFFFFFFFFFFFFFFFFFFFFFFFFFFFFFFFFFFFFFF AND PUSH20 0xFFFFFFFFFFFFFFFFFFFFFFFFFFFFFFFFFFFFFFFF AND CALLER PUSH20 0xFFFFFFFFFFFFFFFFFFFFFFFFFFFFFFFFFFFFFFFF AND EQ PUSH2 0xF7A JUMPI PUSH1 0x0 DUP1 REVERT JUMPDEST DUP5 DUP5 PUSH1 0x4 DUP9 DUP2 SLOAD DUP2 LT PUSH2 0xF89 JUMPI INVALID JUMPDEST SWAP1 PUSH1 0x0 MSTORE PUSH1 0x20 PUSH1 0x0 KECCAK256 SWAP1 PUSH1 0x3 MUL ADD PUSH1 0x0 ADD SWAP2 SWAP1 PUSH2 0xFA7 SWAP3 SWAP2 SWAP1 PUSH2 0x18F0 JUMP JUMPDEST POP POP POP POP POP POP POP JUMP JUMPDEST PUSH2 0xFB8 PUSH2 0xE73 JUMP JUMPDEST PUSH2 0xFC1 JUMPI PUSH1 0x0 DUP1 REVERT JUMPDEST DUP1 PUSH1 0x8 DUP2 SWAP1 SSTORE POP POP JUMP JUMPDEST DUP2 PUSH1 0x5 PUSH1 0x0 DUP3 DUP2 MSTORE PUSH1 0x20 ADD SWAP1 DUP2 MSTORE PUSH1 0x20 ADD PUSH1 0x0 KECCAK256 PUSH1 0x0 SWAP1 SLOAD SWAP1 PUSH2 0x100 EXP SWAP1 DIV PUSH20 0xFFFFFFFFFFFFFFFFFFFFFFFFFFFFFFFFFFFFFFFF AND PUSH20 0xFFFFFFFFFFFFFFFFFFFFFFFFFFFFFFFFFFFFFFFF AND CALLER PUSH20 0xFFFFFFFFFFFFFFFFFFFFFFFFFFFFFFFFFFFFFFFF AND EQ PUSH2 0x1037 JUMPI PUSH1 0x0 DUP1 REVERT JUMPDEST PUSH1 0x0 PUSH1 0x4 DUP5 DUP2 SLOAD DUP2 LT PUSH2 0x1046 JUMPI INVALID JUMPDEST SWAP1 PUSH1 0x0 MSTORE PUSH1 0x20 PUSH1 0x0 KECCAK256 SWAP1 PUSH1 0x3 MUL ADD SWAP1 POP PUSH1 0x0 PUSH1 0x4 DUP5 DUP2 SLOAD DUP2 LT PUSH2 0x1065 JUMPI INVALID JUMPDEST SWAP1 PUSH1 0x0 MSTORE PUSH1 0x20 PUSH1 0x0 KECCAK256 SWAP1 PUSH1 0x3 MUL ADD SWAP1 POP PUSH1 0x0 PUSH2 0x1081 PUSH1 0x64 PUSH2 0x1718 JUMP JUMPDEST SWAP1 POP PUSH1 0xA SLOAD DUP2 GT PUSH2 0x1180 JUMPI DUP3 PUSH1 0x2 ADD PUSH1 0x8 DUP2 DUP2 SWAP1 SLOAD SWAP1 PUSH2 0x100 EXP SWAP1 DIV PUSH2 0xFFFF AND DUP1 SWAP3 SWAP2 SWAP1 PUSH1 0x1 ADD SWAP2 SWAP1 PUSH2 0x100 EXP DUP2 SLOAD DUP2 PUSH2 0xFFFF MUL NOT AND SWAP1 DUP4 PUSH2 0xFFFF AND MUL OR SWAP1 SSTORE POP POP DUP3 PUSH1 0x2 ADD PUSH1 0x0 DUP2 DUP2 SWAP1 SLOAD SWAP1 PUSH2 0x100 EXP SWAP1 DIV PUSH4 0xFFFFFFFF AND DUP1 SWAP3 SWAP2 SWAP1 PUSH1 0x1 ADD SWAP2 SWAP1 PUSH2 0x100 EXP DUP2 SLOAD DUP2 PUSH4 0xFFFFFFFF MUL NOT AND SWAP1 DUP4 PUSH4 0xFFFFFFFF AND MUL OR SWAP1 SSTORE POP POP DUP2 PUSH1 0x2 ADD PUSH1 0xA DUP2 DUP2 SWAP1 SLOAD SWAP1 PUSH2 0x100 EXP SWAP1 DIV PUSH2 0xFFFF AND DUP1 SWAP3 SWAP2 SWAP1 PUSH1 0x1 ADD SWAP2 SWAP1 PUSH2 0x100 EXP DUP2 SLOAD DUP2 PUSH2 0xFFFF MUL NOT AND SWAP1 DUP4 PUSH2 0xFFFF AND MUL OR SWAP1 SSTORE POP POP PUSH2 0x117B DUP7 DUP4 PUSH1 0x1 ADD SLOAD PUSH1 0x40 MLOAD DUP1 PUSH1 0x40 ADD PUSH1 0x40 MSTORE DUP1 PUSH1 0x6 DUP2 MSTORE PUSH1 0x20 ADD PUSH32 0x7A6F6D6269650000000000000000000000000000000000000000000000000000 DUP2 MSTORE POP PUSH2 0x121D JUMP JUMPDEST PUSH2 0x11F8 JUMP JUMPDEST DUP3 PUSH1 0x2 ADD PUSH1 0xA DUP2 DUP2 SWAP1 SLOAD SWAP1 PUSH2 0x100 EXP SWAP1 DIV PUSH2 0xFFFF AND DUP1 SWAP3 SWAP2 SWAP1 PUSH1 0x1 ADD SWAP2 SWAP1 PUSH2 0x100 EXP DUP2 SLOAD DUP2 PUSH2 0xFFFF MUL NOT AND SWAP1 DUP4 PUSH2 0xFFFF AND MUL OR SWAP1 SSTORE POP POP DUP2 PUSH1 0x2 ADD PUSH1 0x8 DUP2 DUP2 SWAP1 SLOAD SWAP1 PUSH2 0x100 EXP SWAP1 DIV PUSH2 0xFFFF AND DUP1 SWAP3 SWAP2 SWAP1 PUSH1 0x1 ADD SWAP2 SWAP1 PUSH2 0x100 EXP DUP2 SLOAD DUP2 PUSH2 0xFFFF MUL NOT AND SWAP1 DUP4 PUSH2 0xFFFF AND MUL OR SWAP1 SSTORE POP POP PUSH2 0x11F7 DUP4 PUSH2 0x17A7 JUMP JUMPDEST JUMPDEST POP POP POP POP POP POP JUMP JUMPDEST PUSH2 0x1208 PUSH2 0xE73 JUMP JUMPDEST PUSH2 0x1211 JUMPI PUSH1 0x0 DUP1 REVERT JUMPDEST PUSH2 0x121A DUP2 PUSH2 0x17D1 JUMP JUMPDEST POP JUMP JUMPDEST DUP3 PUSH1 0x5 PUSH1 0x0 DUP3 DUP2 MSTORE PUSH1 0x20 ADD SWAP1 DUP2 MSTORE PUSH1 0x20 ADD PUSH1 0x0 KECCAK256 PUSH1 0x0 SWAP1 SLOAD SWAP1 PUSH2 0x100 EXP SWAP1 DIV PUSH20 0xFFFFFFFFFFFFFFFFFFFFFFFFFFFFFFFFFFFFFFFF AND PUSH20 0xFFFFFFFFFFFFFFFFFFFFFFFFFFFFFFFFFFFFFFFF AND CALLER PUSH20 0xFFFFFFFFFFFFFFFFFFFFFFFFFFFFFFFFFFFFFFFF AND EQ PUSH2 0x1289 JUMPI PUSH1 0x0 DUP1 REVERT JUMPDEST PUSH1 0x0 PUSH1 0x4 DUP6 DUP2 SLOAD DUP2 LT PUSH2 0x1298 JUMPI INVALID JUMPDEST SWAP1 PUSH1 0x0 MSTORE PUSH1 0x20 PUSH1 0x0 KECCAK256 SWAP1 PUSH1 0x3 MUL ADD SWAP1 POP PUSH2 0x12B1 DUP2 PUSH2 0x18C9 JUMP JUMPDEST PUSH2 0x12BA JUMPI PUSH1 0x0 DUP1 REVERT JUMPDEST PUSH1 0x2 SLOAD DUP5 DUP2 PUSH2 0x12C5 JUMPI INVALID JUMPDEST MOD SWAP4 POP PUSH1 0x0 PUSH1 0x2 DUP6 DUP4 PUSH1 0x1 ADD SLOAD ADD DUP2 PUSH2 0x12DA JUMPI INVALID JUMPDEST DIV SWAP1 POP PUSH1 0x40 MLOAD PUSH1 0x20 ADD DUP1 DUP1 PUSH32 0x6B69747479000000000000000000000000000000000000000000000000000000 DUP2 MSTORE POP PUSH1 0x5 ADD SWAP1 POP PUSH1 0x40 MLOAD PUSH1 0x20 DUP2 DUP4 SUB SUB DUP2 MSTORE SWAP1 PUSH1 0x40 MSTORE DUP1 MLOAD SWAP1 PUSH1 0x20 ADD KECCAK256 DUP5 PUSH1 0x40 MLOAD PUSH1 0x20 ADD DUP1 DUP3 DUP1 MLOAD SWAP1 PUSH1 0x20 ADD SWAP1 DUP1 DUP4 DUP4 JUMPDEST PUSH1 0x20 DUP4 LT PUSH2 0x135B JUMPI DUP1 MLOAD DUP3 MSTORE PUSH1 0x20 DUP3 ADD SWAP2 POP PUSH1 0x20 DUP2 ADD SWAP1 POP PUSH1 0x20 DUP4 SUB SWAP3 POP PUSH2 0x1338 JUMP JUMPDEST PUSH1 0x1 DUP4 PUSH1 0x20 SUB PUSH2 0x100 EXP SUB DUP1 NOT DUP3 MLOAD AND DUP2 DUP5 MLOAD AND DUP1 DUP3 OR DUP6 MSTORE POP POP POP POP POP POP SWAP1 POP ADD SWAP2 POP POP PUSH1 0x40 MLOAD PUSH1 0x20 DUP2 DUP4 SUB SUB DUP2 MSTORE SWAP1 PUSH1 0x40 MSTORE DUP1 MLOAD SWAP1 PUSH1 0x20 ADD KECCAK256 EQ ISZERO PUSH2 0x13AF JUMPI PUSH1 0x63 PUSH1 0x64 DUP3 DUP2 PUSH2 0x13A8 JUMPI INVALID JUMPDEST MOD DUP3 SUB ADD SWAP1 POP JUMPDEST PUSH2 0x13EE PUSH1 0x40 MLOAD DUP1 PUSH1 0x40 ADD PUSH1 0x40 MSTORE DUP1 PUSH1 0x6 DUP2 MSTORE PUSH1 0x20 ADD PUSH32 0x4E6F4E616D650000000000000000000000000000000000000000000000000000 DUP2 MSTORE POP DUP3 PUSH2 0x148D JUMP JUMPDEST PUSH2 0x13F7 DUP3 PUSH2 0x17A7 JUMP JUMPDEST POP POP POP POP POP POP JUMP JUMPDEST PUSH1 0x0 DUP1 DUP3 PUSH1 0x40 MLOAD PUSH1 0x20 ADD DUP1 DUP3 DUP1 MLOAD SWAP1 PUSH1 0x20 ADD SWAP1 DUP1 DUP4 DUP4 JUMPDEST PUSH1 0x20 DUP4 LT PUSH2 0x1439 JUMPI DUP1 MLOAD DUP3 MSTORE PUSH1 0x20 DUP3 ADD SWAP2 POP PUSH1 0x20 DUP2 ADD SWAP1 POP PUSH1 0x20 DUP4 SUB SWAP3 POP PUSH2 0x1416 JUMP JUMPDEST PUSH1 0x1 DUP4 PUSH1 0x20 SUB PUSH2 0x100 EXP SUB DUP1 NOT DUP3 MLOAD AND DUP2 DUP5 MLOAD AND DUP1 DUP3 OR DUP6 MSTORE POP POP POP POP POP POP SWAP1 POP ADD SWAP2 POP POP PUSH1 0x40 MLOAD PUSH1 0x20 DUP2 DUP4 SUB SUB DUP2 MSTORE SWAP1 PUSH1 0x40 MSTORE DUP1 MLOAD SWAP1 PUSH1 0x20 ADD KECCAK256 PUSH1 0x0 SHR SWAP1 POP PUSH1 0x2 SLOAD DUP2 DUP2 PUSH2 0x1484 JUMPI INVALID JUMPDEST MOD SWAP2 POP POP SWAP2 SWAP1 POP JUMP JUMPDEST PUSH1 0x0 PUSH1 0x1 PUSH1 0x4 PUSH1 0x40 MLOAD DUP1 PUSH1 0xC0 ADD PUSH1 0x40 MSTORE DUP1 DUP7 DUP2 MSTORE PUSH1 0x20 ADD DUP6 DUP2 MSTORE PUSH1 0x20 ADD PUSH1 0x1 PUSH4 0xFFFFFFFF AND DUP2 MSTORE PUSH1 0x20 ADD PUSH1 0x3 SLOAD TIMESTAMP ADD PUSH4 0xFFFFFFFF AND DUP2 MSTORE PUSH1 0x20 ADD PUSH1 0x0 PUSH2 0xFFFF AND DUP2 MSTORE PUSH1 0x20 ADD PUSH1 0x0 PUSH2 0xFFFF AND DUP2 MSTORE POP SWAP1 DUP1 PUSH1 0x1 DUP2 SLOAD ADD DUP1 DUP3 SSTORE DUP1 SWAP2 POP POP SWAP1 PUSH1 0x1 DUP3 SUB SWAP1 PUSH1 0x0 MSTORE PUSH1 0x20 PUSH1 0x0 KECCAK256 SWAP1 PUSH1 0x3 MUL ADD PUSH1 0x0 SWAP1 SWAP2 SWAP3 SWAP1 SWAP2 SWAP1 SWAP2 POP PUSH1 0x0 DUP3 ADD MLOAD DUP2 PUSH1 0x0 ADD SWAP1 DUP1 MLOAD SWAP1 PUSH1 0x20 ADD SWAP1 PUSH2 0x1522 SWAP3 SWAP2 SWAP1 PUSH2 0x1970 JUMP JUMPDEST POP PUSH1 0x20 DUP3 ADD MLOAD DUP2 PUSH1 0x1 ADD SSTORE PUSH1 0x40 DUP3 ADD MLOAD DUP2 PUSH1 0x2 ADD PUSH1 0x0 PUSH2 0x100 EXP DUP2 SLOAD DUP2 PUSH4 0xFFFFFFFF MUL NOT AND SWAP1 DUP4 PUSH4 0xFFFFFFFF AND MUL OR SWAP1 SSTORE POP PUSH1 0x60 DUP3 ADD MLOAD DUP2 PUSH1 0x2 ADD PUSH1 0x4 PUSH2 0x100 EXP DUP2 SLOAD DUP2 PUSH4 0xFFFFFFFF MUL NOT AND SWAP1 DUP4 PUSH4 0xFFFFFFFF AND MUL OR SWAP1 SSTORE POP PUSH1 0x80 DUP3 ADD MLOAD DUP2 PUSH1 0x2 ADD PUSH1 0x8 PUSH2 0x100 EXP DUP2 SLOAD DUP2 PUSH2 0xFFFF MUL NOT AND SWAP1 DUP4 PUSH2 0xFFFF AND MUL OR SWAP1 SSTORE POP PUSH1 0xA0 DUP3 ADD MLOAD DUP2 PUSH1 0x2 ADD PUSH1 0xA PUSH2 0x100 EXP DUP2 SLOAD DUP2 PUSH2 0xFFFF MUL NOT AND SWAP1 DUP4 PUSH2 0xFFFF AND MUL OR SWAP1 SSTORE POP POP POP SUB SWAP1 POP CALLER PUSH1 0x5 PUSH1 0x0 DUP4 DUP2 MSTORE PUSH1 0x20 ADD SWAP1 DUP2 MSTORE PUSH1 0x20 ADD PUSH1 0x0 KECCAK256 PUSH1 0x0 PUSH2 0x100 EXP DUP2 SLOAD DUP2 PUSH20 0xFFFFFFFFFFFFFFFFFFFFFFFFFFFFFFFFFFFFFFFF MUL NOT AND SWAP1 DUP4 PUSH20 0xFFFFFFFFFFFFFFFFFFFFFFFFFFFFFFFFFFFFFFFF AND MUL OR SWAP1 SSTORE POP PUSH1 0x6 PUSH1 0x0 CALLER PUSH20 0xFFFFFFFFFFFFFFFFFFFFFFFFFFFFFFFFFFFFFFFF AND PUSH20 0xFFFFFFFFFFFFFFFFFFFFFFFFFFFFFFFFFFFFFFFF AND DUP2 MSTORE PUSH1 0x20 ADD SWAP1 DUP2 MSTORE PUSH1 0x20 ADD PUSH1 0x0 KECCAK256 PUSH1 0x0 DUP2 SLOAD DUP1 SWAP3 SWAP2 SWAP1 PUSH1 0x1 ADD SWAP2 SWAP1 POP SSTORE POP PUSH32 0x88F026AACBBECC90C18411DF4B1185FD8D9BE2470F1962F192BF84A27D0704B7 DUP2 DUP5 DUP5 PUSH1 0x40 MLOAD DUP1 DUP5 DUP2 MSTORE PUSH1 0x20 ADD DUP1 PUSH1 0x20 ADD DUP4 DUP2 MSTORE PUSH1 0x20 ADD DUP3 DUP2 SUB DUP3 MSTORE DUP5 DUP2 DUP2 MLOAD DUP2 MSTORE PUSH1 0x20 ADD SWAP2 POP DUP1 MLOAD SWAP1 PUSH1 0x20 ADD SWAP1 DUP1 DUP4 DUP4 PUSH1 0x0 JUMPDEST DUP4 DUP2 LT ISZERO PUSH2 0x16D7 JUMPI DUP1 DUP3 ADD MLOAD DUP2 DUP5 ADD MSTORE PUSH1 0x20 DUP2 ADD SWAP1 POP PUSH2 0x16BC JUMP JUMPDEST POP POP POP POP SWAP1 POP SWAP1 DUP2 ADD SWAP1 PUSH1 0x1F AND DUP1 ISZERO PUSH2 0x1704 JUMPI DUP1 DUP3 SUB DUP1 MLOAD PUSH1 0x1 DUP4 PUSH1 0x20 SUB PUSH2 0x100 EXP SUB NOT AND DUP2 MSTORE PUSH1 0x20 ADD SWAP2 POP JUMPDEST POP SWAP5 POP POP POP POP POP PUSH1 0x40 MLOAD DUP1 SWAP2 SUB SWAP1 LOG1 POP POP POP JUMP JUMPDEST PUSH1 0x0 PUSH1 0x9 PUSH1 0x0 DUP2 SLOAD DUP1 SWAP3 SWAP2 SWAP1 PUSH1 0x1 ADD SWAP2 SWAP1 POP SSTORE POP DUP2 TIMESTAMP CALLER PUSH1 0x9 SLOAD PUSH1 0x40 MLOAD PUSH1 0x20 ADD DUP1 DUP5 DUP2 MSTORE PUSH1 0x20 ADD DUP4 PUSH20 0xFFFFFFFFFFFFFFFFFFFFFFFFFFFFFFFFFFFFFFFF AND PUSH20 0xFFFFFFFFFFFFFFFFFFFFFFFFFFFFFFFFFFFFFFFF AND PUSH1 0x60 SHL DUP2 MSTORE PUSH1 0x14 ADD DUP3 DUP2 MSTORE PUSH1 0x20 ADD SWAP4 POP POP POP POP PUSH1 0x40 MLOAD PUSH1 0x20 DUP2 DUP4 SUB SUB DUP2 MSTORE SWAP1 PUSH1 0x40 MSTORE DUP1 MLOAD SWAP1 PUSH1 0x20 ADD KECCAK256 PUSH1 0x0 SHR DUP2 PUSH2 0x179F JUMPI INVALID JUMPDEST MOD SWAP1 POP SWAP2 SWAP1 POP JUMP JUMPDEST PUSH1 0x3 SLOAD TIMESTAMP ADD DUP2 PUSH1 0x2 ADD PUSH1 0x4 PUSH2 0x100 EXP DUP2 SLOAD DUP2 PUSH4 0xFFFFFFFF MUL NOT AND SWAP1 DUP4 PUSH4 0xFFFFFFFF AND MUL OR SWAP1 SSTORE POP POP JUMP JUMPDEST PUSH1 0x0 PUSH20 0xFFFFFFFFFFFFFFFFFFFFFFFFFFFFFFFFFFFFFFFF AND DUP2 PUSH20 0xFFFFFFFFFFFFFFFFFFFFFFFFFFFFFFFFFFFFFFFF AND EQ ISZERO PUSH2 0x180B JUMPI PUSH1 0x0 DUP1 REVERT JUMPDEST DUP1 PUSH20 0xFFFFFFFFFFFFFFFFFFFFFFFFFFFFFFFFFFFFFFFF AND PUSH1 0x0 DUP1 SWAP1 SLOAD SWAP1 PUSH2 0x100 EXP SWAP1 DIV PUSH20 0xFFFFFFFFFFFFFFFFFFFFFFFFFFFFFFFFFFFFFFFF AND PUSH20 0xFFFFFFFFFFFFFFFFFFFFFFFFFFFFFFFFFFFFFFFF AND PUSH32 0x8BE0079C531659141344CD1FD0A4F28419497F9722A3DAAFE3B4186F6B6457E0 PUSH1 0x40 MLOAD PUSH1 0x40 MLOAD DUP1 SWAP2 SUB SWAP1 LOG3 DUP1 PUSH1 0x0 DUP1 PUSH2 0x100 EXP DUP2 SLOAD DUP2 PUSH20 0xFFFFFFFFFFFFFFFFFFFFFFFFFFFFFFFFFFFFFFFF MUL NOT AND SWAP1 DUP4 PUSH20 0xFFFFFFFFFFFFFFFFFFFFFFFFFFFFFFFFFFFFFFFF AND MUL OR SWAP1 SSTORE POP POP JUMP JUMPDEST PUSH1 0x0 TIMESTAMP DUP3 PUSH1 0x2 ADD PUSH1 0x4 SWAP1 SLOAD SWAP1 PUSH2 0x100 EXP SWAP1 DIV PUSH4 0xFFFFFFFF AND PUSH4 0xFFFFFFFF AND GT ISZERO SWAP1 POP SWAP2 SWAP1 POP JUMP JUMPDEST DUP3 DUP1 SLOAD PUSH1 0x1 DUP2 PUSH1 0x1 AND ISZERO PUSH2 0x100 MUL SUB AND PUSH1 0x2 SWAP1 DIV SWAP1 PUSH1 0x0 MSTORE PUSH1 0x20 PUSH1 0x0 KECCAK256 SWAP1 PUSH1 0x1F ADD PUSH1 0x20 SWAP1 DIV DUP2 ADD SWAP3 DUP3 PUSH1 0x1F LT PUSH2 0x1931 JUMPI DUP1 CALLDATALOAD PUSH1 0xFF NOT AND DUP4 DUP1 ADD OR DUP6 SSTORE PUSH2 0x195F JUMP JUMPDEST DUP3 DUP1 ADD PUSH1 0x1 ADD DUP6 SSTORE DUP3 ISZERO PUSH2 0x195F JUMPI SWAP2 DUP3 ADD JUMPDEST DUP3 DUP2 GT ISZERO PUSH2 0x195E JUMPI DUP3 CALLDATALOAD DUP3 SSTORE SWAP2 PUSH1 0x20 ADD SWAP2 SWAP1 PUSH1 0x1 ADD SWAP1 PUSH2 0x1943 JUMP JUMPDEST JUMPDEST POP SWAP1 POP PUSH2 0x196C SWAP2 SWAP1 PUSH2 0x19F0 JUMP JUMPDEST POP SWAP1 JUMP JUMPDEST DUP3 DUP1 SLOAD PUSH1 0x1 DUP2 PUSH1 0x1 AND ISZERO PUSH2 0x100 MUL SUB AND PUSH1 0x2 SWAP1 DIV SWAP1 PUSH1 0x0 MSTORE PUSH1 0x20 PUSH1 0x0 KECCAK256 SWAP1 PUSH1 0x1F ADD PUSH1 0x20 SWAP1 DIV DUP2 ADD SWAP3 DUP3 PUSH1 0x1F LT PUSH2 0x19B1 JUMPI DUP1 MLOAD PUSH1 0xFF NOT AND DUP4 DUP1 ADD OR DUP6 SSTORE PUSH2 0x19DF JUMP JUMPDEST DUP3 DUP1 ADD PUSH1 0x1 ADD DUP6 SSTORE DUP3 ISZERO PUSH2 0x19DF JUMPI SWAP2 DUP3 ADD JUMPDEST DUP3 DUP2 GT ISZERO PUSH2 0x19DE JUMPI DUP3 MLOAD DUP3 SSTORE SWAP2 PUSH1 0x20 ADD SWAP2 SWAP1 PUSH1 0x1 ADD SWAP1 PUSH2 0x19C3 JUMP JUMPDEST JUMPDEST POP SWAP1 POP PUSH2 0x19EC SWAP2 SWAP1 PUSH2 0x19F0 JUMP JUMPDEST POP SWAP1 JUMP JUMPDEST PUSH2 0x1A12 SWAP2 SWAP1 JUMPDEST DUP1 DUP3 GT ISZERO PUSH2 0x1A0E JUMPI PUSH1 0x0 DUP2 PUSH1 0x0 SWAP1 SSTORE POP PUSH1 0x1 ADD PUSH2 0x19F6 JUMP JUMPDEST POP SWAP1 JUMP JUMPDEST SWAP1 JUMP INVALID LOG2 PUSH6 0x627A7A723158 KECCAK256 PUSH2 0x9BF8 EXTCODECOPY 0xF7 PUSH18 0xD00EE8C361E40485551909F07C37218DB8F9 0xEE SWAP9 LOG0 DUP6 0xBD 0xE4 PUSH11 0x7E64736F6C634300051100 ORIGIN "
		},
		"gasEstimates": {
			"creation": {
				"codeDepositCost": "1346000",
				"executionCost": "130525",
				"totalCost": "1476525"
			},
			"external": {
				"attack(uint256,uint256)": "infinite",
				"changeDna(uint256,uint256)": "23985",
				"changeName(uint256,string)": "infinite",
				"createRandomZombie(string)": "infinite",
				"feedOnKitty(uint256,uint256)": "infinite",
				"getZombiesByOwner(address)": "infinite",
				"isOwner()": "1167",
				"levelUp(uint256)": "23676",
				"owner()": "1128",
				"renounceOwnership()": "24320",
				"setKittyContractAddress(address)": "22073",
				"setLevelUpFee(uint256)": "21191",
				"transferOwnership(address)": "24542",
				"withdraw()": "infinite",
				"zombieToOwner(uint256)": "1245",
				"zombies(uint256)": "infinite"
			},
			"internal": {
				"randMod(uint256)": "infinite"
			}
		},
		"methodIdentifiers": {
			"attack(uint256,uint256)": "e1fa7638",
			"changeDna(uint256,uint256)": "5faf2880",
			"changeName(uint256,string)": "c39cbef1",
			"createRandomZombie(string)": "7bff0a01",
			"feedOnKitty(uint256,uint256)": "17a7f4cc",
			"getZombiesByOwner(address)": "4412e104",
			"isOwner()": "8f32d59b",
			"levelUp(uint256)": "0ce90ec2",
			"owner()": "8da5cb5b",
			"renounceOwnership()": "715018a6",
			"setKittyContractAddress(address)": "5f4623f1",
			"setLevelUpFee(uint256)": "ccf670f8",
			"transferOwnership(address)": "f2fde38b",
			"withdraw()": "3ccfd60b",
			"zombieToOwner(uint256)": "528b7b8f",
			"zombies(uint256)": "2052465e"
		}
	},
	"abi": [
		{
			"anonymous": false,
			"inputs": [
				{
					"indexed": false,
					"internalType": "uint256",
					"name": "zombieId",
					"type": "uint256"
				},
				{
					"indexed": false,
					"internalType": "string",
					"name": "name",
					"type": "string"
				},
				{
					"indexed": false,
					"internalType": "uint256",
					"name": "dna",
					"type": "uint256"
				}
			],
			"name": "NewZombie",
			"type": "event"
		},
		{
			"anonymous": false,
			"inputs": [
				{
					"indexed": true,
					"internalType": "address",
					"name": "previousOwner",
					"type": "address"
				},
				{
					"indexed": true,
					"internalType": "address",
					"name": "newOwner",
					"type": "address"
				}
			],
			"name": "OwnershipTransferred",
			"type": "event"
		},
		{
			"constant": false,
			"inputs": [
				{
					"internalType": "uint256",
					"name": "_zombieId",
					"type": "uint256"
				},
				{
					"internalType": "uint256",
					"name": "_targetId",
					"type": "uint256"
				}
			],
			"name": "attack",
			"outputs": [],
			"payable": false,
			"stateMutability": "nonpayable",
			"type": "function"
		},
		{
			"constant": false,
			"inputs": [
				{
					"internalType": "uint256",
					"name": "_zombieId",
					"type": "uint256"
				},
				{
					"internalType": "uint256",
					"name": "_newDna",
					"type": "uint256"
				}
			],
			"name": "changeDna",
			"outputs": [],
			"payable": false,
			"stateMutability": "nonpayable",
			"type": "function"
		},
		{
			"constant": false,
			"inputs": [
				{
					"internalType": "uint256",
					"name": "_zombieId",
					"type": "uint256"
				},
				{
					"internalType": "string",
					"name": "_newName",
					"type": "string"
				}
			],
			"name": "changeName",
			"outputs": [],
			"payable": false,
			"stateMutability": "nonpayable",
			"type": "function"
		},
		{
			"constant": false,
			"inputs": [
				{
					"internalType": "string",
					"name": "_name",
					"type": "string"
				}
			],
			"name": "createRandomZombie",
			"outputs": [],
			"payable": false,
			"stateMutability": "nonpayable",
			"type": "function"
		},
		{
			"constant": false,
			"inputs": [
				{
					"internalType": "uint256",
					"name": "_zombieId",
					"type": "uint256"
				},
				{
					"internalType": "uint256",
					"name": "_kittyId",
					"type": "uint256"
				}
			],
			"name": "feedOnKitty",
			"outputs": [],
			"payable": false,
			"stateMutability": "nonpayable",
			"type": "function"
		},
		{
			"constant": true,
			"inputs": [
				{
					"internalType": "address",
					"name": "_owner",
					"type": "address"
				}
			],
			"name": "getZombiesByOwner",
			"outputs": [
				{
					"internalType": "uint256[]",
					"name": "",
					"type": "uint256[]"
				}
			],
			"payable": false,
			"stateMutability": "view",
			"type": "function"
		},
		{
			"constant": true,
			"inputs": [],
			"name": "isOwner",
			"outputs": [
				{
					"internalType": "bool",
					"name": "",
					"type": "bool"
				}
			],
			"payable": false,
			"stateMutability": "view",
			"type": "function"
		},
		{
			"constant": false,
			"inputs": [
				{
					"internalType": "uint256",
					"name": "_zombieId",
					"type": "uint256"
				}
			],
			"name": "levelUp",
			"outputs": [],
			"payable": true,
			"stateMutability": "payable",
			"type": "function"
		},
		{
			"constant": true,
			"inputs": [],
			"name": "owner",
			"outputs": [
				{
					"internalType": "address",
					"name": "",
					"type": "address"
				}
			],
			"payable": false,
			"stateMutability": "view",
			"type": "function"
		},
		{
			"constant": false,
			"inputs": [],
			"name": "renounceOwnership",
			"outputs": [],
			"payable": false,
			"stateMutability": "nonpayable",
			"type": "function"
		},
		{
			"constant": false,
			"inputs": [
				{
					"internalType": "address",
					"name": "_address",
					"type": "address"
				}
			],
			"name": "setKittyContractAddress",
			"outputs": [],
			"payable": false,
			"stateMutability": "nonpayable",
			"type": "function"
		},
		{
			"constant": false,
			"inputs": [
				{
					"internalType": "uint256",
					"name": "_fee",
					"type": "uint256"
				}
			],
			"name": "setLevelUpFee",
			"outputs": [],
			"payable": false,
			"stateMutability": "nonpayable",
			"type": "function"
		},
		{
			"constant": false,
			"inputs": [
				{
					"internalType": "address",
					"name": "newOwner",
					"type": "address"
				}
			],
			"name": "transferOwnership",
			"outputs": [],
			"payable": false,
			"stateMutability": "nonpayable",
			"type": "function"
		},
		{
			"constant": false,
			"inputs": [],
			"name": "withdraw",
			"outputs": [],
			"payable": false,
			"stateMutability": "nonpayable",
			"type": "function"
		},
		{
			"constant": true,
			"inputs": [
				{
					"internalType": "uint256",
					"name": "",
					"type": "uint256"
				}
			],
			"name": "zombieToOwner",
			"outputs": [
				{
					"internalType": "address",
					"name": "",
					"type": "address"
				}
			],
			"payable": false,
			"stateMutability": "view",
			"type": "function"
		},
		{
			"constant": true,
			"inputs": [
				{
					"internalType": "uint256",
					"name": "",
					"type": "uint256"
				}
			],
			"name": "zombies",
			"outputs": [
				{
					"internalType": "string",
					"name": "name",
					"type": "string"
				},
				{
					"internalType": "uint256",
					"name": "dna",
					"type": "uint256"
				},
				{
					"internalType": "uint32",
					"name": "level",
					"type": "uint32"
				},
				{
					"internalType": "uint32",
					"name": "readyTime",
					"type": "uint32"
				},
				{
					"internalType": "uint16",
					"name": "winCount",
					"type": "uint16"
				},
				{
					"internalType": "uint16",
					"name": "lossCount",
					"type": "uint16"
				}
			],
			"payable": false,
			"stateMutability": "view",
			"type": "function"
		}
	]
}